:020000040000FA
:0400000007EF00F016
:100008005F824CED0CF026EF0CF01250800B1F6E47
:1000180012501224266E11AE14EF00F016EF00F005
:1000280017EF00F026802650D8B41DEF00F01FEF20
:1000380000F034EF00F02628D8A425EF00F027EFD1
:1000480000F02FEF00F0000E0F6E000E106E000E85
:10005800116E000E126E118E000E126E3CEF00F043
:10006800000E0F6E000E106E000E116E000E126E56
:100078001650800B1F1A16501624276E15AE47EF20
:1000880000F049EF00F04AEF00F027802750D8B47D
:1000980050EF00F052EF00F067EF00F02728D8A4E7
:1000A80058EF00F05AEF00F062EF00F0000E136E08
:1000B800000E146E000E156E000E166E158E000ED4
:1000C800166E6FEF00F0000E136E000E146E000E29
:1000D800156E000E166E1350141015101610D8A4B5
:1000E80078EF00F07AEF00F092EF00F0000E0F6E5C
:1000F800000E106E000E116E000E126E800E1112A0
:100108007F0E12121F5012120FC00FF010C010F005
:1001180011C011F012C012F0D5EF01F02650D8A48A
:1001280098EF00F09AEF00F0A4EF00F0000E0F6EC9
:10013800000E106E000E116E000E126ED5EF01F05B
:10014800275026C017F0186A175E000E185A7F0E3F
:100158001724206E000E1820216E0FC01BF010C04F
:100168001CF011C01DF012C01EF0000E0F6E000E24
:10017800106E000E116E000E126E000E226E000E32
:10018800236E000E246E000E256E000E276E05EFFE
:1001980001F02750D8B4D3EF00F0D5EF00F0ECEF22
:1001A80000F0D8901B361C361D361E36D8900F36F8
:1001B80010361136123625AEE4EF00F0E6EF00F007
:1001C800E7EF00F00F80D890223623362436253604
:1001D80013501B5C14501C5815501D5816501E58AF
:1001E800D8A0F9EF00F0FBEF00F004EF01F0258C48
:1001F80013501B5E14501C5A15501D5A16501E5A87
:10020800272A190E27640BEF01F00DEF01F0CDEF4F
:1002180000F01B501C101D101E10D8B416EF01F072
:1002280018EF01F030EF01F0228030EF01F0D890A4
:100238000F3610361136123625AE25EF01F027EFAE
:1002480001F028EF01F00F80D890223623362436AB
:1002580025362006D8A0210611AE35EF01F037EF7C
:1002680001F01BEF01F0000E276E25AE3EEF01F006
:1002780040EF01F064EF01F0FF0E2214176EFF0E3D
:100288002314186EFF0E2414196E7F0E25141A6E8F
:100298001750181019101A10D8B455EF01F057EF6D
:1002A80001F05BEF01F0010E276E64EF01F00FA083
:1002B80060EF01F062EF01F064EF01F057EF01F039
:1002C8002750D8B46AEF01F06CEF01F090EF01F01D
:1002D800010E0F26000E10221122122212A077EF13
:1002E80001F079EF01F090EF01F00FC017F010C0A6
:1002F80018F011C019F012C01AF01A341A32193253
:100308001832173217C00FF018C010F019C011F0CA
:100318001AC012F0204A212A21BE9BEF01F0215079
:1003280008E12028D8A09BEF01F09DEF01F0A8EF8D
:1003380001F0000E216E2068000E0F6E000E106E88
:10034800000E116E000E126E21BEB5EF01F02150A5
:1003580006E12004D8B0B3EF01F0B5EF01F0C3EF28
:1003680001F0000E216E000E206E000E0F6E000EC2
:10037800106E000E116E000E126E000E1F6E20C061
:1003880026F026A0CAEF01F0CCEF01F0CFEF01F084
:10039800118ED0EF01F0119ED8902630126E86EFA4
:1003A80000F01200720ED36E800E0F6E250E106EC6
:1003B800000E116E000E126E47EC0AF0959095949F
:1003C8009592959683808380949294948292000E5D
:1003D8003F6EA40E016E7F0E026E000E046E110EAB
:1003E800036EB6EC0AF0F10E016E7C0E026E000E82
:1003F800046E2A0E036EB6EC0AF03F50D8A407EF3D
:1004080002F009EF02F015EF02F0200E016E7F0EE8
:10041800026E000E046E180E036EB6EC0AF0010EA2
:100428003F6E9FEC0CF0406E3EEF03F0810E016EC4
:10043800000E026E070E1DEC0BF0510E016E7F0EC2
:10044800026E000E046E160E036EB6EC0AF0810EF4
:10045800176E000E186E5D0E196E000E1A6EECEC1B
:100468000AF0810E176E000E186E5B0E196E000EE4
:100478001A6E7FEC0AF05DC009F05EC00AF071ECFC
:100488000BF05BC009F05CC00AF071EC0BF0530490
:10049800D8A451EF02F053EF02F057EF02F0000E2C
:1004A800536E01EF02F05DC038F05EC039F05BC0FA
:1004B8003AF05CC03BF04050CFEC09F001EF02F09D
:1004C800810E016E000E026E070E1DEC0BF0510E30
:1004D800016E7F0E026E000E046E160E036EB6ECF1
:1004E8000AF0810E176E000E186E5D0E196E000E62
:1004F8001A6EECEC0AF0810E176E000E186E5B0E89
:10050800196E000E1A6E7FEC0AF05DC009F05EC02D
:100518000AF071EC0BF05BC009F05CC00AF071ECFA
:100528000BF05304D8A49BEF02F09DEF02F09FEF6D
:1005380002F053EF02F05DC038F05EC039F05BC0E6
:100548003AF05CC03BF04050CFEC09F001EF02F00C
:10055800510E016E7F0E026E000E046E160E036EB3
:10056800B6EC0AF0C8EC0BF001EF02F0510E016E88
:100578007F0E026E000E046E160E036EB6EC0AF0C5
:1005880089EC0CF001EF02F0510E016E7F0E026E45
:10059800000E046E160E036EB6EC0AF07DEC0CF03D
:1005A80001EF02F0390E016E7F0E026E000E046E2E
:1005B800170E036EB6EC0AF09FEC0CF0546E545014
:1005C80069EC03F0546E5D0E176E000E186E5450F1
:1005D80002EC09F05B0E176E000E186E5450B6EC64
:1005E80008F0590E176E000E186E54506AEC08F099
:1005F8005304D8A402EF03F004EF03F010EF03F064
:100608001C0E016E7D0E026E000E046E290E036E26
:10061800B6EC0AF053EF02F05DC038F05EC039F076
:100628005BC03AF05CC03BF04050CFEC09F001EF02
:1006380002F09FEC0CF0546E760E016E000E026E06
:100648000B0E1DEC0BF0390E016E7F0E026E000EC4
:10065800046E170E036EB6EC0AF0545069EC03F002
:10066800546E760E096E000E0A6E54503AEC06F07F
:1006780001EF02F040503D6E3E6A3E50000AD8B489
:1006880048EF03F001EF02F03D50460AD8B41AEFE4
:1006980002F00E0AD8B4BAEF02F0050AD8B41DEF7A
:1006A80003F0020AD8B4D6EF02F01D0AD8B4C8EF96
:1006B80002F0010AD8B464EF02F0070AD8B4ACEF2C
:1006C80002F001EF02F007EF00F00B6E4CEF04F0C0
:1006D800000E0B6E120E016E7E0E026E000E046E80
:1006E8001A0E036EB6EC0AF099EF04F0100E0B6EBA
:1006F8002D0E016E7E0E026E000E046E190E036E34
:10070800B6EC0AF099EF04F0200E0B6E480E016E5D
:100718007E0E026E000E046E1A0E036EB6EC0AF020
:1007280099EF04F0300E0B6E630E016E7E0E026EB2
:10073800000E046E1A0E036EB6EC0AF099EF04F080
:10074800400E0B6E7E0E016E7E0E026E000E046E63
:100758001A0E036EB6EC0AF099EF04F0500E0B6E09
:10076800990E016E7E0E026E000E046E1A0E036E56
:10077800B6EC0AF099EF04F0600E0B6EB40E016E41
:100788007E0E026E000E046E1A0E036EB6EC0AF0B0
:1007980099EF04F0700E0B6ECF0E016E7E0E026E96
:1007A800000E046E1A0E036EB6EC0AF099EF04F010
:1007B800800E0B6EEA0E016E7E0E026E000E046E47
:1007C8001A0E036EB6EC0AF099EF04F0900E0B6E59
:1007D800050E016E7F0E026E000E046E1A0E036E79
:1007E800B6EC0AF099EF04F0A00E0B6E6A0E016EDB
:1007F8007D0E026E000E046E1B0E036EB6EC0AF040
:1008080099EF04F0B00E0B6E860E016E7D0E026E2F
:10081800000E046E1B0E036EB6EC0AF099EF04F09E
:10082800C00E0B6EA20E016E7D0E026E000E046EDF
:100838001B0E036EB6EC0AF099EF04F0D00E0B6EA7
:10084800BE0E016E7D0E026E000E046E1B0E036E50
:10085800B6EC0AF099EF04F0E00E0B6EDA0E016EBA
:100868007D0E026E000E046E1B0E036EB6EC0AF0CF
:1008780099EF04F0F00E0B6EF60E016E7D0E026E0F
:10088800000E046E1B0E036EB6EC0AF099EF04F02E
:100898000B50096E0A6A0A50000AD8B456EF04F0E1
:1008A80099EF04F00950300AD8B46CEF03F0010A4C
:1008B800D8B47AEF03F0030AD8B488EF03F0010A3A
:1008C800D8B496EF03F0070AD8B4A4EF03F0010AEE
:1008D800D8B4B2EF03F0030AD8B4C0EF03F0010AAA
:1008E800D8B4CEEF03F00F0AD8B4DCEF03F0010A56
:1008F800D8B4EAEF03F0780AD8B4F8EF03F0030AA3
:10090800D8B406EF04F0010AD8B414EF04F0070ACB
:10091800D8B422EF04F0010AD8B430EF04F0030A87
:10092800D8B43EEF04F099EF04F00B501200096EB2
:100938000950D8B4A2EF04F0A4EF04F0C6EF04F015
:1009480004BEABEF04F0A9EF04F0C6EF04F001C059
:1009580005F002C006F003C007F004C008F0051E49
:10096800061E071E081E052A000E06220722082258
:1009780005C00BF006C00CF007C00DF008C00EF063
:10098800CEEF04F001C00BF002C00CF003C00DF074
:1009980004C00EF00150021003100410D8A4D7EFC1
:1009A80004F0D9EF04F0E3EF04F0000E016E000E3E
:1009B800026E000E036E000E046E74EF05F0960EC4
:1009C8000A6EEDEF04F00A2AD8900E320D320C327E
:1009D8000B32000E0B14056E000E0C14066E000E82
:1009E8000D14076EFE0E0E14086E05500610071043
:1009F8000810D8A402EF05F004EF05F0E7EF04F0C3
:100A080012EF05F00A2A010E0B26000E0C220D2209
:100A18000E22D8900E320D320C320B32000E0B140F
:100A2800056E000E0C14066E000E0D14076EFF0EF8
:100A38000E14086E0550061007100810D8A427EFEA
:100A480005F029EF05F006EF05F031EF05F00A068D
:100A5800D8900B360C360D360E360DBE36EF05F037
:100A680038EF05F040EF05F0020E0A603EEF05F0A2
:100A780040EF05F02BEF05F00AB045EF05F047EF22
:100A880005F048EF05F00D9ED8900A320AC005F02F
:100A9800066A076A086A05C008F0076A066A056AEE
:100AA80005500B1206500C1207500D1208500E126A
:100AB8000950D8B462EF05F064EF05F06CEF05F06B
:100AC80004BE6BEF05F069EF05F06CEF05F00E8ED4
:100AD8000BC001F00CC002F00DC003F00EC004F012
:100AE8001200000E166E000E156E000E0F6E000E30
:100AF8000E6E81EF05F0084A092A010E146E08C02F
:100B0800D9FF09C0DAFF200EDE18D8B48EEF05F041
:100B180090EF05F0ACEF05F0F70E0A6EFF0E0B6EC6
:100B280008C0D9FF09C0DAFFDF500C6E0D6A0A5001
:100B38000C260B500D220D5009E1050E0C5CD8A0B7
:100B4800A8EF05F0AAEF05F0ACEF05F0000E146E63
:100B580014C010F0116A10501110D8A4B6EF05F0A7
:100B6800B8EF05F07FEF05F0C2EF05F0000E0F6E4D
:100B7800010E0E6E084A092AF7EF05F008C0D9FFE2
:100B880009C0DAFFDF500A6E0B6A0B50000AD8B4AE
:100B9800D0EF05F0F7EF05F00A502B0AD8B4BEEFF6
:100BA80005F0060AD8B4BAEF05F0F7EF05F015C05E
:100BB80001F016C002F0000E046E0A0E036E39EC46
:100BC8000CF008C0D9FF09C0DAFFDF500A6E0A50DE
:100BD800015E000E025A300E0124156E000E02202E
:100BE800166EBEEF05F0D00E0A6EFF0E0B6E08C033
:100BF800D9FF09C0DAFFDF500C6E0D6A0A500C26C7
:100C08000B500D220D500AE10A0E0C5CD8A00FEF14
:100C180006F012EF06F0010E13EF06F0000E126E4A
:100C2800136A12501310D8A41CEF06F01EEF06F03A
:100C3800DBEF05F00E500F10D8A425EF06F027EFD4
:100C480006F035EF06F015C00AF016C00BF00A1EC4
:100C58000B1E0A4A0B2A0AC008F00BC009F039EF2C
:100C680006F015C008F016C009F012000D6E000E4F
:100C7800106E000E0F6E0D500F240E6E0F500924CB
:100C8800D96E10500A20DA6EDF50016E0E50AFECAC
:100C98000BF00F4A102A10BE5BEF06F0105009E166
:100CA800030E0F5CD8A05BEF06F05DEF06F03FEF98
:100CB80006F0680E016E7F0E026E000E046E130EB3
:100CC800036EB6EC0AF0000E126E000E116E0D5097
:100CD8001124030F0E6E115009240B6E12500A20B6
:100CE8000C6E040E0B24D96E000E0C20DA6EDF5049
:100CF800016E0E50AFEC0BF0114A122A12BE8EEFA5
:100D080006F0125009E1030E115CD8A08EEF06F030
:100D180090EF06F06BEF06F07C0E016E7F0E026E10
:100D2800000E046E130E036EB6EC0AF0000E146E7D
:100D3800000E136E0D501324060F0E6E1350092467
:100D48000B6E14500A200C6E080E0B24D96E000E80
:100D58000C20DA6EDF50016E0E50AFEC0BF0134A28
:100D6800142A14BEC1EF06F0145009E1030E135CF7
:100D7800D8A0C1EF06F0C3EF06F09EEF06F0900E84
:100D8800016E7F0E026E000E046E130E036EB6EC3B
:100D98000AF01200086E530E0818D8A4D6EF06F011
:100DA800D8EF06F0DCEF06F06EEC0CF0DEEF06F0A4
:100DB8005EEC0CF083908394000E0A6E000E096EB0
:100DC800000E0C6E000E0B6ECA8439EF07F003504C
:100DD800095C0A50800A076E0450800A0758D8B088
:100DE800F8EF06F0FAEF06F011EF07F082A4FFEF34
:100DF80006F001EF07F00DEF07F009C001F00AC097
:100E080002F0F9EC0BF001C009F002C00AF012EF91
:100E180007F0000E586E12EF07F0838005500B5C48
:100E28000C50800A076E0650800A0758D8B01FEF8A
:100E380007F021EF07F038EF07F082A226EF07F05E
:100E480028EF07F034EF07F00BC001F00CC002F0F8
:100E5800E1EC0BF001C00BF002C00CF039EF07F029
:100E6800000E576E39EF07F083840350095C0A506F
:100E7800800A076E0450800A0758D8A046EF07F08A
:100E880048EF07F0EBEF06F005500B5C0C50800ABA
:100E9800076E0650800A0758D8A055EF07F057EF9D
:100EA80007F0EBEF06F0000E586E000E0C6E000E09
:100EB8000B6E000E576ECA941200000E0A6E08BE22
:100EC8006AEF07F068EF07F074EF07F0081E071ED7
:100ED800061E056C000E062207220822010E0A6E65
:100EE80004BE7BEF07F079EF07F085EF07F0041EEB
:100EF800031E021E016C000E022203220422010EB0
:100F08000A1A000E0B6E000E0C6E000E0D6E000E0F
:100F18000E6E0550061007100810D8B496EF07F0AB
:100F280098EF07F0CEEF07F0010E096EA2EF07F079
:100F3800D8900536063607360836092A08AEA7EFD0
:100F480007F0A9EF07F09CEF07F0D8900B360C36A6
:100F58000D360E360550015C0650025807500358EE
:100F680008500458D8A0BBEF07F0BDEF07F0C6EF54
:100F780007F00550015E0650025A0750035A085000
:100F8800045A0B80D8900832073206320532092EEF
:100F9800A9EF07F00A50D8B4D4EF07F0D6EF07F05E
:100FA800DEEF07F00E1E0D1E0C1E0B6C000E0C2241
:100FB8000D220E220BC001F00CC002F00DC003F090
:100FC8000EC004F012002A342B34316E3150D8A4EC
:100FD800F0EF07F0F2EF07F0FCEF07F0000E286ED5
:100FE800000E296E000E2A6E000E2B6E69EF08F0B7
:100FF80028C02CF029C02DF02AC02EF02BC02FF0CD
:10100800200E0CEF08F0D8902F322E322D322C32D1
:10101800E82E07EF08F02C50306E2A8EFF0E2816A7
:10102800FF0E2916FF0E2A16000E2B16960E315E9D
:1010380031BE23EF08F021EF08F039EF08F0315006
:10104800800A970FD8B02BEF08F02DEF08F02FEF9C
:1010580008F0F2EF07F0D8902B322A3229322832E2
:10106800313E2FEF08F051EF08F01F0E31643FEFCB
:1010780008F041EF08F049EF08F0F2EF07F0D890D8
:10108800283629362A362B3631063150D8A44FEF68
:1010980008F051EF08F043EF08F03050D8B457EF9C
:1010A80008F059EF08F061EF08F02B1E2A1E291EE0
:1010B800286C000E29222A222B2228C028F029C0B9
:1010C80029F02AC02AF02BC02BF01200196E000E4E
:1010D8001F6E000E1E6E19501E24060F1A6E1B0E70
:1010E8001E24D96E000E1F20DA6E1A5095EC0CF0F3
:1010F800DF6E1E4A1F2A1FBE8BEF08F01F5009E142
:10110800030E1E5CD8A08BEF08F08DEF08F06FEF90
:1011180008F01B0E086E000E096E75EC05F017C07E
:10112800D9FF18C0DAFF08C0DEFF09C0DDFFC50E11
:10113800016E7F0E026E000E046E0E0E036EB6EC8C
:101148000AF01B0E016E000E026E000E046E030EF6
:10115800036EB6EC0AF059C009F05AC00AF071ECF7
:101168000BF01200196E000E1F6E000E1E6E195045
:101178001E24030F1A6E1B0E1E24D96E000E1F208C
:10118800DA6E1A5095EC0CF0DF6E1E4A1F2A1FBE4D
:10119800D7EF08F01F5009E1030E1E5CD8A0D7EF67
:1011A80008F0D9EF08F0BBEF08F01B0E086E000E30
:1011B800096E75EC05F017C0D9FF18C0DAFF08C032
:1011C800DEFF09C0DDFFB60E016E7F0E026E000E57
:1011D800046E0E0E036EB6EC0AF01B0E016E000EC6
:1011E800026E000E046E030E036EB6EC0AF05BC0CE
:1011F80009F05CC00AF071EC0BF01200196E000ED9
:101208001F6E000E1E6E19501E241A6E1B0E1E2411
:10121800D96E000E1F20DA6E1A5095EC0CF0DF6EB6
:101228001E4A1F2A1FBE22EF09F01F5009E1030EB4
:101238001E5CD8A022EF09F024EF09F007EF09F0AF
:101248001B0E086E000E096E75EC05F017C0D9FF6D
:1012580018C0DAFF08C0DEFF09C0DDFFD40E016E3A
:101268007F0E026E000E046E0D0E036EB6EC0AF0D1
:101278001B0E016E000E026E000E046E030E036E4E
:10128800B6EC0AF05DC009F05EC00AF071EC0BF034
:1012980012004150015C0250800A036E4250800ADD
:1012A8000358D8B05AEF09F05CEF09F065EF09F080
:1012B80083960150415C456E02504258466E8DEF50
:1012C80009F00150415C4250800A036E0250800AC6
:1012D8000358D8B072EF09F074EF09F07DEF09F008
:1012E80083864150015C456E42500258466E8DEF30
:1012F80009F04150011807E142500218D8A487EFBD
:1013080009F089EF09F08DEF09F0000E466E000E26
:10131800456E12004350015C0250800A036E44502F
:10132800800A0358D8B09BEF09F09DEF09F0A6EFAB
:1013380009F083920150435C476E02504458486E4E
:10134800CEEF09F00150435C4450800A036E02500E
:10135800800A0358D8B0B3EF09F0B5EF09F0BEEF33
:1013680009F083824350015C476E44500258486E2E
:10137800CEEF09F04350011807E144500218D8A4F1
:10138800C8EF09F0CAEF09F0CEEF09F0000E486E79
:10139800000E476E12003C6E38C001F039C002F0F2
:1013A8008EEC09F03AC001F03BC002F04DEC09F0B8
:1013B80047C032F048C033F00EEC0AF032C04BF0B0
:1013C80033C04CF045C032F046C033F00EEC0AF0A2
:1013D80032C049F033C04AF038C043F039C044F055
:1013E8003AC041F03BC042F04BC003F04CC004F09F
:1013F80049C005F04AC006F03C50CEEC06F0E20EBB
:10140800016E7F0E026E000E046E0A0E036EB6ECBD
:101418000AF01200CD0E346ECC0E356E4C0E366EC0
:101428003E0E376E34C013F035C014F036C015F0D8
:1014380037C016F032C001F033C002F0000E02BE11
:10144800FF0E036E046E010E9BEC04F001C00FF05A
:1014580002C010F003C011F004C012F009EC00F053
:101468000FC028F010C029F011C02AF012C02BF0CC
:10147800E7EC07F028C04DF029C04EF04DC032F01F
:101488004EC033F01200949C948E0FC005F010C02B
:1014980006F011C007F012C008F0000E016E120E1F
:1014A800026E7A0E036E000E046E61EC07F001C046
:1014B80013F002C014F003C015F004C016F013C0F6
:1014C80001F014C002F015C003F016C004F0400E7D
:1014D800056E000E066E000E076E000E086E61ECBB
:1014E80007F00104AF6EAC94AC98AB8EAC9CAC8AA0
:1014F800AB9CAB881200000E216E000E206E2050AF
:1015080017241B6E215018201C6E040E1B24D96E44
:10151800000E1C20DA6E1D0E2024E16E000E212024
:10152800E26EDFCFE7FF204A212A21BEA5EF0AF0AD
:10153800215009E1030E205CD8A0A5EF0AF0A7EF1F
:101548000AF083EF0AF01D0E086E000E096E75ECA6
:1015580005F019C0D9FF1AC0DAFF08C0DEFF09C0BC
:10156800DDFF1200000E086E000E076EDCEF0AF0B9
:101578009EA8C1EF0AF0C3EF0AF0BCEF0AF00750CB
:101588000124056E08500220066E05C0F6FF06C04D
:10159800F7FFF86A070EF76403D00800F55005D086
:1015A800F6CFE9FFF7CFEAFFEF50AD6E074A082AFA
:1015B8000350075C0850800A056E0450800A0558DD
:1015C800D8A0E9EF0AF0EBEF0AF0BCEF0AF012003E
:1015D800000E1F6E000E1E6E1E501724D96E1F506F
:1015E8001820DA6E1B0E1E24E16E000E1F20E26E1C
:1015F800DFCFE7FF1E4A1F2A1FBE0CEF0BF01F505C
:1016080009E1030E1E5CD8A00CEF0BF00EEF0BF0F7
:10161800F0EF0AF01B0E086E000E096E75EC05F06F
:1016280019C0D9FF1AC0DAFF08C0DEFF09C0DDFF04
:101638001200066E000E086E000E076E35EF0BF0F6
:101648009EAA29EF0BF02BEF0BF024EF0BF00750BD
:101658000124D96E08500220DA6EAECFDFFF074AA8
:10166800082A0650036E046A0350075C0850800A73
:10167800056E0450800A0558D8A045EF0BF047EFD7
:101688000BF024EF0BF01200010E076E200E01186C
:101698000210D8B452EF0BF054EF0BF06DEF0BF0D3
:1016A800F70E036EFF0E046E01C005F002C006F0CF
:1016B8000350052604500622065009E1050E055C74
:1016C800D8A069EF0BF06BEF0BF06DEF0BF0000E8D
:1016D800076E07C001F0026A12000ABE7FEF0BF026
:1016E8002D0E095C010E0A58D8B07DEF0BF07FEF84
:1016F8000BF086EF0BF00ABE86EF0BF084EF0BF0D1
:1017080092EF0BF0460E016E7D0E026E000E046E17
:10171800230E036EB6EC0AF0010E536E1200D00EC3
:10172800036EFF0E046E01C005F002C006F0035000
:1017380005260450062206500AE10A0E055CD8A0C8
:10174800A8EF0BF0ABEF0BF0010EACEF0BF0000EB7
:10175800016E026A1200026E02C0A9FF01C0A8FF52
:10176800A69EA69CA684F29E550EA76EAA0EA76EEC
:10177800A682F28EA1A8C3EF0BF0C5EF0BF0BEEF67
:101788000BF0A198A69412008B80020E0A6E040E2C
:10179800096EBA0EE82EFED7092EFCD70A2EFAD704
:1017A80000D08B90F70E016E7F0E026E000E046E55
:1017B800060E036EB6EC0AF0120082A2E6EF0BF0FA
:1017C800E8EF0BF0F4EF0BF05750D8A4EEEF0BF066
:1017D800F0EF0BF0F4EF0BF0014A022A010E576EFE
:1017E80001C001F002C002F0120082A4FEEF0BF06B
:1017F80000EF0CF00CEF0CF05850D8A406EF0CF0EA
:1018080008EF0CF00CEF0CF0014A022A010E586E9A
:1018180001C001F002C002F0120081B416EF0CF012
:1018280018EF0CF025EF0CF05150D8A41EEF0CF077
:1018380020EF0CF025EF0CF000016E4B6F2B010E22
:10184800516E120000EE60F0280EEE6AE806FDE127
:1018580000EE41F01E0EEE6AE806FDE15F905F9231
:10186800000EF86E0001D6EF01F001500302F3CF2D
:1018780005F0F4CF06F001500402F350062602509A
:101888000302F350062605C001F006C002F012005C
:101898000600838281B453EF0CF055EF0CF058EF3B
:1018A8000CF011EC0CF0F092000E516E8392F09255
:1018B8005F9211007C0ECB6E3E0EBE6E3E0EBB6E6E
:1018C80094929494030ECA6E0C0EBD6E0C0EBA6EF2
:1018D800CA941200CB683E0EBE6E3E0EBB6E94924A
:1018E8009494030ECA6E0C0EBD6E0C0EBA6ECA949A
:1018F80012008B90ED0E016E7F0E026E000E046ECC
:10190800090E036EB6EC0AF012008B80ED0E016E24
:101918007F0E026E000E046E090E036EB6EC0AF01E
:101928001200016E01C0A9FFA69EA69CA680A8CFA2
:1019380052F0525012009EAAA4EF0CF0A6EF0CF041
:081948009FEF0CF0AE501200FD
:107C74000000000000DCCFD1350000000000C0157A
:107C84003F6042A20D70A5EC363BAAB83F4F387650
:107C94003F3CAA38338CBEBF350072313F18723175
:107CA4003F4CBB31330EEADDB555B38A38610B3630
:107CB400BBABAA2A3E42F1533E55326C3E05A38B20
:107CC4003EABAAAA3EB76DDB3E9A99193F6042A229
:107CD4000DCAF249710000804B0000803F0000C0D3
:107CE4003F00AAB83FC623F6B80040763F504C4543
:107CF40041534520494E5345525420544845204948
:107D04004E535452554354494F4E204F46205345E9
:107D140054504F494E540A00504C45415345204D50
:107D24004F444946592054484520534554504F49DF
:107D34004E5420414E442054525920414741494E0B
:107D44000A004552524F5220434F5244494E415427
:107D54004553204F555453494445205448452052D7
:107D6400414E47450A00434F4F5244494E41544502
:107D7400204F4620534554504F494E542031303AF9
:107D84000A00434F4F5244494E415445204F462028
:107D9400534554504F494E542031313A0A00434F11
:107DA4004F5244494E415445204F46205345545068
:107DB4004F494E542031323A0A00434F4F524449FE
:107DC4004E415445204F4620534554504F494E543C
:107DD4002031333A0A00434F4F5244494E415445EF
:107DE400204F4620534554504F494E542031343A85
:107DF4000A00434F4F5244494E415445204F4620B8
:107E0400534554504F494E542031353A0A00434F9C
:107E14004F5244494E415445204F462053455450F7
:107E24004F494E5420303A0A00434F4F5244494E72
:107E3400415445204F4620534554504F494E5420F9
:107E4400313A0A00434F4F5244494E415445204F62
:107E54004620534554504F494E5420323A0A004369
:107E64004F4F5244494E415445204F4620534554A8
:107E7400504F494E5420333A0A00434F4F5244491D
:107E84004E415445204F4620534554504F494E547B
:107E940020343A0A00434F4F5244494E415445203E
:107EA4004F4620534554504F494E5420353A0A000A
:107EB400434F4F5244494E415445204F4620534569
:107EC40054504F494E5420363A0A00434F4F5244BF
:107ED400494E415445204F4620534554504F494E36
:107EE4005420373A0A00434F4F5244494E415445B7
:107EF400204F4620534554504F494E5420383A0A97
:107F040000434F4F5244494E415445204F4620535D
:107F14004554504F494E5420393A0A005741495468
:107F2400494E4720464F5220494E535452554354CC
:107F3400494F4E0A005741495420554E54494C204C
:107F4400434F4D504C4554452E2E2E0A005741495F
:107F54005420554E54494C20434F4D504C455445A4
:107F64002E2E2E00434F4F5244494E415445205823
:107F74002053415645440A00434F4F5244494E4111
:107F8400544520592053415645440A00434F4F520B
:107F940044494E415445205A2053415645440A0011
:107FA40057454C434F4D4520544F20535041524365
:107FB4000A000A434F4F5244494E41544520593A0E
:107FC400000A434F4F5244494E415445205A3A0007
:107FD400434F4F5244494E41544520583A00434F71
:107FE4004D504C455445440A00434F4D504C455464
:0B7FF400450A00544F5543480A0000A6
:020000040020DA
:08000000FFFFFFFFFFFFFFFF00
:020000040030CA
:0E00000000081F1EFF8181FF0FC00FE00F40A0
:00000001FF
