:020000040000FA
:0400000007EF00F016
:0A0008005F8217ED36F080EF39F04B
:100800000000000000DCCFD1350000000000C01562
:100810003F6042A20D70A5EC363BAAB83F4F387638
:100820003F3CAA38338CBEBF350072313F1872315D
:100830003F4CBB31330EEADDB555B38A38610B3618
:10084000BBABAA2A3E42F1533E55326C3E05A38B08
:100850003EABAAAA3EB76DDB3E9A99193F6042A211
:100860000DCAF249710000804B0000803F0000C0BB
:100870003F00AAB83FC623F6B80040763F57454C24
:10088000434F4D4520544F2053504152430A00439B
:1008900058530A004359530A00435A530A0043303D
:1008A0000A0043310A0045310A0043320A0045324A
:1008B0000A0043330A0043340A0043350A00433632
:1008C0000A0043370A0043380A0043390A0043410B
:1008D0000A0043420A0043430A0043440A004345D6
:1008E0000A0043460A00520A00570A0043580043D0
:1008F0005900435A00460000DCC0B8F1DDC0B9F130
:10090000DEC0BAF1DFC0BBF1B8C160F1B9C161F1BD
:10091000BAC162F1BBC163F1E0C0B8F1E1C0B9F1A5
:10092000E2C0BAF1E3C0BBF1B8C184F1B9C185F14D
:10093000BAC186F1BBC187F1FF0E01016015A86F36
:10094000FF0E6115A96FFF0E6215AA6F7F0E63156A
:10095000AB6FFF0E8415986FFF0E8515996FFF0E14
:1009600086159A6F7F0E87159B6F985199119A1172
:100970009B11D8A4BEEF04F0C0EF04F0CBEF04F05D
:10098000000E0001DC6F000EDD6F800EDE6F3F0E8B
:10099000DF6FAFEF19F0800E621909E13F0E6319A6
:1009A00060116111D8A4D7EF04F0D9EF04F0E4EF9F
:1009B00004F0000E0001DC6F000EDD6F800EDE6FB4
:1009C0003F0EDF6FAFEF19F0ABBFF5EF04F0A805F6
:1009D000000EA959800EAA597F0EAB59D8B0F3EF7B
:1009E00004F0F5EF04F006EF05F09BBF04EF05F00F
:1009F0009805000E9959800E9A597F0E9B59D8A0E0
:100A000004EF05F006EF05F022EF05F0DCC087F0FB
:100A1000DDC088F0DEC089F0DFC08AF0E0C08BF076
:100A2000E1C08CF0E2C08DF0E3C08EF078EC1CF0F9
:100A300087C0DCF088C0DDF089C0DEF08AC0DFF05E
:100A4000AFEF19F0000E506F000E516F000E526F95
:100A5000000E536F63BF31EF05F02FEF05F0FDEF90
:100A600005F09BBF3DEF05F0800E9A5D4B0E9B5944
:100A7000D8A03DEF05F03FEF05F049EF05F0020E7D
:100A8000506F000E516F000E526F000E536FFDEF4E
:100A900005F09BBF55EF05F0800E9A5D3F0E9B5908
:100AA000D8A055EF05F057EF05F0FDEF05F0170E54
:100AB0000001E46F98C1E5F099C1E6F09AC1E7F052
:100AC0009BC1E8F0E46767EF05F06FEF05F0E835EC
:100AD000E833E733E633E533E42F62EF05F0810EC8
:100AE0000001E5250101A06FFF0E0001E6210101D3
:100AF000A16FFF0E0001E7210101A26FFF0E0001AF
:100B0000E8210101A36FA05117080001E46F98C10B
:100B1000E5F099C1E6F09AC1E7F09BC1E8F0E4671F
:100B200094EF05F09CEF05F0E835E833E733E63362
:100B3000E533E42F8FEF05F0E5C0ACF1E6C0ADF191
:100B4000E7C0AEF1E8C0AFF10101A0511708000104
:100B5000E46FACC1E5F0ADC1E6F0AEC1E7F0AFC106
:100B6000E8F0E42BB9EF05F0D890E537E637E73742
:100B7000E837E42FB4EF05F0010198510001E519C1
:100B800013E1010199510001E6190EE101019A51A9
:100B90000001E71909E101019B510001E819D8A4FE
:100BA000D4EF05F0D6EF05F0FDEF05F0010E0101E1
:100BB000AC150001E46F000E0101AD150001E56FF9
:100BC000000E0101AE150001E66F000E0101AF1528
:100BD0000001E76FE45102080101506F000E0001AF
:100BE000E5550101516F000E0001E6550101526FFC
:100BF000000E0001E7550101536F800E01019A19A3
:100C000009E17F0E9B1998119911D8A40AEF06F0FB
:100C10000CEF06F078EF06F0800EAA1909E13F0EFE
:100C2000AB19A811A911D8A418EF06F01AEF06F015
:100C300025EF06F0000E0001DC6F000EDD6F800E68
:100C4000DE6F3F0EDF6FAFEF19F0ABBF34EF06F092
:100C5000A805000EA959800EAA593F0EAB59D8A07D
:100C600034EF06F036EF06F052EF06F087BF3DEFA7
:100C700006F03BEF06F048EF06F0000E0001DC6FD7
:100C8000000EDD6F000EDE6F000EDF6FAFEF19F0AC
:100C9000E0C0DCF0E1C0DDF0E2C0DEF0E3C0DFF098
:100CA000AFEF19F087BF59EF06F057EF06F06DEF81
:100CB00006F0E0C060F0E1C061F0E2C062F0E3C0C5
:100CC00063F096EC38F060C0DCF061C0DDF062C02B
:100CD000DEF063C0DFF0AFEF19F0000E0001DC6F53
:100CE000000EDD6F000EDE6F000EDF6FAFEF19F04C
:100CF000800E9A1909E13F0E9B1998119911D8A4F9
:100D000084EF06F086EF06F0B4EF06F087BF8DEFB4
:100D100006F08BEF06F0AAEF06F0000E00019F6FC1
:100D2000000EA06F800EA16F3F0EA26FDCC0A3F07B
:100D3000DDC0A4F0DEC0A5F0DFC0A6F04FEC23F0CC
:100D40009FC0DCF0A0C0DDF0A1C0DEF0A2C0DFF0EB
:100D5000AFEF19F0DCC0DCF0DDC0DDF0DEC0DEF0AE
:100D6000DFC0DFF0AFEF19F0400E87198411851155
:100D70008611D8A4BEEF06F0C0EF06F0DCEF06F057
:100D8000DCC06EF0DDC06FF0DEC070F0DFC071F06F
:100D9000DCC072F0DDC073F0DEC074F0DFC075F04F
:100DA00039EC21F06EC0DCF06FC0DDF070C0DEF019
:100DB00071C0DFF0AFEF19F03F0E87198411851174
:100DC0008611D8A4E6EF06F0E8EF06F003EF07F08F
:100DD00063BFEDEF06F0EFEF06F003EF07F0DCC0C6
:100DE000ABF0DDC0ACF0DEC0ADF0DFC0AEF0D9ECF2
:100DF0001EF0ABC0DCF0ACC0DDF0ADC0DEF0AEC0CC
:100E0000DFF0AFEF19F0DCC060F0DDC061F0DEC0F4
:100E100062F0DFC063F0CFEC38F060C070F161C009
:100E200071F162C072F163C073F1800E0101AA1901
:100E30000BE17F0EAB19A811A911D8B422EF07F06E
:100E400024EF07F03DEF07F0A851A911AA11AB114B
:100E5000D8B42DEF07F02FEF07F03DEF07F0800E2D
:100E6000AA1909E13F0EAB19A811A911D8A43BEFAB
:100E700007F03DEF07F009EF08F070C1B4F171C160
:100E8000B5F172C1B6F173C1B7F187BF4CEF07F08E
:100E90004AEF07F067EF07F0000E00019F6F000EAA
:100EA000A06F800EA16F3F0EA26FB4C1A3F0B5C1B9
:100EB000A4F0B6C1A5F0B7C1A6F04FEC23F09FC0D7
:100EC000B4F1A0C0B5F1A1C0B6F1A2C0B7F1010163
:100ED00063BF6FEF07F06DEF07F0FFEF07F0000E55
:100EE000A8250001E46F000E0101A9210001E56FB2
:100EF000800E0101AA210001E66FC00E0101AB21A5
:100F00000001E76F010150510001E411E86F010198
:100F100051510001E511E96F010152510001E61143
:100F2000EA6F010153510001E711EB6FE851E9113C
:100F3000EA11EB11D8A49FEF07F0A1EF07F0E1EF62
:100F400007F0B4C19BF0B5C19CF0B6C19DF0B7C12C
:100F50009EF0B4C197F0B5C198F0B6C199F0B7C191
:100F60009AF083EC37F097C09FF098C0A0F099C03A
:100F7000A1F09AC0A2F0B4C19BF0B5C19CF0B6C17B
:100F80009DF0B7C19EF0B4C197F0B5C198F0B6C15D
:100F900099F0B7C19AF083EC37F097C0A3F098C0EE
:100FA000A4F099C0A5F09AC0A6F04FEC23F09FC022
:100FB000B4F1A0C0B5F1A1C0B6F1A2C0B7F1FFEF86
:100FC00007F001015005511152115311D8A4EBEF54
:100FD00007F0EDEF07F0FFEF07F0B4C160F0B5C127
:100FE00061F0B6C162F0B7C163F096EC38F060C052
:100FF000B4F161C0B5F162C0B6F163C0B7F1B4C17C
:10100000DCF0B5C1DDF0B6C1DEF0B7C1DFF0AFEFA7
:1010100019F0000E886F000E896F800E8A6F3F0EE8
:101020008B6F63BF18EF08F016EF08F076EF08F04B
:101030005051511152115311D8A421EF08F023EF50
:1010400008F063EF08F0DCC09BF0DDC09CF0DEC070
:101050009DF0DFC09EF0DCC097F0DDC098F0DEC0F0
:1010600099F0DFC09AF083EC37F097C09FF098C0FA
:10107000A0F099C0A1F09AC0A2F0DCC09BF0DDC046
:101080009CF0DEC09DF0DFC09EF0DCC097F0DDC0BC
:1010900098F0DEC099F0DFC09AF083EC37F097C08B
:1010A000A3F098C0A4F099C0A5F09AC0A6F04FECA8
:1010B00023F09FC0DCF0A0C0DDF0A1C0DEF0A2C034
:1010C000DFF0AFEF19F05005511152115311D8A4B0
:1010D0006CEF08F06EEF08F076EF08F0000E886F06
:1010E000000E896F800E8A6FBF0E8B6F9BBF85EFDE
:1010F00008F09805000E9959000E9A594D0E9B590B
:10110000D8A085EF08F087EF08F01BEF0BF0ABBF1E
:1011100099EF08F0F80EA85DFF0EA9597F0EAA59A5
:101120003F0EAB59D8B097EF08F099EF08F010EFE9
:1011300009F087BF9EEF08F0A0EF08F0D8EF08F0A5
:10114000600E0001726F420E736FA20E746F0D0E6F
:10115000756F88C16EF089C16FF08AC170F08BC164
:1011600071F039EC21F06EC0A4F16FC0A5F170C030
:10117000A6F171C0A7F1A4C16EF0A5C16FF0A6C120
:1011800070F0A7C171F0600E0001726F420E736FB4
:10119000A20E746F0D0E756F39EC21F06EC0DCF08D
:1011A0006FC0DDF070C0DEF071C0DFF0AFEF19F09E
:1011B000CA0E0001726FF20E736F490E746F710EDA
:1011C000756F88C16EF089C16FF08AC170F08BC1F4
:1011D00071F039EC21F06EC0A4F16FC0A5F170C0C0
:1011E000A6F171C0A7F1A4C16EF0A5C16FF0A6C1B0
:1011F00070F0A7C171F0CA0E0001726FF20E736F2A
:10120000490E746F710E756F39EC21F06EC0DCF011
:101210006FC0DDF070C0DEF071C0DFF0AFEF19F02D
:10122000ABBF20EF09F0080EA85D000EA959800E93
:10123000AA593F0EAB59D8A020EF09F022EF09F0D0
:10124000A1EF09F087BF31EF09F0875186118511B1
:1012500006E18405D8B02FEF09F031EF09F069EF0E
:1012600009F0600E0001726F420E736FA20E746F70
:101270000D0E756F88C16EF089C16FF08AC170F074
:101280008BC171F039EC21F06EC0A4F16FC0A5F1F3
:1012900070C0A6F171C0A7F1A4C16EF0A5C16FF036
:1012A000A6C170F0A7C171F0600E0001726F420E0E
:1012B000736FA20E746F0D0E756F39EC21F06EC056
:1012C000DCF06FC0DDF070C0DEF071C0DFF0AFEFBA
:1012D00019F0CA0E0001726FF20E736F490E746F2F
:1012E000710E756F88C16EF089C16FF08AC170F0A0
:1012F0008BC171F039EC21F06EC0A4F16FC0A5F183
:1013000070C0A6F171C0A7F1A4C16EF0A5C16FF0C5
:10131000A6C170F0A7C171F0CA0E0001726FF20E83
:10132000736F490E746F710E756F39EC21F06EC0DA
:10133000DCF06FC0DDF070C0DEF071C0DFF0AFEF49
:1013400019F070C187F071C188F072C189F073C162
:101350008AF0000E00018B6F000E8C6F800E8D6F77
:10136000BF0E8E6F78EC1CF087C0B0F188C0B1F171
:1013700089C0B2F18AC0B3F1000E0001726F000E95
:10138000736F800E746F3E0E756FB0C16EF0B1C199
:101390006FF0B2C170F0B3C171F039EC21F06EC0E2
:1013A0009BF06FC09CF070C09DF071C09EF0AB0EC2
:1013B0000001976FAA0E986FAA0E996F3E0E9A6F52
:1013C00083EC37F097C0A4F198C0A5F199C0A6F1BD
:1013D0009AC0A7F1B0C172F0B1C173F0B2C174F09C
:1013E000B3C175F0B0C16EF0B1C16FF0B2C170F0B1
:1013F000B3C171F039EC21F06EC054F16FC055F1FA
:1014000070C056F171C057F1B0C172F0B1C173F044
:10141000B2C174F0B3C175F0A4C16EF0A5C16FF094
:10142000A6C170F0A7C171F039EC21F06EC09BF03D
:101430006FC09CF070C09DF071C09EF0000E000166
:10144000976F000E986F000E996F3F0E9A6F83ECA6
:1014500037F097C048F198C049F199C04AF19AC055
:101460004BF154C16EF055C16FF056C170F057C1C9
:1014700071F048C172F049C173F04AC174F04BC1B8
:1014800075F039EC21F06EC044F16FC045F170C0C9
:1014900046F171C047F1B0C16EF0B1C16FF0B2C199
:1014A00070F0B3C171F0000E0001726FAA0E736F7D
:1014B000B80E746F3F0E756F39EC21F06EC074F189
:1014C0006FC075F170C076F171C077F1700E0001D8
:1014D000726FA50E736FEC0E746F360E756FB0C120
:1014E0006EF0B1C16FF0B2C170F0B3C171F039EC00
:1014F00021F06EC097F06FC098F070C099F071C085
:101500009AF03B0E0001726FAA0E736FB80E746FE3
:101510003F0E756F44C16EF045C16FF046C170F06B
:1015200047C171F039EC21F06EC09BF06FC09CF0A8
:1015300070C09DF071C09EF083EC37F097C078F1D9
:1015400098C079F199C07AF19AC07BF174C187F0A3
:1015500075C188F076C189F077C18AF078C18BF0C7
:1015600079C18CF07AC18DF07BC18EF078EC1CF0E3
:1015700087C080F188C081F189C082F18AC083F17F
:1015800080C1B8F181C1B9F182C1BAF183C1BBF1A7
:10159000B8C190F1B9C191F1BAC192F1BBC193F157
:1015A000000E01019015B86FF00E9115B96FFF0E86
:1015B0009215BA6FFF0E9315BB6FB8C180F1B9C118
:1015C00081F1BAC182F1BBC183F174C19BF075C1D5
:1015D0009CF076C19DF077C19EF080C197F081C1EB
:1015E00098F082C199F083C19AF083EC37F097C0EC
:1015F00094F198C095F199C096F19AC097F178C18D
:1016000097F079C198F07AC199F07BC19AF094C1B2
:101610009BF095C19CF096C19DF097C19EF083EC24
:1016200037F097C01CF198C01DF199C01EF19AC007
:101630001FF194EF12F0000E7C6F000E7D6F000E14
:101640007E6F000E7F6FABBF31EF0BF0AB5107E148
:10165000800EAA5DD8B02FEF0BF031EF0BF065EFE5
:101660000BF070C16EF071C16FF072C170F073C198
:1016700071F0000E0001726F000E736F800E746FB8
:101680004B0E756F39EC21F06EC070F16FC071F1C7
:1016900070C072F171C073F1E80E01017C27FF0E7A
:1016A0007D23FF0E7E23FF0E7F2370C1B8F171C131
:1016B000B9F172C1BAF173C1BBF1B8C1A8F1B9C136
:1016C000A9F1BAC1AAF1BBC1ABF1170E0001E46FD9
:1016D000A8C1E5F0A9C1E6F0AAC1E7F0ABC1E8F006
:1016E000E46775EF0BF07DEF0BF0E835E833E73397
:1016F000E633E533E42F70EF0BF0810E0001E525B2
:10170000E96FFF0EE621EA6FFF0EE721EB6FFF0E98
:10171000E821EC6FE95101017C270001EA51010148
:101720007D230001EB5101017E230001EC510101F9
:101730007F23FF0EA815AC6FFF0EA915AD6F7F0EAE
:10174000AA15AE6F000EAB15AF6F000EAC11A86FEF
:10175000000EAD11A96F800EAE11AA6F3F0EAF1132
:10176000AB6FAFBFC3EF0BF0AF510BE1720EAC5DCF
:10177000C40EAD591C0EAE59D8B0C1EF0BF0C3EF7B
:101780000BF0CDEF0BF0000EA06F000EA16F000E5E
:10179000A26F000EA36FFFEF0BF0AFBFDFEF0BF0F8
:1017A000AF510BE1D70EAC5DB30EAD595D0EAE5926
:1017B000D8B0DDEF0BF0DFEF0BF0E9EF0BF0010E2F
:1017C000A06F000EA16F000EA26F000EA36FFFEFBF
:1017D0000BF0000EA06F000EA16F000EA26F000EA6
:1017E000A36F010E7C27000E7D237E237F23000E36
:1017F000A827000EA923800EAA23FF0EAB23A8C1A1
:10180000B8F1A9C1B9F1AAC1BAF1ABC1BBF1B8C174
:1018100070F1B9C171F1BAC172F1BBC173F170C19C
:1018200097F071C198F072C199F073C19AF0A0C19C
:10183000E4F0A1C1E5F00001D890E437E537D89095
:10184000E437E537690EE425F66E080EE521F76EFC
:101850000900F5CF9BF00900F5CF9CF00900F5CF0A
:101860009DF00A00F5CF9EF083EC37F097C074F13D
:1018700098C075F199C076F19AC077F1000E000119
:101880009F6F000EA06F800EA16F3F0EA26F70C100
:101890008BF071C18CF072C18DF073C18EF0A0C15C
:1018A000E4F0A1C1E5F0D890E437E537D890E4370B
:1018B000E537690EE425F66E080EE521F76E09009E
:1018C000F5CF87F00900F5CF88F00900F5CF89F052
:1018D0000A00F5CF8AF078EC1CF087C0A3F088C02E
:1018E000A4F089C0A5F08AC0A6F04FEC23F09FC0F9
:1018F00078F1A0C079F1A1C07AF1A2C07BF174C1E6
:101900006EF075C16FF076C170F077C171F078C17B
:1019100072F079C173F07AC174F07BC175F039EC63
:1019200021F06EC05CF16FC05DF170C05EF171C0FE
:101930005FF15CC16CF15DC16DF15EC16EF15FC1C3
:101940006FF16CC1B8F16DC1B9F16EC1BAF16FC17F
:10195000BBF1B8C190F1B9C191F1BAC192F1BBC16B
:1019600093F1000E01019015B86FF00E9115B96F4B
:10197000FF0E9215BA6FFF0E9315BB6FB8C16CF1D5
:10198000B9C16DF1BAC16EF1BBC16FF1A8C1E4F08C
:10199000A9C1E5F0AAC1E6F0ABC1E7F00001E73567
:1019A000E733E633E533E433000EE415E86FF00E79
:1019B000E515E96FFF0EE615EA6FFF0EE715EB6F11
:1019C000000EE8110101906F000E0001E911010104
:1019D000916F000E0001EA110101926F200E0001CB
:1019E000EB110101936FA0C1E4F0A1C1E5F0A2C128
:1019F000E6F0A3C1E7F0150ED8900001E437E53713
:101A0000E637E737E82EFCEF0CF0010190510001BA
:101A1000E425E86F010191510001E521E96F010121
:101A200092510001E621EA6F010193510001E72183
:101A3000EB6F000EE8250101B86F000E0001E921EF
:101A40000101B96F400E0001EA210101BA6F000ED9
:101A50000001EB210101BB6FB8C168F1B9C169F1A7
:101A6000BAC16AF1BBC16BF1A0C1E4F0A1C1E5F05C
:101A70000001D890E437E537D890E437E537690EB0
:101A8000E425F66E080EE521F76E0900F5CF9BF010
:101A90000900F5CF9CF00900F5CF9DF00A00F5CFC5
:101AA0009EF068C197F069C198F06AC199F06BC166
:101AB0009AF083EC37F097C094F198C095F199C0F3
:101AC00096F19AC097F170C197F071C198F072C108
:101AD00099F073C19AF094C19BF095C19CF096C1A6
:101AE0009DF097C19EF083EC37F097C034F198C019
:101AF00035F199C036F19AC037F168C172F069C109
:101B000073F06AC174F06BC175F06CC16EF06DC199
:101B10006FF06EC170F06FC171F039EC21F06EC0E2
:101B20009BF06FC09CF070C09DF071C09EF074C1BE
:101B300097F075C198F076C199F077C19AF083EC6F
:101B400037F097C094F198C095F199C096F19AC07A
:101B500097F134C172F035C173F036C174F037C1FA
:101B600075F06CC16EF06DC16FF06EC170F06FC139
:101B700071F039EC21F06EC09BF06FC09CF070C02A
:101B80009DF071C09EF094C197F095C198F096C1F8
:101B900099F097C19AF083EC37F097C054F198C050
:101BA00055F199C056F19AC057F154C16EF055C124
:101BB0006FF056C170F057C171F078C172F079C101
:101BC00073F07AC174F07BC175F039EC21F06EC00E
:101BD00030F16FC031F170C032F171C033F15CC1CE
:101BE0006EF05DC16FF05EC170F05FC171F05CC1FD
:101BF00072F05DC173F05EC174F05FC175F039ECD5
:101C000021F06EC08CF16FC08DF170C08EF171C08B
:101C10008FF1550E00018B6F320E8C6F6C0E8D6F35
:101C20003E0E8E6F420E726FF10E736F530E746F15
:101C30003E0E756F8CC16EF08DC16FF08EC170F06D
:101C40008FC171F039EC21F06EC087F06FC088F061
:101C500070C089F071C08AF078EC1CF087C0A4F1E4
:101C600088C0A5F189C0A6F18AC0A7F1050E0001C0
:101C70008B6FA30E8C6F8B0E8D6F3E0E8E6F8CC193
:101C800072F08DC173F08EC174F08FC175F0A4C174
:101C90006EF0A5C16FF0A6C170F0A7C171F039EC6C
:101CA00021F06EC087F06FC088F070C089F071C0FD
:101CB0008AF078EC1CF087C054F188C055F189C0D7
:101CC00056F18AC057F1AB0E00018B6FAA0E8C6FD4
:101CD000AA0E8D6F3E0E8E6F8CC172F08DC173F0A7
:101CE0008EC174F08FC175F054C16EF055C16FF0A4
:101CF00056C170F057C171F039EC21F06EC087F019
:101D00006FC088F070C089F071C08AF078EC1CF068
:101D100087C048F188C049F189C04AF18AC04BF1B7
:101D2000B70E00018B6F6D0E8C6FDB0E8D6F3E0E4C
:101D30008E6F8CC172F08DC173F08EC174F08FC143
:101D400075F048C16EF049C16FF04AC170F04BC1E7
:101D500071F039EC21F06EC087F06FC088F070C070
:101D600089F071C08AF078EC1CF087C038F188C027
:101D700039F189C03AF18AC03BF19A0E00018B6FAC
:101D8000990E8C6F190E8D6F3F0E8E6F8CC172F095
:101D90008DC173F08EC174F08FC175F038C16EF0D3
:101DA00039C16FF03AC170F03BC171F039EC21F0EC
:101DB0006EC087F06FC088F070C089F071C08AF083
:101DC00078EC1CF087C000F188C001F189C002F1F5
:101DD0008AC003F18CC172F08DC173F08EC174F0B2
:101DE0008FC175F08CC16EF08DC16FF08EC170F037
:101DF0008FC171F039EC21F06EC004F16FC005F1B4
:101E000070C006F171C007F100C16EF001C16FF042
:101E100002C170F003C171F004C172F005C173F02A
:101E200006C174F007C175F039EC21F06EC04CF1B9
:101E30006FC04DF170C04EF171C04FF130C172F002
:101E400031C173F032C174F033C175F05CC18BF0F5
:101E50005DC18CF05EC18DF05FC18EF06CC187F00A
:101E60006DC188F06EC189F06FC18AF078EC1CF00A
:101E700087C06EF088C06FF089C070F08AC071F0C2
:101E800039EC21F06EC058F16FC059F170C05AF1B1
:101E900071C05BF14CC187F04DC188F04EC189F033
:101EA0004FC18AF058C18BF059C18CF05AC18DF0E6
:101EB0005BC18EF078EC1CF087C04CF188C04DF10E
:101EC00089C04EF18AC04FF16CC16EF06DC16FF0E8
:101ED0006EC170F06FC171F06CC172F06DC173F0C2
:101EE0006EC174F06FC175F039EC21F06EC08CF1E9
:101EF0006FC08DF170C08EF171C08FF1000E0001C6
:101F00008B6F000E8C6F400E8D6F400E8E6F8CC1EC
:101F100087F08DC188F08EC189F08FC18AF078EC8E
:101F20001CF087C058F188C059F189C05AF18AC0A5
:101F30005BF158C187F059C188F05AC189F05BC183
:101F40008AF04CC18BF04DC18CF04EC18DF04FC169
:101F50008EF078EC1CF087C068F188C069F189C008
:101F60006AF18AC06BF168C1B8F169C1B9F16AC19F
:101F7000BAF16BC1BBF1B8C190F1B9C191F1BAC16D
:101F800092F1BBC193F1000E01019015B86FF00EF4
:101F90009115B96FFF0E9215BA6FFF0E9315BB6FB7
:101FA000B8C168F1B9C169F1BAC16AF1BBC16BF1DD
:101FB000000E00018B6F000E8C6F400E8D6FC00EF7
:101FC0008E6F68C187F069C188F06AC189F06BC102
:101FD0008AF078EC1CF087C03CF188C03DF189C0E4
:101FE0003EF18AC03FF18CC19BF08DC19CF08EC147
:101FF0009DF08FC19EF03CC197F03DC198F03EC16D
:1020000099F03FC19AF083EC37F097C040F198C047
:1020100041F199C042F19AC043F14CC197F04DC1D2
:1020200098F04EC199F04FC19AF040C19BF041C168
:102030009CF042C19DF043C19EF083EC37F097C005
:1020400034F198C035F199C036F19AC037F16CC1BE
:102050006EF06DC16FF06EC170F06FC171F068C14C
:1020600072F069C173F06AC174F06BC175F039EC3C
:1020700021F06EC074F16FC075F170C076F171C05F
:1020800077F168C172F069C173F06AC174F06BC115
:1020900075F030C16EF031C16FF032C170F033C1F4
:1020A00071F039EC21F06EC087F06FC088F070C01D
:1020B00089F071C08AF05CC172F05DC173F05EC1DD
:1020C00074F05FC175F034C16EF035C16FF036C188
:1020D00070F037C171F039EC21F06EC08BF06FC039
:1020E0008CF070C08DF071C08EF078EC1CF087C061
:1020F00078F188C079F189C07AF18AC07BF174C126
:1021000087F075C188F076C189F077C18AF078C10F
:102110008BF079C18CF07AC18DF07BC18EF078ECB8
:102120001CF087C09CF188C09DF189C09EF18AC0D7
:102130009FF19CC1B8F19DC1B9F19EC1BAF19FC197
:10214000BBF1B8C190F1B9C191F1BAC192F1BBC173
:1021500093F1000E01019015B86FF00E9115B96F53
:10216000FF0E9215BA6FFF0E9315BB6FB8C19CF1AD
:10217000B9C19DF1BAC19EF1BBC19FF174C19BF081
:1021800075C19CF076C19DF077C19EF09CC197F01F
:102190009DC198F09EC199F09FC19AF083EC37F0F1
:1021A00097C094F198C095F199C096F19AC097F1B3
:1021B00078C197F079C198F07AC199F07BC19AF013
:1021C00094C19BF095C19CF096C19DF097C19EF083
:1021D00083EC37F097C064F198C065F199C066F15F
:1021E0009AC067F19CC16EF09DC16FF09EC170F006
:1021F0009FC171F0000E0001726F400E736F760E7A
:10220000746F3F0E756F39EC21F06EC020F16FC016
:1022100021F170C022F171C023F14F0E0001726FE5
:10222000380E736F760E746F3F0E756F64C16EF06B
:1022300065C16FF066C170F067C171F039EC21F0D3
:102240006EC08BF06FC08CF070C08DF071C08EF0DE
:10225000C60E0001726F230E736FF60E746FB80E08
:10226000756F9CC16EF09DC16FF09EC170F09FC1F3
:1022700071F039EC21F06EC087F06FC088F070C04B
:1022800089F071C08AF078EC1CF087C058F188C0E2
:1022900059F189C05AF18AC05BF158C187F059C120
:1022A00088F05AC189F05BC18AF0A0C1E4F0A1C1F5
:1022B000E5F00001D890E437E537D890E437E5370A
:1022C000010EE425F66E080EE521F76E0900F5CF44
:1022D0008BF00900F5CF8CF00900F5CF8DF00A00E6
:1022E000F5CF8EF078EC1CF087C024F188C025F182
:1022F00089C026F18AC027F17CC160F07DC161F000
:102300007EC162F07FC163F0010E85EC2AF060C0EF
:10231000B0F161C0B1F162C0B2F163C0B3F124C1E8
:102320008BF025C18CF026C18DF027C18EF020C125
:1023300087F021C188F022C189F023C18AF078ECAE
:102340001CF087C058F188C059F189C05AF18AC081
:102350005BF1A0C1E4F0A1C1E5F00001D890E43741
:10236000E537D890E437E537090EE425F66E080E18
:10237000E521F76E0900F5CF8BF00900F5CF8CF061
:102380000900F5CF8DF00A00F5CF8EF058C187F027
:1023900059C188F05AC189F05BC18AF078EC1CF011
:1023A00087C008F188C009F189C00AF18AC00BF121
:1023B00008C187F009C188F00AC189F00BC18AF011
:1023C000B0C18BF0B1C18CF0B2C18DF0B3C18EF051
:1023D00078EC1CF087C080F188C081F189C082F15F
:1023E0008AC083F180C1B8F181C1B9F182C1BAF16B
:1023F00083C1BBF1B8C190F1B9C191F1BAC192F1F9
:10240000BBC193F1000E01019015B86FF00E91154C
:10241000B96FFF0E9215BA6FFF0E9315BB6FB8C15F
:1024200080F1B9C181F1BAC182F1BBC183F1B0C100
:102430009BF0B1C19CF0B2C19DF0B3C19EF080C1D0
:1024400097F081C198F082C199F083C19AF083EC32
:1024500037F097C094F198C095F199C096F19AC061
:1024600097F1A0C1E4F0A1C1E5F00001D890E437F4
:10247000E537D890E437E537090EE425F66E080E07
:10248000E521F76E0900F5CF9BF00900F5CF9CF030
:102490000900F5CF9DF00A00F5CF9EF094C197F0AA
:1024A00095C198F096C199F097C19AF083EC37F0F6
:1024B00097C040F198C041F199C042F19AC043F1F0
:1024C00020C19BF021C19CF022C19DF023C19EF050
:1024D00040C197F041C198F042C199F043C19AF0D0
:1024E00083EC37F097C00CF198C00DF199C00EF154
:1024F0009AC00FF124C197F025C198F026C199F038
:1025000027C19AF00CC19BF00DC19CF00EC19DF04B
:102510000FC19EF083EC37F097C01CF198C01DF1FD
:1025200099C01EF19AC01FF1E0C0B8F1E1C0B9F145
:10253000E2C0BAF1E3C0BBF1B8C190F1B9C191F109
:10254000BAC192F1BBC193F1000E01019015B86FB1
:10255000F00E9115B96FFF0E9215BA6FFF0E93151D
:10256000BB6FB8C128F1B9C129F1BAC12AF1BBC109
:102570002BF180C172F081C173F082C174F083C10C
:1025800075F028C19BF029C19CF02AC19DF02BC198
:102590009EF0E0C097F0E1C098F0E2C099F0E3C08F
:1025A0009AF083EC37F097C06EF098C06FF099C046
:1025B00070F09AC071F039EC21F06EC010F16FC06C
:1025C00011F170C012F171C013F110C187F011C187
:1025D00088F012C189F013C18AF01CC172F01DC1CC
:1025E00073F01EC174F01FC175F0E0C06EF0E1C061
:1025F0006FF0E2C070F0E3C071F039EC21F06EC012
:102600008BF06FC08CF070C08DF071C08EF078ECE4
:102610001CF087C064F188C065F189C066F18AC08A
:1026200067F128C16EF029C16FF02AC170F02BC18B
:1026300071F080C172F081C173F082C174F083C106
:1026400075F039EC21F06EC09CF16FC09DF170C047
:102650009EF171C09FF164C187F065C188F066C1C9
:1026600089F067C18AF09CC18BF09DC18CF09EC13E
:102670008DF09FC18EF078EC1CF087C0B4F188C05B
:10268000B5F189C0B6F18AC0B7F1B4C1B8F1B5C12E
:10269000B9F1B6C1BAF1B7C1BBF1B8C1ACF1B9C1BA
:1026A000ADF1BAC1AEF1BBC1AFF10101AFBF65EF92
:1026B00013F0AC05000EAD59000EAE59430EAF59E4
:1026C000D8A065EF13F067EF13F09FEF13F0CA0E79
:1026D0000001726FF20E736F490E746F710E756F99
:1026E00088C16EF089C16FF08AC170F08BC171F042
:1026F00039EC21F06EC0A4F16FC0A5F170C0A6F155
:1027000071C0A7F1A4C16EF0A5C16FF0A6C170F0B1
:10271000A7C171F0CA0E0001726FF20E736F490EFD
:10272000746F710E756F39EC21F06EC0DCF06FC004
:10273000DDF070C0DEF071C0DFF0AFEF19F0430ED6
:10274000AF19AC11AD11AE11D8A4A9EF13F0ABEFD6
:1027500013F021EF14F09CC19BF09DC19CF09EC131
:102760009DF09FC19EF0B4C197F0B5C198F0B6C17D
:1027700099F0B7C19AF083EC37F097C09FF098C0FA
:10278000A0F099C0A1F09AC0A2F03C0E00018B6F9E
:10279000AA0E8C6F380E8D6F330E8E6F64C187F06A
:1027A00065C188F066C189F067C18AF078EC1CF0D9
:1027B00087C0A3F088C0A4F089C0A5F08AC0A6F0A5
:1027C0008FEC31F00001D8B0E8EF13F0EAEF13F02E
:1027D000EEEF14F0CA0E726FF20E736F490E746F43
:1027E000710E756F88C16EF089C16FF08AC170F08B
:1027F0008BC171F039EC21F06EC0A4F16FC0A5F16E
:1028000070C0A6F171C0A7F1A4C16EF0A5C16FF0B0
:10281000A6C170F0A7C171F0CA0E0001726FF20E6E
:10282000736F490E746F710E756F39EC21F06EC0C5
:10283000DCF06FC0DDF070C0DEF071C0DFF0AFEF34
:1028400019F0FF0EAC150001E46FFF0E0101AD158C
:102850000001E56FFF0E0101AE150001E66F7F0E6E
:102860000101AF150001E76FE7BF43EF14F0E40586
:10287000000EE559160EE659430EE759D8A043EF6E
:1028800014F045EF14F07CEF14F0600E726F420EFE
:10289000736FA20E746F0D0E756F88C16EF089C1D3
:1028A0006FF08AC170F08BC171F039EC21F06EC00D
:1028B000A4F16FC0A5F170C0A6F171C0A7F1A4C1C9
:1028C0006EF0A5C16FF0A6C170F0A7C171F0600EE7
:1028D0000001726F420E736FA20E746F0D0E756F52
:1028E00039EC21F06EC0DCF06FC0DDF070C0DEF0BE
:1028F00071C0DFF0AFEF19F0160E0101AE1909E15A
:10290000C30EAF19AC11AD11D8A489EF14F08BEF41
:1029100014F0EEEF14F09CC19BF09DC19CF09EC1A1
:102920009DF09FC19EF0B4C197F0B5C198F0B6C1BB
:1029300099F0B7C19AF083EC37F097C09FF098C038
:10294000A0F099C0A1F09AC0A2F064C1A3F065C143
:10295000A4F066C1A5F067C1A6F08FEC31F00001CC
:10296000D8A0B5EF14F0B7EF14F0EEEF14F0600E4E
:10297000726F420E736FA20E746F0D0E756F88C169
:102980006EF089C16FF08AC170F08BC171F039ECC3
:1029900021F06EC0A4F16FC0A5F170C0A6F171C0A6
:1029A000A7F1A4C16EF0A5C16FF0A6C170F0A7C1D8
:1029B00071F0600E0001726F420E736FA20E746FA1
:1029C0000D0E756F39EC21F06EC0DCF06FC0DDF0DC
:1029D00070C0DEF071C0DFF0AFEF19F0FF0E010143
:1029E000AC152C6FFF0EAD152D6FFF0EAE152E6FB3
:1029F0007F0EAF152F6F170E0001E46F2CC1E5F0AD
:102A00002DC1E6F02EC1E7F02FC1E8F0E4670BEF2F
:102A100015F013EF15F0E835E833E733E633E53327
:102A2000E42F06EF15F0810E0001E5250101A06FEE
:102A3000FF0E0001E6210101A16FFF0E0001E72159
:102A40000101A26FFF0E0001E8210101A36F000E3A
:102A50007C6F000E7D6F000E7E6F000E7F6F2FBFAC
:102A60003EEF15F02C05000E2D59000E2E593F0E8D
:102A70002F59D8A03EEF15F040EF15F044EF16F0B7
:102A8000A0C1E4F0010E0001E427000EE56F000E86
:102A9000E66F800EE76F000EE86FE46752EF15F007
:102AA0005AEF15F0E835E833E733E633E533E42F42
:102AB0004DEF15F00101AC510001E52501017C6FDE
:102AC000AD510001E62101017D6FAE510001E7210A
:102AD00001017E6FAF510001E82101017F6F810E7E
:102AE0000001E46FFF0EE56FFF0EE66FFF0EE76F6C
:102AF000170EE86F7CC1E9F07DC1EAF07EC1EBF012
:102B00007FC1ECF0E86787EF15F08FEF15F0EC353B
:102B1000EC33EB33EA33E933E82F82EF15F00001B1
:102B2000E951E4250101A06F000E0001E52101013A
:102B3000A16F000E0001E6210101A26F000E00014D
:102B4000E7210101A36FA0C1E4F0FF0E0001E56FD2
:102B5000FF0EE66F7F0EE76F000EE86FE467B3EFDE
:102B600015F0BBEF15F0E835E833E733E633E5332E
:102B7000E42FAEEF15F00001E51DE96FE61DEA6FE9
:102B8000E71DEB6FE81DEC6F01017C510001E915B9
:102B90000101B86F7D510001EA150101B96F7E5145
:102BA0000001EB150101BA6F7F510001EC15010125
:102BB000BB6FB8C1B0F1B9C1B1F1BAC1B2F1BBC11B
:102BC000B3F1A05117080001E46FFF0E01017C155D
:102BD0000001E56FFF0E01017D150001E66F7F0E1C
:102BE00001017E150001E76F000E01017F15000154
:102BF000E86F000EE511E96F000EE611EA6F800E36
:102C0000E711EB6F000EE811EC6FE4670AEF16F0C6
:102C100012EF16F0EC35EC33EB33EA33E933E42F03
:102C200005EF16F0E9C07CF1EAC07DF1EBC07EF162
:102C3000ECC07FF10101AFBF22EF16F020EF16F0DC
:102C40002AEF16F07F1F7E1F7D1F7C6D000E7D23F7
:102C50007E237F239CC197F09DC198F09EC199F07F
:102C60009FC19AF0B0C19BF0B1C19CF0B2C19DF080
:102C7000B3C19EF083EC37F097C09CF198C09DF1F2
:102C800099C09EF19AC09FF164C187F065C188F038
:102C900066C189F067C18AF09CC18BF09DC18CF040
:102CA0009EC18DF09FC18EF078EC1CF087C0B0F112
:102CB00088C0B1F189C0B2F18AC0B3F1B0C1B8F136
:102CC000B1C1B9F1B2C1BAF1B3C1BBF1B8C190F1B0
:102CD000B9C191F1BAC192F1BBC193F1000E0101EA
:102CE0009015B86F800E9115B96FFF0E9215BA6FDF
:102CF000FF0E9315BB6FB8C1B0F1B9C1B1F1BAC144
:102D0000B2F1BBC1B3F1B0C16EF0B1C16FF0B2C1ED
:102D100070F0B3C171F0000E0001726F720E736F2C
:102D2000310E746F3F0E756F39EC21F06EC074F187
:102D30006FC075F170C076F171C077F19CC19BF0E6
:102D40009DC19CF09EC19DF09FC19EF0B0C197F0C7
:102D5000B1C198F0B2C199F0B3C19AF083EC37F0E9
:102D600097C094F198C095F199C096F19AC097F1E7
:102D7000180E0001726F720E736F310E746F3F0E7A
:102D8000756F94C19BF095C19CF096C19DF097C161
:102D90009EF064C197F065C198F066C199F067C173
:102DA0009AF083EC37F097C06EF098C06FF099C03E
:102DB00070F09AC071F039EC21F06EC014F16FC060
:102DC00015F170C016F171C017F114C187F015C16B
:102DD00088F016C189F017C18AF08C0E0001726F5D
:102DE000BE0E736FBF0E746F350E756FB0C16EF08F
:102DF000B1C16FF0B2C170F0B3C171F039EC21F024
:102E00006EC08BF06FC08CF070C08DF071C08EF012
:102E100078EC1CF087C078F188C079F189C07AF12C
:102E20008AC07BF174C187F075C188F076C189F0E2
:102E300077C18AF078C18BF079C18CF07AC18DF0BE
:102E40007BC18EF078EC1CF087C0B4F188C0B5F17E
:102E500089C0B6F18AC0B7F174C19BF075C19CF00E
:102E600076C19DF077C19EF0B4C197F0B5C198F0DE
:102E7000B6C199F0B7C19AF083EC37F097C094F1DE
:102E800098C095F199C096F19AC097F178C197F0E2
:102E900079C198F07AC199F07BC19AF094C19BF006
:102EA00095C19CF096C19DF097C19EF083EC37F0E0
:102EB00097C044F198C045F199C046F19AC047F1D6
:102EC000B4C16EF0B5C16FF0B6C170F0B7C171F0AA
:102ED000B4C172F0B5C173F0B6C174F0B7C175F08A
:102EE00039EC21F06EC0B0F16FC0B1F170C0B2F139
:102EF00071C0B3F10E0E00018B6FEA0E8C6FDD0E08
:102F00008D6FB50E8E6F4C0E726FBB0E736F310EE0
:102F1000746F330E756FB0C16EF0B1C16FF0B2C196
:102F200070F0B3C171F039EC21F06EC087F06FC062
:102F300088F070C089F071C08AF078EC1CF087C00E
:102F4000A4F188C0A5F189C0A6F18AC0A7F1550EE9
:102F500000018B6FB30E8C6F8A0E8D6F380E8E6FE3
:102F6000B0C172F0B1C173F0B2C174F0B3C175F009
:102F7000A4C16EF0A5C16FF0A6C170F0A7C171F039
:102F800039EC21F06EC087F06FC088F070C089F016
:102F900071C08AF078EC1CF087C054F188C055F1FC
:102FA00089C056F18AC057F1610E00018B6F0B0E7C
:102FB0008C6F360E8D6FBB0E8E6FB0C172F0B1C1CB
:102FC00073F0B2C174F0B3C175F054C16EF055C165
:102FD0006FF056C170F057C171F039EC21F06EC03E
:102FE00087F06FC088F070C089F071C08AF078EC0B
:102FF0001CF087C048F188C049F189C04AF18AC0F5
:103000004BF1AB0E00018B6FAA0E8C6F2A0E8D6FE9
:103010003E0E8E6FB0C172F0B1C173F0B2C174F0E8
:10302000B3C175F048C16EF049C16FF04AC170F08C
:103030004BC171F039EC21F06EC087F06FC088F0A1
:1030400070C089F071C08AF078EC1CF087C038F14C
:1030500088C039F189C03AF18AC03BF1B4C197F018
:10306000B5C198F0B6C199F0B7C19AF0B0C172F08D
:10307000B1C173F0B2C174F0B3C175F038C16EF074
:1030800039C16FF03AC170F03BC171F039EC21F0F9
:103090006EC09BF06FC09CF070C09DF071C09EF040
:1030A00083EC37F097C080F198C081F199C082F12C
:1030B0009AC083F1000E00018B6F000E8C6F000E22
:1030C0008D6FC00E8E6F80C187F081C188F082C184
:1030D00089F083C18AF078EC1CF087C0A3F088C027
:1030E000A4F089C0A5F08AC0A6F080C172F081C1A9
:1030F00073F082C174F083C175F0B4C16EF0B5C1D4
:103100006FF0B6C170F0B7C171F039EC21F06EC04C
:103110009FF06FC0A0F070C0A1F071C0A2F04FECA2
:1031200023F09FC03CF1A0C03DF1A1C03EF1A2C080
:103130003FF144C18BF045C18CF046C18DF047C1D1
:103140008EF044C172F045C173F046C174F047C1BE
:1031500075F0B4C16EF0B5C16FF0B6C170F0B7C113
:1031600071F039EC21F06EC087F06FC088F070C04C
:1031700089F071C08AF078EC1CF087C018F188C023
:1031800019F189C01AF18AC01BF13CC197F03DC109
:1031900098F03EC199F03FC19AF018C19BF019C157
:1031A0009CF01AC19DF01BC19EF083EC37F097C0D4
:1031B0004CF198C04DF199C04EF19AC04FF1B4C195
:1031C0009BF0B5C19CF0B6C19DF0B7C19EF04CC15B
:1031D00097F04DC198F04EC199F04FC19AF083EC31
:1031E00037F097C094F198C095F199C096F19AC0C4
:1031F00097F1000E0001976F000E986F800E996F87
:103200003F0E9A6F94C19BF095C19CF096C19DF0C2
:1032100097C19EF083EC37F097C0B4F198C0B5F138
:1032200099C0B6F19AC0B7F1B4C1B8F1B5C1B9F15E
:10323000B6C1BAF1B7C1BBF1B8C1ACF1B9C1ADF11A
:10324000BAC1AEF1BBC1AFF17CC1E4F07DC1E5F024
:103250007EC1E6F07FC1E7F0170ED8900001E43799
:10326000E537E637E737E82E2DEF19F0E451010195
:10327000AC270001E5510101AD230001E651010138
:10328000AE230001E7510101AF23170E0001E46FE7
:10329000ACC1E5F0ADC1E6F0AEC1E7F0AFC1E8F01A
:1032A000E46755EF19F05DEF19F0E835E833E733DF
:1032B000E633E533E42F50EF19F00001E8BF6DEF7E
:1032C00019F0E851E711E61106E1E505D8B06BEF1A
:1032D00019F06DEF19F085EF19F0B4C187F0B5C1A1
:1032E00088F0B6C189F0B7C18AF07CC18BF07DC18E
:1032F0008CF066EC29F087C0B4F188C0B5F189C0C4
:10330000B6F18AC0B7F195EF19F0ACC1B8F1ADC113
:10331000B9F1AEC1BAF1AFC1BBF1B8C1B4F1B9C135
:10332000B5F1BAC1B6F1BBC1B7F188C16EF089C1C0
:103330006FF08AC170F08BC171F0B4C172F0B5C189
:1033400073F0B6C174F0B7C175F039EC21F06EC0FE
:10335000DCF06FC0DDF070C0DEF071C0DFF0120095
:10336000000E0001FD6F0001FD51D8A4BAEF19F065
:10337000BCEF19F0C9EF19F0E60E606F080E616F2F
:10338000000E636F020E626FDEEC35F0010E00017D
:10339000FD6FA5EC3AF00001FE6F46EF1CF0E00E69
:1033A000606F010E616F070EBBEC36F0E90E000195
:1033B000606F080E616F000E636F020E626FDEECCD
:1033C00035F0560E39EC37F0410E13EC37F0E00EC5
:1033D0000001766F010E776FEB0E786F010E796F3B
:1033E0007CEC33F0E00E0001766F010E776FE90E92
:1033F000786F010E796F0FEC33F0EBC160F0ECC128
:1034000061F0EAEC38F0E9C160F0EAC161F0EAECA1
:1034100038F00101D405D8A410EF1AF012EF1AF019
:1034200028EF1AF0A60E0001606F080E616F000E03
:10343000636F030E626FDEEC35F0560E39EC37F039
:10344000410E39EC37F0000E0101D46FB3EF19F0E3
:10345000D305D8A42EEF1AF030EF1AF046EF1AF089
:10346000AE0E0001606F080E616F000E636F030EF9
:10347000626FDEEC35F0560E39EC37F0410E39EC68
:1034800037F0000E0101D36FB3EF19F0EBC1C8F0B4
:10349000ECC1C9F0E9C1CAF0EAC1CBF00001FE51AC
:1034A0009DEC34F0B3EF19F0E00E606F010E616F28
:1034B000070EBBEC36F0E90E0001606F080E616F7D
:1034C000000E636F020E626FDEEC35F0560E39ECC3
:1034D00037F0410E13EC37F0E00E0001766F010E6D
:1034E000776FEB0E786F010E796F7CEC33F0E00EA6
:1034F0000001766F010E776FE90E786F010E796F1C
:103500000FEC33F0EBC160F0ECC161F0EAEC38F0A5
:10351000E9C160F0EAC161F0EAEC38F00101D405DC
:10352000D8A495EF1AF097EF1AF0AAEF1AF0A60EAA
:103530000001606F080E616F000E636F030E626F13
:10354000DEEC35F0560E39EC37F0410E39EC37F041
:1035500023EF1AF0D305D8A4B0EF1AF0B2EF1AF0A7
:10356000C5EF1AF0AE0E0001606F080E616F000E1D
:10357000636F030E626FDEEC35F0560E39EC37F0F8
:10358000410E39EC37F041EF1AF0EBC1C8F0ECC155
:10359000C9F0E9C1CAF0EAC1CBF00001FE519DECCF
:1035A00034F0B3EF19F0E90E606F080E616F000E92
:1035B000636F020E626FDEEC35F0560E39EC37F0B9
:1035C000410E13EC37F058EC38F0B3EF19F0E90E78
:1035D000606F080E616F000E636F020E626FDEECAB
:1035E00035F0560E39EC37F0410E13EC37F0D0ECD5
:1035F00039F0B3EF19F0E90E606F080E616F000E3D
:10360000636F020E626FDEEC35F0560E39EC37F068
:10361000410E13EC37F0BDEC39F0B3EF19F0E90EC1
:10362000606F080E616F000E636F020E626FDEEC5A
:1036300035F0560E39EC37F0410E13EC37F0A5ECAF
:103640003AF00001FF6FFF5131EC28F00001FF6FED
:10365000EB0E766F010E776FFF5187EC30F0E90EBD
:103660000001766F010E776FFF5102EC30F0E70E2C
:103670000001766F010E776FFF51F0EC2EF0010123
:10368000D405D8A446EF1BF048EF1BF05BEF1BF00E
:10369000A60E0001606F080E616F000E636F030ECF
:1036A000626FDEEC35F0560E39EC37F0410E39EC36
:1036B00037F023EF1AF0D305D8A461EF1BF063EFC6
:1036C0001BF076EF1BF0AE0E0001606F080E616F0D
:1036D000000E636F030E626FDEEC35F0560E39ECB0
:1036E00037F0410E39EC37F041EF1AF0D205D8A48B
:1036F0007CEF1BF07EEF1BF0BBEF1BF0000ED26FD8
:10370000CF0E0001606F080E616F000E636F020E36
:10371000626FDEEC35F0560E13EC37F0410E39ECEB
:1037200037F0030E0001FC6F080EFB6F770EE82EDA
:10373000FED7FB2FFCD7FC2FFAD7A1EF1BF089ECAB
:1037400036F080AAA6EF1BF0A8EF1BF09FEF1BF04E
:10375000E60E0001606F080E616F000E636F020ECF
:10376000626FDEEC35F0560E13EC37F0410E39EC9B
:1037700037F0B3EF19F0E7C1F7F0E8C1F8F0EAEC81
:1037800026F0030E0001FC6F080EFB6F770EE82E8B
:10379000FED7FB2FFCD7FC2FFAD7EBC1C8F0ECC14A
:1037A000C9F0E9C1CAF0EAC1CBF00001FE519DECBD
:1037B00034F0B3EF19F0A5EC3AF00001FF6FD50E2D
:1037C000606F010E616F0B0EBBEC36F0E90E00016D
:1037D000606F080E616F000E636F020E626FDEECA9
:1037E00035F0560E39EC37F0410E13EC37F000018E
:1037F000FF5131EC28F00001FF6FD50E686F010E0C
:10380000696FFF5155EC2EF0B3EF19F0E90E606FC0
:10381000080E616F000E636F020E626FDEEC35F012
:10382000560E39EC37F0410E13EC37F01AEF1CF05E
:1038300089EC36F080AA1FEF1CF021EF1CF018EF86
:103840001CF0E60E0001606F080E616F000E636FE2
:10385000020E626FDEEC35F0560E13EC37F0410EBF
:1038600039EC37F0B3EF19F0F50E606F080E616FA9
:10387000000E636F010E626FDEEC35F0560E39EC10
:1038800037F0410E39EC37F077EF1CF0FE51FB6F4B
:10389000FC6BFC51000AD8B450EF1CF0B3EF19F0E8
:1038A000FB51410AD8B406EF1CF0040AD8B434EF37
:1038B0001CF0030AD8B4CFEF19F00E0AD8B4E7EF22
:1038C0001AF0050AD8B4DBEF1BF0020AD8B40FEFE8
:1038D0001BF01D0AD8B4FBEF1AF0010AD8B454EF5C
:1038E0001AF0070AD8B4D3EF1AF0B3EF19F01200A8
:1038F00000018A51800B936F8A518A25956F89AF99
:1039000084EF1CF086EF1CF087EF1CF09581955139
:10391000D8B48DEF1CF08FEF1CF0A4EF1CF09529AC
:10392000D8A495EF1CF097EF1CF09FEF1CF0000E51
:10393000876F000E886F000E896F000E8A6F898F67
:10394000000E8A6FACEF1CF0000E876F000E886FC0
:10395000000E896F000E8A6F8E51800B946F935109
:103960009419D8B4B6EF1CF0B8EF1CF0B9EF1CF006
:10397000938D8E518E25946F8DAFC1EF1CF0C3EFE8
:103980001CF0C4EF1CF094819451D8B4CAEF1CF021
:10399000CCEF1CF0E1EF1CF09429D8A4D2EF1CF07E
:1039A000D4EF1CF0DCEF1CF0000E8B6F000E8C6F60
:1039B000000E8D6F000E8E6F8D8F000E8E6FE9EFF3
:1039C0001CF0000E8B6F000E8C6F000E8D6F000EC2
:1039D0008E6F9551945DD8B0F0EF1CF0F2EF1CF0B3
:1039E00019EF1DF093ADF7EF1CF0F9EF1CF0FBEFB2
:1039F0001CF0800E931B95C096F094C095F096C075
:103A000094F087C096F08BC087F096C08BF088C08A
:103A100096F08CC088F096C08CF089C096F08DC06E
:103A200089F096C08DF08AC096F08EC08AF096C05C
:103A30008EF0000E966F955194C08FF0906B8F5F53
:103A4000000E905B90BF2EEF1DF0905109E11A0E11
:103A50008F5DD8A02EEF1DF030EF1DF067EF1DF049
:103A60008751881189118A11D8A439EF1DF03CEFD4
:103A70001DF0010E3DEF1DF0000E966F000E876FDA
:103A8000000E886F000E896F000E8A6F94C095F04B
:103A900070EF1DF096A14FEF1DF051EF1DF057EFA5
:103AA0001DF0D89096310109966F59EF1DF0D8900E
:103AB000963387A15EEF1DF060EF1DF061EF1DF002
:103AC000968F8A358A33893388338733952B94517F
:103AD000955DD8A06EEF1DF070EF1DF04AEF1DF060
:103AE00093BD75EF1DF077EF1DF0B7EF1DF0955109
:103AF000D8A47DEF1DF07FEF1DF089EF1DF0000EC3
:103B0000876F000E886F000E896F000E8A6FD8EFE6
:103B10001EF08B5187278C5188238D5189238E511C
:103B20008A238AA196EF1DF098EF1DF044EF1EF056
:103B300096A19DEF1DF09FEF1DF0A5EF1DF0D89011
:103B400096310109966FA7EF1DF0D890963387A1A3
:103B5000ACEF1DF0AEEF1DF0AFEF1DF0968F8A3584
:103B60008A33893388338733952B44EF1EF08B518A
:103B7000875D8C5188598D5189598A51800A8F6F80
:103B80008E51800A8F59D8B0C8EF1DF0CAEF1DF0D2
:103B9000F5EF1DF087518B5D8F6F88518C59906FB9
:103BA00089518D59916F8A518E59926FFF0E8F25D1
:103BB000876FFF0E9021886FFF0E9121896FFF0E96
:103BC00092218A6F800E931B966D9651D8A4EBEFCD
:103BD0001DF0EDEF1DF0FDEF1DF0010E8727000E2B
:103BE000882389238A23FDEF1DF08B51875F8C5139
:103BF000885B8D51895B8E518A5B87518811891151
:103C00008A11D8A406EF1EF008EF1EF03DEF1EF05B
:103C10009651D8A40EEF1EF010EF1EF03DEF1EF0EF
:103C2000000E876F000E886F000E896F000E8A6F7E
:103C3000D8EF1EF0D8908737883789378A3796AF04
:103C400024EF1EF026EF1EF027EF1EF0878196A1CD
:103C50002CEF1EF02EEF1EF032EF1EF0D8809637BC
:103C600034EF1EF0D89096379551D8B43AEF1EF045
:103C70003CEF1EF03DEF1EF0950789AF42EF1EF0BE
:103C800044EF1EF01AEF1EF0000E946F96AF4BEF4C
:103C90001EF04DEF1EF065EF1EF096C08FF07F0E08
:103CA0008F17D8B456EF1EF058EF1EF05CEF1EF0E1
:103CB000010E946F65EF1EF087A161EF1EF063EFB8
:103CC0001EF065EF1EF058EF1EF09451D8B46BEF64
:103CD0001EF06DEF1EF098EF1EF0010E8727000E0C
:103CE000882389238A238AA178EF1EF07AEF1EF0B9
:103CF00098EF1EF087C08FF088C090F089C091F0D7
:103D00008AC092F092359233913390338F338FC0C3
:103D100087F090C088F091C089F092C08AF0952910
:103D2000D8B495EF1EF097EF1EF098EF1EF0952B8C
:103D30009529D8B49EEF1EF0A0EF1EF0A8EF1EF05C
:103D40009551D8A4A6EF1EF0A8EF1EF0BAEF1EF012
:103D5000000E876F000E886F000E896F000E8A6F4D
:103D60009551D8A4B6EF1EF0B8EF1EF0BAEF1EF0D2
:103D7000000E936F95A1BFEF1EF0C1EF1EF0C4EFD0
:103D80001EF0898FC5EF1EF0899FD89095318A6FFC
:103D900093AFCDEF1EF0CFEF1EF0D0EF1EF08A8F65
:103DA00087C087F088C088F089C089F08AC08AF00F
:103DB0001200ABC0C0F0ACC0C1F0ADC0C2F0AEC02C
:103DC000C3F0C0C0D8F0C1C0D9F0C2C0DAF0C3C0DF
:103DD000DBF0000E0001D815AF6F000ED915B06FE3
:103DE000800EDA15B16F7F0EDB15B26F800EB11940
:103DF00009E17F0EB219AF11B011D8A402EF1FF084
:103E000004EF1FF032EF1FF0ABC072F0ACC073F0E4
:103E1000ADC074F0AEC075F0ABC06EF0ACC06FF06A
:103E2000ADC070F0AEC071F039EC21F06EC087F01B
:103E30006FC088F070C089F071C08AF0ABC08BF0A1
:103E4000ACC08CF0ADC08DF0AEC08EF078EC1CF044
:103E500087C0ABF088C0ACF089C0ADF08AC0AEF0CE
:103E600038EF21F0DBBF41EF1FF0DB51DA11D91140
:103E700006E1D805D8B03FEF1FF041EF1FF07FEF0C
:103E80001FF0FF0ED815AF6FFF0ED915B06FFF0EE4
:103E9000DA15B16F7F0EDB15B26FAF51B011B111F2
:103EA000B211D8A456EF1FF058EF1FF062EF1FF0C9
:103EB000ABC0ABF0ACC0ACF0ADC0ADF0AEC0AEF0DE
:103EC00038EF21F0DBBF69EF1FF067EF1FF07FEFE6
:103ED0001FF0000E0101CC6F210ECB6FA10E00016F
:103EE000606F080E616FF6EC39F060C0ABF061C036
:103EF000ACF062C0ADF063C0AEF038EF21F0170E49
:103F0000AF6FD8C0B0F0D9C0B1F0DAC0B2F0DBC04A
:103F1000B3F0AF678EEF1FF096EF1FF0B335B333FA
:103F2000B233B133B033AF2F89EF1FF0B0C0D0F050
:103F3000B1C0D1F0B2C0D2F0B3C0D3F00001D051C3
:103F4000D111D211D311D8A4A8EF1FF0AAEF1FF0FE
:103F5000DAEF1FF0000EBC6F000EBD6F000EBE6FDB
:103F6000000EBF6FBFEF1FF0D890D837D937DA37C0
:103F7000DB37010EBC27000EBD23BE23BF23DAAF03
:103F8000C4EF1FF0C6EF1FF0B4EF1FF0FF0EBC250B
:103F9000AF6FFF0EBD21B06FFF0EBE21B16FFF0EE0
:103FA000BF21B26FAF51D05FB051D15BB151D25B85
:103FB000B251D35B810ED027FF0ED123FF0ED22347
:103FC000FF0ED323FF0ED815AF6FFF0ED915B06FBC
:103FD0007F0EDA15B16F000EDB15B26F000EAF1158
:103FE000D86F000EB011D96F800EB111DA6F000ECC
:103FF000B211DB6FD0A1FFEF1FF001EF20F009EF4E
:1040000020F0D851D827D951D923DA51DA23DB51FE
:10401000DB23D335D333D233D133D033D851D82760
:10402000D951D923DA51DA23DB51DB23000EB86FE3
:10403000000EB96F000EBA6F000EBB6FB8C0C4F0AF
:10404000B9C0C5F0BAC0C6F0BBC0C7F0000ED46F8F
:10405000000ED56F000ED66F010ED76F78EF20F0EF
:10406000D451B825C86FD551B921C96FD651BA21DD
:10407000CA6FD751BB21CB6FC851D85DC951D9592F
:10408000CA51DA59DB51800AAF6FCB51800AAF5960
:10409000D8A04DEF20F04FEF20F06BEF20F0D4517F
:1040A000C825B86FD551C921B96FD651CA21BA6F89
:1040B000D751CB21BB6FC851D85FC951D95BCA5109
:1040C000DA5BCB51DB5BD451C427D551C523D65124
:1040D000C623D751C723D851D827D951D923DA516C
:1040E000DA23DB51DB23D890D733D633D533D4331F
:1040F000D451D511D611D711D8A481EF20F083EF78
:1041000020F030EF20F0D851D911DA11DB11D8B4FA
:104110008CEF20F08EEF20F0EEEF20F0000ECC6F51
:10412000000ECD6F800ECE6F3F0ECF6FCCC09FF0D4
:10413000CDC0A0F0CEC0A1F0CFC0A2F0000EA36F02
:10414000000EA46F800EA56F3F0EA66F8FEC31F0AE
:104150000001D8A0AEEF20F0B0EF20F0EEEF20F09D
:10416000000ECC6F000ECD6F800ECE6F3F0ECF6F66
:10417000000E9F6F000EA06F800EA16F3F0EA26F0A
:10418000CCC0A3F0CDC0A4F0CEC0A5F0CFC0A6F0A7
:104190008FEC31F00001D8B0D0EF20F0D2EF20F05A
:1041A000DAEF20F0020EC427000EC523C623C72372
:1041B000EEEF20F0010EC415AF6F000EC515B06F05
:1041C000000EC615B16F000EC715B26FAF51C427F0
:1041D000B051C523B151C623B251C723C4C0AFF0FB
:1041E000C5C0B0F0C6C0B1F0C7C0B2F0B235B2338E
:1041F000B133B033AF33000EAF25D86F000EB0210E
:10420000D96F000EB121DA6F3F0EB221DB6FD0C043
:10421000AFF0D1C0B0F0D2C0B1F0D3C0B2F0170E41
:10422000D890AF37B037B137B237E82E10EF21F062
:10423000AF51D827B051D923B151DA23B251DB2382
:10424000D8C0C0F0D9C0C1F0DAC0C2F0DBC0C3F042
:10425000C0C0CCF0C1C0CDF0C2C0CEF0C3C0CFF062
:10426000CCC0ABF0CDC0ACF0CEC0ADF0CFC0AEF0A6
:10427000120000017151800B7A6F71517125806FAE
:1042800070AF45EF21F047EF21F048EF21F080813A
:104290008051D8B44EEF21F050EF21F063EF21F0C0
:1042A0008029D8A456EF21F058EF21F060EF21F0DB
:1042B000000E6E6F000E6F6F000E706F000E716F4C
:1042C000708F6BEF21F0000E6E6F000E6F6F000E9F
:1042D000706F000E716F7551800B7A1B75517525CB
:1042E0007F6F74AF76EF21F078EF21F079EF21F056
:1042F0007F817F51D8B47FEF21F081EF21F094EFDF
:1043000021F07F29D8A487EF21F089EF21F091EFE8
:1043100021F0000E726F000E736F000E746F000EAE
:10432000756F748F9CEF21F0000E726F000E736F2B
:10433000000E746F000E756F7F51D8B4A2EF21F09C
:10434000A4EF21F0ACEF21F08051D8A4AAEF21F026
:10435000ACEF21F0B6EF21F0000E6E6F000E6F6F24
:10436000000E706F000E716F4EEF23F074516E03EC
:10437000F3CF85F0F4CF86F085517B6F7C6B7D6B3E
:104380007E6B8651816F826B836B846B73516F037D
:10439000F3CF85F0F4CF86F085517B27000E7C2388
:1043A0007D237E2386518127000E8223832384234D
:1043B00072517003F3CF85F0F4CF86F085517B27DF
:1043C000000E7C237D237E2386518127000E8223CD
:1043D000832384237DC07EF07CC07DF07BC07CF095
:1043E0007B6B72516F03F3CF85F0F4CF86F085516C
:1043F0007B2786517C23000E7D23000E7E23735184
:104400006E03F3CF85F0F4CF86F085517B2786517C
:104410007C23000E7D23000E7E237DC07EF07CC0B9
:104420007DF07BC07CF07B6B72516E03F3CF85F027
:10443000F4CF86F085517B2786517C23000E7D23A7
:10444000000E7E2374516F03F3CF85F0F4CF86F016
:104450008551812786518223000E8323000E8423F9
:1044600073517003F3CF85F0F4CF86F08551812727
:1044700086518223000E8323000E8423745170031F
:10448000F3CF85F0F4CF86F08551766F8651776F44
:10449000786B796B78C079F077C078F076C077F078
:1044A000766B765181277751822378518323795116
:1044B00084237BC076F07CC077F07DC078F07EC02E
:1044C00079F0190E69EF22F0D89079337833773389
:1044D0007633E82E64EF22F07651812777518223DC
:1044E00078518323795184237DC07EF07CC07DF098
:1044F0007BC07CF07B6B7F5180C076F0776B76273A
:10450000000E7723820E7625856FFF0E7721866F4A
:104510009FEF22F0D89081378237833784377EAF80
:1045200094EF22F096EF22F097EF22F08181D8905D
:104530007B377C377D377E378507D8A0860783AFEA
:10454000A4EF22F0A6EF22F08AEF22F0000E7F6F98
:104550007EAFADEF22F0AFEF22F0D3EF22F0FF0EEF
:104560007B15766FFF0E7C15776FFF0E7D15786FCC
:104570007F0E7E15796F7651771178117911D8B445
:10458000C4EF22F0C6EF22F0CAEF22F0010E7F6FD7
:10459000D3EF22F081A1CFEF22F0D1EF22F0D3EFC1
:1045A00022F0C6EF22F07F51D8B4D9EF22F0DBEF32
:1045B00022F0FFEF22F0010E8127000E82238323D9
:1045C000842384A1E6EF22F0E8EF22F0FFEF22F04F
:1045D00081C076F082C077F083C078F084C079F033
:1045E0007935793378337733763376C081F077C095
:1045F00082F078C083F079C084F0854B862B86BF2B
:104600000AEF23F0865108E18529D8A00AEF23F0AC
:104610000CEF23F016EF23F0000E816F000E826F77
:10462000800E836F7F0E846F44EF23F086BF23EFED
:1046300023F0865106E18505D8B021EF23F023EF62
:1046400023F02FEF23F0000E816F000E826F000E1B
:10465000836F000E846F000E7A6F44EF23F085C0E5
:1046600080F0FF0E8117FF0E82177F0E8317000E5A
:10467000841780A13EEF23F040EF23F041EF23F0B9
:10468000838FD8908031846F7A51841381C06EF00B
:1046900082C06FF083C070F084C071F0120000011E
:1046A000A251800BAF6FA251A225B66FA1AF5BEFF5
:1046B00023F05DEF23F05EEF23F0B681B651D8B45E
:1046C00064EF23F066EF23F07BEF23F0B629D8A444
:1046D0006CEF23F06EEF23F076EF23F0000E9F6F68
:1046E000000EA06F000EA16F000EA26FA18F000E32
:1046F000A26F83EF23F0000E9F6F000EA06F000EDD
:10470000A16F000EA26FA651800BAF1BA651A6256C
:10471000B76FA5AF8EEF23F090EF23F091EF23F06A
:10472000B781B751D8B497EF23F099EF23F0AEEFEC
:1047300023F0B729D8A49FEF23F0A1EF23F0A9EF2E
:1047400023F0000EA36F000EA46F000EA56F000EE5
:10475000A66FA58F000EA66FB6EF23F0000EA36F15
:10476000000EA46F000EA56F000EA66FA351A4113A
:10477000A511A611D8A4BFEF23F0C1EF23F0D9EF04
:1047800023F0000E9F6F000EA06F000EA16F000EB1
:10479000A26F800EA1137F0EA213AF51A2139FC070
:1047A0009FF0A0C0A0F0A1C0A1F0A2C0A2F01CEF99
:1047B00025F0B651D8A4DFEF23F0E1EF23F0EBEFC3
:1047C00023F0000E9F6F000EA06F000EA16F000E71
:1047D000A26F1CEF25F0B751B6C0A7F0A86BA75F7A
:1047E000000EA85B7F0EA725B06F000EA821B16F49
:1047F0009FC0ABF0A0C0ACF0A1C0ADF0A2C0AEF0C5
:10480000000E9F6F000EA06F000EA16F000EA26F32
:10481000000EB26F000EB36F000EB46F000EB56FD6
:10482000000EB76F4CEF24F0B751D8B41AEF24F054
:104830001CEF24F033EF24F0D890AB37AC37AD3712
:10484000AE37D8909F37A037A137A237B5AF2BEF3F
:1048500024F02DEF24F02EEF24F09F81D890B23772
:10486000B337B437B537A351AB5DA451AC59A5519B
:10487000AD59A651AE59D8A040EF24F042EF24F034
:104880004BEF24F0B58DA351AB5FA451AC5BA551A8
:10489000AD5BA651AE5BB72B190EB76552EF24F096
:1048A00054EF24F014EF24F0AB51AC11AD11AE1164
:1048B000D8B45DEF24F05FEF24F077EF24F0B281FD
:1048C00077EF24F0D8909F37A037A137A237B5AF44
:1048D0006CEF24F06EEF24F06FEF24F09F81D890FE
:1048E000B237B337B437B537B007D8A0B107A1AFE7
:1048F0007CEF24F07EEF24F062EF24F0000EB76F1F
:10490000B5AF85EF24F087EF24F0ABEF24F0FF0E76
:10491000B215A76FFF0EB315A86FFF0EB415A96FE0
:104920007F0EB515AA6FA751A811A911AA11D8B465
:104930009CEF24F09EEF24F0A2EF24F0010EB76F5D
:10494000ABEF24F09FA1A7EF24F0A9EF24F0ABEF89
:1049500024F09EEF24F0B751D8B4B1EF24F0B3EFB8
:1049600024F0D7EF24F0010E9F27000EA023A123EF
:10497000A223A2A1BEEF24F0C0EF24F0D7EF24F0D1
:104980009FC0A7F0A0C0A8F0A1C0A9F0A2C0AAF043
:10499000AA35AA33A933A833A733A7C09FF0A8C06C
:1049A000A0F0A9C0A1F0AAC0A2F0B04BB12BB1BF3A
:1049B000E2EF24F0B15108E1B029D8A0E2EF24F0F1
:1049C000E4EF24F0EFEF24F0000EB16FB069000EB9
:1049D0009F6F000EA06F000EA16F000EA26FB1BFFF
:1049E000FCEF24F0B15106E1B005D8B0FAEF24F0A5
:1049F000FCEF24F00AEF25F0000EB16F000EB06F4F
:104A0000000E9F6F000EA06F000EA16F000EA26F30
:104A1000000EAF6FB0C0B6F0B6A111EF25F013EFE6
:104A200025F016EF25F0A18F17EF25F0A19FD89064
:104A3000B631A26FCDEF23F012001250800B1F6E23
:104A400012501224266E11AE28EF25F02AEF25F021
:104A50002BEF25F026802650D8B431EF25F033EF28
:104A600025F048EF25F02628D8A439EF25F03BEFB4
:104A700025F043EF25F0000E0F6E000E106E000EB5
:104A8000116E000E126E118E000E126E50EF25F098
:104A9000000E0F6E000E106E000E116E000E126EE4
:104AA0001650800B1F1A16501624276E15AE5BEF9A
:104AB00025F05DEF25F05EEF25F027802750D8B474
:104AC00064EF25F066EF25F07BEF25F02728D8A4CA
:104AD0006CEF25F06EEF25F076EF25F0000E136EEB
:104AE000000E146E000E156E000E166E158E000E62
:104AF000166E83EF25F0000E136E000E146E000E7E
:104B0000156E000E166E1350141015101610D8A442
:104B10008CEF25F08EEF25F0A6EF25F0000E0F6E3E
:104B2000000E106E000E116E000E126E800E11122D
:104B30007F0E12121F5012120FC00FF010C010F093
:104B400011C011F012C012F0E9EF26F02650D8A4DF
:104B5000ACEF25F0AEEF25F0B8EF25F0000E0F6EAC
:104B6000000E106E000E116E000E126EE9EF26F0B0
:104B7000275026C017F0186A175E000E185A7F0ECD
:104B80001724206E000E1820216E0FC01BF010C0DD
:104B90001CF011C01DF012C01EF0000E0F6E000EB2
:104BA000106E000E116E000E126E000E226E000EC0
:104BB000236E000E246E000E256E000E276E19EF78
:104BC00026F02750D8B4E7EF25F0E9EF25F000EF05
:104BD00026F0D8901B361C361D361E36D8900F3660
:104BE00010361136123625AEF8EF25F0FAEF25F023
:104BF000FBEF25F00F80D890223623362436253659
:104C000013501B5C14501C5815501D5816501E583C
:104C1000D8A00DEF26F00FEF26F018EF26F0258C28
:104C200013501B5E14501C5A15501D5A16501E5A14
:104C3000272A190E27641FEF26F021EF26F0E1EF57
:104C400025F01B501C101D101E10D8B42AEF26F0A2
:104C50002CEF26F044EF26F0228044EF26F0D89087
:104C60000F3610361136123625AE39EF26F03BEFEF
:104C700026F03CEF26F00F80D890223623362436DB
:104C800025362006D8A0210611AE49EF26F04BEFBD
:104C900026F02FEF26F0000E276E25AE52EF26F0FD
:104CA00054EF26F078EF26F0FF0E2214176EFF0E59
:104CB0002314186EFF0E2414196E7F0E25141A6E1D
:104CC0001750181019101A10D8B469EF26F06BEFAE
:104CD00026F06FEF26F0010E276E78EF26F00FA07A
:104CE00074EF26F076EF26F078EF26F06BEF26F0E3
:104CF0002750D8B47EEF26F080EF26F0A4EF26F000
:104D0000010E0F26000E10221122122212A08BEF8C
:104D100026F08DEF26F0A4EF26F00FC017F010C09C
:104D200018F011C019F012C01AF01A341A321932E0
:104D30001832173217C00FF018C010F019C011F058
:104D40001AC012F0204A212A21BEAFEF26F02150CE
:104D500008E12028D8A0AFEF26F0B1EF26F0BCEF95
:104D600026F0000E216E2068000E0F6E000E106EF1
:104D7000000E116E000E126E21BEC9EF26F02150FA
:104D800006E12004D8B0C7EF26F0C9EF26F0D7EF30
:104D900026F0000E216E000E206E000E0F6E000E2B
:104DA000106E000E116E000E126E000E1F6E20C0EF
:104DB00026F026A0DEEF26F0E0EF26F0E3EF26F067
:104DC000118EE4EF26F0119ED8902630126E9AEFE5
:104DD00025F01200E90E0001606F080E616F000EF1
:104DE000636F020E626FDEEC35F0A9EC39F02F0E26
:104DF0000001F725F76F000EF821F86F000E010192
:104E0000D16F8C988C9A8C9C0CEF28F0000E0001CE
:104E10006F6F320E6E6FE3EC33F06EC0CFF16FC088
:104E2000D0F1CFC1EDF0D0C1EEF095EC32F0C4C1BD
:104E30009FF0C5C1A0F0C6C1A1F0C7C1A2F0F7C0E4
:104E400060F0F8C061F00001000E61BFFF0E626FFC
:104E5000636F010E85EC2AF060C0A3F061C0A4F07E
:104E600062C0A5F063C0A6F08FEC31F00001D8B0AD
:104E70003CEF27F03EEF27F069EF27F0F7C060F036
:104E8000F8C061F0000E61BFFF0E626F636F010E2C
:104E900085EC2AF060C097F061C098F062C099F08C
:104EA00063C09AF0C4C19BF0C5C19CF0C6C19DF01F
:104EB000C7C19EF083EC37F097C0C0F198C0C1F134
:104EC00099C0C2F19AC0C3F18C988C8A8C9CB7EFC0
:104ED00027F0F7C060F0F8C061F0000E61BFFF0E70
:104EE000626F636F010E85EC2AF060C09FF061C0B5
:104EF000A0F062C0A1F063C0A2F0C4C1A3F0C5C11C
:104F0000A4F0C6C1A5F0C7C1A6F08FEC31F0000136
:104F1000D8B08DEF27F08FEF27F0B7EF27F0F7C06D
:104F200060F0F8C061F0000E61BFFF0E626F636F4A
:104F3000010E85EC2AF060C097F061C098F062C065
:104F400099F063C09AF0C4C19BF0C5C19CF0C6C182
:104F50009DF0C7C19EF083EC37F097C0C0F198C0B8
:104F6000C1F199C0C2F19AC0C3F18C9A8C8C000E29
:104F700000019F6F000EA06F000EA16F000EA26FC8
:104F8000C0C160F0C1C161F0C2C162F0C3C163F0D1
:104F9000CFEC38F060C0A3F061C0A4F062C0A5F00F
:104FA00063C0A6F08FEC31F00001D8B0DAEF27F043
:104FB000DCEF27F003EF28F0C0C160F0C1C161F061
:104FC000C2C162F0C3C163F0CFEC38F060C09FF0A3
:104FD00061C0A0F062C0A1F063C0A2F0000E0001A9
:104FE000A36F000EA46F000EA56F400EA66F8FEC8E
:104FF00031F00001D8B0FFEF27F001EF28F003EF08
:1050000028F00101D12B0D0E0001F96FFB0EE82EE7
:10501000FED7F92FFCD700D0090E0101D16513EF9F
:1050200028F015EF28F006EF27F08C8A8C9C020EF2
:105030000001FA6F040EF96FBA0EE82EFED7F92FB1
:10504000FCD7FA2FFAD700F08C9A8C9C8C88820EB1
:105050000001F96FDD0EE82EFED7F92FFCD700D046
:10506000120000016A6F15EF29F0000E6A6F9E0EA4
:10507000606F080E616F000E636F030E626FDEECEF
:1050800035F063EF29F0100E6A6FA20E606F080E04
:10509000616F000E636F030E626FDEEC35F063EF3D
:1050A00029F0200E6A6FAA0E606F080E616F000E65
:1050B000636F030E626FDEEC35F063EF29F0300EA4
:1050C0006A6FB20E606F080E616F000E636F030EA1
:1050D000626FDEEC35F063EF29F0400E6A6FB60EBA
:1050E000606F080E616F000E636F030E626FDEEC7F
:1050F00035F063EF29F0500E6A6FBA0E606F080E3C
:10510000616F000E636F030E626FDEEC35F063EFCC
:1051100029F0600E6A6FBE0E606F080E616F000EA0
:10512000636F030E626FDEEC35F063EF29F0700EF3
:105130006A6FC20E606F080E616F000E636F030E20
:10514000626FDEEC35F063EF29F0800E6A6FC60EF9
:10515000606F080E616F000E636F030E626FDEEC0E
:1051600035F063EF29F0900E6A6FCA0E606F080E7B
:10517000616F000E636F030E626FDEEC35F063EF5C
:1051800029F0A00E6A6FCE0E606F080E616F000EE0
:10519000636F030E626FDEEC35F063EF29F0B00E43
:1051A0006A6FD20E606F080E616F000E636F030EA0
:1051B000626FDEEC35F063EF29F0C00E6A6FD60E39
:1051C000606F080E616F000E636F030E626FDEEC9E
:1051D00035F063EF29F0D00E6A6FDA0E606F080EBB
:1051E000616F000E636F030E626FDEEC35F063EFEC
:1051F00029F0E00E6A6FDE0E606F080E616F000E20
:10520000636F030E626FDEEC35F063EF29F0F00E92
:105210006A6FE20E606F080E616F000E636F030E1F
:10522000626FDEEC35F063EF29F000016A51686FC0
:10523000696B6951000AD8B420EF29F063EF29F0B7
:105240006851300AD8B435EF28F0010AD8B443EFDA
:1052500028F0030AD8B451EF28F0010AD8B45FEF60
:1052600028F0070AD8B46DEF28F0010AD8B47BEF14
:1052700028F0030AD8B489EF28F0010AD8B497EFD0
:1052800028F00F0AD8B4A5EF28F0010AD8B4B3EF7C
:1052900028F0780AD8B4C1EF28F0030AD8B4CFEFC9
:1052A00028F0010AD8B4DDEF28F0070AD8B4EBEFF4
:1052B00028F0010AD8B4F9EF28F0030AD8B407EFB0
:1052C00029F063EF29F000016A51120087C095F0C0
:1052D00088C096F089C097F08AC098F000018CBF12
:1052E0007BEF29F08C5109E1800E8B5DD8A07BEF1C
:1052F00029F07DEF29F0DDEF29F095C06EF096C022
:105300006FF097C070F098C071F0000E726F000ED1
:10531000736F000E746F7F0E756F39EC21F06EC0E5
:1053200095F06FC096F070C097F071C098F00001D2
:10533000810E8B27FF0E8C238CBFA8EF29F08C5198
:1053400009E1800E8B5DD8A0A8EF29F0AAEF29F023
:1053500049EF2AF095C06EF096C06FF097C070F0DC
:1053600098C071F0000E726F000E736F000E746FB4
:105370007F0E756F39EC21F06EC095F06FC096F01E
:1053800070C097F071C098F00001810E8B27FF0E5E
:105390008C238CBFD5EF29F08C5109E1800E8B5DF9
:1053A000D8A0D5EF29F0D7EF29F049EF2AF0000E69
:1053B0008C6F7F0E8B6F49EF2AF08CAFE9EF29F0ED
:1053C000820E8B5DFF0E8C59D8B0E9EF29F0EBEF20
:1053D00029F049EF2AF095C06EF096C06FF097C0A3
:1053E00070F098C071F0000E726F000E736F800E37
:1053F000746F0C0E756F39EC21F06EC095F06FC0B4
:1054000096F070C097F071C098F0660E00018B277F
:10541000000E8C238CAF16EF2AF0820E8B5DFF0EF0
:105420008C59D8B016EF2AF018EF2AF049EF2AF07D
:1054300095C06EF096C06FF097C070F098C071F094
:10544000000E726F000E736F800E746F0C0E756F0E
:1054500039EC21F06EC095F06FC096F070C097F0F7
:1054600071C098F0660E00018B27000E8C238CAF64
:1054700043EF2AF0820E8B5DFF0E8C59D8B043EFBC
:105480002AF045EF2AF049EF2AF0FF0E8C6F820ECA
:105490008B6F7F0E8B258D6F000E8C218E6F8F6B27
:1054A000906B170ED8908D378E378F379037E82E48
:1054B00052EF2AF08DC091F08EC092F08FC093F021
:1054C00090C094F091C06EF092C06FF093C070F0F5
:1054D00094C071F095C072F096C073F097C074F0EC
:1054E00098C075F039EC21F06EC087F06FC088F07D
:1054F00070C089F071C08AF087C087F088C088F0DA
:1055000089C089F08AC08AF012000001686F00012A
:105510006851D8B48EEF2AF090EF2AF0B2EF2AF05B
:1055200063BF97EF2AF095EF2AF0B2EF2AF060C040
:1055300064F061C065F062C066F063C067F0641F2C
:10554000651F661F671F642B000E65236623672394
:1055500064C06AF065C06BF066C06CF067C06DF047
:10556000BAEF2AF060C06AF061C06BF062C06CF004
:1055700063C06DF06051611162116311D8A4C3EF73
:105580002AF0C5EF2AF0CFEF2AF0000E606F000E70
:10559000616F000E626F000E636F60EF2BF0960E6E
:1055A000696FD9EF2AF0692BD8906D336C336B3368
:1055B0006A33000E6A15646F000E6B15656F000E7E
:1055C0006C15666FFE0E6D15676F6451651166117F
:1055D0006711D8A4EEEF2AF0F0EF2AF0D3EF2AF00B
:1055E000FEEF2AF0692B010E6A27000E6B236C2355
:1055F0006D23D8906D336C336B336A33000E6A15AC
:10560000646F000E6B15656F000E6C15666FFF0EF4
:105610006D15676F6451651166116711D8A413EF9A
:105620002BF015EF2BF0F2EF2AF01DEF2BF06907AE
:10563000D8906A376B376C376D376CBF22EF2BF021
:1056400024EF2BF02CEF2BF0020E69612AEF2BF0E8
:105650002CEF2BF017EF2BF069B131EF2BF033EF7C
:105660002BF034EF2BF06C9FD890693369C064F055
:10567000656B666B676B64C067F0666B656B646BCC
:1056800064516A1365516B1366516C1367516D1346
:105690006851D8B44EEF2BF050EF2BF058EF2BF0B1
:1056A00063BF57EF2BF055EF2BF058EF2BF06D8FBA
:1056B0006AC060F06BC061F06CC062F06DC063F0F6
:1056C0001200096E0950D8B468EF2BF06AEF2BF086
:1056D0008CEF2BF004BE71EF2BF06FEF2BF08CEF03
:1056E0002BF001C005F002C006F003C007F004C0B3
:1056F00008F0051E061E071E081E052A000E0622BB
:105700000722082205C00BF006C00CF007C00DF000
:1057100008C00EF094EF2BF001C00BF002C00CF0AB
:1057200003C00DF004C00EF001500210031004106D
:10573000D8A49DEF2BF09FEF2BF0A9EF2BF0000EDC
:10574000016E000E026E000E036E000E046E3AEF44
:105750002CF0960E0A6EB3EF2BF00A2AD8900E3278
:105760000D320C320B32000E0B14056E000E0C14B1
:10577000066E000E0D14076EFE0E0E14086E055018
:10578000061007100810D8A4C8EF2BF0CAEF2BF0B2
:10579000ADEF2BF0D8EF2BF00A2A010E0B26000EEE
:1057A0000C220D220E22D8900E320D320C320B320A
:1057B000000E0B14056E000E0C14066E000E0D1478
:1057C000076EFF0E0E14086E055006100710081025
:1057D000D8A4EDEF2BF0EFEF2BF0CCEF2BF0F7EFA1
:1057E0002BF00A06D8900B360C360D360E360DBE51
:1057F000FCEF2BF0FEEF2BF006EF2CF0020E0A6010
:1058000004EF2CF006EF2CF0F1EF2BF00AB00BEFC9
:105810002CF00DEF2CF00EEF2CF00D9ED8900A32EC
:105820000AC005F0066A076A086A05C008F0076A38
:10583000066A056A05500B1206500C1207500D122D
:1058400008500E120950D8B428EF2CF02AEF2CF093
:1058500032EF2CF004BE31EF2CF02FEF2CF032EFB2
:105860002CF00E8E0BC001F00CC002F00DC003F046
:105870000EC004F01200000E0001756F000E746F70
:10588000000E6E6F000E6D6F48EF2CF0674B682BAB
:10589000010E736F67C0D9FF68C0DAFF200EDE18F3
:1058A000D8B455EF2CF057EF2CF073EF2CF0F70E27
:1058B000696FFF0E6A6F67C0D9FF68C0DAFFDF50FB
:1058C0006B6F6C6B69516B276A516C236C5109E1EA
:1058D000050E6B5DD8A06FEF2CF071EF2CF073EF1D
:1058E0002CF0000E736F73C06FF0706B6F517011FE
:1058F000D8A47DEF2CF07FEF2CF046EF2CF089EF51
:105900002CF0000E6E6F010E6D6F674B682BBFEFB2
:105910002CF067C0D9FF68C0DAFFDF50696F6A6B8F
:105920006A51000AD8B497EF2CF0BFEF2CF0695100
:105930002B0AD8B485EF2CF0060AD8B481EF2CF0EE
:10594000BFEF2CF074C060F075C061F0000E636FA3
:105950000A0E626F95EC39F067C0D9FF68C0DAFFB4
:10596000DF500001696F6951605F000E615B300EAE
:105970006025746F000E6121756F85EF2CF0D00EDD
:10598000696FFF0E6A6F67C0D9FF68C0DAFFDF502A
:105990006B6F6C6B69516B276A516C236C510AE118
:1059A0000A0E6B5DD8A0D7EF2CF0DAEF2CF0010EC9
:1059B000DBEF2CF0000E716F726B71517211D8A475
:1059C000E4EF2CF0E6EF2CF0A2EF2CF06D516E110D
:1059D000D8A4EDEF2CF0EFEF2CF0FDEF2CF074C01D
:1059E00069F075C06AF0691F6A1F694B6A2B69C04C
:1059F00067F06AC068F001EF2DF074C067F075C001
:105A000068F012000001676F530E00016719D8A4F7
:105A10000CEF2DF00EEF2DF012EF2DF028EC3AF0F8
:105A200014EF2DF008EC3AF083908394000E0001FF
:105A3000696F000E686F000E6B6F000E6A6F625127
:105A40006311D8A426EF2DF028EF2DF029EF2DF0CB
:105A5000838064516511D8A430EF2DF032EF2DF022
:105A600033EF2DF08384CA8485EF2DF06251685D99
:105A70006951800A666F6351800A6659D8B043EF56
:105A80002DF045EF2DF05CEF2DF082A24AEF2DF0C6
:105A90004CEF2DF058EF2DF068C060F069C061F058
:105AA00037EC39F060C068F061C069F05DEF2DF04F
:105AB000000E5E6E5DEF2DF08380000164516A5D23
:105AC0006B51800A666F6551800A6659D8B06BEFDA
:105AD0002DF06DEF2DF084EF2DF082A472EF2DF0FC
:105AE00074EF2DF080EF2DF06AC060F06BC061F0B4
:105AF0001EEC39F060C06AF061C06BF085EF2DF0EC
:105B0000000E5D6E85EF2DF0838400016251685DAB
:105B10006951800A666F6351800A6659D8A093EF75
:105B20002DF095EF2DF036EF2DF064516A5D6B513D
:105B3000800A666F6551800A6659D8A0A2EF2DF0E1
:105B4000A4EF2DF036EF2DF0000E5E6E000E6B6FA1
:105B5000000E6A6F000E5D6ECA941200086E530E3E
:105B60000818D8A4B6EF2DF0B8EF2DF0BCEF2DF04B
:105B700037EC3AF0BEEF2DF018EC3AF083908394B6
:105B8000000E0A6E000E096E000E0C6E000E0B6EFB
:105B900003500410D8A4CFEF2DF0D1EF2DF0D2EFA9
:105BA0002DF0838005500610D8A4D9EF2DF0DBEF3F
:105BB0002DF0DCEF2DF08384CA842DEF2EF00350FE
:105BC000095C0A50800A076E0450800A0758D8B052
:105BD000ECEF2DF0EEEF2DF005EF2EF082A2F3EFBB
:105BE0002DF0F5EF2DF001EF2EF009C001F00AC005
:105BF00002F068EC39F001C009F002C00AF006EFCB
:105C00002EF0000E5E6E06EF2EF0838005500B5CCA
:105C10000C50800A076E0650800A0758D8B013EF60
:105C20002EF015EF2EF02CEF2EF082A41AEF2EF0AE
:105C30001CEF2EF028EF2EF00BC001F00CC002F08C
:105C400050EC39F001C00BF002C00CF02DEF2EF03B
:105C5000000E5D6E2DEF2EF083840350095C0A5018
:105C6000800A076E0450800A0758D8A03AEF2EF039
:105C70003CEF2EF0DFEF2DF005500B5C0C50800A4E
:105C8000076E0650800A0758D8A049EF2EF04BEF58
:105C90002EF0DFEF2DF0000E5E6E000E0C6E000E8B
:105CA0000B6E000E5D6ECA94120000016C6F000E48
:105CB00000016F6F000E6E6F6C516E256D6F6E512F
:105CC0006825D96E6F516921DA6EDF50606F6D51B2
:105CD00004EC39F000016E4B6F2B6FBF79EF2EF0A3
:105CE0006F5109E1030E6E5DD8A079EF2EF07BEFC6
:105CF0002EF05CEF2EF08F0E606F080E616F000EBD
:105D0000636F040E626FDEEC35F0000E0001716F00
:105D1000000E706F6C517025030F6D6F7051682508
:105D20006A6F715169216B6F040E6A25D96E000E7E
:105D30006B21DA6EDF50606F6D5104EC39F00001B9
:105D4000704B712B71BFAEEF2EF0715109E1030E54
:105D5000705DD8A0AEEF2EF0B0EF2EF08AEF2EF0EF
:105D6000940E606F080E616F000E636F040E626F19
:105D7000DEEC35F0000E0001736F000E726F6C5197
:105D80007225060F6D6F725168256A6F7351692114
:105D90006B6F080E6A25D96E000E6B21DA6EDF502C
:105DA000606F6D5104EC39F00001724B732B73BFBF
:105DB000E3EF2EF0735109E1030E725DD8A0E3EF1B
:105DC0002EF0E5EF2EF0BFEF2EF0990E606F080E6B
:105DD000616F000E636F040E626FDEEC35F012002F
:105DE0000001796F000E00017F6F000E7E6F795108
:105DF0007E25060F7A6F7B0E7E25D96E000E7F21E1
:105E0000DA6E7A517BEC3AF0DF6E00017E4B7F2B2D
:105E10007FBF14EF2FF07F5109E1030E7E5DD8A004
:105E200014EF2FF016EF2FF0F7EF2EF0000E816F2A
:105E3000000E806F7B0E8025D96E000E8121DA6EF8
:105E40002F0EDF6426EF2FF028EF2FF036EF2FF024
:105E50007B0E8025D96E000E8121DA6E390EDF644B
:105E600034EF2FF036EF2FF039EF2FF0010E010154
:105E7000D36F0001804B812B81BF48EF2FF0815100
:105E800009E1030E805DD8A048EF2FF04AEF2FF014
:105E90001AEF2FF07B0E676F000E686F3BEC2CF053
:105EA00076C0D9FF77C0DAFF000167C0DEFF68C0A7
:105EB000DDFFF20E606F080E616F000E636F020E61
:105EC000626FDEEC35F07B0E0001606F000E616FDB
:105ED000000E636F030E626FDEEC35F0E7C160F019
:105EE000E8C161F0EAEC38F0E7C160F0E8C161F0C8
:105EF00037EC38F01200000E0001696F67BF85EFC4
:105F00002FF083EF2FF08FEF2FF0671F661F651FB5
:105F1000646D000E652366236723010E696F63BFFE
:105F200096EF2FF094EF2FF0A0EF2FF0631F621F7A
:105F3000611F606D000E612362236323010E691BE4
:105F4000000E6A6F000E6B6F000E6C6F000E6D6FAF
:105F50006451651166116711D8B4B1EF2FF0B3EF3A
:105F60002FF0E9EF2FF0010E686FBDEF2FF0D89002
:105F70006437653766376737682B67AFC2EF2FF036
:105F8000C4EF2FF0B7EF2FF0D8906A376B376C372C
:105F90006D376451605D6551615966516259675151
:105FA0006359D8A0D6EF2FF0D8EF2FF0E1EF2FF004
:105FB0006451605F6551615B6651625B6751635B11
:105FC0006A81D8906733663365336433682FC4EFD2
:105FD0002FF06951D8B4EFEF2FF0F1EF2FF0F9EF78
:105FE0002FF06D1F6C1F6B1F6A6D000E6B236C23EF
:105FF0006D236AC060F06BC061F06CC062F06DC070
:1060000063F012000001796F000E00017F6F000E37
:106010007E6F79517E25030F7A6F7B0E7E25D96EB8
:10602000000E7F21DA6E7A517BEC3AF0DF6E0001D0
:106030007E4B7F2B7FBF26EF30F07F5109E1030EAF
:106040007E5DD8A026EF30F028EF30F009EF30F079
:10605000000E816F000E806F7B0E8025D96E000EC2
:106060008121DA6E2F0EDF6438EF30F03AEF30F036
:1060700048EF30F07B0E8025D96E000E8121DA6E5C
:10608000390EDF6446EF30F048EF30F04BEF30F080
:10609000010E0101D36F0001804B812B81BF5AEFAC
:1060A00030F0815109E1030E805DD8A05AEF30F045
:1060B0005CEF30F02CEF30F07B0E676F000E686FF6
:1060C0003BEC2CF076C0D9FF77C0DAFF000167C047
:1060D000DEFF68C0DDFFEF0E606F080E616F000E1F
:1060E000636F020E626FDEEC35F07B0E0001606FB5
:1060F000000E616F000E636F030E626FDEEC35F011
:10610000E9C160F0EAC161F0EAEC38F01200000188
:10611000796F000E00017F6F000E7E6F79517E2532
:106120007A6F7B0E7E25D96E000E7F21DA6E7A5152
:106130007BEC3AF0DF6E00017E4B7F2B7FBFAAEF36
:1061400030F07F5109E1030E7E5DD8A0AAEF30F058
:10615000ACEF30F08EEF30F0000E816F000E806FEC
:106160007B0E8025D96E000E8121DA6E2F0EDF6442
:10617000BCEF30F0BEEF30F0CCEF30F07B0E80257E
:10618000D96E000E8121DA6E390EDF64CAEF30F06D
:10619000CCEF30F0CFEF30F0010E0101D36F0001F2
:1061A000804B812B81BFDEEF30F0815109E1030E7E
:1061B000805DD8A0DEEF30F0E0EF30F0B0EF30F0EF
:1061C0007B0E676F000E686F3BEC2CF076C0D9FF3A
:1061D00077C0DAFF000167C0DEFF68C0DDFFEC0EAC
:1061E000606F080E616F000E636F020E626FDEEC6F
:1061F00035F07B0E0001606F000E616F000E636F63
:10620000030E626FDEEC35F0EBC160F0ECC161F0C3
:10621000EAEC38F012000001BA35BB35C16FC1514C
:10622000D8A415EF31F017EF31F021EF31F0000E67
:10623000B86F000EB96F000EBA6F000EBB6F8EEF15
:1062400031F0B8C0BCF0B9C0BDF0BAC0BEF0BBC040
:10625000BFF0200E31EF31F0D890BF33BE33BD33E5
:10626000BC33E82E2CEF31F0BC51C06FBA8FFF0E5B
:10627000B817FF0EB917FF0EBA17000EBB17960E10
:10628000C15FC1BF48EF31F046EF31F05EEF31F052
:10629000C151800A970FD8B050EF31F052EF31F072
:1062A00054EF31F017EF31F0D890BB33BA33B93334
:1062B000B833C13F54EF31F076EF31F01F0EC165B6
:1062C00064EF31F066EF31F06EEF31F017EF31F03F
