:020000040000FA
:0400000007EF00F016
:100008005F824AED0CF024EF0CF01250800B1F6E4B
:1000180012501224266E11AE14EF00F016EF00F005
:1000280017EF00F026802650D8B41DEF00F01FEF20
:1000380000F034EF00F02628D8A425EF00F027EFD1
:1000480000F02FEF00F0000E0F6E000E106E000E85
:10005800116E000E126E118E000E126E3CEF00F043
:10006800000E0F6E000E106E000E116E000E126E56
:100078001650800B1F1A16501624276E15AE47EF20
:1000880000F049EF00F04AEF00F027802750D8B47D
:1000980050EF00F052EF00F067EF00F02728D8A4E7
:1000A80058EF00F05AEF00F062EF00F0000E136E08
:1000B800000E146E000E156E000E166E158E000ED4
:1000C800166E6FEF00F0000E136E000E146E000E29
:1000D800156E000E166E1350141015101610D8A4B5
:1000E80078EF00F07AEF00F092EF00F0000E0F6E5C
:1000F800000E106E000E116E000E126E800E1112A0
:100108007F0E12121F5012120FC00FF010C010F005
:1001180011C011F012C012F0D5EF01F02650D8A48A
:1001280098EF00F09AEF00F0A4EF00F0000E0F6EC9
:10013800000E106E000E116E000E126ED5EF01F05B
:10014800275026C017F0186A175E000E185A7F0E3F
:100158001724206E000E1820216E0FC01BF010C04F
:100168001CF011C01DF012C01EF0000E0F6E000E24
:10017800106E000E116E000E126E000E226E000E32
:10018800236E000E246E000E256E000E276E05EFFE
:1001980001F02750D8B4D3EF00F0D5EF00F0ECEF22
:1001A80000F0D8901B361C361D361E36D8900F36F8
:1001B80010361136123625AEE4EF00F0E6EF00F007
:1001C800E7EF00F00F80D890223623362436253604
:1001D80013501B5C14501C5815501D5816501E58AF
:1001E800D8A0F9EF00F0FBEF00F004EF01F0258C48
:1001F80013501B5E14501C5A15501D5A16501E5A87
:10020800272A190E27640BEF01F00DEF01F0CDEF4F
:1002180000F01B501C101D101E10D8B416EF01F072
:1002280018EF01F030EF01F0228030EF01F0D890A4
:100238000F3610361136123625AE25EF01F027EFAE
:1002480001F028EF01F00F80D890223623362436AB
:1002580025362006D8A0210611AE35EF01F037EF7C
:1002680001F01BEF01F0000E276E25AE3EEF01F006
:1002780040EF01F064EF01F0FF0E2214176EFF0E3D
:100288002314186EFF0E2414196E7F0E25141A6E8F
:100298001750181019101A10D8B455EF01F057EF6D
:1002A80001F05BEF01F0010E276E64EF01F00FA083
:1002B80060EF01F062EF01F064EF01F057EF01F039
:1002C8002750D8B46AEF01F06CEF01F090EF01F01D
:1002D800010E0F26000E10221122122212A077EF13
:1002E80001F079EF01F090EF01F00FC017F010C0A6
:1002F80018F011C019F012C01AF01A341A32193253
:100308001832173217C00FF018C010F019C011F0CA
:100318001AC012F0204A212A21BE9BEF01F0215079
:1003280008E12028D8A09BEF01F09DEF01F0A8EF8D
:1003380001F0000E216E2068000E0F6E000E106E88
:10034800000E116E000E126E21BEB5EF01F02150A5
:1003580006E12004D8B0B3EF01F0B5EF01F0C3EF28
:1003680001F0000E216E000E206E000E0F6E000EC2
:10037800106E000E116E000E126E000E1F6E20C061
:1003880026F026A0CAEF01F0CCEF01F0CFEF01F084
:10039800118ED0EF01F0119ED8902630126E86EFA4
:1003A80000F01200720ED36E800E0F6E250E106EC6
:1003B800000E116E000E126E45EC0AF095909594A1
:1003C8009592959683808380949294948292000E5D
:1003D8003F6EA50E016E7F0E026E000E046E110EAA
:1003E800036EB4EC0AF0210E016E7D0E026E000E53
:1003F800046E2A0E036EB4EC0AF03F50D8A407EF3F
:1004080002F009EF02F015EF02F03D0E016E7F0ECB
:10041800026E000E046E180E036EB4EC0AF0010EA4
:100428003F6E9DEC0CF0406E36EF03F0810E016ECE
:10043800000E026E070E1BEC0BF0550E016E7F0EC0
:10044800026E000E046E170E036EB4EC0AF0810EF5
:10045800176E000E186E5D0E196E000E1A6EEAEC1D
:100468000AF0810E176E000E186E5B0E196E000EE4
:100478001A6E7DEC0AF05DC009F05EC00AF06FEC00
:100488000BF05BC009F05CC00AF06FEC0BF0530492
:10049800D8A451EF02F053EF02F055EF02F001EF4C
:1004A80002F05DC038F05EC039F05BC03AF05CC065
:1004B8003BF04050CDEC09F001EF02F0810E016EE7
:1004C800000E026E070E1BEC0BF0550E016E7F0E30
:1004D800026E000E046E170E036EB4EC0AF0810E65
:1004E800176E000E186E5D0E196E000E1A6EEAEC8D
:1004F8000AF0810E176E000E186E5B0E196E000E54
:100508001A6E7DEC0AF05DC009F05EC00AF06FEC6F
:100518000BF05BC009F05CC00AF06FEC0BF0530401
:10052800D8A499EF02F09BEF02F09DEF02F001EFE3
:1005380002F05DC038F05EC039F05BC03AF05CC0D4
:100548003BF04050CDEC09F001EF02F0550E016E82
:100558007F0E026E000E046E170E036EB4EC0AF0E6
:10056800C6EC0BF001EF02F0550E016E7F0E026E25
:10057800000E046E170E036EB4EC0AF087EC0CF054
:1005880001EF02F0550E016E7F0E026E000E046E32
:10059800170E036EB4EC0AF07BEC0CF001EF02F0DE
:1005A800550E016E7F0E026E000E046E170E036E5E
:1005B800B4EC0AF09DEC0CF0546E545061EC03F06E
:1005C800546E5D0E176E000E186E5B0E196E000EDF
:1005D8001A6E590E1B6E000E1C6E545093EC04F0EC
:1005E8005304D8A4FAEF02F0FCEF02F008EF03F08E
:1005F8004B0E016E7D0E026E000E046E290E036E08
:10060800B4EC0AF001EF02F05DC038F05EC039F0DA
:100618005BC03AF05CC03BF04050CDEC09F001EF14
:1006280002F09DEC0CF0546E760E016E000E026E18
:100638000B0E1BEC0BF0550E016E7F0E026E000EBA
:10064800046E170E036EB4EC0AF0545061EC03F01C
:10065800546E760E096E000E0A6E54501BEC07F0AD
:1006680001EF02F040503D6E3E6A3E50000AD8B499
:1006780040EF03F001EF02F03D50460AD8B41AEFFC
:1006880002F00E0AD8B4B8EF02F0050AD8B415EF94
:1006980003F0020AD8B4D4EF02F01D0AD8B4C6EFAA
:1006A80002F0010AD8B462EF02F0070AD8B4AAEF40
:1006B80002F001EF02F007EF00F00B6E44EF04F0D8
:1006C800000E0B6E390E016E7E0E026E000E046E69
:1006D8001A0E036EB4EC0AF091EF04F0100E0B6ED4
:1006E800530E016E7E0E026E000E046E1A0E036E1D
:1006F800B4EC0AF091EF04F0200E0B6E6D0E016E53
:100708007E0E026E000E046E1A0E036EB4EC0AF032
:1007180091EF04F0300E0B6E870E016E7E0E026EA6
:10072800000E046E1A0E036EB4EC0AF091EF04F09A
:10073800400E0B6EA10E016E7E0E026E000E046E50
:100748001A0E036EB4EC0AF091EF04F0500E0B6E23
:10075800BB0E016E7E0E026E000E046E1A0E036E44
:10076800B4EC0AF091EF04F0600E0B6ED50E016E3A
:100778007E0E026E000E046E1A0E036EB4EC0AF0C2
:1007880091EF04F0700E0B6EEF0E016E7E0E026E8E
:10079800000E046E1A0E036EB4EC0AF091EF04F02A
:1007A800800E0B6E090E016E7F0E026E000E046E37
:1007B8001A0E036EB4EC0AF091EF04F0900E0B6E73
:1007C800230E016E7F0E026E000E046E1A0E036E6B
:1007D800B4EC0AF091EF04F0A00E0B6E970E016EC8
:1007E8007D0E026E000E046E1B0E036EB4EC0AF052
:1007F80091EF04F0B00E0B6EB20E016E7D0E026E1C
:10080800000E046E1B0E036EB4EC0AF091EF04F0B8
:10081800C00E0B6ECD0E016E7D0E026E000E046EC4
:100828001B0E036EB4EC0AF091EF04F0D00E0B6EC1
:10083800E80E016E7D0E026E000E046E1B0E036E36
:10084800B4EC0AF091EF04F0E00E0B6E030E016EAB
:100858007E0E026E000E046E1B0E036EB4EC0AF0E0
:1008680091EF04F0F00E0B6E1E0E016E7E0E026EFE
:10087800000E046E1B0E036EB4EC0AF091EF04F048
:100888000B50096E0A6A0A50000AD8B44EEF04F0F9
:1008980091EF04F00950300AD8B464EF03F0010A6C
:1008A800D8B472EF03F0030AD8B480EF03F0010A5A
:1008B800D8B48EEF03F0070AD8B49CEF03F0010A0E
:1008C800D8B4AAEF03F0030AD8B4B8EF03F0010ACA
:1008D800D8B4C6EF03F00F0AD8B4D4EF03F0010A76
:1008E800D8B4E2EF03F0780AD8B4F0EF03F0030AC3
:1008F800D8B4FEEF03F0010AD8B40CEF04F0070AED
:10090800D8B41AEF04F0010AD8B428EF04F0030AA7
:10091800D8B436EF04F091EF04F00B501200296EB2
:10092800000E2B6E000E2A6E29502A24236E260EE6
:100938002A24D96E000E2B20DA6E235093EC0CF08B
:10094800DF6E2A4A2B2A2BBEB3EF04F02B5009E1A5
:10095800030E2A5CD8A0B3EF04F0B5EF04F098EFCB
:1009680004F0000E2D6E000E2C6E29502C24030F5F
:10097800246E1D0E2C24D96E000E2D20DA6E245004
:1009880093EC0CF0DF6E2C4A2D2A2DBED5EF04F027
:100998002D5009E1030E2C5CD8A0D5EF04F0D7EF59
:1009A80004F0B9EF04F0000E2F6E000E2E6E2950E1
:1009B8002E24060F256E200E2E24D96E000E2F2011
:1009C800DA6E255093EC0CF0DF6E2E4A2F2A2FBEDC
:1009D800F7EF04F02F5009E1030E2E5CD8A0F7EFD3
:1009E80004F0F9EF04F0DBEF04F0260E086E000EB9
:1009F800096E56EC06F017C0D9FF18C0DAFF08C018
:100A0800DEFF09C0DDFF1D0E086E000E096E56ECF4
:100A180006F019C0D9FF1AC0DAFF08C0DEFF09C006
:100A2800DDFF200E086E000E096E56EC06F01BC0A6
:100A3800D9FF1CC0DAFF08C0DEFF09C0DDFFF90ED0
:100A4800016E7F0E026E000E046E050E036EB4EC8E
:100A58000AF0B60E016E7F0E026E000E046E0E0EC8
:100A6800036EB4EC0AF0260E016E000E026E000E44
:100A7800046E030E036EB4EC0AF0C40E016E7F0E12
:100A8800026E000E046E0E0E036EB4EC0AF0260E13
:100A9800016E000E026E000E046E030E036EB4ECBF
:100AA8000AF0D20E016E7F0E026E000E046E0E0E5C
:100AB800036EB4EC0AF0260E016E000E026E000EF4
:100AC800046E030E036EB4EC0AF05DC009F05EC05C
:100AD8000AF06FEC0BF05BC009F05CC00AF06FEC39
:100AE8000BF059C009F05AC00AF06FEC0BF0120075
:100AF800096E0950D8B483EF05F085EF05F0A7EF2C
:100B080005F004BE8CEF05F08AEF05F0A7EF05F0BD
:100B180001C005F002C006F003C007F004C008F0E9
:100B2800051E061E071E081E052A000E062207229D
:100B3800082205C00BF006C00CF007C00DF008C075
:100B48000EF0AFEF05F001C00BF002C00CF003C0CF
:100B58000DF004C00EF00150021003100410D8A4C8
:100B6800B8EF05F0BAEF05F0C4EF05F0000E016E1E
:100B7800000E026E000E036E000E046E55EF06F0B6
:100B8800960E0A6ECEEF05F00A2AD8900E320D3274
:100B98000C320B32000E0B14056E000E0C14066E90
:100BA800000E0D14076EFE0E0E14086E055006108A
:100BB80007100810D8A4E3EF05F0E5EF05F0C8EF3B
:100BC80005F0F3EF05F00A2A010E0B26000E0C22A1
:100BD8000D220E22D8900E320D320C320B32000E3E
:100BE8000B14056E000E0C14066E000E0D14076E25
:100BF800FF0E0E14086E0550061007100810D8A432
:100C080008EF06F00AEF06F0E7EF05F012EF06F03E
:100C18000A06D8900B360C360D360E360DBE17EF79
:100C280006F019EF06F021EF06F0020E0A601FEF3A
:100C380006F021EF06F00CEF06F00AB026EF06F0FA
:100C480028EF06F029EF06F00D9ED8900A320AC068
:100C580005F0066A076A086A05C008F0076A066AA6
:100C6800056A05500B1206500C1207500D12085059
:100C78000E120950D8B443EF06F045EF06F04DEFD9
:100C880006F004BE4CEF06F04AEF06F04DEF06F012
:100C98000E8E0BC001F00CC002F00DC003F00EC0A8
:100CA80004F01200000E166E000E156E000E0F6E88
:100CB800000E0E6E62EF06F0084A092A010E146E45
:100CC80008C0D9FF09C0DAFF200EDE18D8B46FEFCC
:100CD80006F071EF06F08DEF06F0F70E0A6EFF0EC4
:100CE8000B6E08C0D9FF09C0DAFFDF500C6E0D6A21
:100CF8000A500C260B500D220D5009E1050E0C5C14
:100D0800D8A089EF06F08BEF06F08DEF06F0000E05
:100D1800146E14C010F0116A10501110D8A497EF77
:100D280006F099EF06F060EF06F0A3EF06F0000E6C
:100D38000F6E010E0E6E084A092AD8EF06F008C099
:100D4800D9FF09C0DAFFDF500A6E0B6A0B50000AA0
:100D5800D8B4B1EF06F0D8EF06F00A502B0AD8B491
:100D68009FEF06F0060AD8B49BEF06F0D8EF06F01E
:100D780015C001F016C002F0000E046E0A0E036ED4
:100D880037EC0CF008C0D9FF09C0DAFFDF500A6E53
:100D98000A50015E000E025A300E0124156E000E34
:100DA8000220166E9FEF06F0D00E0A6EFF0E0B6E35
:100DB80008C0D9FF09C0DAFFDF500C6E0D6A0A506F
:100DC8000C260B500D220D500AE10A0E0C5CD8A01F
:100DD800F0EF06F0F3EF06F0010EF4EF06F0000E68
:100DE800126E136A12501310D8A4FDEF06F0FFEF2D
:100DF80006F0BCEF06F00E500F10D8A406EF07F06F
:100E080008EF07F016EF07F015C00AF016C00BF050
:100E18000A1E0B1E0A4A0B2A0AC008F00BC009F06A
:100E28001AEF07F015C008F016C009F012000D6E91
:100E3800000E106E000E0F6E0D500F240E6E0F5028
:100E48000924D96E10500A20DA6EDF50016E0E5058
:100E5800ADEC0BF00F4A102A10BE3CEF07F0105013
:100E680009E1030E0F5CD8A03CEF07F03EEF07F056
:100E780020EF07F06C0E016E7F0E026E000E046EFE
:100E8800130E036EB4EC0AF0000E126E000E116E13
:100E98000D501124030F0E6E115009240B6E1250C1
:100EA8000A200C6E040E0B24D96E000E0C20DA6E8C
:100EB800DF50016E0E50ADEC0BF0114A122A12BE33
:100EC8006FEF07F0125009E1030E115CD8A06FEF25
:100ED80007F071EF07F04CEF07F07F0E016E7F0E01
:100EE800026E000E046E130E036EB4EC0AF0000ED0
:100EF800146E000E136E0D501324060F0E6E135051
:100F080009240B6E14500A200C6E080E0B24D96E9F
:100F1800000E0C20DA6EDF50016E0E50ADEC0BF0B7
:100F2800134A142A14BEA2EF07F0145009E1030E65
:100F3800135CD8A0A2EF07F0A4EF07F07FEF07F04B
:100F4800920E016E7F0E026E000E046E130E036E7B
:100F5800B4EC0AF01200086E530E0818D8A4B7EFC4
:100F680007F0B9EF07F0BDEF07F06CEC0CF0BFEF3E
:100F780007F05CEC0CF083908394000E0A6E000E70
:100F8800096E000E0C6E000E0B6ECA841AEF08F084
:100F98000350095C0A50800A076E0450800A0758FB
:100FA800D8B0D9EF07F0DBEF07F0F2EF07F082A433
:100FB800E0EF07F0E2EF07F0EEEF07F009C001F00D
:100FC8000AC002F0F7EC0BF001C009F002C00AF009
:100FD800F3EF07F0000E586EF3EF07F0838005502B
:100FE8000B5C0C50800A076E0650800A0758D8B070
:100FF80000EF08F002EF08F019EF08F082A207EFFF
:1010080008F009EF08F015EF08F00BC001F00CC06C
:1010180002F0DFEC0BF001C00BF002C00CF01AEF8D
:1010280008F0000E576E1AEF08F083840350095C2D
:101038000A50800A076E0450800A0758D8A027EF84
:1010480008F029EF08F0CCEF07F005500B5C0C50C6
:10105800800A076E0650800A0758D8A036EF08F0B5
:1010680038EF08F0CCEF07F0000E586E000E0C6E4B
:10107800000E0B6E000E576ECA941200000E0A6E18
:1010880008BE4BEF08F049EF08F055EF08F0081ECE
:10109800071E061E056C000E062207220822010EF6
:1010A8000A6E04BE5CEF08F05AEF08F066EF08F02D
:1010B800041E031E021E016C000E022203220422DB
:1010C800010E0A1A000E0B6E000E0C6E000E0D6E4D
:1010D800000E0E6E0550061007100810D8B477EFF2
:1010E80008F079EF08F0AFEF08F0010E096E83EF12
:1010F80008F0D8900536063607360836092A08AEAD
:1011080088EF08F08AEF08F07DEF08F0D8900B36EA
:101118000C360D360E360550015C06500258075045
:10112800035808500458D8A09CEF08F09EEF08F028
:10113800A7EF08F00550015E0650025A0750035AFF
:101148000850045A0B80D89008320732063205320C
:10115800092E8AEF08F00A50D8B4B5EF08F0B7EFB7
:1011680008F0BFEF08F00E1E0D1E0C1E0B6C000ED3
:101178000C220D220E220BC001F00CC002F00DC093
:1011880003F00EC004F012002A342B34316E3150B3
:10119800D8A4D1EF08F0D3EF08F0DDEF08F0000E87
:1011A800286E000E296E000E2A6E000E2B6E4AEF76
:1011B80009F028C02CF029C02DF02AC02EF02BC031
:1011C8002FF0200EEDEF08F0D8902F322E322D326E
:1011D8002C32E82EE8EF08F02C50306E2A8EFF0EE5
:1011E8002816FF0E2916FF0E2A16000E2B16960E2D
:1011F800315E31BE04EF09F002EF09F01AEF09F091
:101208003150800A970FD8B00CEF09F00EEF09F0B3
:1012180010EF09F0D3EF08F0D8902B322A32293298
:101228002832313E10EF09F032EF09F01F0E316419
:1012380020EF09F022EF09F02AEF09F0D3EF08F0C8
:10124800D890283629362A362B3631063150D8A47C
:1012580030EF09F032EF09F024EF09F03050D8B43C
:1012680038EF09F03AEF09F042EF09F02B1E2A1E79
:10127800291E286C000E29222A222B2228C028F099
:1012880029C029F02AC02AF02BC02BF012004150A7
:10129800015C0250800A036E4250800A0358D8B09D
:1012A80058EF09F05AEF09F063EF09F083960150FF
:1012B800415C456E02504258466E8BEF09F0015072
:1012C800415C4250800A036E0250800A0358D8B02D
:1012D80070EF09F072EF09F07BEF09F08386415057
:1012E800015C456E42500258466E8BEF09F0415042
:1012F800011807E142500218D8A485EF09F087EFDA
:1013080009F08BEF09F0000E466E000E456E1200D4
:101318004350015C0250800A036E4450800A03580F
:10132800D8B099EF09F09BEF09F0A4EF09F0839288
:101338000150435C476E02504458486ECCEF09F0A8
:101348000150435C4450800A036E0250800A0358DF
:10135800D8B0B1EF09F0B3EF09F0BCEF09F0838220
:101368004350015C476E44500258486ECCEF09F078
:101378004350011807E144500218D8A4C6EF09F0F9
:10138800C8EF09F0CCEF09F0000E486E000E476E6A
:1013980012003C6E38C001F039C002F08CEC09F044
:1013A8003AC001F03BC002F04BEC09F047C032F004
:1013B80048C033F00CEC0AF032C04BF033C04CF0AC
:1013C80045C032F046C033F00CEC0AF032C049F0A8
:1013D80033C04AF038C043F039C044F03AC041F055
:1013E8003BC042F04BC003F04CC004F049C005F0CC
:1013F8004AC006F03C50AFEC07F0E00E016E7F0EDD
:10140800026E000E046E0A0E036EB4EC0AF01200AF
:10141800CD0E346ECC0E356E4C0E366E3E0E376EDB
:1014280034C013F035C014F036C015F037C016F0CC
:1014380032C001F033C002F0000E02BEFF0E036E90
:10144800046E010E7CEC05F001C00FF002C010F034
:1014580003C011F004C012F009EC00F00FC028F02E
:1014680010C029F011C02AF012C02BF0C8EC08F007
:1014780028C04DF029C04EF04DC032F04EC033F0B8
:101488001200949C948E0FC005F010C006F011C095
:1014980007F012C008F0000E016E120E026E7A0EEE
:1014A800036E000E046E42EC08F001C013F002C097
:1014B80014F003C015F004C016F013C001F014C0F6
:1014C80002F015C003F016C004F0400E056E000EC1
:1014D800066E000E076E000E086E42EC08F001045E
:1014E800AF6EAC94AC98AB8EAC9CAC8AAB9CAB8822
:1014F8001200000E216E000E206E205017241B6E65
:10150800215018201C6E040E1B24D96E000E1C20BE
:10151800DA6E1D0E2024E16E000E2120E26EDFCF70
:10152800E7FF204A212A21BEA3EF0AF0215009E152
:10153800030E205CD8A0A3EF0AF0A5EF0AF081EF14
:101548000AF01D0E086E000E096E56EC06F019C062
:10155800D9FF1AC0DAFF08C0DEFF09C0DDFF12009C
:10156800000E086E000E076EDAEF0AF09EA8BFEFB5
:101578000AF0C1EF0AF0BAEF0AF007500124056E2D
:1015880008500220066E05C0F6FF06C0F7FFF86A8D
:10159800070EF76403D00800F55005D0F6CFE9FF31
:1015A800F7CFEAFFEF50AD6E074A082A0350075CF1
:1015B8000850800A056E0450800A0558D8A0E7EF45
:1015C8000AF0E9EF0AF0BAEF0AF01200000E1F6EF7
:1015D800000E1E6E1E501724D96E1F501820DA6E8A
:1015E8001B0E1E24E16E000E1F20E26EDFCFE7FF08
:1015F8001E4A1F2A1FBE0AEF0BF01F5009E1030EF7
:101608001E5CD8A00AEF0BF00CEF0BF0EEEF0AF01F
:101618001B0E086E000E096E56EC06F019C0D9FFB5
:101628001AC0DAFF08C0DEFF09C0DDFF1200066E2F
:10163800000E086E000E076E33EF0BF09EAA27EF20
:101648000BF029EF0BF022EF0BF007500124D96EB5
:1016580008500220DA6EAECFDFFF074A082A06508C
:10166800036E046A0350075C0850800A056E045034
:10167800800A0558D8A043EF0BF045EF0BF022EF96
:101688000BF01200010E076E200E01180210D8B4DC
:1016980050EF0BF052EF0BF06BEF0BF0F70E036E01
:1016A800FF0E046E01C005F002C006F003500526C7
:1016B80004500622065009E1050E055CD8A067EF24
:1016C8000BF069EF0BF06BEF0BF0000E076E07C025
:1016D80001F0026A12000ABE7DEF0BF02D0E095CC4
:1016E800010E0A58D8B07BEF0BF07DEF0BF084EFBA
:1016F8000BF00ABE84EF0BF082EF0BF090EF0BF0CB
:10170800740E016E7D0E026E000E046E230E036EC3
:10171800B4EC0AF0010E536E1200D00E036EFF0EE9
:10172800046E01C005F002C006F0035005260450FF
:10173800062206500AE10A0E055CD8A0A6EF0BF0B7
:10174800A9EF0BF0010EAAEF0BF0000E016E026A72
:101758001200026E02C0A9FF01C0A8FFA69EA69CA7
:10176800A684F29E550EA76EAA0EA76EA682F28ECA
:10177800A1A8C1EF0BF0C3EF0BF0BCEF0BF0A198E1
:10178800A69412008B80020E0A6E040E096EBA0E21
:10179800E82EFED7092EFCD70A2EFAD700D08B9058
:1017A800F30E016E7F0E026E000E046E060E036EBF
:1017B800B4EC0AF0120082A2E4EF0BF0E6EF0BF0B3
:1017C800F2EF0BF05750D8A4ECEF0BF0EEEF0BF064
:1017D800F2EF0BF0014A022A010E576E01C001F028
:1017E80002C002F0120082A4FCEF0BF0FEEF0BF037
:1017F8000AEF0CF05850D8A404EF0CF006EF0CF0E8
:101808000AEF0CF0014A022A010E586E01C001F0DD
:1018180002C002F0120081B414EF0CF016EF0CF0C5
:1018280023EF0CF05150D8A41CEF0CF01EEF0CF075
:1018380023EF0CF000016E4B6F2B010E516E12005E
:1018480000EE60F0280EEE6AE806FDE100EE41F0D9
:101858001E0EEE6AE806FDE15F905F92000EF86EDC
:101868000001D6EF01F001500302F3CF05F0F4CFE9
:1018780006F001500402F350062602500302F3500A
:10188800062605C001F006C002F012000600838299
:1018980081B451EF0CF053EF0CF056EF0CF00FEC55
:1018A8000CF0F092000E516E8392F0925F9211004C
:1018B8007C0ECB6E3E0EBE6E3E0EBB6E9492949422
:1018C800030ECA6E0C0EBD6E0C0EBA6ECA941200D0
:1018D800CB683E0EBE6E3E0EBB6E94929494030E81
:1018E800CA6E0C0EBD6E0C0EBA6ECA9412008B90A6
:1018F800EA0E016E7F0E026E000E046E090E036E74
:10190800B4EC0AF012008B80EA0E016E7F0E026EB4
:10191800000E046E090E036EB4EC0AF01200016E9C
:1019280001C0A9FFA69EA69CA680A8CF52F052503F
:1019380012009EAAA2EF0CF0A4EF0CF09DEF0CF0A1
:04194800AE5012008B
:107CA4000000000000DCCFD1350000000000C0154A
:107CB4003F6042A20D70A5EC363BAAB83F4F387620
:107CC4003F3CAA38338CBEBF350072313F18723145
:107CD4003F4CBB31330EEADDB555B38A38610B3600
:107CE400BBABAA2A3E42F1533E55326C3E05A38BF0
:107CF4003EABAAAA3EB76DDB3E9A99193F6042A2F9
:107D04000DCAF249710000804B0000803F0000C0A2
:107D14003F00AAB83FC623F6B80040763F504C4512
:107D240041534520494E5345525420544845204917
:107D34004E535452554354494F4E204F46205345B9
:107D440054504F494E5400504C45415345204D4FDB
:107D5400444946592054484520534554504F494EB0
:107D64005420414E442054525920414741494E0029
:107D74004552524F5220434F5244494E4154455369
:107D8400204F555453494445205448452052414EB0
:107D9400474500434F4F5244494E415445204F46B6
:107DA40020534554504F494E542031302000434F06
:107DB4004F5244494E415445204F46205345545058
:107DC4004F494E542031312000434F4F5244494EC5
:107DD400415445204F4620534554504F494E54205A
:107DE40031322000434F4F5244494E415445204FB5
:107DF4004620534554504F494E54203133200043BC
:107E04004F4F5244494E415445204F462053455408
:107E1400504F494E542031342000434F4F5244496F
:107E24004E415445204F4620534554504F494E54DB
:107E34002031352000434F4F5244494E4154452090
:107E44004F4620534554504F494E54203020004350
:107E54004F4F5244494E415445204F4620534554B8
:107E6400504F494E5420312000434F4F5244494E05
:107E7400415445204F4620534554504F494E5420B9
:107E8400322000434F4F5244494E415445204F46FF
:107E940020534554504F494E5420332000434F4FF4
:107EA4005244494E415445204F4620534554504F67
:107EB400494E5420342000434F4F5244494E4154BC
:107EC40045204F4620534554504F494E54203520A9
:107ED40000434F4F5244494E415445204F4620538E
:107EE4004554504F494E5420362000434F4F52447E
:107EF400494E415445204F4620534554504F494E16
:107F04005420372000434F4F5244494E415445209A
:107F14004F4620534554504F494E54203820004377
:107F24004F4F5244494E415445204F4620534554E7
:107F3400504F494E542039200057414954494E4727
:107F440020464F5220494E535452554354494F4EA4
:107F5400005741495420554E54494C20434F4D50ED
:107F64004C4554452E2E2E00434F4F5244494E410A
:107F74005445205820534156454400434F4F5244E2
:107F8400494E415445205920534156454400434FDE
:107F94004F5244494E415445205A2053415645447A
:107FA4000057454C434F4D4520544F2053504152A8
:107FB4004B00434F4F5244494E41544520583A00D8
:107FC400434F4F5244494E41544520593A00434F80
:107FD4004F5244494E415445205A3A00434F4D5064
:107FE4004C4554454400434F4D504C455445005472
:0B7FF4004F5543480052454144000037
:020000040020DA
:08000000FFFFFFFFFFFFFFFF00
:020000040030CA
:0E00000000081F1EFF8181FF0FC00FE00F40A0
:00000001FF
