:020000040000FA
:0400000007EF00F016
:100008005F820CED0AF0E6EF09F01250800B1F6ECC
:1000180012501224266E11AE14EF00F016EF00F005
:1000280017EF00F026802650D8B41DEF00F01FEF20
:1000380000F034EF00F02628D8A425EF00F027EFD1
:1000480000F02FEF00F0000E0F6E000E106E000E85
:10005800116E000E126E118E000E126E3CEF00F043
:10006800000E0F6E000E106E000E116E000E126E56
:100078001650800B1F1A16501624276E15AE47EF20
:1000880000F049EF00F04AEF00F027802750D8B47D
:1000980050EF00F052EF00F067EF00F02728D8A4E7
:1000A80058EF00F05AEF00F062EF00F0000E136E08
:1000B800000E146E000E156E000E166E158E000ED4
:1000C800166E6FEF00F0000E136E000E146E000E29
:1000D800156E000E166E1350141015101610D8A4B5
:1000E80078EF00F07AEF00F092EF00F0000E0F6E5C
:1000F800000E106E000E116E000E126E800E1112A0
:100108007F0E12121F5012120FC00FF010C010F005
:1001180011C011F012C012F0D5EF01F02650D8A48A
:1001280098EF00F09AEF00F0A4EF00F0000E0F6EC9
:10013800000E106E000E116E000E126ED5EF01F05B
:10014800275026C017F0186A175E000E185A7F0E3F
:100158001724206E000E1820216E0FC01BF010C04F
:100168001CF011C01DF012C01EF0000E0F6E000E24
:10017800106E000E116E000E126E000E226E000E32
:10018800236E000E246E000E256E000E276E05EFFE
:1001980001F02750D8B4D3EF00F0D5EF00F0ECEF22
:1001A80000F0D8901B361C361D361E36D8900F36F8
:1001B80010361136123625AEE4EF00F0E6EF00F007
:1001C800E7EF00F00F80D890223623362436253604
:1001D80013501B5C14501C5815501D5816501E58AF
:1001E800D8A0F9EF00F0FBEF00F004EF01F0258C48
:1001F80013501B5E14501C5A15501D5A16501E5A87
:10020800272A190E27640BEF01F00DEF01F0CDEF4F
:1002180000F01B501C101D101E10D8B416EF01F072
:1002280018EF01F030EF01F0228030EF01F0D890A4
:100238000F3610361136123625AE25EF01F027EFAE
:1002480001F028EF01F00F80D890223623362436AB
:1002580025362006D8A0210611AE35EF01F037EF7C
:1002680001F01BEF01F0000E276E25AE3EEF01F006
:1002780040EF01F064EF01F0FF0E2214176EFF0E3D
:100288002314186EFF0E2414196E7F0E25141A6E8F
:100298001750181019101A10D8B455EF01F057EF6D
:1002A80001F05BEF01F0010E276E64EF01F00FA083
:1002B80060EF01F062EF01F064EF01F057EF01F039
:1002C8002750D8B46AEF01F06CEF01F090EF01F01D
:1002D800010E0F26000E10221122122212A077EF13
:1002E80001F079EF01F090EF01F00FC017F010C0A6
:1002F80018F011C019F012C01AF01A341A32193253
:100308001832173217C00FF018C010F019C011F0CA
:100318001AC012F0204A212A21BE9BEF01F0215079
:1003280008E12028D8A09BEF01F09DEF01F0A8EF8D
:1003380001F0000E216E2068000E0F6E000E106E88
:10034800000E116E000E126E21BEB5EF01F02150A5
:1003580006E12004D8B0B3EF01F0B5EF01F0C3EF28
:1003680001F0000E216E000E206E000E0F6E000EC2
:10037800106E000E116E000E126E000E1F6E20C061
:1003880026F026A0CAEF01F0CCEF01F0CFEF01F084
:10039800118ED0EF01F0119ED8902630126E86EFA4
:1003A80000F01200800E0F6E250E106E000E116EFA
:1003B800000E126E3EEC08F09590959495929596E5
:1003C8008380838094929494829261EC0AF03F6EC9
:1003D80087EF02F06B0E016E000E026E070E19EC2D
:1003E80009F06B0E176E000E186E5D0E196E000E7A
:1003F8001A6EE8EC08F06B0E176E000E186E5B0EA6
:10040800196E000E1A6EB1EC08F05DC038F05EC0CF
:1004180039F05BC03AF05CC03BF03F5001EC08F0AB
:10042800E9EF01F06B0E016E000E026E070E19EC7B
:1004380009F06B0E176E000E186E5D0E196E000E29
:100448001A6EE8EC08F06B0E176E000E186E5B0E55
:10045800196E000E1A6EB1EC08F05DC038F05EC07F
:1004680039F05BC03AF05CC03BF03F5001EC08F05B
:10047800E9EF01F03DEC0AF0E9EF01F06CEC0AF06D
:10048800E9EF01F06AEC0AF0E9EF01F061EC0AF03B
:10049800566E5650E4EC04F0566E5D0E176E000E64
:1004A800186E5B0E196E000E1A6E590E1B6E000E3A
:1004B8001C6E56507FEC06F05DC038F05EC039F017
:1004C8005BC03AF05CC03BF03F5001EC08F0E9EF4C
:1004D80001F061EC0AF0566E600E016E000E026EBD
:1004E8000B0E19EC09F04D0E4CEC0AF05650E4ECEA
:1004F80004F0566E600E036E000E046E5650F5EC56
:1005080006F0E9EF01F03F503D6E3E6A3E50000AAA
:10051800D8B491EF02F0E9EF01F03D50460AD8B4A3
:10052800EEEF01F00E0AD8B442EF02F0050AD8B493
:100538006DEF02F0020AD8B44AEF02F01D0AD8B4EF
:1005480046EF02F0010AD8B416EF02F0070AD8B451
:100558003EEF02F0E9EF01F007EF00F0096E0950F5
:10056800D8B4B9EF02F0BBEF02F0DDEF02F004BE41
:10057800C2EF02F0C0EF02F0DDEF02F001C005F0BB
:1005880002C006F003C007F004C008F0051E061EEE
:10059800071E081E052A000E06220722082205C08B
:1005A8000BF006C00CF007C00DF008C00EF0E5EF28
:1005B80002F001C00BF002C00CF003C00DF004C043
:1005C8000EF00150021003100410D8A4EEEF02F050
:1005D800F0EF02F0FAEF02F0000E016E000E026E6C
:1005E800000E036E000E046E8BEF03F0960E0A6E7B
:1005F80004EF03F00A2AD8900E320D320C320B3277
:10060800000E0B14056E000E0C14066E000E0D1471
:10061800076EFE0E0E14086E05500610071008101F
:10062800D8A419EF03F01BEF03F0FEEF02F029EF57
:1006380003F00A2A010E0B26000E0C220D220E22B0
:10064800D8900E320D320C320B32000E0B14056EA0
:10065800000E0C14066E000E0D14076EFF0E0E141D
:10066800086E0550061007100810D8A43EEF03F0D6
:1006780040EF03F01DEF03F048EF03F00A06D890AF
:100688000B360C360D360E360DBE4DEF03F04FEF20
:1006980003F057EF03F0020E0A6055EF03F057EF2F
:1006A80003F042EF03F00AB05CEF03F05EEF03F0F3
:1006B8005FEF03F00D9ED8900A320AC005F0066A73
:1006C800076A086A05C008F0076A066A056A0550DD
:1006D8000B1206500C1207500D1208500E1209503A
:1006E800D8B479EF03F07BEF03F083EF03F004BE97
:1006F80082EF03F080EF03F083EF03F00E8E0BC060
:1007080001F00CC002F00DC003F00EC004F012009E
:10071800000E166E000E156E000E0F6E000E0E6E99
:1007280098EF03F0084A092A010E146E08C0D9FF91
:1007380009C0DAFF200EDE18D8B4A5EF03F0A7EF42
:1007480003F0C3EF03F0F70E0A6EFF0E0B6E08C03E
:10075800D9FF09C0DAFFDF500C6E0D6A0A500C266B
:100768000B500D220D5009E1050E0C5CD8A0BFEF0F
:1007780003F0C1EF03F0C3EF03F0000E146E14C0D2
:1007880010F0116A10501110D8A4CDEF03F0CFEF7C
:1007980003F096EF03F0D9EF03F0000E0F6E010E91
:1007A8000E6E084A092A0EEF04F008C0D9FF09C0E6
:1007B800DAFFDF500A6E0B6A0B50000AD8B4E7EF75
:1007C80003F00EEF04F00A502B0AD8B4D5EF03F06B
:1007D800060AD8B4D1EF03F00EEF04F015C001F00B
:1007E80016C002F0000E046E0A0E036EF9EC09F052
:1007F80008C0D9FF09C0DAFFDF500A6E0A50015E4F
:10080800000E025A300E0124156E000E0220166EDC
:10081800D5EF03F0D00E0A6EFF0E0B6E08C0D9FF9D
:1008280009C0DAFFDF500C6E0D6A0A500C260B5017
:100838000D220D500AE10A0E0C5CD8A026EF04F038
:1008480029EF04F0010E2AEF04F0000E126E136A6D
:1008580012501310D8A433EF04F035EF04F0F2EF80
:1008680003F00E500F10D8A43CEF04F03EEF04F054
:100878004CEF04F015C00AF016C00BF00A1E0B1E50
:100888000A4A0B2A0AC008F00BC009F050EF04F01E
:1008980015C008F016C009F01200086E530E0818AB
:1008A800D8A459EF04F05BEF04F05FEF04F02EECEE
:1008B8000AF061EF04F01EEC0AF083908394CA8476
:1008C800000E0A6E000E096E000E0C6E000E0B6E06
:1008D800BCEF04F00350095C0A50800A076E04500C
:1008E800800A0758D8B07BEF04F07DEF04F094EF4E
:1008F80004F082A482EF04F084EF04F090EF04F097
:1009080009C001F00AC002F0BAEC09F001C009F010
:1009180002C00AF095EF04F0000E586E95EF04F04F
:10092800838005500B5C0C50800A076E0650800AC5
:100938000758D8B0A2EF04F0A4EF04F0BBEF04F01E
:1009480082A2A9EF04F0ABEF04F0B7EF04F00BC0FC
:1009580001F00CC002F0A2EC09F001C00BF002C0DB
:100968000CF0BCEF04F0000E576EBCEF04F083846B
:100978000350095C0A50800A076E0450800A075821
:10098800D8A0C9EF04F0CBEF04F06EEF04F00550E7
:100998000B5C0C50800A076E0650800A0758D8A0D6
:1009A800D8EF04F0DAEF04F06EEF04F0000E586EA2
:1009B800000E0C6E000E0B6E000E576ECA941200DD
:1009C800036E27EF05F0000E036E74EF05F0100EAE
:1009D800036E74EF05F0200E036E74EF05F0300E11
:1009E800036E74EF05F0400E036E74EF05F0500EC1
:1009F800036E74EF05F0600E036E74EF05F0700E71
:100A0800036E74EF05F0800E036E74EF05F0900E20
:100A1800036E74EF05F0A00E036E74EF05F0B00ED0
:100A2800036E74EF05F0C00E036E74EF05F0D00E80
:100A3800036E74EF05F0E00E036E74EF05F0F00E30
:100A4800036E74EF05F00350016E026A0250000A4B
:100A5800D8B431EF05F074EF05F00150300AD8B47E
:100A6800E7EF04F0010AD8B4EBEF04F0030AD8B4B6
:100A7800EFEF04F0010AD8B4F3EF04F0070AD8B492
:100A8800F7EF04F0010AD8B4FBEF04F0030AD8B476
:100A9800FFEF04F0010AD8B403EF05F00F0AD8B449
:100AA80007EF05F0010AD8B40BEF05F0780AD8B4BF
:100AB8000FEF05F0030AD8B413EF05F0010AD8B414
:100AC80017EF05F0070AD8B41BEF05F0010AD8B4F0
:100AD8001FEF05F0030AD8B423EF05F074EF05F013
:100AE80003501200000E0A6E08BE7FEF05F07DEF7E
:100AF80005F089EF05F0081E071E061E056C000E9E
:100B0800062207220822010E0A6E04BE90EF05F0A5
:100B18008EEF05F09AEF05F0041E031E021E016C0D
:100B2800000E022203220422010E0A1A000E0B6E86
:100B3800000E0C6E000E0D6E000E0E6E05500610A7
:100B480007100810D8B4ABEF05F0ADEF05F0E3EFF0
:100B580005F0010E096EB7EF05F0D8900536063698
:100B680007360836092A08AEBCEF05F0BEEF05F0D7
:100B7800B1EF05F0D8900B360C360D360E36055011
:100B8800015C065002580750035808500458D8A072
:100B9800D0EF05F0D2EF05F0DBEF05F00550015E70
:100BA8000650025A0750035A0850045A0B80D8902E
:100BB8000832073206320532092EBEEF05F00A5018
:100BC800D8B4E9EF05F0EBEF05F0F3EF05F00E1EF2
:100BD8000D1E0C1E0B6C000E0C220D220E220BC0DB
:100BE80001F00CC002F00DC003F00EC004F01200BA
:100BF8002A342B34316E3150D8A405EF06F007EFB4
:100C080006F011EF06F0000E286E000E296E000E99
:100C18002A6E000E2B6E7EEF06F028C02CF029C03D
:100C28002DF02AC02EF02BC02FF0200E21EF06F059
:100C3800D8902F322E322D322C32E82E1CEF06F0AF
:100C48002C50306E2A8EFF0E2816FF0E2916FF0E26
:100C58002A16000E2B16960E315E31BE38EF06F0BE
:100C680036EF06F04EEF06F03150800A970FD8B0F5
:100C780040EF06F042EF06F044EF06F007EF06F00B
:100C8800D8902B322A3229322832313E44EF06F0EE
:100C980066EF06F01F0E316454EF06F056EF06F0CB
:100CA8005EEF06F007EF06F0D890283629362A3688
:100CB8002B3631063150D8A464EF06F066EF06F003
:100CC80058EF06F03050D8B46CEF06F06EEF06F02F
:100CD80076EF06F02B1E2A1E291E286C000E2922EC
:100CE8002A222B2228C028F029C029F02AC02AF05D
:100CF8002BC02BF01200296E000E2A6E29502A24D0
:100D0800266E1D0E2A24D96EDA6A000EDA222650C3
:100D180057EC0AF0DF6E2A2A020E2A6496EF06F0D4
:100D280098EF06F082EF06F0000E2B6E29502B2468
:100D3800030F276E200E2B24D96EDA6A000EDA22F2
:100D4800275057EC0AF0DF6E2B2A020E2B64AFEF08
:100D580006F0B1EF06F09AEF06F0000E2C6E29505F
:100D68002C24060F286E230E2C24D96EDA6A000E66
:100D7800DA22285057EC0AF0DF6E2C2A020E2C6477
:100D8800C8EF06F0CAEF06F0B3EF06F01D0E086EC6
:100D9800000E096E8CEC03F017C0D9FF18C0DAFFFB
:100DA80008C0DEFF09C0DDFF200E086E000E096EC8
:100DB8008CEC03F019C0D9FF1AC0DAFF08C0DEFFB7
:100DC80009C0DDFF230E086E000E096E8CEC03F0DF
:100DD8001BC0D9FF1CC0DAFF08C0DEFF09C0DDFF59
:100DE8001200076E000E0A6E000E096E07500924E5
:100DF800086E09500324D96E0A500420DA6EDF50B9
:100E0800016E085089EC09F0094A0A2A0ABE16EF51
:100E180007F00A5009E1030E095CD8A016EF07F0A5
:100E280018EF07F0FAEF06F0000E0C6E000E0B6ECE
:100E380007500B24030F086E0B500324056E0C504B
:100E48000420066E040E0524D96E000E0620DA6E04
:100E5800DF50016E085089EC09F00B4A0C2A0CBED1
:100E68003FEF07F00C5009E1030E0B5CD8A03FEFF1
:100E780007F041EF07F01CEF07F0000E0E6E000EB2
:100E88000D6E07500D24060F086E0D500324056ED5
:100E98000E500420066E080E0524D96E000E06209A
:100EA800DA6EDF50016E085089EC09F00D4A0E2AFF
:100EB8000EBE68EF07F00E5009E1030E0D5CD8A0D6
:100EC80068EF07F06AEF07F045EF07F0120050509F
:100ED800025C0350800A046E5150800A0458D8B04E
:100EE80078EF07F07AEF07F086EF07F02D0E4CEC5D
:100EF8000AF083960250505C466E03505158476E74
:100F0800B1EF07F00250505C5150800A046E035054
:100F1800800A0458D8B093EF07F095EF07F0A1EFD7
:100F280007F02B0E4CEC0AF083865050025C466E9C
:100F380051500358476EB1EF07F05050021807E1BF
:100F480051500318D8A4ABEF07F0ADEF07F0B1EF9D
:100F580007F0000E476E000E466E46C002F047C00E
:100F680003F012005250025C0350800A046E535082
:100F7800800A0458D8B0C3EF07F0C5EF07F0D1EFE7
:100F880007F02D0E4CEC0AF083920250525C486E2A
:100F980003505358496EFCEF07F00250525C53500F
:100FA800800A046E0350800A0458D8B0DEEF07F0B8
:100FB800E0EF07F0ECEF07F02B0E4CEC0AF0838221
:100FC8005250025C486E53500358496EFCEF07F0CC
:100FD8005250021807E153500318D8A4F6EF07F04F
:100FE800F8EF07F0FCEF07F0000E496E000E486EB0
:100FF80048C002F049C003F012003C6E38C002F04D
:1010080039C003F0B6EC07F002C044F003C045F065
:101018003AC002F03BC003F06BEC07F002C042F0AC
:1010280003C043F044C032F045C033F078EC08F018
:1010380032C04CF033C04DF042C032F043C033F000
:1010480078EC08F032C04AF033C04BF038C052F0A8
:1010580039C053F03AC050F03BC051F04CC003F0D7
:101068004DC004F04AC005F04BC006F03C5051ECAE
:1010780004F01200720ED36E949C948E0FC005F08B
:1010880010C006F011C007F012C008F0000E016E83
:10109800120E026E7A0E036E000E046E76EC05F0E8
:1010A80001C013F002C014F003C015F004C016F01C
:1010B80013C001F014C002F015C003F016C004F00C
:1010C800400E056E000E066E000E076E000E086ECE
:1010D80076EC05F00104AF6EAC94AC98AB8EAC9C8A
:1010E800AC8AAB9CAB881200CD0E346ECC0E356E3C
:1010F8004C0E366E3E0E376E34C013F035C014F009
:1011080036C015F037C016F032C001F033C002F017
:10111800000E02BEFF0E036E046E010EB2EC02F06A
:1011280001C00FF002C010F003C011F004C012F0AB
:1011380009EC00F00FC028F010C029F011C02AF007
:1011480012C02BF0FCEC05F028C04EF029C04FF07F
:101158004EC032F04FC033F01200000E216E000E68
:10116800206E205017241B6E215018201C6E040E70
:101178001B24D96E000E1C20DA6E1D0E2024E16E91
:10118800000E2120E26EDFCFE7FF204A212A21BE90
:10119800D7EF08F0215009E1030E205CD8A0D7EF63
:1011A80008F0D9EF08F0B5EF08F01D0E086E000E34
:1011B800096E8CEC03F019C0D9FF1AC0DAFF08C019
:1011C800DEFF09C0DDFF1200000E1F6E000E1E6E4E
:1011D8001E501724D96E1F501820DA6E1B0E1E24BD
:1011E800E16E000E1F20E26EDFCFE7FF1E4A1F2AC6
:1011F8001FBE08EF09F01F5009E1030E1E5CD8A0BE
:1012080008EF09F00AEF09F0ECEF08F01B0E086E82
:10121800000E096E8CEC03F019C0D9FF1AC0DAFF72
:1012280008C0DEFF09C0DDFF1200066E000E086E62
:10123800000E076E31EF09F09EAA25EF09F027EF9F
:1012480009F020EF09F007500124D96E0850022058
:10125800DA6EAECFDFFF074A082A0650036E046A2B
:101268000350075C0850800A056E0450800A055830
:10127800D8A041EF09F043EF09F020EF09F0120080
:10128800010E076E200E01180210D8B44EEF09F0B7
:1012980050EF09F069EF09F0F70E036EFF0E046EC8
:1012A80001C005F002C006F00350052604500622CE
:1012B800065009E1050E055CD8A065EF09F067EF57
:1012C80009F069EF09F0000E076E07C001F0026A25
:1012D8001200D00E036EFF0E046E01C005F002C0AE
:1012E80006F0035005260450062206500AE10A0EAD
:1012F800055CD8A082EF09F085EF09F0010E86EFB2
:1013080009F0000E016E026A1200026E02C0A9FF07
:1013180001C0A8FFA69EA69CA684F29E550EA76EA5
:10132800AA0EA76EA682F28EA1A89DEF09F09FEFE4
:1013380009F098EF09F0A198A694120082A2A7EFED
:1013480009F0A9EF09F0B5EF09F05750D8A4AFEFAD
:1013580009F0B1EF09F0B5EF09F0014A022A010ED0
:10136800576E01C001F002C002F0120082A4BFEF64
:1013780009F0C1EF09F0CDEF09F05850D8A4C7EF34
:1013880009F0C9EF09F0CDEF09F0014A022A010E70
:10139800586E01C001F002C002F0120081B4D7EF0C
:1013A80009F0D9EF09F0E5EF09F05450D8A4DFEFC0
:1013B80009F0E1EF09F0E5EF09F0404A412A010E92
:1013C800546E120000EE60F0120EEE6AE806FDE1BF
:1013D80000EE40F01F0EEE6AE806FDE15F905F92B6
:1013E800000EF86E0001D6EF01F001500302F3CFB2
:1013F80005F0F4CF06F001500402F350062602501F
:101408000302F350062605C001F006C002F01200E0
:101418000600838281B413EF0AF015EF0AF018EF83
:101428000AF0D2EC09F0F092000E546E8392F0921A
:101438005F9211007C0ECB6E3E0EBE6E3E0EBB6EF2
:1014480094929494030ECA6E0C0EBD6E0C0EBA6E76
:10145800CA941200CB683E0EBE6E3E0EBB6E9492CE
:101468009494030ECA6E0C0EBD6E0C0EBA6ECA941E
:1014780012008B80020E026E040E016EBA0EE82E68
:10148800FED7012EFCD7022EFAD700D08B9012007F
:10149800016E9EA852EF0AF054EF0AF04DEF0AF0E1
:1014A80001C0ADFF1200016E01C0A9FFA69EA69C57
:1014B800A680A8CF55F0555012009EAA66EF0AF0F4
:1014C80068EF0AF061EF0AF0AE5012008B9012003C
:0414D8008B801200F3
:020000040020DA
:08000000FFFFFFFFFFFFFFFF00
:020000040030CA
:0E00000000081F1EFF8181FF0FC00FE00F40A0
:00000001FF
