:020000040000FA
:040000009EEF38F047
:10712A009EAA9AEF38F09CEF38F095EF38F0AE50FF
:10713A00120000EE40F0170EEE6AE806FDE1000EBE
:10714A00F86E00017DEF3AF0CB683E0EBE6E3E0E41
:10715A00BB6E949294909494030ECA6E0C0EBD6EFC
:10716A000C0EBA6ECA948280828812007C0ECB6E94
:10717A003E0EBE6E3E0EBB6E949294909494030E95
:10718A00CA6E0C0EBD6E0C0EBA6ECA9482808288CC
:10719A00120001500302F3CF05F0F4CF06F00150BC
:1071AA000402F350062602500302F350062605C0D5
:1071BA0001F006C002F0120082A4E6EF38F0E8EF10
:1071CA0038F0F4EF38F04B50D8A4EEEF38F0F0EF87
:1071DA0038F0F4EF38F0014A022A010E4B6E01C072
:1071EA0001F002C002F0120082A2FEEF38F000EFB6
:1071FA0039F00CEF39F04A50D8A406EF39F008EF0D
:10720A0039F00CEF39F0014A022A010E4A6E01C028
:10721A0001F002C002F01200D00E036EFF0E046EDF
:10722A0001C005F002C006F00350052604500622EC
:10723A0006500AE10A0E055CD8A026EF39F029EFBC
:10724A0039F0010E2AEF39F0000E016E026A1200BF
:10725A003C6E38C032F039C033F00AEC3AF032C032
:10726A0042F033C043F03AC032F03BC033F00AEC8C
:10727A003AF032C040F033C041F042C003F043C09C
:10728A0004F040C005F041C006F03C5001EC3CF06F
:10729A001200010E076E200E01180210D8B458EF22
:1072AA0039F05AEF39F073EF39F0F70E036EFF0E2B
:1072BA00046E01C005F002C006F003500526045012
:1072CA000622065009E1050E055CD8A06FEF39F0D9
:1072DA0071EF39F073EF39F0000E076E07C001F055
:1072EA00026A1200066E000E086E000E076E8FEF1D
:1072FA0039F09EAA83EF39F085EF39F07EEF39F045
:10730A0007500124D96E08500220DA6EAECFDFFF93
:10731A00074A082A0650036E046A0350075C08509D
:10732A00800A056E0450800A0558D8A09FEF39F0EC
:10733A00A1EF39F07EEF39F01200000E1F6E000E39
:10734A001E6E1E501724D96E1F501820DA6E1B0E9F
:10735A001E24E16E000E1F20E26EDFCFE7FF1E4AF9
:10736A001F2A1FBEC2EF39F01F5009E1030E1E5C2F
:10737A00D8A0C2EF39F0C4EF39F0A6EF39F01B0EEE
:10738A00086E000E096E94EC3CF019C0D9FF1AC0C1
:10739A00DAFF08C0DEFF09C0DDFF1200000E216E11
:1073AA00000E206E205017241B6E215018201C6ED0
:1073BA00040E1B24D96E000E1C20DA6E1D0E20242A
:1073CA00E16E000E2120E26EDFCFE7FF204A212A7C
:1073DA0021BEF9EF39F0215009E1030E205CD8A053
:1073EA00F9EF39F0FBEF39F0D7EF39F01D0E086EDF
:1073FA00000E096E94EC3CF019C0D9FF1AC0DAFFEE
:10740A0008C0DEFF09C0DDFF1200CD0E346ECC0EBF
:10741A00356E4C0E366E3E0E376E34C013F035C0E4
:10742A0014F036C015F037C016F032C001F033C080
:10743A0002F0000E02BEFF0E036E046E010E59EC3E
:10744A003DF001C00FF002C010F003C011F004C0FB
:10745A0012F033EC3EF00FC028F010C029F011C032
:10746A002AF012C02BF0F8EC3AF028C044F029C0F8
:10747A0045F044C032F045C033F01200720ED36EAC
:10748A00949C948E0FC005F010C006F011C007F04E
:10749A0012C008F0000E016E120E026E7A0E036E12
:1074AA00000E046E7BEC3BF001C013F002C014F036
:1074BA0003C015F004C016F013C001F014C002F0A6
:1074CA0015C003F016C004F0400E056E000E066EDD
:1074DA00000E076E000E086E7BEC3BF00104AF6EE7
:1074EA00AC94AC98AB8EAC9CAC8AAB9CAB881200CB
:1074FA00800E0F6E250E106E000E116E000E126EAB
:10750A0043EC3AF095EC38F03F6ED1EF3AF04C0E7E
:10751A00016E000E026E070E77EC39F04C0E176EF4
:10752A00000E186E550E196E000E1A6EA2EC39F086
:10753A004C0E176E000E186E530E196E000E1A6E50
:10754A00D3EC39F055C038F056C039F053C03AF090
:10755A0054C03BF03F502DEC39F087EF3AF04C0E17
:10756A00016E000E026E070E77EC39F04C0E176EA4
:10757A00000E186E550E196E000E1A6EA2EC39F036
:10758A004C0E176E000E186E530E196E000E1A6E00
:10759A00D3EC39F087EF3AF03F503D6E3E6A3E50E9
:1075AA00000AD8B4DBEF3AF087EF3AF03D50460ACA
:1075BA00D8B48CEF3AF00E0AD8B487EF3AF0070A3B
:1075CA00D8B487EF3AF01D0AD8B487EF3AF0010A27
:1075DA00D8B4B4EF3AF0070AD8B487EF3AF087EF95
:1075EA003AF000EF00F02A342B34316E3150D8A42F
:1075FA0001EF3BF003EF3BF00DEF3BF0000E286E7E
:10760A00000E296E000E2A6E000E2B6E7AEF3BF0EA
:10761A0028C02CF029C02DF02AC02EF02BC02FF044
:10762A00200E1DEF3BF0D8902F322E322D322C3205
:10763A00E82E18EF3BF02C50306E2A8EFF0E2816DB
:10764A00FF0E2916FF0E2A16000E2B16960E315E15
:10765A0031BE34EF3BF032EF3BF04AEF3BF03150B2
:10766A00800A970FD8B03CEF3BF03EEF3BF040EF7B
:10767A003BF003EF3BF0D8902B322A3229322832E2
:10768A00313E40EF3BF062EF3BF01F0E316450EFAA
:10769A003BF052EF3BF05AEF3BF003EF3BF0D89050
:1076AA00283629362A362B3631063150D8A460EFCF
:1076BA003BF062EF3BF054EF3BF03050D8B468EF48
:1076CA003BF06AEF3BF072EF3BF02B1E2A1E291E9D
:1076DA00286C000E29222A222B2228C028F029C031
:1076EA0029F02AC02AF02BC02BF01200000E0A6ED5
:1076FA0008BE84EF3BF082EF3BF08EEF3BF0081EB2
:10770A00071E061E056C000E062207220822010E1D
:10771A000A6E04BE95EF3BF093EF3BF09FEF3BF010
:10772A00041E031E021E016C000E02220322042202
:10773A00010E0A1A000E0B6E000E0C6E000E0D6E74
:10774A00000E0E6E0550061007100810D8B4B0EFE0
:10775A003BF0B2EF3BF0E8EF3BF0010E096EBCEFF5
:10776A003BF0D8900536063607360836092A08AEA1
:10777A00C1EF3BF0C3EF3BF0B6EF3BF0D8900B36CE
:10778A000C360D360E360550015C0650025807506D
:10779A00035808500458D8A0D5EF3BF0D7EF3BF078
:1077AA00E0EF3BF00550015E0650025A0750035ABB
:1077BA000850045A0B80D890083207320632053234
:1077CA00092EC3EF3BF00A50D8B4EEEF3BF0F0EFCE
:1077DA003BF0F8EF3BF00E1E0D1E0C1E0B6C000E5C
:1077EA000C220D220E220BC001F00CC002F00DC0BB
:1077FA0003F00EC004F01200086E530E0818D8A445
:10780A0009EF3CF00BEF3CF00FEF3CF0A9EC38F03D
:10781A0011EF3CF0BBEC38F082908298CA84000EDB
:10782A000A6E000E096E000E0C6E000E0B6E6CEFE7
:10783A003CF00350095C0A50800A076E0450800A23
:10784A000758D8B02BEF3CF02DEF3CF044EF3CF05A
:10785A0082A432EF3CF034EF3CF040EF3CF009C038
:10786A0001F00AC002F0E1EC38F001C009F002C0F0
:10787A000AF045EF3CF0000E4B6E45EF3CF082807B
:10788A0005500B5C0C50800A076E0650800A075898
:10789A00D8B052EF3CF054EF3CF06BEF3CF082A2D0
:1078AA0059EF3CF05BEF3CF067EF3CF00BC001F0A6
:1078BA000CC002F0F9EC38F001C00BF002C00CF079
:1078CA006CEF3CF0000E4A6E6CEF3CF0828803507D
:1078DA00095C0A50800A076E0450800A0758D8B01B
:1078EA0079EF3CF07BEF3CF08AEF3CF005500B5C03
:1078FA000C50800A076E0650800A0758D8A088EFF5
:10790A003CF08AEF3CF01EEF3CF0000E4B6E000E8E
:10791A000C6E000E0B6E000E4A6ECA941200000E18
:10792A00166E000E156E000E0F6E000E0E6EA0EF94
:10793A003CF0084A092A010E146E08C0D9FF09C092
:10794A00DAFF200EDE18D8B4ADEF3CF0AFEF3CF012
:10795A00CBEF3CF0F70E0A6EFF0E0B6E08C0D9FF94
:10796A0009C0DAFFDF500C6E0D6A0A500C260B5064
:10797A000D220D5009E1050E0C5CD8A0C7EF3CF0B2
:10798A00C9EF3CF0CBEF3CF0000E146E14C010F0BF
:10799A00116A10501110D8A4D5EF3CF0D7EF3CF083
:1079AA009EEF3CF0E1EF3CF0000E0F6E010E0E6E02
:1079BA00084A092A16EF3DF008C0D9FF09C0DAFFC4
:1079CA00DF500A6E0B6A0B50000AD8B4EFEF3CF096
:1079DA0016EF3DF00A502B0AD8B4DDEF3CF0060A48
:1079EA00D8B4D9EF3CF016EF3DF015C001F016C03F
:1079FA0002F0000E046E0A0E036ECEEC38F008C0D8
:107A0A00D9FF09C0DAFFDF500A6E0A50015E000E84
:107A1A00025A300E0124156E000E0220166EDDEF9A
:107A2A003CF0D00E0A6EFF0E0B6E08C0D9FF09C0DB
:107A3A00DAFFDF500C6E0D6A0A500C260B500D222D
:107A4A000D500AE10A0E0C5CD8A02EEF3DF031EF82
:107A5A003DF0010E32EF3DF0000E126E136A125025
:107A6A001310D8A43BEF3DF03DEF3DF0FAEF3CF0A8
:107A7A000E500F10D8A444EF3DF046EF3DF054EFFE
:107A8A003DF015C00AF016C00BF00A1E0B1E0A4A7A
:107A9A000B2A0AC008F00BC009F058EF3DF015C0D8
:107AAA0008F016C009F01200096E0950D8B460EF48
:107ABA003DF062EF3DF084EF3DF004BE69EF3DF02A
:107ACA0067EF3DF084EF3DF001C005F002C006F01B
:107ADA0003C007F004C008F0051E061E071E081E94
:107AEA00052A000E06220722082205C00BF006C04E
:107AFA000CF007C00DF008C00EF08CEF3DF001C08D
:107B0A000BF002C00CF003C00DF004C00EF00150DF
:107B1A00021003100410D8A495EF3DF097EF3DF042
:107B2A00A1EF3DF0000E016E000E026E000E036E14
:107B3A00000E046E32EF3EF0960E0A6EABEF3DF089
:107B4A000A2AD8900E320D320C320B32000E0B1468
:107B5A00056E000E0C14066E000E0D14076EFE0E56
:107B6A000E14086E0550061007100810D8A4C0EFAE
:107B7A003DF0C2EF3DF0A5EF3DF0D0EF3DF00A2A0F
:107B8A00010E0B26000E0C220D220E22D8900E3268
:107B9A000D320C320B32000E0B14056E000E0C1453
:107BAA00066E000E0D14076EFF0E0E14086E0550B9
:107BBA00061007100810D8A4E5EF3DF0E7EF3DF0F6
:107BCA00C4EF3DF0EFEF3DF00A06D8900B360C36C5
:107BDA000D360E360DBEF4EF3DF0F6EF3DF0FEEF3A
:107BEA003DF0020E0A60FCEF3DF0FEEF3DF0E9EFDA
:107BFA003DF00AB003EF3EF005EF3EF006EF3EF02F
:107C0A000D9ED8900A320AC005F0066A076A086A09
:107C1A0005C008F0076A066A056A05500B12065085
:107C2A000C1207500D1208500E120950D8B420EF4A
:107C3A003EF022EF3EF02AEF3EF004BE29EF3EF07E
:107C4A0027EF3EF02AEF3EF00E8E0BC001F00CC07B
:107C5A0002F00DC003F00EC004F012001250800BA7
:107C6A001F6E12501224266E11AE3EEF3EF040EF08
:107C7A003EF041EF3EF026802650D8B447EF3EF062
:107C8A0049EF3EF05EEF3EF02628D8A44FEF3EF0D3
:107C9A0051EF3EF059EF3EF0000E0F6E000E106EDF
:107CAA00000E116E000E126E118E000E126E66EF2D
:107CBA003EF0000E0F6E000E106E000E116E000EDA
:107CCA00126E1650800B1F1A16501624276E15AE08
:107CDA0071EF3EF073EF3EF074EF3EF027802750CD
:107CEA00D8B47AEF3EF07CEF3EF091EF3EF02728D1
:107CFA00D8A482EF3EF084EF3EF08CEF3EF0000E07
:107D0A00136E000E146E000E156E000E166E158E92
:107D1A00000E166E99EF3EF0000E136E000E146EF2
:107D2A00000E156E000E166E135014101510161054
:107D3A00D8A4A2EF3EF0A4EF3EF0BCEF3EF0000E56
:107D4A000F6E000E106E000E116E000E126E800E77
:107D5A0011127F0E12121F5012120FC00FF010C014
:107D6A0010F011C011F012C012F0FFEF3FF02650D0
:107D7A00D8A4C2EF3EF0C4EF3EF0CEEF3EF0000EC4
:107D8A000F6E000E106E000E116E000E126EFFEFD7
:107D9A003FF0275026C017F0186A175E000E185ACF
:107DAA007F0E1724206E000E1820216E0FC01BF0C4
:107DBA0010C01CF011C01DF012C01EF0000E0F6E94
:107DCA00000E106E000E116E000E126E000E226E64
:107DDA00000E236E000E246E000E256E000E276E16
:107DEA002FEF3FF02750D8B4FDEF3EF0FFEF3EF003
:107DFA0016EF3FF0D8901B361C361D361E36D8902B
:107E0A000F3610361136123625AE0EEF3FF010EF50
:107E1A003FF011EF3FF00F80D890223623362436F8
:107E2A00253613501B5C14501C5815501D581650FB
:107E3A001E58D8A023EF3FF025EF3FF02EEF3FF07A
:107E4A00258C13501B5E14501C5A15501D5A16507F
:107E5A001E5A272A190E276435EF3FF037EF3FF0F5
:107E6A00F7EF3EF01B501C101D101E10D8B440EF47
:107E7A003FF042EF3FF05AEF3FF022805AEF3FF0D7
:107E8A00D8900F3610361136123625AE4FEF3FF026
:107E9A0051EF3FF052EF3FF00F80D8902236233651
:107EAA00243625362006D8A0210611AE5FEF3FF012
:107EBA0061EF3FF045EF3FF0000E276E25AE68EF09
:107ECA003FF06AEF3FF08EEF3FF0FF0E2214176E7D
:107EDA00FF0E2314186EFF0E2414196E7F0E25143C
:107EEA001A6E1750181019101A10D8B47FEF3FF0F5
:107EFA0081EF3FF085EF3FF0010E276E8EEF3FF0E6
:107F0A000FA08AEF3FF08CEF3FF08EEF3FF081EF4A
:107F1A003FF02750D8B494EF3FF096EF3FF0BAEF16
:107F2A003FF0010E0F26000E10221122122212A07B
:107F3A00A1EF3FF0A3EF3FF0BAEF3FF00FC017F009
:107F4A0010C018F011C019F012C01AF01A341A32FF
:107F5A0019321832173217C00FF018C010F019C0B2
:107F6A0011F01AC012F0204A212A21BEC5EF3FF0B3
:107F7A00215008E12028D8A0C5EF3FF0C7EF3FF015
:107F8A00D2EF3FF0000E216E2068000E0F6E000E39
:107F9A00106E000E116E000E126E21BEDFEF3FF062
:107FAA00215006E12004D8B0DDEF3FF0DFEF3FF0CB
:107FBA00EDEF3FF0000E216E000E206E000E0F6EE8
:107FCA00000E106E000E116E000E126E000E1F6E65
:107FDA0020C026F026A0F4EF3FF0F6EF3FF0F9EFCD
:107FEA003FF0118EFAEF3FF0119ED8902630126EB4
:067FFA00B0EF3EF01200A2
:020000040020DA
:08000000FFFFFFFFFFFFFFFF00
:020000040030CA
:0E00000000081F1EFF8381FF0FC00FE00F409E
:00000001FF
