:020000040000FA
:0400000007EF00F016
:100008005B82DDED10F03EEF13F09590959495929C
:10001800959683808380949294948292000E000136
:100028009E6FAB0E606F7C0E616F000E636F2A0EC1
:10003800626FA4EC10F000019E51D8A426EF00F0E6
:1000480028EF00F035EF00F0FA0E606F7E0E616F5A
:10005800000E636F180E626FA4EC10F0010E000121
:100068009E6FD3EC13F000019F6FDAEF01F0C20E20
:10007800606F000E616F070E4FEC11F0430E000128
:10008800606F7F0E616F000E636F160E626FA4ECD7
:1000980010F0C20E0001766F000E776FCD0E786FEC
:1000A800000E796FC3EC0EF0C20E0001766F000EE1
:1000B800776FCB0E786F000E796F58EC0EF0CDC0CD
:1000C80060F0CEC061F0ADEC12F0CBC060F0CCC0F7
:1000D80061F0ADEC12F00001B305D8A476EF00F0A2
:1000E80078EF00F087EF00F0000E606F7D0E616F13
:1000F800000E636F230E626FA4EC10F0000E000177
:10010800B36F1FEF00F0B205D8A48DEF00F08FEFAA
:1001180000F09EEF00F0240E606F7D0E616F000E00
:10012800636F1F0E626FA4EC10F0000E0001B26F37
:100138001FEF00F0CDC097F0CEC098F0CBC099F07B
:10014800CCC09AF09F5128EC0FF01FEF00F0C20EC0
:10015800606F000E616F070E4FEC11F0430E000147
:10016800606F7F0E616F000E636F160E626FA4ECF6
:1001780010F0C20E0001766F000E776FCD0E786F0B
:10018800000E796FC3EC0EF0C20E0001766F000E00
:10019800776FCB0E786F000E796F58EC0EF0CDC0EC
:1001A80060F0CEC061F0ADEC12F0CBC060F0CCC016
:1001B80061F0ADEC12F00001B305D8A4E6EF00F051
:1001C800E8EF00F0F4EF00F0000E606F7D0E616F55
:1001D800000E636F230E626FA4EC10F082EF00F044
:1001E800B205D8A4FAEF00F0FCEF00F008EF01F038
:1001F800240E606F7D0E616F000E636F1F0E626FBD
:10020800A4EC10F099EF00F0CDC097F0CEC098F0B4
:10021800CBC099F0CCC09AF09F5128EC0FF01FEF9B
:1002280000F0430E606F7F0E616F000E636F160E55
:10023800626FA4EC10F078EC12F01FEF00F0430EA0
:10024800606F7F0E616F000E636F160E626FA4EC15
:1002580010F0AFEC13F01FEF00F0430E606F7F0E4D
:10026800616F000E636F160E626FA4EC10F0A2ECC3
:1002780013F01FEF00F02B0E606F7F0E616F000E02
:10028800636F170E626FA4EC10F0D3EC13F000014B
:10029800B46FB4519FEC05F00001B46FCD0E766FCA
:1002A800000E776FB451D6EC0DF0CB0E0001766FCF
:1002B800000E776FB451D0EC0CF0C90E0001766FC8
:1002C800000E776FB4514DEC0CF00001B305D8A4C3
:1002D80070EF01F072EF01F089EF01F0000E606F2E
:1002E8007D0E616F000E636F230E626FA4EC10F039
:1002F800D60E0001606F7C0E616F000E636F290ED1
:10030800626FA4EC10F082EF00F0B205D8A48FEF72
:1003180001F091EF01F0A8EF01F0240E606F7D0E5F
:10032800616F000E636F1F0E626FA4EC10F0D60EA3
:100338000001606F7C0E616F000E636F290E626FA3
:10034800A4EC10F099EF00F0CDC097F0CEC098F073
:10035800CBC099F0CCC09AF09F5128EC0FF01FEF5A
:1003680000F0D3EC13F00001B46FB70E606F000E0D
:10037800616F0B0E4FEC11F02B0E0001606F7F0EBA
:10038800616F000E636F170E626FA4EC10F000012E
:10039800B4519FEC05F00001B46FB70E686F000E02
:1003A800696FB451A7EC0AF01FEF00F09F519C6FE2
:1003B8009D6B9D51000AD8B4E4EF01F01FEF00F0E7
:1003C8009C51460AD8B43BEF00F00E0AD8B423EF8C
:1003D80001F0050AD8B4B5EF01F0020AD8B43FEF2E
:1003E80001F01D0AD8B431EF01F0010AD8B4ABEF1F
:1003F80000F0070AD8B415EF01F01FEF00F0120063
:1004080000017151800B7E6F71517125856F70AF3E
:1004180010EF02F012EF02F013EF02F08581855120
:10042800D8B419EF02F01BEF02F030EF02F0852983
:10043800D8A421EF02F023EF02F02BEF02F0000E18
:100448006E6F000E6F6F000E706F000E716F708F01
:10045800000E716F38EF02F0000E6E6F000E6F6FB6
:10046800000E706F000E716F7551800B7E1B7551F9
:100478007525866F74AF43EF02F045EF02F046EF43
:1004880002F086818651D8B44CEF02F04EEF02F0AC
:1004980063EF02F08629D8A454EF02F056EF02F079
:1004A8005EEF02F0000E726F000E736F000E746F35
:1004B800000E756F748F000E756F6BEF02F0000EF3
:1004C800726F000E736F000E746F000E756F7251AD
:1004D800731174117511D8A474EF02F076EF02F05D
:1004E8008EEF02F0000E6E6F000E6F6F000E706FD1
:1004F800000E716F800E70137F0E71137E51711391
:100508006EC06EF06FC06FF070C070F071C071F0A7
:10051800D1EF03F08551D8A494EF02F096EF02F0E2
:10052800A0EF02F0000E6E6F000E6F6F000E706F7E
:10053800000E716FD1EF03F0865185C076F0776BAE
:10054800765F000E775B7F0E76257F6F000E772132
:10055800806F6EC07AF06FC07BF070C07CF071C0A5
:100568007DF0000E6E6F000E6F6F000E706F000E44
:10057800716F000E816F000E826F000E836F000E88
:10058800846F000E866F01EF03F08651D8B4CFEF69
:1005980002F0D1EF02F0E8EF02F0D8907A377B371B
:1005A8007C377D37D8906E376F377037713784AFA7
:1005B800E0EF02F0E2EF02F0E3EF02F06E81D89094
:1005C800813782378337843772517A5D73517B590B
:1005D80074517C5975517D59D8A0F5EF02F0F7EFA9
:1005E80002F000EF03F0848D72517A5F73517B5BE8
:1005F80074517C5B75517D5B862B190E866507EF00
:1006080003F009EF03F0C9EF02F07A517B117C1176
:100618007D11D8B412EF03F014EF03F02CEF03F0C0
:1006280081812CEF03F0D8906E376F3770377137B0
:1006380084AF21EF03F023EF03F024EF03F06E8182
:10064800D89081378237833784377F07D8A08007CF
:1006580070AF31EF03F033EF03F017EF03F0000E44
:10066800866F84AF3AEF03F03CEF03F060EF03F0DE
:10067800FF0E8115766FFF0E8215776FFF0E8315BB
:10068800786F7F0E8415796F76517711781179110B
:10069800D8B451EF03F053EF03F057EF03F0010E16
:1006A800866F60EF03F06EA15CEF03F05EEF03F07E
:1006B80060EF03F053EF03F08651D8B466EF03F010
:1006C80068EF03F08CEF03F0010E6E27000E6F2326
:1006D8007023712371A173EF03F075EF03F08CEFB2
:1006E80003F06EC076F06FC077F070C078F071C01C
:1006F80079F07935793378337733763376C06EF09D
:1007080077C06FF078C070F079C071F07F4B802BA4
:1007180080BF97EF03F0805108E17F29D8A097EFB9
:1007280003F099EF03F0A4EF03F0000E806F7F69E8
:10073800000E6E6F000E6F6F000E706F000E716FFF
:1007480080BFB1EF03F0805106E17F05D8B0AFEF6D
:1007580003F0B1EF03F0BFEF03F0000E806F000E5F
:100768007F6F000E6E6F000E6F6F000E706F000EC1
:10077800716F000E7E6F7FC085F085A1C6EF03F014
:10078800C8EF03F0CBEF03F0708FCCEF03F0709F4E
:10079800D8908531716F82EF02F012001250800BF1
:1007A8001F6E12501224266E11AEDDEF03F0DFEF3C
:1007B80003F0E0EF03F026802650D8B4E6EF03F00C
:1007C800E8EF03F0FDEF03F02628D8A4EEEF03F0DE
:1007D800F0EF03F0F8EF03F0000E0F6E000E106E4E
:1007E800000E116E000E126E118E000E126E05EFC5
:1007F80004F0000E0F6E000E106E000E116E000E4B
:10080800126E1650800B1F1A16501624276E15AE3E
:1008180010EF04F012EF04F013EF04F027802750D4
:10082800D8B419EF04F01BEF04F030EF04F02728D8
:10083800D8A421EF04F023EF04F02BEF04F0000E0E
:10084800136E000E146E000E156E000E166E158EC9
:10085800000E166E38EF04F0000E136E000E146EC4
:10086800000E156E000E166E13501410151016108B
:10087800D8A441EF04F043EF04F05BEF04F0000E5E
:100888000F6E000E106E000E116E000E126E800EAE
:1008980011127F0E12121F5012120FC00FF010C04B
:1008A80010F011C011F012C012F09EEF05F02650A2
:1008B800D8A461EF04F063EF04F06DEF04F0000ECC
:1008C8000F6E000E106E000E116E000E126E9EEF6F
:1008D80005F0275026C017F0186A175E000E185A40
:1008E8007F0E1724206E000E1820216E0FC01BF0FB
:1008F80010C01CF011C01DF012C01EF0000E0F6ECB
:10090800000E106E000E116E000E126E000E226E9A
:10091800000E236E000E246E000E256E000E276E4C
:10092800CEEF04F02750D8B49CEF04F09EEF04F00B
:10093800B5EF04F0D8901B361C361D361E36D890FD
:100948000F3610361136123625AEADEF04F0AFEF84
:1009580004F0B0EF04F00F80D89022362336243606
:10096800253613501B5C14501C5815501D58165032
:100978001E58D8A0C2EF04F0C4EF04F0CDEF04F085
:10098800258C13501B5E14501C5A15501D5A1650B6
:100998001E5A272A190E2764D4EF04F0D6EF04F064
:1009A80096EF04F01B501C101D101E10D8B4DFEF7A
:1009B80004F0E1EF04F0F9EF04F02280F9EF04F01D
:1009C800D8900F3610361136123625AEEEEF04F0F9
:1009D800F0EF04F0F1EF04F00F80D89022362336C0
:1009E800243625362006D8A0210611AEFEEF04F0E5
:1009F80000EF05F0E4EF04F0000E276E25AE07EFD8
:100A080005F009EF05F02DEF05F0FF0E2214176E23
:100A1800FF0E2314186EFF0E2414196E7F0E251472
:100A28001A6E1750181019101A10D8B41EEF05F0C6
:100A380020EF05F024EF05F0010E276E2DEF05F0ED
:100A48000FA029EF05F02BEF05F02DEF05F020EFB3
:100A580005F02750D8B433EF05F035EF05F059EF1E
:100A680005F0010E0F26000E10221122122212A0EC
:100A780040EF05F042EF05F059EF05F00FC017F011
:100A880010C018F011C019F012C01AF01A341A3236
:100A980019321832173217C00FF018C010F019C0E9
:100AA80011F01AC012F0204A212A21BE64EF05F085
:100AB800215008E12028D8A064EF05F066EF05F082
:100AC80071EF05F0000E216E2068000E0F6E000E0B
:100AD800106E000E116E000E126E21BE7EEF05F034
:100AE800215006E12004D8B07CEF05F07EEF05F038
:100AF8008CEF05F0000E216E000E206E000E0F6EBA
:100B0800000E106E000E116E000E126E000E1F6E9B
:100B180020C026F026A093EF05F095EF05F098EF9A
:100B280005F0118E99EF05F0119ED8902630126EBF
:100B38004FEF04F0120000016A6F83EF06F0000E19
:100B48006A6FEC0E606F7D0E616F000E636F1A0E98
:100B5800626FA4EC10F0D1EF06F0100E6A6F070E6A
:100B6800606F7E0E616F000E636F190E626FA4ECEA
:100B780010F0D1EF06F0200E6A6F220E606F7E0E25
:100B8800616F000E636F1A0E626FA4EC10F0D1EF64
:100B980006F0300E6A6F3D0E606F7E0E616F000EBC
:100BA800636F1A0E626FA4EC10F0D1EF06F0400EDE
:100BB8006A6F580E606F7E0E616F000E636F1A0EBB
:100BC800626FA4EC10F0D1EF06F0500E6A6F730E4E
:100BD800606F7E0E616F000E636F1A0E626FA4EC79
:100BE80010F0D1EF06F0600E6A6F8E0E606F7E0E09
:100BF800616F000E636F1A0E626FA4EC10F0D1EFF4
:100C080006F0700E6A6FA90E606F7E0E616F000E9F
:100C1800636F1A0E626FA4EC10F0D1EF06F0800E2D
:100C28006A6FC40E606F7E0E616F000E636F1A0EDE
:100C3800626FA4EC10F0D1EF06F0900E6A6FDF0E31
:100C4800606F7E0E616F000E636F1A0E626FA4EC08
:100C580010F0D1EF06F0A00E6A6F440E606F7D0EA3
:100C6800616F000E636F1B0E626FA4EC10F0D1EF82
:100C780006F0B00E6A6F600E606F7D0E616F000E39
:100C8800636F1B0E626FA4EC10F0D1EF06F0C00E7C
:100C98006A6F7C0E606F7D0E616F000E636F1B0EB6
:100CA800626FA4EC10F0D1EF06F0D00E6A6F980EC8
:100CB800606F7D0E616F000E636F1B0E626FA4EC98
:100CC80010F0D1EF06F0E00E6A6FB40E606F7D0E83
:100CD800616F000E636F1B0E626FA4EC10F0D1EF12
:100CE80006F0F00E6A6FD00E606F7D0E616F000E19
:100CF800636F1B0E626FA4EC10F0D1EF06F00001D9
:100D08006A51686F696B6951000AD8B48EEF06F0B2
:100D1800D1EF06F06851300AD8B4A3EF05F0010A04
:100D2800D8B4B1EF05F0030AD8B4BFEF05F0010A53
:100D3800D8B4CDEF05F0070AD8B4DBEF05F0010A07
:100D4800D8B4E9EF05F0030AD8B4F7EF05F0010AC3
:100D5800D8B405EF06F00F0AD8B413EF06F0010A6D
:100D6800D8B421EF06F0780AD8B42FEF06F0030ABA
:100D7800D8B43DEF06F0010AD8B44BEF06F0070AE5
:100D8800D8B459EF06F0010AD8B467EF06F0030AA1
:100D9800D8B475EF06F0D1EF06F000016A511200E1
:100DA8000001686F00016851D8B4DDEF06F0DFEF8D
:100DB80006F001EF07F063BFE6EF06F0E4EF06F098
:100DC80001EF07F060C064F061C065F062C066F0D2
:100DD80063C067F0641F651F661F671F642B000EE2
:100DE80065236623672364C06AF065C06BF066C03C
:100DF8006CF067C06DF009EF07F060C06AF061C081
:100E08006BF062C06CF063C06DF0605161116211EB
:100E18006311D8A412EF07F014EF07F01EEF07F0E4
:100E2800000E606F000E616F000E626F000E636F40
:100E3800AFEF07F0960E696F28EF07F0692BD8908F
:100E48006D336C336B336A33000E6A15646F000EB2
:100E58006B15656F000E6C15666FFE0E6D15676F6E
:100E68006451651166116711D8A43DEF07F03FEF93
:100E780007F022EF07F04DEF07F0692B010E6A2704
:100E8800000E6B236C236D23D8906D336C336B335A
:100E98006A33000E6A15646F000E6B15656F000EDD
:100EA8006C15666FFF0E6D15676F645165116611DD
:100EB8006711D8A462EF07F064EF07F041EF07F07D
:100EC8006CEF07F06907D8906A376B376C376D3766
:100ED8006CBF71EF07F073EF07F07BEF07F0020EBE
:100EE800696179EF07F07BEF07F066EF07F069B10A
:100EF80080EF07F082EF07F083EF07F06C9FD89040
:100F0800693369C064F0656B666B676B64C067F0D2
:100F1800666B656B646B64516A1365516B1366513C
:100F28006C1367516D136851D8B49DEF07F09FEFAC
:100F380007F0A7EF07F063BFA6EF07F0A4EF07F0ED
:100F4800A7EF07F06D8F6AC060F06BC061F06CC0EE
:100F580062F06DC063F01200096E0950D8B4B7EFA3
:100F680007F0B9EF07F0DBEF07F004BEC0EF07F0BA
:100F7800BEEF07F0DBEF07F001C005F002C006F096
:100F880003C007F004C008F0051E061E071E081E51
:100F9800052A000E06220722082205C00BF006C00B
:100FA8000CF007C00DF008C00EF0E3EF07F001C029
:100FB8000BF002C00CF003C00DF004C00EF001509D
:100FC800021003100410D8A4ECEF07F0EEEF07F0BE
:100FD800F8EF07F0000E016E000E026E000E036EB1
:100FE800000E046E89EF08F0960E0A6E02EF08F004
:100FF8000A2AD8900E320D320C320B32000E0B1426
:10100800056E000E0C14066E000E0D14076EFE0E13
:101018000E14086E0550061007100810D8A417EF14
:1010280008F019EF08F0FCEF07F027EF08F00A2A9C
:10103800010E0B26000E0C220D220E22D8900E3225
:101048000D320C320B32000E0B14056E000E0C1410
:10105800066E000E0D14076EFF0E0E14086E055076
:10106800061007100810D8A43CEF08F03EEF08F06F
:101078001BEF08F046EF08F00A06D8900B360C363E
:101088000D360E360DBE4BEF08F04DEF08F055EF5C
:1010980008F0020E0A6053EF08F055EF08F040EF31
:1010A80008F00AB05AEF08F05CEF08F05DEF08F0BE
:1010B8000D9ED8900A320AC005F0066A076A086AC7
:1010C80005C008F0076A066A056A05500B12065043
:1010D8000C1207500D1208500E120950D8B477EFB1
:1010E80008F079EF08F081EF08F004BE80EF08F00F
:1010F8007EEF08F081EF08F00E8E0BC001F00CC0F7
:1011080002F00DC003F00EC004F01200000E000142
:10111800756F000E746F000E6E6F000E6D6F97EF97
:1011280008F0674B682B010E736F67C0D9FF68C062
:10113800DAFF200EDE18D8B4A4EF08F0A6EF08F006
:10114800C2EF08F0F70E696FFF0E6A6F67C0D9FF2C
:1011580068C0DAFFDF506B6F6C6B69516B276A519F
:101168006C236C5109E1050E6B5DD8A0BEEF08F049
:10117800C0EF08F0C2EF08F0000E736F73C06FF095
:10118800706B6F517011D8A4CCEF08F0CEEF08F057
:1011980095EF08F0D8EF08F0000E6E6F010E6D6F36
:1011A800674B682B0EEF09F067C0D9FF68C0DAFFFC
:1011B800DF50696F6A6B6A51000AD8B4E6EF08F02D
:1011C8000EEF09F069512B0AD8B4D4EF08F0060ADB
:1011D800D8B4D0EF08F00EEF09F074C060F075C015
:1011E80061F0000E636F0A0E626F2AEC13F067C09D
:1011F800D9FF68C0DAFFDF500001696F6951605F8D
:10120800000E615B300E6025746F000E6121756FF2
:10121800D4EF08F0D00E696FFF0E6A6F67C0D9FF70
:1012280068C0DAFFDF506B6F6C6B69516B276A51CE
:101238006C236C510AE10A0E6B5DD8A026EF09F009
:1012480029EF09F0010E2AEF09F0000E716F726B99
:1012580071517211D8A433EF09F035EF09F0F1EFAD
:1012680008F06D516E11D8A43CEF09F03EEF09F07B
:101278004CEF09F074C069F075C06AF0691F6A1F05
:10128800694B6A2B69C067F06AC068F050EF09F0D3
:1012980074C067F075C068F012000001676F530EE4
:1012A80000016719D8A45BEF09F05DEF09F061EF61
:1012B80009F084EC13F063EF09F064EC13F0839009
:1012C8008394000E0001696F000E686F000E6B6F4B
:1012D800000E6A6F62516311D8A475EF09F077EFB9
:1012E80009F078EF09F0838064516511D8A47FEF85
:1012F80009F081EF09F082EF09F08384CA84D4EF02
:1013080009F06251685D6951800A666F6351800A0D
:101318006659D8B092EF09F094EF09F0ABEF09F0F5
:1013280082A299EF09F09BEF09F0A7EF09F068C0D6
:1013380060F069C061F0DFEC12F060C068F061C075
:1013480069F0ACEF09F0000EB66FACEF09F08380DE
:10135800000164516A5D6B51800A666F6551800AAD
:101368006659D8B0BAEF09F0BCEF09F0D3EF09F02D
:1013780082A4C1EF09F0C3EF09F0CFEF09F06AC00A
:1013880060F06BC061F0C6EC12F060C06AF061C03A
:101398006BF0D4EF09F0000EB56FD4EF09F0838439
:1013A80000016251685D6951800A666F6351800A65
:1013B8006659D8A0E2EF09F0E4EF09F085EF09F0EB
:1013C80064516A5D6B51800A666F6551800A66597F
:1013D800D8A0F1EF09F0F3EF09F085EF09F0000E5E
:1013E800B66F000E6B6F000E6A6F000EB56FCA9471
:1013F8001200086E530E0818D8A405EF0AF007EF7C
:101408000AF00BEF0AF093EC13F00DEF0AF074EC0E
:1014180013F083908394000E0A6E000E096E000E7E
:101428000C6E000E0B6E03500410D8A41EEF0AF0C9
:1014380020EF0AF021EF0AF0838005500610D8A4A7
:1014480028EF0AF02AEF0AF02BEF0AF08384CA8407
:101458007EEF0AF00350095C0A50800A076E0450B8
:10146800800A0758D8B03BEF0AF03DEF0AF055EF75
:101478000AF082A242EF0AF044EF0AF050EF0AF0B5
:1014880009C001F00AC002F011EC13F001C009F024
:1014980002C00AF056EF0AF0000E0001B66F56EFD0
:1014A8000AF0838005500B5C0C50800A076E0650CA
:1014B800800A0758D8B063EF0AF065EF0AF07DEFAD
:1014C8000AF082A46AEF0AF06CEF0AF078EF0AF0EB
:1014D8000BC001F00CC002F0F8EC12F001C00BF0E8
:1014E80002C00CF07EEF0AF0000E0001B56F7EEF2F
:1014F8000AF083840350095C0A50800A076E04507E
:10150800800A0758D8A08BEF0AF08DEF0AF02EEF6B
:101518000AF005500B5C0C50800A076E0650800AD2
:101528000758D8A09AEF0AF09CEF0AF02EEF0AF0BD
:10153800000E0001B66F000E0C6E000E0B6E000E52
:10154800B56FCA94120000016C6F000E00016F6F36
:10155800000E6E6F6C516E256D6F6E516825D96ED9
:101568006F516921DA6EDF50606F6D5193EC12F0A4
:1015780000016E4B6F2B6FBFCBEF0AF06F5109E183
:10158800030E6E5DD8A0CBEF0AF0CDEF0AF0AEEFF8
:101598000AF05A0E606F7F0E616F000E636F130EB4
:1015A800626FA4EC10F0000E0001716F000E706FF6
:1015B8006C517025030F6D6F705168256A6F7151FA
:1015C80069216B6F040E6A25D96E000E6B21DA6EE5
:1015D800DF50606F6D5193EC12F00001704B712B6E
:1015E80071BF00EF0BF0715109E1030E705DD8A0D7
:1015F80000EF0BF002EF0BF0DCEF0AF06E0E606FFD
:101608007F0E616F000E636F130E626FA4EC10F013
:10161800000E0001736F000E726F6C517225060F79
:101628006D6F725168256A6F735169216B6F080E6F
:101638006A25D96E000E6B21DA6EDF50606F6D512E
:1016480093EC12F00001724B732B73BF35EF0BF064
:10165800735109E1030E725DD8A035EF0BF037EF37
:101668000BF011EF0BF0820E606F7F0E616F000EB2
:10167800636F130E626FA4EC10F01200000E0001ED
:10168800696F67BF4CEF0BF04AEF0BF056EF0BF0AA
:10169800671F661F651F646D000E65236623672339
:1016A800010E696F63BF5DEF0BF05BEF0BF067EF47
:1016B8000BF0631F621F611F606D000E61236223C0
:1016C8006323010E691B000E6A6F000E6B6F000E1C
:1016D8006C6F000E6D6F6451651166116711D8B497
:1016E80078EF0BF07AEF0BF0B0EF0BF0010E686FAC
:1016F80084EF0BF0D8906437653766376737682B07
:1017080067AF89EF0BF08BEF0BF07EEF0BF0D89003
:101718006A376B376C376D376451605D6551615955
:101728006651625967516359D8A09DEF0BF09FEF3E
:101738000BF0A8EF0BF06451605F6551615B665177
:10174800625B6751635B6A81D89067336633653340
:101758006433682F8BEF0BF06951D8B4B6EF0BF0F8
:10176800B8EF0BF0C0EF0BF06D1F6C1F6B1F6A6DAD
:10177800000E6B236C236D236AC060F06BC061F0B0
:101788006CC062F06DC063F01200000189358A35C3
:10179800906F9051D8A4D3EF0BF0D5EF0BF0DFEF9B
:1017A8000BF0000E876F000E886F000E896F000E19
:1017B8008A6F4CEF0CF087C08BF088C08CF089C022
:1017C8008DF08AC08EF0200EEFEF0BF0D8908E339C
:1017D8008D338C338B33E82EEAEF0BF08B518F6F00
:1017E800898FFF0E8717FF0E8817FF0E8917000EC7
:1017F8008A17960E905F90BF06EF0CF004EF0CF07E
:101808001CEF0CF09051800A970FD8B00EEF0CF037
:1018180010EF0CF012EF0CF0D5EF0BF0D8908A33E4
:10182800893388338733903F12EF0CF034EF0CF094
:101838001F0E906522EF0CF024EF0CF02CEF0CF04B
:10184800D5EF0BF0D8908737883789378A379007D4
:101858009051D8A432EF0CF034EF0CF026EF0CF0D6
:101868008F51D8B43AEF0CF03CEF0CF044EF0CF089
:101878008A1F891F881F876D000E882389238A2362
:1018880087C087F088C088F089C089F08AC08AF04C
:1018980012000001796F000E00017F6F000E7E6F4D
:1018A80079517E25060F7A6F7B0E7E25D96E000E44
:1018B8007F21DA6E7A51C8EC13F0DF6E00017E4B9F
:1018C8007F2B7FBF71EF0CF07F5109E1030E7E5D26
:1018D800D8A071EF0CF073EF0CF054EF0CF0000E81
:1018E800816F000E806F7B0E8025D96E000E8121DE
:1018F800DA6E2F0EDF6483EF0CF085EF0CF093EFB8
:101908000CF07B0E8025D96E000E8121DA6E390E1F
:10191800DF6491EF0CF093EF0CF095EF0CF0010EF3
:10192800B26F804B812B81BFA3EF0CF0815109E18D
:10193800030E805DD8A0A3EF0CF0A5EF0CF077EFB5
:101948000CF07B0E676F000E686F8AEC08F076C0AB
:10195800D9FF77C0DAFF000167C0DEFF68C0DDFF8E
:10196800C60E606F7F0E616F000E636F0E0E626FA2
:10197800A4EC10F07B0E0001606F000E616F000E8A
:10198800636F030E626FA4EC10F0C9C060F0CAC0A8
:1019980061F0ADEC12F012000001796F000E000149
:1019A8007F6F000E7E6F79517E25030F7A6F7B0E55
:1019B8007E25D96E000E7F21DA6E7A51C8EC13F0BD
:1019C800DF6E00017E4B7F2B7FBFF4EF0CF07F5161
:1019D80009E1030E7E5DD8A0F4EF0CF0F6EF0CF0F1
:1019E800D7EF0CF0000E816F000E806F7B0E802504
:1019F800D96E000E8121DA6E2F0EDF6406EF0DF02E
:101A080008EF0DF016EF0DF07B0E8025D96E000E55
:101A18008121DA6E390EDF6414EF0DF016EF0DF048
:101A280018EF0DF0010EB26F804B812B81BF26EFAE
:101A38000DF0815109E1030E805DD8A026EF0DF06D
:101A480028EF0DF0FAEF0CF07B0E676F000E686F51
:101A58008AEC08F076C0D9FF77C0DAFF000167C0CA
:101A6800DEFF68C0DDFFB70E606F7F0E616F000E8E
:101A7800636F0E0E626FA4EC10F07B0E0001606FB6
:101A8800000E616F000E636F030E626FA4EC10F01E
:101A9800CBC060F0CCC061F0ADEC12F012002A347B
:101AA8002B34316E3150D8A45CEF0DF05EEF0DF0A1
:101AB80068EF0DF0000E286E000E296E000E2A6EDB
:101AC800000E2B6ED5EF0DF028C02CF029C02DF09C
:101AD8002AC02EF02BC02FF0200E78EF0DF0D890F2
:101AE8002F322E322D322C32E82E73EF0DF02C507F
:101AF800306E2A8EFF0E2816FF0E2916FF0E2A16A4
:101B0800000E2B16960E315E31BE8FEF0DF08DEF65
:101B18000DF0A5EF0DF03150800A970FD8B097EF70
:101B28000DF099EF0DF09BEF0DF05EEF0DF0D890F2
:101B38002B322A3229322832313E9BEF0DF0BDEF8D
:101B48000DF01F0E3164ABEF0DF0ADEF0DF0B5EFFA
:101B58000DF05EEF0DF0D890283629362A362B3650
:101B680031063150D8A4BBEF0DF0BDEF0DF0AFEF4B
:101B78000DF03050D8B4C3EF0DF0C5EF0DF0CDEF38
:101B88000DF02B1E2A1E291E286C000E29222A223F
:101B98002B2228C028F029C029F02AC02AF02BC0FF
:101BA8002BF012000001796F000E00017F6F000E0C
:101BB8007E6F79517E257A6F7B0E7E25D96E000E59
:101BC8007F21DA6E7A51C8EC13F0DF6E00017E4B8C
:101BD8007F2B7FBFF9EF0DF07F5109E1030E7E5D8A
:101BE800D8A0F9EF0DF0FBEF0DF0DDEF0DF0000ED2
:101BF800816F000E806F7B0E8025D96E000E8121CB
:101C0800DA6E2F0EDF640BEF0EF00DEF0EF01BEF08
:101C18000EF07B0E8025D96E000E8121DA6E390E0A
:101C2800DF6419EF0EF01BEF0EF01DEF0EF0010E42
:101C3800B26F804B812B81BF2BEF0EF0815109E1F0
:101C4800030E805DD8A02BEF0EF02DEF0EF0FFEF06
:101C58000DF07B0E676F000E686F8AEC08F076C097
:101C6800D9FF77C0DAFF000167C0DEFF68C0DDFF7B
:101C7800D50E606F7F0E616F000E636F0D0E626F81
:101C8800A4EC10F07B0E0001606F000E616F000E77
:101C9800636F030E626FA4EC10F0CDC060F0CEC08D
:101CA80061F0ADEC12F01200000E0001806F000E22
:101CB8007F6F7F5176257A6F805177217B6F040E75
:101CC8007A25D96E000E7B21DA6E7C0E7F25E16EB7
:101CD800000E8021E26EDFCFE7FF7F4B802B80BFB5
:101CE8007FEF0EF0805109E1030E7F5DD8A07FEFF2
:101CF8000EF081EF0EF05DEF0EF0000E826F000E19
:101D0800816F7C0E8125D96E000E8221DA6E2F0E2E
:101D1800DF6491EF0EF093EF0EF0A1EF0EF07C0E62
:101D28008125D96E000E8221DA6E390EDF649FEFAD
:101D38000EF0A1EF0EF0A3EF0EF0010EB26F814B83
:101D4800822B82BFB1EF0EF0825109E1030E815D53
:101D5800D8A0B1EF0EF0B3EF0EF085EF0EF07C0EC9
:101D6800676F000E686F8AEC08F078C0D9FF79C0F9
:101D7800DAFF000167C0DEFF68C0DDFF1200000E59
:101D880000017F6F000E7E6F7E517625D96E7F51E0
:101D98007721DA6E7B0E7E25E16E000E7F21E26EE2
:101DA800DFCFE7FF7E4B7F2B7FBFE4EF0EF07F5145
:101DB80009E1030E7E5DD8A0E4EF0EF0E6EF0EF029
:101DC800C8EF0EF0000E816F000E806F7B0E80252D
:101DD800D96E000E8121DA6E2F0EDF64F6EF0EF059
:101DE800F8EF0EF006EF0FF07B0E8025D96E000E8F
:101DF8008121DA6E390EDF6404EF0FF006EF0FF081
:101E080008EF0FF0010EB26F804B812B81BF16EFE8
:101E18000FF0815109E1030E805DD8A016EF0FF095
:101E280018EF0FF0EAEF0EF07B0E676F000E686F89
:101E38008AEC08F078C0D9FF79C0DAFF000167C0E2
:101E4800DEFF68C0DDFF120000019B6F97C060F0E5
:101E580098C061F0ACEC0FF099C060F09AC061F0E6
:101E68006AEC0FF0AAC091F0ABC092F06AEC10F0E7
:101E780091C0AEF092C0AFF0A8C091F0A9C092F0A6
:101E88006AEC10F091C0ACF092C0ADF097C0A6F02B
:101E980098C0A7F099C0A4F09AC0A5F0AEC062F0AF
:101EA800AFC063F0ACC064F0ADC065F000019B51F9
:101EB80051EC09F0E30E0001606F7F0E616F000EB8
:101EC800636F0A0E626FA4EC10F012000001A451B7
:101ED800605D6151800A626FA551800A6259D8B06D
:101EE80078EF0FF07AEF0FF083EF0FF083866051F1
:101EF800A45DA86F6151A559A96FABEF0FF06051B0
:101F0800A45DA551800A626F6151800A6259D8B0F8
:101F180090EF0FF092EF0FF09BEF0FF08396A45124
:101F2800605DA86FA5516159A96FABEF0FF0A4517F
:101F3800601907E1A5516119D8A4A5EF0FF0A7EF23
:101F48000FF0ABEF0FF0000EA96F000EA86F120094
:101F58000001A651605D6151800A626FA751800A35
:101F68006259D8B0BAEF0FF0BCEF0FF0C5EF0FF021
:101F780083826051A65DAA6F6151A759AB6FEDEFDF
:101F88000FF06051A65DA751800A626F6151800A07
:101F98006259D8B0D2EF0FF0D4EF0FF0DDEF0FF0A9
:101FA8008392A651605DAA6FA7516159AB6FEDEF9F
:101FB8000FF0A651601907E1A7516119D8A4E7EFFE
:101FC8000FF0E9EF0FF0EDEF0FF0000EAB6F000E22
:101FD800AA6F1200720ED36E800E00016E6F250E6E
:101FE8006F6F000E706F000E716F2FEC10F051ECD8
:101FF80013F0960E0001606F7F0E616F000E636F25
:10200800110E626FA4EC10F0A80E0001606F7F0E35
:10201800616F000E636F0E0E626FA4EC10F0A7ECF8
:1020280011F0E30E0001606F7F0E616F000E636FA9
:102038000A0E626FA4EC10F0130E0001606F7F0EA1
:10204800616F000E636F170E626FA4EC10F009EC5D
:1020580000F007EF00F0949C948E6EC064F06FC09F
:1020680065F070C066F071C067F0000E0001606F27
:10207800120E616F7A0E626F000E636F42EC0BF006
:1020880060C072F061C073F062C074F063C075F034
:1020980072C060F073C061F074C062F075C063F024
:1020A800400E0001646F000E656F000E666F000E33
:1020B800676F42EC0BF000016005AF6EAC94AC9812
:1020C800AB8EAC9CAC8AAB9CAB881200CD0E0001E9
:1020D800936FCC0E946F4C0E956F3E0E966F93C017
:1020E80072F094C073F095C074F096C075F091C00A
:1020F80060F092C061F0000E61BFFF0E626F636F07
:10210800010ED4EC06F060C06EF061C06FF062C0E2
:1021180070F063C071F004EC02F06EC087F06FC01D
:1021280088F070C089F071C08AF0C9EC0BF087C0E4
:10213800B0F088C0B1F0B0C091F0B1C092F0120018
:10214800000E0001676F000E666FCDEF10F09EA8BD
:10215800B0EF10F0B2EF10F0ABEF10F000016651E5
:102168006025646F67516121656F64C0F6FF65C0C3
:10217800F7FFF86A070EF76403D00800F55005D09A
:10218800F6CFE9FFF7CFEAFFEF50AD6E0001664BDF
:10219800672B6251665D6751800A646F6351800ADC
:1021A8006459D8A0DAEF10F0DCEF10F0ABEF10F0C4
:1021B80012000600F0A0E3EF10F0E5EF10F0F0EFEA
:1021C80010F0EFEC11F01A0E3F6EF80EE82EFED765
:1021D8003F2EFCD700D0F090F0A2F5EF10F0F7EF0B
:1021E80010F002EF11F0CBEC11F01A0E3F6EF80E62
:1021F800E82EFED73F2EFCD700D0F092F2A207EFD0
:1022080011F009EF11F014EF11F0BCEC13F01A0EF5
:102218003F6EF80EE82EFED73F2EFCD700D0F29284
:102228005B921100CD0E346ECC0E356E4C0E366EB0
:102238003E0E376E34C013F035C014F036C015F0BA
:1022480037C016F032C001F033C002F0000E02BEF3
:10225800FF0E036E046E010EB0EC07F001C00FF024
:1022680002C010F003C011F004C012F0D2EC03F069
:102278000FC028F010C029F011C02AF012C02BF0AE
:1022880053EC0DF028C0B0F029C0B1F0B0C032F066
:10229800B1C033F012000001656F000E0001676FD6
:1022A800000E666F6AEF11F09EAA5DEF11F05FEF06
:1022B80011F058EF11F0000166516025D96E675191
:1022C8006121DA6EAECFDFFF664B672B6551626F17
:1022D800636B6251665D6751800A646F6351800A5F
:1022E8006459D8A07AEF11F07CEF11F058EF11F093
:1022F8001200010E0001666F200E60196111D8B43A
:1023080088EF11F08AEF11F0A3EF11F0F70E626F6A
:10231800FF0E636F60C064F061C065F062516427AE
:1023280063516523655109E1050E645DD8A09FEFEF
:1023380011F0A1EF11F0A3EF11F0000E666F66C067
:1023480060F0616B1200ADEF11F083908384DCECD8
:1023580013F05A50D8B4B3EF11F0B5EF11F0A9EF5C
:1023680011F0BBEF11F083808394DCEC13F059502B
:10237800D8B4C1EF11F0C3EF11F0B7EF11F08380BB
:102388008384CA94000E5A6E000E596E1200838020
:102398008384020E3E6E040E3D6EBA0EE82EFED702
:1023A8003D2EFCD73E2EFAD700D05950D8A4DFEFE7
:1023B80011F0E1EF11F0ECEF11F0000E396E000EA4
:1023C800386E000E3B6E1E0E3A6E530E13EC12F072
:1023D800010E596E120083808384020E3E6E040E35
:1023E8003D6EBA0EE82EFED73D2EFCD73E2EFAD70C
:1023F80000D05A50D8A403EF12F005EF12F010EFF6
:1024080012F0000E396E1E0E386E000E3B6E000E76
:102418003A6E530E13EC12F0010E5A6E12003C6E17
:10242800CA948392839638C032F039C033F016ECE0
:1024380011F032C0AEF033C0AFF03AC032F03BC05A
:1024480033F016EC11F032C0ACF033C0ADF0AEC0D2
:1024580003F0AFC004F0ACC005F0ADC006F03C50CE
:10246800FDEC09F012003DEF12F083908384E2EC5A
:1024780013F05A50D8B443EF12F045EF12F039EF89
:1024880012F04BEF12F083808394E2EC13F0595072
:10249800D8B451EF12F053EF12F047EF12F08380E7
:1024A8008384CA94000E5A6E000E596E1200D00E24
:1024B8000001626FFF0E636F60C064F061C065F079
:1024C800625164276351652365510AE10A0E645D10
:1024D800D8A071EF12F074EF12F0010E75EF12F040
:1024E800000E606F616B12008B80020E0001696F35
:1024F800040E686FBA0EE82EFED7682FFCD7692F36
:10250800FAD700F08B90F80E0001606F7F0E616FB4
:10251800000E636F060E626FA4EC10F0120000014B
:10252800616F61C0A9FF60C0A8FFA69EA69CA68493
:10253800F29E550EA76EAA0EA76EA682F28EA1A8CD
:10254800A8EF12F0AAEF12F0A3EF12F0A198A69448
:102558001200000161BFBCEF12F02D0E605D010E8C
:102568006159D8B0BAEF12F0BCEF12F0C3EF12F015
:1025780061BFC3EF12F0C1EF12F0C5EF12F0010E08
:10258800B36F120082A4CBEF12F0CDEF12F0DAEFA6
:1025980012F00001B551D8A4D4EF12F0D6EF12F022
:1025A800DAEF12F0604B612B010EB56F60C060F07E
:1025B80061C061F0120082A2E4EF12F0E6EF12F0BF
:1025C800F3EF12F00001B651D8A4EDEF12F0EFEFDF
:1025D80012F0F3EF12F0604B612B010EB66F60C082
:1025E80060F061C061F0120082A4FDEF12F0FFEF0D
:1025F80012F00CEF13F00001B551D8A406EF13F058
:1026080008EF13F00CEF13F0014A022A010EB56F20
:1026180001C001F002C002F0120082A216EF13F00E
:1026280018EF13F025EF13F00001B651D8A41FEFEF
:1026380013F021EF13F025EF13F0014A022A010EDF
:10264800B66F01C001F002C002F012000001605133
:102658006203F3CF64F0F4CF65F060516303F35085
:10266800652761516203F350652764C060F065C057
:1026780061F0120000EEA0F02F0EEE6AE806FDE110
:1026880000EE40F01B0EEE6AE806FDE15B905B92FF
:10269800000EF86E0001EEEF0FF0000E956EF18E51
:1026A800938093829384D09EF28EF29CF288F08677
:1026B800F088F18CF18AF188F292F090F092120091
:1026C8007C0ECB6E3E0EBE6E3E0EBB6E9492949404
:1026D800030ECA6E0C0EBD6E0C0EBA6ECA941200B2
:1026E8007C0ECB6E3E0EBE6E3E0EBB6E94929494E4
:1026F800030ECA6E0C0EBD6E0C0EBA6ECA94120092
:10270800CB683E0EBE6E3E0EBB6E94929494030E42
:10271800CA6E0C0EBD6E0C0EBA6ECA941200CB684F
:102728003E0EBE6E3E0EBB6E94929494030ECA6E1D
:102738000C0EBD6E0C0EBA6ECA9412008B90EE0E83
:102748000001606F7F0E616F000E636F090E626F8C
:10275800A4EC10F012008B80EE0E0001606F7F0E6B
:10276800616F000E636F090E626FA4EC10F0120027
:1027780037EC12F0000E0001A76F000EA66F000ED6
:10278800A56F000EA46F12000001606F60C0A9FF62
:10279800A69EA69CA680A8CF56F0565012009EAAC8
:1027A800D8EF13F0DAEF13F0D3EF13F0AE501200B6
:1027B8008382838684EC13F0CA8412008382838622
:0827C80093EC13F0CA84120027
:107C2E000000000000DCCFD1350000000000C015C0
:107C3E003F6042A20D70A5EC363BAAB83F4F387696
:107C4E003F3CAA38338CBEBF350072313F187231BB
:107C5E003F4CBB31330EEADDB555B38A38610B3676
:107C6E00BBABAA2A3E42F1533E55326C3E05A38B66
:107C7E003EABAAAA3EB76DDB3E9A99193F6042A26F
:107C8E000DCAF249710000804B0000803F0000C019
:107C9E003F00AAB83FC623F6B80040763F504C4589
:107CAE0041534520494E534552542054484520498E
:107CBE004E535452554354494F4E204F4620534530
:107CCE0054504F494E540A00504C45415345204D97
:107CDE004F444946592054484520534554504F4926
:107CEE004E5420414E442054525920414741494E52
:107CFE000A004552524F5220434F5244494E41546E
:107D0E004553204F5554534944452054484520521D
:107D1E00414E47450A004552524F5220434152416F
:107D2E00435445525320494E4752455345442057DC
:107D3E00524F4E470A00434F4F5244494E4154450D
:107D4E00204F4620534554504F494E542031303A1F
:107D5E000A00434F4F5244494E415445204F46204E
:107D6E00534554504F494E542031313A0A00434F37
:107D7E004F5244494E415445204F4620534554508E
:107D8E004F494E542031323A0A00434F4F52444924
:107D9E004E415445204F4620534554504F494E5462
:107DAE002031333A0A00434F4F5244494E41544515
:107DBE00204F4620534554504F494E542031343AAB
:107DCE000A00434F4F5244494E415445204F4620DE
:107DDE00534554504F494E542031353A0A00434FC3
:107DEE004F5244494E415445204F4620534554501E
:107DFE004F494E5420303A0A00434F4F5244494E99
:107E0E00415445204F4620534554504F494E54201F
:107E1E00313A0A00434F4F5244494E415445204F88
:107E2E004620534554504F494E5420323A0A00438F
:107E3E004F4F5244494E415445204F4620534554CE
:107E4E00504F494E5420333A0A00434F4F52444943
:107E5E004E415445204F4620534554504F494E54A1
:107E6E0020343A0A00434F4F5244494E4154452064
:107E7E004F4620534554504F494E5420353A0A0030
:107E8E00434F4F5244494E415445204F462053458F
:107E9E0054504F494E5420363A0A00434F4F5244E5
:107EAE00494E415445204F4620534554504F494E5C
:107EBE005420373A0A00434F4F5244494E415445DD
:107ECE00204F4620534554504F494E5420383A0ABD
:107EDE0000434F4F5244494E415445204F46205384
:107EEE004554504F494E5420393A0A00574149548F
:107EFE00494E4720464F5220494E535452554354F3
:107F0E00494F4E0A0057414954494E4720464F5259
:107F1E0020434F4E54524F4C2E2E2E0A005741499D
:107F2E005420554E54494C20434F4D504C455445CA
:107F3E002E2E2E0A005741495420554E54494C209E
:107F4E00434F4D504C4554452E2E2E00434F4F520D
:107F5E0044494E41544520582053415645440A0049
:107F6E00434F4F5244494E41544520592053415698
:107F7E0045440A00434F4F5244494E415445205AFE
:107F8E002053415645440A0057454C434F4D45201A
:107F9E00544F2053504152430A00574149542046F2
:107FAE004F5220484F4D450A000A434F4F52444905
:107FBE004E41544520593A000A434F4F5244494EC0
:107FCE00415445205A3A00434F4F5244494E415472
:107FDE004520583A00434F4D504C455445440A00F5
:107FEE00434F4D504C4554450A00544F5543480A93
:027FFE00000081
:020000040020DA
:08000000FFFFFFFFFFFFFFFF00
:020000040030CA
:0E00000000081F1EFF8181FF0FC00FE00F40A0
:00000001FF
