:020000040000FA
:0400000007EF00F016
:0A0008005D822AED16F0E3EF18F018
:100800000000000000DCCFD1350000000000C01562
:100810003F6042A20D70A5EC363BAAB83F4F387638
:100820003F3CAA38338CBEBF350072313F1872315D
:100830003F4CBB31330EEADDB555B38A38610B3618
:10084000BBABAA2A3E42F1533E55326C3E05A38B08
:100850003EABAAAA3EB76DDB3E9A99193F6042A211
:100860000DCAF249710000804B0000803F0000C0BB
:100870003F00AAB83FC623F6B80040763F57454C24
:10088000434F4D4520544F2053504152430A00439B
:1008900058530A004359530A00435A530A0043303D
:1008A0000A0043310A0045310A0043320A0045324A
:1008B0000A0043330A0043340A0043350A00433632
:1008C0000A0043370A0043380A0043390A0043410B
:1008D0000A0043420A0043430A0043440A004345D6
:1008E0000A0043460A00520A00570A0043580043D0
:1008F0005900435A0046000095909594959295961C
:1009000083808380949294948292000E00019E6F63
:1009100000019E51D8A48FEF04F091EF04F09EEFF8
:1009200004F0E60E606F080E616F000E636F020E3A
:10093000626FF1EC15F0010E00019E6FC1EC19F031
:1009400000019F6F5BEF06F0C80E606F000E616FD5
:10095000070ECEEC16F0E90E0001606F080E616F15
:10096000000E636F020E626FF1EC15F0C80E00010D
:10097000766F000E776FD30E786F000E796F51ECA3
:1009800014F0C80E0001766F000E776FD10E786FED
:10099000000E796FE6EC13F0D3C060F0D4C061F0C4
:1009A00052EC18F0D1C060F0D2C061F052EC18F0F7
:1009B0000001B905D8A4DFEF04F0E1EF04F0F0EF97
:1009C00004F0A60E606F080E616F000E636F030ED9
:1009D000626FF1EC15F0000E0001B96F88EF04F0C2
:1009E000B805D8A4F6EF04F0F8EF04F007EF05F02F
:1009F000AE0E606F080E616F000E636F030E626FC4
:100A0000F1EC15F0000E0001B86F88EF04F0D3C0D0
:100A100097F0D4C098F0D1C099F0D2C09AF09F510D
:100A2000B6EC14F088EF04F0C80E606F000E616F32
:100A3000070ECEEC16F0E90E0001606F080E616F34
:100A4000000E636F020E626FF1EC15F0C80E00012C
:100A5000766F000E776FD30E786F000E796F51ECC2
:100A600014F0C80E0001766F000E776FD10E786F0C
:100A7000000E796FE6EC13F0D3C060F0D4C061F0E3
:100A800052EC18F0D1C060F0D2C061F052EC18F016
:100A90000001B905D8A44FEF05F051EF05F05DEF67
:100AA00005F0A60E606F080E616F000E636F030EF7
:100AB000626FF1EC15F0EBEF04F0B805D8A463EF2A
:100AC00005F065EF05F071EF05F0AE0E606F080EF2
:100AD000616F000E636F030E626FF1EC15F002EFB1
:100AE00005F0D3C097F0D4C098F0D1C099F0D2C02F
:100AF0009AF09F51B6EC14F088EF04F0E90E606FA5
:100B0000080E616F000E636F020E626FF1EC15F05C
:100B10001DEC18F088EF04F0E90E606F080E616FAD
:100B2000000E636F020E626FF1EC15F070EC19F0BD
:100B300088EF04F0E90E606F080E616F000E636FBE
:100B4000020E626FF1EC15F063EC19F088EF04F01F
:100B5000E90E606F080E616F000E636F020E626F28
:100B6000F1EC15F0C1EC19F00001BA6FBA5128ECA4
:100B70000AF00001BA6FD30E766F000E776FBA518C
:100B8000F1EC12F0D10E0001766F000E776FBA51C2
:100B9000EBEC11F0CF0E0001766F000E776FBA51BB
:100BA00068EC11F00001B905D8A4D9EF05F0DBEF2E
:100BB00005F0E7EF05F0A60E606F080E616F000EFE
:100BC000636F030E626FF1EC15F0EBEF04F0B80504
:100BD000D8A4EDEF05F0EFEF05F0FBEF05F0AE0E5A
:100BE000606F080E616F000E636F030E626FF1ECB1
:100BF00015F002EF05F0D3C097F0D4C098F0D1C043
:100C000099F0D2C09AF09F51B6EC14F088EF04F03E
:100C1000C1EC19F00001BA6FBD0E606F000E616F7C
:100C20000B0ECEEC16F0E90E0001606F080E616F3E
:100C3000000E636F020E626FF1EC15F00001BA5105
:100C400028EC0AF00001BA6FBD0E686F000E696FE4
:100C5000BA5130EC0FF088EF04F0E90E606F080E27
:100C6000616F000E636F020E626FF1EC15F03BEFE7
:100C700006F09CEC16F080AA40EF06F042EF06F07A
:100C800039EF06F0E60E0001606F080E616F000E8E
:100C9000636F020E626FF1EC15F088EF04F0F50E51
:100CA000606F080E616F000E636F010E626FF1ECF2
:100CB00015F08CEF06F09F519C6F9D6B9D51000AC3
:100CC000D8B465EF06F088EF04F09C51410AD8B41F
:100CD0002DEF06F0040AD8B44FEF06F0030AD8B49B
:100CE000A4EF04F00E0AD8B48CEF05F0050AD8B4CE
:100CF00008EF06F0020AD8B4A8EF05F01D0AD8B430
:100D00009AEF05F0010AD8B414EF05F0070AD8B439
:100D10007EEF05F088EF04F0120000017151800BA6
:100D20007E6F71517125856F70AF99EF06F09BEF63
:100D300006F09CEF06F085818551D8B4A2EF06F04D
:100D4000A4EF06F0B9EF06F08529D8A4AAEF06F0C3
:100D5000ACEF06F0B4EF06F0000E6E6F000E6F6F92
:100D6000000E706F000E716F708F000E716FC1EF0B
:100D700006F0000E6E6F000E6F6F000E706F000EAB
:100D8000716F7551800B7E1B75517525866F74AF21
:100D9000CCEF06F0CEEF06F0CFEF06F0868186515D
:100DA000D8B4D5EF06F0D7EF06F0ECEF06F08629C1
:100DB000D8A4DDEF06F0DFEF06F0E7EF06F0000E57
:100DC000726F000E736F000E746F000E756F748F6C
:100DD000000E756FF4EF06F0000E726F000E736F69
:100DE000000E746F000E756F7251731174117511CE
:100DF000D8A4FDEF06F0FFEF06F017EF07F0000EA6
:100E00006E6F000E6F6F000E706F000E716F800EB0
:100E100070137F0E71137E5171136EC06EF06FC030
:100E20006FF070C070F071C071F05AEF08F085512A
:100E3000D8A41DEF07F01FEF07F029EF07F0000E11
:100E40006E6F000E6F6F000E706F000E716F5AEFB5
:100E500008F0865185C076F0776B765F000E775B81
:100E60007F0E76257F6F000E7721806F6EC07AF03F
:100E70006FC07BF070C07CF071C07DF0000E6E6FB3
:100E8000000E6F6F000E706F000E716F000E816F9D
:100E9000000E826F000E836F000E846F000E866F4F
:100EA0008AEF07F08651D8B458EF07F05AEF07F0F1
:100EB00071EF07F0D8907A377B377C377D37D89041
:100EC0006E376F377037713784AF69EF07F06BEFAC
:100ED00007F06CEF07F06E81D89081378237833747
:100EE000843772517A5D73517B5974517C597551B5
:100EF0007D59D8A07EEF07F080EF07F089EF07F06B
:100F0000848D72517A5F73517B5B74517C5B755138
:100F10007D5B862B190E866590EF07F092EF07F048
:100F200052EF07F07A517B117C117D11D8B49BEF01
:100F300007F09DEF07F0B5EF07F08181B5EF07F0FF
:100F4000D8906E376F377037713784AFAAEF07F0DC
:100F5000ACEF07F0ADEF07F06E81D89081378237A4
:100F6000833784377F07D8A0800770AFBAEF07F0C8
:100F7000BCEF07F0A0EF07F0000E866F84AFC3EF61
:100F800007F0C5EF07F0E9EF07F0FF0E8115766F68
:100F9000FF0E8215776FFF0E8315786F7F0E841515
:100FA000796F7651771178117911D8B4DAEF07F0AB
:100FB000DCEF07F0E0EF07F0010E866FE9EF07F0D6
:100FC0006EA1E5EF07F0E7EF07F0E9EF07F0DCEFE0
:100FD00007F08651D8B4EFEF07F0F1EF07F015EF07
:100FE00008F0010E6E27000E6F237023712371A18C
:100FF000FCEF07F0FEEF07F015EF08F06EC076F09B
:101000006FC077F070C078F071C079F079357933BE
:1010100078337733763376C06EF077C06FF078C070
:1010200070F079C071F07F4B802B80BF20EF08F00B
:10103000805108E17F29D8A020EF08F022EF08F0C6
:101040002DEF08F0000E806F7F69000E6E6F000EAE
:101050006F6F000E706F000E716F80BF3AEF08F077
:10106000805106E17F05D8B038EF08F03AEF08F07C
:1010700048EF08F0000E806F000E7F6F000E6E6F5D
:10108000000E6F6F000E706F000E716F000E7E6F9E
:101090007FC085F085A14FEF08F051EF08F054EFC5
:1010A00008F0708F55EF08F0709FD8908531716F00
:1010B0000BEF07F012001250800B1F6E125012241B
:1010C000266E11AE66EF08F068EF08F069EF08F0E1
:1010D00026802650D8B46FEF08F071EF08F086EF45
:1010E00008F02628D8A477EF08F079EF08F081EF10
:1010F00008F0000E0F6E000E106E000E116E000E46
:10110000126E118E000E126E8EEF08F0000E0F6E32
:10111000000E106E000E116E000E126E1650800B37
:101120001F1A16501624276E15AE99EF08F09BEF84
:1011300008F09CEF08F027802750D8B4A2EF08F001
:10114000A4EF08F0B9EF08F02728D8A4AAEF08F018
:10115000ACEF08F0B4EF08F0000E136E000E146E42
:10116000000E156E000E166E158E000E166EC1EF77
:1011700008F0000E136E000E146E000E156E000EB9
:10118000166E1350141015101610D8A4CAEF08F0DC
:10119000CCEF08F0E4EF08F0000E0F6E000E106EBA
:1011A000000E116E000E126E800E11127F0E1212C2
:1011B0001F5012120FC00FF010C010F011C011F02C
:1011C00012C012F027EF0AF02650D8A4EAEF08F078
:1011D000ECEF08F0F6EF08F0000E0F6E000E106E48
:1011E000000E116E000E126E27EF0AF0275026C077
:1011F00017F0186A175E000E185A7F0E1724206E1B
:10120000000E1820216E0FC01BF010C01CF011C082
:101210001DF012C01EF0000E0F6E000E106E000EBC
:10122000116E000E126E000E226E000E236E000E66
:10123000246E000E256E000E276E57EF09F0275022
:10124000D8B425EF09F027EF09F03EEF09F0D89068
:101250001B361C361D361E36D8900F36103611360A
:10126000123625AE36EF09F038EF09F039EF09F004
:101270000F80D890223623362436253613501B5C37
:1012800014501C5815501D5816501E58D8A04BEF1E
:1012900009F04DEF09F056EF09F0258C13501B5E55
:1012A00014501C5A15501D5A16501E5A272A190E32
:1012B00027645DEF09F05FEF09F01FEF09F01B50A5
:1012C0001C101D101E10D8B468EF09F06AEF09F069
:1012D00082EF09F0228082EF09F0D8900F361036A5
:1012E0001136123625AE77EF09F079EF09F07AEF73
:1012F00009F00F80D8902236233624362536200672
:10130000D8A0210611AE87EF09F089EF09F06DEF43
:1013100009F0000E276E25AE90EF09F092EF09F06C
:10132000B6EF09F0FF0E2214176EFF0E2314186E8D
:10133000FF0E2414196E7F0E25141A6E1750181004
:1013400019101A10D8B4A7EF09F0A9EF09F0ADEF02
:1013500009F0010E276EB6EF09F00FA0B2EF09F009
:10136000B4EF09F0B6EF09F0A9EF09F02750D8B4AF
:10137000BCEF09F0BEEF09F0E2EF09F0010E0F2615
:10138000000E10221122122212A0C9EF09F0CBEF99
:1013900009F0E2EF09F00FC017F010C018F011C00B
:1013A00019F012C01AF01A341A32193218321732E0
:1013B00017C00FF018C010F019C011F01AC012F0C9
:1013C000204A212A21BEEDEF09F0215008E1202812
:1013D000D8A0EDEF09F0EFEF09F0FAEF09F0000EF9
:1013E000216E2068000E0F6E000E106E000E116E42
:1013F000000E126E21BE07EF0AF0215006E1200414
:10140000D8B005EF0AF007EF0AF015EF0AF0000E6A
:10141000216E000E206E000E0F6E000E106E000E7C
:10142000116E000E126E000E1F6E20C026F026A058
:101430001CEF0AF01EEF0AF021EF0AF0118E22EFE6
:101440000AF0119ED8902630126ED8EF08F01200E4
:1014500000016A6F0CEF0BF0000E6A6F9E0E606F5A
:10146000080E616F000E636F030E626FF1EC15F0F2
:101470005AEF0BF0100E6A6FA20E606F080E616FCC
:10148000000E636F030E626FF1EC15F05AEF0BF074
:10149000200E6A6FAA0E606F080E616F000E636FF8
:1014A000030E626FF1EC15F05AEF0BF0300E6A6F1D
:1014B000B20E606F080E616F000E636F030E626FF5
:1014C000F1EC15F05AEF0BF0400E6A6FB60E606F3C
:1014D000080E616F000E636F030E626FF1EC15F082
:1014E0005AEF0BF0500E6A6FBA0E606F080E616F04
:1014F000000E636F030E626FF1EC15F05AEF0BF004
:10150000600E6A6FBE0E606F080E616F000E636F33
:10151000030E626FF1EC15F05AEF0BF0700E6A6F6C
:10152000C20E606F080E616F000E636F030E626F74
:10153000F1EC15F05AEF0BF0800E6A6FC60E606F7B
:10154000080E616F000E636F030E626FF1EC15F011
:101550005AEF0BF0900E6A6FCA0E606F080E616F43
:10156000000E636F030E626FF1EC15F05AEF0BF093
:10157000A00E6A6FCE0E606F080E616F000E636F73
:10158000030E626FF1EC15F05AEF0BF0B00E6A6FBC
:10159000D20E606F080E616F000E636F030E626FF4
:1015A000F1EC15F05AEF0BF0C00E6A6FD60E606FBB
:1015B000080E616F000E636F030E626FF1EC15F0A1
:1015C0005AEF0BF0D00E6A6FDA0E606F080E616F83
:1015D000000E636F030E626FF1EC15F05AEF0BF023
:1015E000E00E6A6FDE0E606F080E616F000E636FB3
:1015F000030E626FF1EC15F05AEF0BF0F00E6A6F0C
:10160000E20E606F080E616F000E636F030E626F73
:10161000F1EC15F05AEF0BF000016A51686F696B3D
:101620006951000AD8B417EF0BF05AEF0BF068516C
:10163000300AD8B42CEF0AF0010AD8B43AEF0AF015
:10164000030AD8B448EF0AF0010AD8B456EF0AF0FA
:10165000070AD8B464EF0AF0010AD8B472EF0AF0AE
:10166000030AD8B480EF0AF0010AD8B48EEF0AF06A
:101670000F0AD8B49CEF0AF0010AD8B4AAEF0AF016
:10168000780AD8B4B8EF0AF0030AD8B4C6EF0AF063
:10169000010AD8B4D4EF0AF0070AD8B4E2EF0AF08E
:1016A000010AD8B4F0EF0AF0030AD8B4FEEF0AF04A
:1016B0005AEF0BF000016A5112000001686F00013F
:1016C0006851D8B466EF0BF068EF0BF08AEF0BF0BF
:1016D00063BF6FEF0BF06DEF0BF08AEF0BF060C0A4
:1016E00064F061C065F062C066F063C067F0641FBB
:1016F000651F661F671F642B000E65236623672323
:1017000064C06AF065C06BF066C06CF067C06DF0D5
:1017100092EF0BF060C06AF061C06BF062C06CF0D9
:1017200063C06DF06051611162116311D8A49BEF29
:101730000BF09DEF0BF0A7EF0BF0000E606F000EAB
:10174000616F000E626F000E636F38EF0CF0960E43
:10175000696FB1EF0BF0692BD8906D336C336B333D
:101760006A33000E6A15646F000E6B15656F000E0C
:101770006C15666FFE0E6D15676F6451651166110D
:101780006711D8A4C6EF0BF0C8EF0BF0ABEF0BF06E
:10179000D6EF0BF0692B010E6A27000E6B236C232A
:1017A0006D23D8906D336C336B336A33000E6A153A
:1017B000646F000E6B15656F000E6C15666FFF0E83
:1017C0006D15676F6451651166116711D8A4EBEF51
:1017D0000BF0EDEF0BF0CAEF0BF0F5EF0BF0690734
:1017E000D8906A376B376C376D376CBFFAEF0BF0F8
:1017F000FCEF0BF004EF0CF0020E696102EF0CF04D
:1018000004EF0CF0EFEF0BF069B109EF0CF00BEF08
:101810000CF00CEF0CF06C9FD890693369C064F049
:10182000656B666B676B64C067F0666B656B646B5A
:1018300064516A1365516B1366516C1367516D13D4
:101840006851D8B426EF0CF028EF0CF030EF0CF014
:1018500063BF2FEF0CF02DEF0CF030EF0CF06D8F1D
:101860006AC060F06BC061F06CC062F06DC063F084
:101870001200096E0950D8B440EF0CF042EF0CF0A2
:1018800064EF0CF004BE49EF0CF047EF0CF064EF8E
:101890000CF001C005F002C006F003C007F004C060
:1018A00008F0051E061E071E081E052A000E062249
:1018B0000722082205C00BF006C00CF007C00DF08F
:1018C00008C00EF06CEF0CF001C00BF002C00CF081
:1018D00003C00DF004C00EF00150021003100410FC
:1018E000D8A475EF0CF077EF0CF081EF0CF0000E40
:1018F000016E000E026E000E036E000E046E12EFFB
:101900000DF0960E0A6E8BEF0CF00A2AD8900E326C
:101910000D320C320B32000E0B14056E000E0C143F
:10192000066E000E0D14076EFE0E0E14086E0550A6
:10193000061007100810D8A4A0EF0CF0A2EF0CF0CE
:1019400085EF0CF0B0EF0CF00A2A010E0B26000E0A
:101950000C220D220E22D8900E320D320C320B3298
:10196000000E0B14056E000E0C14066E000E0D1406
:10197000076EFF0E0E14086E0550061007100810B3
:10198000D8A4C5EF0CF0C7EF0CF0A4EF0CF0CFEF2C
:101990000CF00A06D8900B360C360D360E360DBEFE
:1019A000D4EF0CF0D6EF0CF0DEEF0CF0020E0A6074
:1019B000DCEF0CF0DEEF0CF0C9EF0CF00AB0E3EF57
:1019C0000CF0E5EF0CF0E6EF0CF00D9ED8900A322B
:1019D0000AC005F0066A076A086A05C008F0076AC7
:1019E000066A056A05500B1206500C1207500D12BC
:1019F00008500E120950D8B400EF0DF002EF0DF0B0
:101A00000AEF0DF004BE09EF0DF007EF0DF00AEF3D
:101A10000DF00E8E0BC001F00CC002F00DC003F0F3
:101A20000EC004F01200000E0001756F000E746FFE
:101A3000000E6E6F000E6D6F20EF0DF0674B682B80
:101A4000010E736F67C0D9FF68C0DAFF200EDE1881
:101A5000D8B42DEF0DF02FEF0DF04BEF0DF0F70E8A
:101A6000696FFF0E6A6F67C0D9FF68C0DAFFDF5089
:101A70006B6F6C6B69516B276A516C236C5109E178
:101A8000050E6B5DD8A047EF0DF049EF0DF04BEF61
:101A90000DF0000E736F73C06FF0706B6F517011AB
:101AA000D8A455EF0DF057EF0DF01EEF0DF061EFDC
:101AB0000DF0000E6E6F010E6D6F674B682B97EF88
:101AC0000DF067C0D9FF68C0DAFFDF50696F6A6B3D
:101AD0006A51000AD8B46FEF0DF097EF0DF069511D
:101AE0002B0AD8B45DEF0DF0060AD8B459EF0DF00B
:101AF00097EF0DF074C060F075C061F0000E636F79
:101B00000A0E626FCFEC18F067C0D9FF68C0DAFF29
:101B1000DF500001696F6951605F000E615B300E3C
:101B20006025746F000E6121756F5DEF0DF0D00EB2
:101B3000696FFF0E6A6F67C0D9FF68C0DAFFDF50B8
:101B40006B6F6C6B69516B276A516C236C510AE1A6
:101B50000A0E6B5DD8A0AFEF0DF0B2EF0DF0010EE5
:101B6000B3EF0DF0000E716F726B71517211D8A44A
:101B7000BCEF0DF0BEEF0DF07AEF0DF06D516E1170
:101B8000D8A4C5EF0DF0C7EF0DF0D5EF0DF074C080
:101B900069F075C06AF0691F6A1F694B6A2B69C0DA
:101BA00067F06AC068F0D9EF0DF074C067F075C0D7
:101BB00068F012000001676F530E00016719D8A486
:101BC000E4EF0DF0E6EF0DF0EAEF0DF029EC19F07F
:101BD000ECEF0DF009EC19F083908394000E0001F6
:101BE000696F000E686F000E6B6F000E6A6F6251B6
:101BF0006311D8A4FEEF0DF000EF0EF001EF0EF030
:101C0000838064516511D8A408EF0EF00AEF0EF03E
:101C10000BEF0EF08384CA845DEF0EF06251685DB5
:101C20006951800A666F6351800A6659D8B01BEF0C
:101C30000EF01DEF0EF034EF0EF082A222EF0EF048
:101C400024EF0EF030EF0EF068C060F069C061F074
:101C500084EC18F060C068F061C069F035EF0EF0F8
:101C6000000EBC6F35EF0EF08380000164516A5D99
:101C70006B51800A666F6551800A6659D8B043EF90
:101C80000EF045EF0EF05CEF0EF082A44AEF0EF07E
:101C90004CEF0EF058EF0EF06AC060F06BC061F0D0
:101CA0006BEC18F060C06AF061C06BF05DEF0EF095
:101CB000000EBB6F5DEF0EF0838400016251685D22
:101CC0006951800A666F6351800A6659D8A06BEF2C
:101CD0000EF06DEF0EF00EEF0EF064516A5D6B5179
:101CE000800A666F6551800A6659D8A07AEF0EF0B7
:101CF0007CEF0EF00EEF0EF0000EBC6F000E6B6F5F
:101D0000000E6A6F000EBB6FCA941200086E530E6D
:101D10000818D8A48EEF0EF090EF0EF094EF0EF0AE
:101D200038EC19F096EF0EF019EC19F083908394CB
:101D3000000E0A6E000E096E000E0C6E000E0B6E89
:101D400003500410D8A4A7EF0EF0A9EF0EF0AAEFED
:101D50000EF0838005500610D8A4B1EF0EF0B3EF5B
:101D60000EF0B4EF0EF08384CA8407EF0FF0035037
:101D7000095C0A50800A076E0450800A0758D8B0E0
:101D8000C4EF0EF0C6EF0EF0DEEF0EF082A2CBEF46
:101D90000EF0CDEF0EF0D9EF0EF009C001F00AC041
:101DA00002F0B6EC18F001C009F002C00AF0DFEF53
:101DB0000EF0000E0001BC6FDFEF0EF083800550C7
:101DC0000B5C0C50800A076E0650800A0758D8B08A
:101DD000ECEF0EF0EEEF0EF006EF0FF082A4F3EF53
:101DE0000EF0F5EF0EF001EF0FF00BC001F00CC09C
:101DF00002F09DEC18F001C00BF002C00CF007EFF0
:101E00000FF0000E0001BB6F07EF0FF0838403504B
:101E1000095C0A50800A076E0450800A0758D8A04F
:101E200014EF0FF016EF0FF0B7EF0EF005500B5C4C
:101E30000C50800A076E0650800A0758D8A023EF7E
:101E40000FF025EF0FF0B7EF0EF0000E0001BC6FA2
:101E5000000E0C6E000E0B6E000EBB6FCA941200CB
:101E600000016C6F000E00016F6F000E6E6F6C5101
:101E70006E256D6F6E516825D96E6F516921DA6ECE
:101E8000DF50606F6D5138EC18F000016E4B6F2B16
:101E90006FBF54EF0FF06F5109E1030E6E5DD8A0D4
:101EA00054EF0FF056EF0FF037EF0FF08F0E606F1B
:101EB000080E616F000E636F040E626FF1EC15F097
:101EC000000E0001716F000E706F6C517025030FD2
:101ED0006D6F705168256A6F715169216B6F040EC7
:101EE0006A25D96E000E6B21DA6EDF50606F6D517E
:101EF00038EC18F00001704B712B71BF89EF0FF0B7
:101F0000715109E1030E705DD8A089EF0FF08BEFDE
:101F10000FF065EF0FF0940E606F080E616F000E0A
:101F2000636F040E626FF1EC15F0000E0001736F29
:101F3000000E726F6C517225060F6D6F725168251D
:101F40006A6F735169216B6F080E6A25D96E000E96
:101F50006B21DA6EDF50606F6D5138EC18F00001C4
:101F6000724B732B73BFBEEF0FF0735109E1030E79
:101F7000725DD8A0BEEF0FF0C0EF0FF09AEF0FF038
:101F8000990E606F080E616F000E636F040E626F32
:101F9000F1EC15F01200720ED36E55EC19F07DECD9
:101FA00019F0B7EC19F047EC19F0ADEC19F08C987A
:101FB000800E00016E6F250E6F6F000E706F000EA9
:101FC000716F7CEC15F0F6EC18F07D0E0001606F7F
:101FD000080E616F000E636F110E626FF1EC15F069
:101FE000410E26EC17F0E90E0001606F080E616FDC
:101FF000000E636F020E626FF1EC15F04CEC17F0FF
:10200000030E0001A16F080EA06F770EE82EFED719
:10201000A02FFCD7A12FFAD7030E0001A16F080E45
:10202000A06F770EE82EFED7A02FFCD7A12FFAD7EE
:10203000030E0001A16F080EA06F770EE82EFED7E9
:10204000A02FFCD7A12FFAD7560E26EC17F0030EBF
:102050000001A16F080EA06F770EE82EFED7A02F0B
:10206000FCD7A12FFAD7030E0001A16F080EA06FB5
:10207000770EE82EFED7A02FFCD7A12FFAD7030E9C
:102080000001A16F080EA06F770EE82EFED7A02FDB
:10209000FCD7A12FFAD7520E73EC13F0D70E000124
:1020A000606F080E616F000E636F020E626FF1ECDD
:1020B00015F07CEC04F007EF00F0000E0001696FF2
:1020C00067BF67EF10F065EF10F071EF10F0671F5A
:1020D000661F651F646D000E652366236723010E6E
:1020E000696F63BF78EF10F076EF10F082EF10F0B9
:1020F000631F621F611F606D000E612362236323F3
:10210000010E691B000E6A6F000E6B6F000E6C6F84
:10211000000E6D6F6451651166116711D8B493EFAD
:1021200010F095EF10F0CBEF10F0010E686F9FEFFD
:1021300010F0D8906437653766376737682B67AF1C
:10214000A4EF10F0A6EF10F099EF10F0D8906A37D6
:102150006B376C376D376451605D655161596651FD
:10216000625967516359D8A0B8EF10F0BAEF10F078
:10217000C3EF10F06451605F6551615B6651625B53
:102180006751635B6A81D890673366336533643324
:10219000682FA6EF10F06951D8B4D1EF10F0D3EF4B
:1021A00010F0DBEF10F06D1F6C1F6B1F6A6D000EDF
:1021B0006B236C236D236AC060F06BC061F06CC050
:1021C00062F06DC063F01200000189358A35906FAE
:1021D0009051D8A4EEEF10F0F0EF10F0FAEF10F0FD
:1021E000000E876F000E886F000E896F000E8A6FD9
:1021F00067EF11F087C08BF088C08CF089C08DF03C
:102200008AC08EF0200E0AEF11F0D8908E338D33F5
:102210008C338B33E82E05EF11F08B518F6F898F44
:10222000FF0E8717FF0E8817FF0E8917000E8A17FB
:10223000960E905F90BF21EF11F01FEF11F037EF76
:1022400011F09051800A970FD8B029EF11F02BEFC1
:1022500011F02DEF11F0F0EF10F0D8908A338933A0
:1022600088338733903F2DEF11F04FEF11F01F0EA1
:1022700090653DEF11F03FEF11F047EF11F0F0EFF7
:1022800010F0D8908737883789378A379007905170
:10229000D8A44DEF11F04FEF11F041EF11F08F5135
:1022A000D8B455EF11F057EF11F05FEF11F08A1F1E
:1022B000891F881F876D000E882389238A2387C082
:1022C00087F088C088F089C089F08AC08AF012003F
:1022D0000001796F000E00017F6F000E7E6F795153
:1022E0007E25060F7A6F7B0E7E25D96E000E7F212C
:1022F000DA6E7A51A2EC19F0DF6E00017E4B7F2B73
:102300007FBF8CEF11F07F5109E1030E7E5DD8A0F5
:102310008CEF11F08EEF11F06FEF11F0000E816F66
:10232000000E806F7B0E8025D96E000E8121DA6E43
:102330002F0EDF649EEF11F0A0EF11F0AEEF11F061
:102340007B0E8025D96E000E8121DA6E390EDF6496
:10235000ACEF11F0AEEF11F0B0EF11F0010EB86F6D
:10236000804B812B81BFBEEF11F0815109E1030E3B
:10237000805DD8A0BEEF11F0C0EF11F092EF11F028
:102380007B0E676F000E686F13EC0DF076C0D9FFFF
:1023900077C0DAFF000167C0DEFF68C0DDFFF20E24
:1023A000606F080E616F000E636F020E626FF1ECDA
:1023B00015F07B0E0001606F000E616F000E636F01
:1023C000030E626FF1EC15F0CFC060F0D0C061F089
:1023D00052EC18F012000001796F000E00017F6FBF
:1023E000000E7E6F79517E25030F7A6F7B0E7E255E
:1023F000D96E000E7F21DA6E7A51A2EC19F0DF6EF1
:1024000000017E4B7F2B7FBF0FEF12F07F5109E160
:10241000030E7E5DD8A00FEF12F011EF12F0F2EF75
:1024200011F0000E816F000E806F7B0E8025D96E3B
:10243000000E8121DA6E2F0EDF6421EF12F023EF00
:1024400012F031EF12F07B0E8025D96E000E812143
:10245000DA6E390EDF642FEF12F031EF12F033EF46
:1024600012F0010EB86F804B812B81BF41EF12F04B
:10247000815109E1030E805DD8A041EF12F043EFD6
:1024800012F015EF12F07B0E676F000E686F13EC01
:102490000DF076C0D9FF77C0DAFF000167C0DEFF1C
:1024A00068C0DDFFEF0E606F080E616F000E636F96
:1024B000020E626FF1EC15F07B0E0001606F000EF2
:1024C000616F000E636F030E626FF1EC15F0D1C007
:1024D00060F0D2C061F052EC18F012002A342B34B4
:1024E000316E3150D8A477EF12F079EF12F083EF0C
:1024F00012F0000E286E000E296E000E2A6E000EDD
:102500002B6EF0EF12F028C02CF029C02DF02AC05D
:102510002EF02BC02FF0200E93EF12F0D8902F3218
:102520002E322D322C32E82E8EEF12F02C50306EDF
:102530002A8EFF0E2816FF0E2916FF0E2A16000EF1
:102540002B16960E315E31BEAAEF12F0A8EF12F0F4
:10255000C0EF12F03150800A970FD8B0B2EF12F0EE
:10256000B4EF12F0B6EF12F079EF12F0D8902B32F0
:102570002A3229322832313EB6EF12F0D8EF12F06B
:102580001F0E3164C6EF12F0C8EF12F0D0EF12F058
:1025900079EF12F0D890283629362A362B363106B4
:1025A0003150D8A4D6EF12F0D8EF12F0CAEF12F0E3
:1025B0003050D8B4DEEF12F0E0EF12F0E8EF12F096
:1025C0002B1E2A1E291E286C000E29222A222B22AD
:1025D00028C028F029C029F02AC02AF02BC02BF0EF
:1025E00012000001796F000E00017F6F000E7E6FF8
:1025F00079517E257A6F7B0E7E25D96E000E7F2164
:10260000DA6E7A51A2EC19F0DF6E00017E4B7F2B5F
:102610007FBF14EF13F07F5109E1030E7E5DD8A058
:1026200014EF13F016EF13F0F8EF12F0000E816FB5
:10263000000E806F7B0E8025D96E000E8121DA6E30
:102640002F0EDF6426EF13F028EF13F036EF13F0B0
:102650007B0E8025D96E000E8121DA6E390EDF6483
:1026600034EF13F036EF13F038EF13F0010EB86FBC
:10267000804B812B81BF46EF13F0815109E1030E9E
:10268000805DD8A046EF13F048EF13F01AEF13F077
:102690007B0E676F000E686F13EC0DF076C0D9FFEC
:1026A00077C0DAFF000167C0DEFF68C0DDFFEC0E17
:1026B000606F080E616F000E636F020E626FF1ECC7
:1026C00015F07B0E0001606F000E616F000E636FEE
:1026D000030E626FF1EC15F0D3C060F0D4C061F06E
:1026E00052EC18F012000001626F410E00016219F5
:1026F000D8A47DEF13F07FEF13F09BEF13F08A8ED9
:10270000030E0001616F080E606F770EE82EFED792
:10271000602FFCD7612FFAD7030E0001616F080EFE
:10272000606F770EE82EFED7602FFCD7612FFAD7A7
:102730008A9EE5EF13F0560E6219D8A4A2EF13F0AB
:10274000A4EF13F0C0EF13F08A8C030E0001616F49
:10275000080E606F770EE82EFED7602FFCD7612F32
:10276000FAD7030E0001616F080E606F770EE82E36
:10277000FED7602FFCD7612FFAD78A9CE5EF13F0C4
:10278000520E6219D8A4C7EF13F0C9EF13F0E5EFAA
:1027900013F08A8A030E0001616F080E606F770ED6
:1027A000E82EFED7602FFCD7612FFAD7030E000169
:1027B000616F080E606F770EE82EFED7602FFCD792
:1027C000612FFAD78A9AE5EF13F01200000E00018C
:1027D000806F000E7F6F7F5176257A6F8051772151
:1027E0007B6F040E7A25D96E000E7B21DA6E7C0E8B
:1027F0007F25E16E000E8021E26EDFCFE7FF7F4B89
:10280000802B80BF0DEF14F0805109E1030E7F5D36
:10281000D8A00DEF14F00FEF14F0EBEF13F0000E53
:10282000826F000E816F7C0E8125D96E000E822191
:10283000DA6E2F0EDF641FEF14F021EF14F02FEF8C
:1028400014F07C0E8125D96E000E8221DA6E390ECD
:10285000DF642DEF14F02FEF14F031EF14F0010EC0
:10286000B86F814B822B82BF3FEF14F0825109E198
:10287000030E815DD8A03FEF14F041EF14F013EF89
:1028800014F07C0E676F000E686F13EC0DF078C0CB
:10289000D9FF79C0DAFF000167C0DEFF68C0DDFF45
:1028A0001200000E00017F6F000E7E6F7E517625B4
:1028B000D96E7F517721DA6E7B0E7E25E16E000E98
:1028C0007F21E26EDFCFE7FF7E4B7F2B7FBF72EF72
:1028D00014F07F5109E1030E7E5DD8A072EF14F071
:1028E00074EF14F056EF14F0000E816F000E806F3D
:1028F0007B0E8025D96E000E8121DA6E2F0EDF64EB
:1029000084EF14F086EF14F094EF14F07B0E802522
:10291000D96E000E8121DA6E390EDF6492EF14F069
:1029200094EF14F096EF14F0010EB86F804B812BEA
:1029300081BFA4EF14F0815109E1030E805DD8A09E
:10294000A4EF14F0A6EF14F078EF14F07B0E676F8D
:10295000000E686F13EC0DF078C0D9FF79C0DAFF74
:10296000000167C0DEFF68C0DDFF120000019B6F41
:1029700097C060F098C061F03AEC15F099C060F033
:102980009AC061F0F8EC14F0B0C091F0B1C092F0D0
:10299000B7EC15F091C0B4F092C0B5F0AEC091F0B4
:1029A000AFC092F0B7EC15F091C0B2F092C0B3F0A6
:1029B00097C0ACF098C0ADF099C0AAF09AC0ABF047
:1029C000B4C062F0B5C063F0B2C064F0B3C065F0EB
:1029D00000019B51DAEC0DF0D70E0001606F080E7C
:1029E000616F000E636F020E626FF1EC15F0120062
:1029F0000001AA51605D6151800A626FAB51800A8B
:102A00006259D8B006EF15F008EF15F011EF15F088
:102A100083866051AA5DAE6F6151AB59AF6F39EFDC
:102A200015F06051AA5DAB51800A626F6151800A56
:102A30006259D8B01EEF15F020EF15F029EF15F010
:102A40008396AA51605DAE6FAB516159AF6F39EF9C
:102A500015F0AA51601907E1AB516119D8A433EF01
:102A600015F035EF15F039EF15F0000EAF6F000ED1
:102A7000AE6F12000001AC51605D6151800A626F5F
:102A8000AD51800A6259D8B048EF15F04AEF15F001
:102A900053EF15F083826051AC5DB06F6151AD5959
:102AA000B16F7BEF15F06051AC5DAD51800A626F84
:102AB0006151800A6259D8B060EF15F062EF15F0ED
:102AC0006BEF15F08392AC51605DB06FAD51615901
:102AD000B16F7BEF15F0AC51601907E1AD51611991
:102AE000D8A475EF15F077EF15F07BEF15F0000E19
:102AF000B16F000EB06F1200949C948E6EC064F0A3
:102B00006FC065F070C066F071C067F0000E000124
:102B1000606F120E616F7A0E626F000E636F5DEC74
:102B200010F060C072F061C073F062C074F063C0F6
:102B300075F072C060F073C061F074C062F075C06F
:102B400063F0400E0001646F000E656F000E666F4B
:102B5000000E676F5DEC10F000016005AF6EAC9485
:102B6000AC98AB8EAC9CAC8AAB9CAB881200CD0E03
:102B70000001936FCC0E946F4C0E956F3E0E966FC6
:102B800093C072F094C073F095C074F096C075F065
:102B900091C060F092C061F0000E61BFFF0E626FE5
:102BA000636F010E5DEC0BF060C06EF061C06FF002
:102BB00062C070F063C071F08DEC06F06EC087F0FB
:102BC0006FC088F070C089F071C08AF0E4EC10F03A
:102BD00087C0B6F088C0B7F0B6C091F0B7C092F029
:102BE0001200000E0001676F000E666F1AEF16F0FC
:102BF0009EA8FDEF15F0FFEF15F0F8EF15F00001BE
:102C000066516025646F67516121656F64C0F6FF8E
:102C100065C0F7FFF86A070EF76403D00800F550A7
:102C200005D0F6CFE9FFF7CFEAFFEF50AD6E000118
:102C3000664B672B6251665D6751800A646F635112
:102C4000800A6459D8A027EF16F029EF16F0F8EFA4
:102C500015F012000600F0A030EF16F032EF16F07B
:102C60003DEF16F094EC17F01A0E3F6EF80EE82EBA
:102C7000FED73F2EFCD700D0F090F0A242EF16F026
:102C800044EF16F04FEF16F070EC17F01A0E3F6E8F
:102C9000F80EE82EFED73F2EFCD700D0F092F2A21D
:102CA00054EF16F056EF16F061EF16F096EC19F0AF
:102CB0001A0E3F6EF80EE82EFED73F2EFCD700D03E
:102CC000F2925D921100CD0E346ECC0E356E4C0E2C
:102CD000366E3E0E376E34C013F035C014F036C079
:102CE00015F037C016F032C001F033C002F0000E0C
:102CF00002BEFF0E036E046E010E39EC0CF001C033
:102D00000FF002C010F003C011F004C012F05BEC31
:102D100008F00FC028F010C029F011C02AF012C02E
:102D20002BF06EEC12F028C0B6F029C0B7F0B6C098
:102D300032F0B7C033F0120082A8A1EF16F0A3EF73
:102D400016F0ABEF16F0550E8AEC19F08C888C8AD1
:102D50008C9CBFEF16F082AAB0EF16F0B2EF16F01F
:102D6000BFEF16F0440E8AEC19F08C888C9A8C8C8C
:102D7000BFEF16F08C9A8C9C8C98CDEF16F082BA2F
:102D8000C4EF16F0C6EF16F0CDEF16F082A8CBEF29
:102D900016F0CDEF16F0BAEF16F012000001656FD5
:102DA000000E0001676F000E666FE9EF16F09EAA35
:102DB000DCEF16F0DEEF16F0D7EF16F000016651EB
:102DC0006025D96E67516121DA6EAECFDFFF664BA9
:102DD000672B6551626F636B6251665D6751800A54
:102DE000646F6351800A6459D8A0F9EF16F0FBEFC5
:102DF00016F0D7EF16F01200010E0001666F200EDC
:102E000060196111D8B407EF17F009EF17F022EF3E
:102E100017F0F70E626FFF0E636F60C064F061C061
:102E200065F06251642763516523655109E1050E20
:102E3000645DD8A01EEF17F020EF17F022EF17F017
:102E4000000E666F66C060F0616B12000001606F7B
:102E5000410E00016019D8A430EF17F032EF17F0DF
:102E600035EF17F08A8E4BEF17F0560E6019D8A485
:102E70003CEF17F03EEF17F041EF17F08A8C4BEF65
:102E800017F0520E6019D8A448EF17F04AEF17F068
:102E90004BEF17F08A8A120052EF17F08390838469
:102EA000CAEC19F05C50D8B458EF17F05AEF17F08D
:102EB0004EEF17F060EF17F083808394CAEC19F09F
:102EC0005B50D8B466EF17F068EF17F05CEF17F0BF
:102ED00083808384CA94000E5C6E000E5B6E1200C9
:102EE00083808384020E3E6E040E3D6EBA0EE82E81
:102EF000FED73D2EFCD73E2EFAD700D05B50D8A48B
:102F000084EF17F086EF17F091EF17F0000E396E8F
:102F1000000E386E000E3B6E1E0E3A6E530EB8EC6D
:102F200017F0010E5B6E120083808384020E3E6EEA
:102F3000040E3D6EBA0EE82EFED73D2EFCD73E2E77
:102F4000FAD700D05C50D8A4A8EF17F0AAEF17F07A
:102F5000B5EF17F0000E396E1E0E386E000E3B6E88
:102F6000000E3A6E530EB8EC17F0010E5C6E1200B4
:102F70003C6ECA948392839638C032F039C033F0E5
:102F800063EC16F032C0B4F033C0B5F03AC032F0A2
:102F90003BC033F063EC16F032C0B2F033C0B3F094
:102FA000B4C003F0B5C004F0B2C005F0B3C006F081
:102FB0003C5086EC0EF01200E2EF17F08390838411
:102FC000D0EC19F05C50D8B4E8EF17F0EAEF17F046
:102FD000DEEF17F0F0EF17F083808394D0EC19F058
:102FE0005B50D8B4F6EF17F0F8EF17F0ECEF17F0EE
:102FF00083808384CA94000E5C6E000E5B6E1200A8
:10300000D00E0001626FFF0E636F60C064F061C09C
:1030100065F0625164276351652365510AE10A0E28
:10302000645DD8A016EF18F019EF18F0010E1AEF32
:1030300018F0000E606F616B12008B90020E0001A1
:10304000696F040E686FBA0EE82EFED7682FFCD7A2
:10305000692FFAD700F08B80D70E0001606F080E41
:10306000616F000E636F020E626FF1EC15F01200DB
:103070000001616F61C0A9FF60C0A8FFA69EA69C69
:10308000A684F29E550EA76EAA0EA76EA682F28E99
:10309000A1A84DEF18F04FEF18F048EF18F0A198E5
:1030A000A6941200000161BF61EF18F02D0E605D63
:1030B000010E6159D8B05FEF18F061EF18F068EFBA
:1030C00018F061BF68EF18F066EF18F06AEF18F0BB
:1030D000010EB96F120082A470EF18F072EF18F0B1
:1030E0007FEF18F00001BB51D8A479EF18F07BEF07
:1030F00018F07FEF18F0604B612B010EBB6F60C0C2
:1031000060F061C061F0120082A289EF18F08BEFCD
:1031100018F098EF18F00001BC51D8A492EF18F005
:1031200094EF18F098EF18F0604B612B010EBC6F14
:1031300060C060F061C061F0120082A4A2EF18F0DC
:10314000A4EF18F0B1EF18F00001BB51D8A4ABEF19
:1031500018F0ADEF18F0B1EF18F0014A022A010E95
:10316000BB6F01C001F002C002F0120082A2BBEFEF
:1031700018F0BDEF18F0CAEF18F00001BC51D8A448
:10318000C4EF18F0C6EF18F0CAEF18F0014A022A8F
:10319000010EBC6F01C001F002C002F0120000017C
:1031A00060516203F3CF64F0F4CF65F060516303C4
:1031B000F350652761516203F350652764C060F0E6
:1031C00065C061F0120000EEA2F0330EEE6AE80670
:1031D000FDE100EE40F01D0EEE6AE806FDE15D90B7
:1031E0005D92000EF86E0001CBEF0FF0000E956EB1
:1031F000F18E938093829384D09EF28EF29CF2881B
:10320000F086F088F18CF18AF188F292F090F092D9
:1032100012007C0ECB6E3E0EBE6E3E0EBB6E9492C6
:103220009494030ECA6E0C0EBD6E0C0EBA6ECA9448
:1032300012007C0ECB6E3E0EBE6E3E0EBB6E9492A6
:103240009494030ECA6E0C0EBD6E0C0EBA6ECA9428
:103250001200CB683E0EBE6E3E0EBB6E94929494EE
:10326000030ECA6E0C0EBD6E0C0EBA6ECA9412001E
:10327000CB683E0EBE6E3E0EBB6E94929494030ECF
:10328000CA6E0C0EBD6E0C0EBA6ECA941200000E01
:10329000836E000E8C6E070EB46E95909592959489
:1032A00095969598959A959C12006D966D926F865D
:1032B000000E806E000E896E0E0EC16E070EB46E8B
:1032C0009288928A12008B80D70E0001606F080EE0
:1032D000616F000E636F020E626FF1EC15F0120069
:1032E0008B90D70E0001606F080E616F000E636F48
:1032F000020E626FF1EC15F01200000E816E000EEE
:103300008A6E0E0EC16E938093829384939A939CDF
:10331000939E12000001606F9EA891EF19F093EF49
:1033200019F08CEF19F060C0ADFF1200DCEC17F063
:10333000000E0001AD6F000EAC6F000EAB6F000E03
:10334000AA6F12000001606F60C0A9FFA69EA69C34
:10335000A680A8CF58F058501200000E846E000EC0
:103360008D6E0E0EC16E070EB46E96901200000E9A
:10337000826E000E8B6E948094929494949C948EA2
:1033800012009EAAC6EF19F0C8EF19F0C1EF19F0AC
:10339000AE5012008382838629EC19F0CA84120091
:0C33A0008382838638EC19F0CA84120086
:020000040020DA
:08000000FFFFFFFFFFFFFFFF00
:020000040030CA
:0E00000000081F1EFF8181FF0FC00FE00F40A0
:00000001FF
