:020000040000FA
:0400000007EF00F016
:100008005C8240ED11F0EDEF13F095909594959288
:10001800959683808380949294948292000E000136
:100028009E6FC30E606F7C0E616F000E636F2A0EA9
:10003800626F07EC11F000019E51D8A426EF00F082
:1000480028EF00F035EF00F0120E606F7F0E616F41
:10005800000E636F180E626F07EC11F0010E0001BD
:100068009E6FBCEC14F000019F6FE5EF01F0C20E2B
:10007800606F000E616F070EB2EC11F0430E0001C5
:10008800606F7F0E616F000E636F160E626F07EC74
:1000980011F0C20E0001766F000E776FCD0E786FEB
:1000A800000E796FD2EC0EF0C20E0001766F000ED2
:1000B800776FCB0E786F000E796F67EC0EF0CDC0BE
:1000C80060F0CEC061F05CEC13F0CBC060F0CCC047
:1000D80061F05CEC13F00001B305D8A476EF00F0F2
:1000E80078EF00F087EF00F0180E606F7D0E616FFB
:1000F800000E636F230E626F07EC11F0000E000113
:10010800B36F1FEF00F0B205D8A48DEF00F08FEFAA
:1001180000F09EEF00F03C0E606F7D0E616F000EE8
:10012800636F1F0E626F07EC11F0000E0001B26FD3
:100138001FEF00F0CDC097F0CEC098F0CBC099F07B
:10014800CCC09AF09F51CCEC0FF01FEF00F0C20E1C
:10015800606F000E616F070EB2EC11F0430E0001E4
:10016800606F7F0E616F000E636F160E626F07EC93
:1001780011F0C20E0001766F000E776FCD0E786F0A
:10018800000E796FD2EC0EF0C20E0001766F000EF1
:10019800776FCB0E786F000E796F67EC0EF0CDC0DD
:1001A80060F0CEC061F05CEC13F0CBC060F0CCC066
:1001B80061F05CEC13F00001B305D8A4E6EF00F0A1
:1001C800E8EF00F0F4EF00F0180E606F7D0E616F3D
:1001D800000E636F230E626F07EC11F082EF00F0E0
:1001E800B205D8A4FAEF00F0FCEF00F008EF01F038
:1001F8003C0E606F7D0E616F000E636F1F0E626FA5
:1002080007EC11F099EF00F0CDC097F0CEC098F050
:10021800CBC099F0CCC09AF09F51CCEC0FF01FEFF7
:1002280000F0430E606F7F0E616F000E636F160E55
:10023800626F07EC11F027EC13F01FEF00F0430E8C
:10024800606F7F0E616F000E636F160E626F07ECB2
:1002580011F06CEC14F01FEF00F0430E606F7F0E8E
:10026800616F000E636F160E626F07EC11F05FECA2
:1002780014F01FEF00F02B0E606F7F0E616F000E01
:10028800636F170E626F07EC11F0BCEC14F00001FD
:10029800B46FB451AEEC05F00001B46FCD0E766FBB
:1002A800000E776FB451E5EC0DF0CB0E0001766FC0
:1002B800000E776FB451DFEC0CF0C90E0001766FB9
:1002C800000E776FB4515CEC0CF00001B305D8A4B4
:1002D80070EF01F072EF01F089EF01F0180E606F16
:1002E8007D0E616F000E636F230E626F07EC11F0D5
:1002F800EE0E0001606F7C0E616F000E636F290EB9
:10030800626F07EC11F082EF00F0B205D8A48FEF0E
:1003180001F091EF01F0A8EF01F03C0E606F7D0E47
:10032800616F000E636F1F0E626F07EC11F0EE0E27
:100338000001606F7C0E616F000E636F290E626FA3
:1003480007EC11F099EF00F0CDC097F0CEC098F00F
:10035800CBC099F0CCC09AF09F51CCEC0FF01FEFB6
:1003680000F0BCEC14F00001B46FB70E606F000E23
:10037800616F0B0EB2EC11F02B0E0001606F7F0E57
:10038800616F000E636F170E626F07EC11F00001CA
:10039800B451AEEC05F00001B46FB70E686F000EF3
:1003A800696FB451B6EC0AF01FEF00F030EC12F0B0
:1003B80080AAE1EF01F0E3EF01F0DAEF01F01FEFBF
:1003C80000F09F519C6F9D6B9D51000AD8B4EFEFD0
:1003D80001F01FEF00F09C51410AD8B4DCEF01F0A6
:1003E800070AD8B43BEF00F00E0AD8B423EF01F0A7
:1003F800050AD8B4B5EF01F0020AD8B43FEF01F00E
:100408001D0AD8B431EF01F0010AD8B4ABEF00F0FF
:10041800070AD8B415EF01F01FEF00F01200000131
:100428007151800B7E6F71517125856F70AF1FEF11
:1004380002F021EF02F022EF02F085818551D8B455
:1004480028EF02F02AEF02F03FEF02F08529D8A446
:1004580030EF02F032EF02F03AEF02F0000E6E6F6A
:10046800000E6F6F000E706F000E716F708F000EB0
:10047800716F47EF02F0000E6E6F000E6F6F000E87
:10048800706F000E716F7551800B7E1B755175254D
:10049800866F74AF52EF02F054EF02F055EF02F09E
:1004A80086818651D8B45BEF02F05DEF02F072EFFF
:1004B80002F08629D8A463EF02F065EF02F06DEF31
:1004C80002F0000E726F000E736F000E746F000E54
:1004D800756F748F000E756F7AEF02F0000E726FF1
:1004E800000E736F000E746F000E756F72517311EA
:1004F80074117511D8A483EF02F085EF02F09DEF17
:1005080002F0000E6E6F000E6F6F000E706F000E1F
:10051800716F800E70137F0E71137E5171136EC050
:100528006EF06FC06FF070C070F071C071F0E0EFE6
:1005380003F08551D8A4A3EF02F0A5EF02F0AFEFC6
:1005480002F0000E6E6F000E6F6F000E706F000EDF
:10055800716FE0EF03F0865185C076F0776B765FB8
:10056800000E775B7F0E76257F6F000E7721806FF8
:100578006EC07AF06FC07BF070C07CF071C07DF007
:10058800000E6E6F000E6F6F000E706F000E716FB1
:10059800000E816F000E826F000E836F000E846F55
:1005A800000E866F10EF03F08651D8B4DEEF02F02C
:1005B800E0EF02F0F7EF02F0D8907A377B377C371C
:1005C8007D37D8906E376F377037713784AFEFEF5C
:1005D80002F0F1EF02F0F2EF02F06E81D89081376D
:1005E80082378337843772517A5D73517B597451DE
:1005F8007C5975517D59D8A004EF03F006EF03F03C
:100608000FEF03F0848D72517A5F73517B5B7451E5
:100618007C5B75517D5B862B190E866516EF03F0A2
:1006280018EF03F0D8EF02F07A517B117C117D119D
:10063800D8B421EF03F023EF03F03BEF03F08181FF
:100648003BEF03F0D8906E376F377037713784AF50
:1006580030EF03F032EF03F033EF03F06E81D89000
:1006680081378237833784377F07D8A0800770AFF8
:1006780040EF03F042EF03F026EF03F0000E866F21
:1006880084AF49EF03F04BEF03F06FEF03F0FF0E79
:100698008115766FFF0E8215776FFF0E8315786FC1
:1006A8007F0E8415796F7651771178117911D8B446
:1006B80060EF03F062EF03F066EF03F0010E866F60
:1006C8006FEF03F06EA16BEF03F06DEF03F06FEFC8
:1006D80003F062EF03F08651D8B475EF03F077EFBB
:1006E80003F09BEF03F0010E6E27000E6F237023BB
:1006F800712371A182EF03F084EF03F09BEF03F005
:100708006EC076F06FC077F070C078F071C079F085
:100718007935793378337733763376C06EF077C0AE
:100728006FF078C070F079C071F07F4B802B80BF7C
:10073800A6EF03F0805108E17F29D8A0A6EF03F0C7
:10074800A8EF03F0B3EF03F0000E806F7F69000E8F
:100758006E6F000E6F6F000E706F000E716F80BFAE
:10076800C0EF03F0805106E17F05D8B0BEEF03F07B
:10077800C0EF03F0CEEF03F0000E806F000E7F6F26
:10078800000E6E6F000E6F6F000E706F000E716FAF
:10079800000E7E6F7FC085F085A1D5EF03F0D7EFFF
:1007A80003F0DAEF03F0708FDBEF03F0709FD8905F
:1007B8008531716F91EF02F012001250800B1F6E9D
:1007C80012501224266E11AEECEF03F0EEEF03F098
:1007D800EFEF03F026802650D8B4F5EF03F0F7EFDB
:1007E80003F00CEF04F02628D8A4FDEF03F0FFEF88
:1007F80003F007EF04F0000E0F6E000E106E000EEF
:10080800116E000E126E118E000E126E14EF04F0AF
:10081800000E0F6E000E106E000E116E000E126E9E
:100828001650800B1F1A16501624276E15AE1FEF90
:1008380004F021EF04F022EF04F027802750D8B409
:1008480028EF04F02AEF04F03FEF04F02728D8A49B
:1008580030EF04F032EF04F03AEF04F0000E136EBC
:10086800000E146E000E156E000E166E158E000E1C
:10087800166E47EF04F0000E136E000E146E000E95
:10088800156E000E166E1350141015101610D8A4FD
:1008980050EF04F052EF04F06AEF04F0000E0F6E10
:1008A800000E106E000E116E000E126E800E1112E8
:1008B8007F0E12121F5012120FC00FF010C010F04E
:1008C80011C011F012C012F0ADEF05F02650D8A4F7
:1008D80070EF04F072EF04F07CEF04F0000E0F6E7E
:1008E800000E106E000E116E000E126EADEF05F0C8
:1008F800275026C017F0186A175E000E185A7F0E88
:100908001724206E000E1820216E0FC01BF010C097
:100918001CF011C01DF012C01EF0000E0F6E000E6C
:10092800106E000E116E000E126E000E226E000E7A
:10093800236E000E246E000E256E000E276EDDEF6E
:1009480004F02750D8B4ABEF04F0ADEF04F0C4EFD7
:1009580004F0D8901B361C361D361E36D8900F363C
:1009680010361136123625AEBCEF04F0BEEF04F097
:10097800BFEF04F00F80D890223623362436253670
:1009880013501B5C14501C5815501D5816501E58F7
:10099800D8A0D1EF04F0D3EF04F0DCEF04F0258CFD
:1009A80013501B5E14501C5A15501D5A16501E5ACF
:1009B800272A190E2764E3EF04F0E5EF04F0A5EF0A
:1009C80004F01B501C101D101E10D8B4EEEF04F0DC
:1009D800F0EF04F008EF05F0228008EF05F0D8905A
:1009E8000F3610361136123625AEFDEF04F0FFEF44
:1009F80004F000EF05F00F80D89022362336243615
:100A080025362006D8A0210611AE0DEF05F00FEF10
:100A180005F0F3EF04F0000E276E25AE16EF05F093
:100A280018EF05F03CEF05F0FF0E2214176EFF0ECD
:100A38002314186EFF0E2414196E7F0E25141A6ED7
:100A48001750181019101A10D8B42DEF05F02FEF01
:100A580005F033EF05F0010E276E3CEF05F00FA00F
:100A680038EF05F03AEF05F03CEF05F02FEF05F011
:100A78002750D8B442EF05F044EF05F068EF05F0D1
:100A8800010E0F26000E10221122122212A04FEF83
:100A980005F051EF05F068EF05F00FC017F010C032
:100AA80018F011C019F012C01AF01A341A3219329B
:100AB8001832173217C00FF018C010F019C011F013
:100AC8001AC012F0204A212A21BE73EF05F02150E6
:100AD80008E12028D8A073EF05F075EF05F080EF46
:100AE80005F0000E216E2068000E0F6E000E106ECD
:100AF800000E116E000E126E21BE8DEF05F0215012
:100B080006E12004D8B08BEF05F08DEF05F09BEFE0
:100B180005F0000E216E000E206E000E0F6E000E06
:100B2800106E000E116E000E126E000E1F6E20C0A9
:100B380026F026A0A2EF05F0A4EF05F0A7EF05F038
:100B4800118EA8EF05F0119ED8902630126E5EEF38
:100B580004F0120000016A6F92EF06F0000E6A6F4F
:100B6800040E606F7E0E616F000E636F1A0E626F67
:100B780007EC11F0E0EF06F0100E6A6F1F0E606FC1
:100B88007E0E616F000E636F190E626F07EC11F035
:100B9800E0EF06F0200E6A6F3A0E606F7E0E616F0E
:100BA800000E636F1A0E626F07EC11F0E0EF06F0AB
:100BB800300E6A6F550E606F7E0E616F000E636FA8
:100BC8001A0E626F07EC11F0E0EF06F0400E6A6F44
:100BD800700E606F7E0E616F000E636F1A0E626F8B
:100BE80007EC11F0E0EF06F0500E6A6F8B0E606FA5
:100BF8007E0E616F000E636F1A0E626F07EC11F0C4
:100C0800E0EF06F0600E6A6FA60E606F7E0E616FF1
:100C1800000E636F1A0E626F07EC11F0E0EF06F03A
:100C2800700E6A6FC10E606F7E0E616F000E636F8B
:100C38001A0E626F07EC11F0E0EF06F0800E6A6F93
:100C4800DC0E606F7E0E616F000E636F1A0E626FAE
:100C580007EC11F0E0EF06F0900E6A6FF70E606F88
:100C68007E0E616F000E636F1A0E626F07EC11F053
:100C7800E0EF06F0A00E6A6F5C0E606F7D0E616F8C
:100C8800000E636F1B0E626F07EC11F0E0EF06F0C9
:100C9800B00E6A6F780E606F7D0E616F000E636F25
:100CA8001B0E626F07EC11F0E0EF06F0C00E6A6FE2
:100CB800940E606F7D0E616F000E636F1B0E626F86
:100CC80007EC11F0E0EF06F0D00E6A6FB00E606F1F
:100CD8007D0E616F000E636F1B0E626F07EC11F0E3
:100CE800E0EF06F0E00E6A6FCC0E606F7D0E616F6C
:100CF800000E636F1B0E626F07EC11F0E0EF06F059
:100D0800F00E6A6FE80E606F7D0E616F000E636F04
:100D18001B0E626F07EC11F0E0EF06F000016A515C
:100D2800686F696B6951000AD8B49DEF06F0E0EF6F
:100D380006F06851300AD8B4B2EF05F0010AD8B409
:100D4800C0EF05F0030AD8B4CEEF05F0010AD8B415
:100D5800DCEF05F0070AD8B4EAEF05F0010AD8B4C9
:100D6800F8EF05F0030AD8B406EF06F0010AD8B484
:100D780014EF06F00F0AD8B422EF06F0010AD8B42F
:100D880030EF06F0780AD8B43EEF06F0030AD8B47C
:100D98004CEF06F0010AD8B45AEF06F0070AD8B4A7
:100DA80068EF06F0010AD8B476EF06F0030AD8B463
:100DB80084EF06F0E0EF06F000016A51120000012E
:100DC800686F00016851D8B4ECEF06F0EEEF06F05A
:100DD80010EF07F063BFF5EF06F0F3EF06F010EF42
:100DE80007F060C064F061C065F062C066F063C07F
:100DF80067F0641F651F661F671F642B000E65235D
:100E08006623672364C06AF065C06BF066C06CF047
:100E180067C06DF018EF07F060C06AF061C06BF052
:100E280062C06CF063C06DF06051611162116311B2
:100E3800D8A421EF07F023EF07F02DEF07F0000EFD
:100E4800606F000E616F000E626F000E636FBEEF81
:100E580007F0960E696F37EF07F0692BD8906D335E
:100E68006C336B336A33000E6A15646F000E6B15B2
:100E7800656F000E6C15666FFE0E6D15676F645119
:100E8800651166116711D8A44CEF07F04EEF07F013
:100E980031EF07F05CEF07F0692B010E6A27000EAF
:100EA8006B236C236D23D8906D336C336B336A33AB
:100EB800000E6A15646F000E6B15656F000E6C15D9
:100EC800666FFF0E6D15676F6451651166116711C6
:100ED800D8A471EF07F073EF07F050EF07F07BEF3E
:100EE80007F06907D8906A376B376C376D376CBF76
:100EF80080EF07F082EF07F08AEF07F0020E6961D2
:100F080088EF07F08AEF07F075EF07F069B18FEF08
:100F180007F091EF07F092EF07F06C9FD8906933D4
:100F280069C064F0656B666B676B64C067F0666B7D
:100F3800656B646B64516A1365516B1366516C136E
:100F480067516D136851D8B4ACEF07F0AEEF07F0F6
:100F5800B6EF07F063BFB5EF07F0B3EF07F0B6EFF2
:100F680007F06D8F6AC060F06BC061F06CC062F012
:100F78006DC063F01200096E0950D8B4C6EF07F0CF
:100F8800C8EF07F0EAEF07F004BECFEF07F0CDEFA8
:100F980007F0EAEF07F001C005F002C006F003C051
:100FA80007F004C008F0051E061E071E081E052AC5
:100FB800000E06220722082205C00BF006C00CF01E
:100FC80007C00DF008C00EF0F2EF07F001C00BF0FB
:100FD80002C00CF003C00DF004C00EF00150021066
:100FE80003100410D8A4FBEF07F0FDEF07F007EF9C
:100FF80008F0000E016E000E026E000E036E000E69
:10100800046E98EF08F0960E0A6E11EF08F00A2A9F
:10101800D8900E320D320C320B32000E0B14056EC6
:10102800000E0C14066E000E0D14076EFE0E0E1444
:10103800086E0550061007100810D8A426EF08F00F
:1010480028EF08F00BEF08F036EF08F00A2A010E37
:101058000B26000E0C220D220E22D8900E320D32D5
:101068000C320B32000E0B14056E000E0C14066EBB
:10107800000E0D14076EFF0E0E14086E05500610B4
:1010880007100810D8A44BEF08F04DEF08F02AEF2E
:1010980008F055EF08F00A06D8900B360C360D36D6
:1010A8000E360DBE5AEF08F05CEF08F064EF08F05A
:1010B800020E0A6062EF08F064EF08F04FEF08F0E4
:1010C8000AB069EF08F06BEF08F06CEF08F00D9EBE
:1010D800D8900A320AC005F0066A076A086A05C08D
:1010E80008F0076A066A056A05500B1206500C12CA
:1010F80007500D1208500E120950D8B486EF08F0A8
:1011080088EF08F090EF08F004BE8FEF08F08DEF3D
:1011180008F090EF08F00E8E0BC001F00CC002F042
:101128000DC003F00EC004F01200000E0001756F30
:10113800000E746F000E6E6F000E6D6FA6EF08F054
:10114800674B682B010E736F67C0D9FF68C0DAFF61
:10115800200EDE18D8B4B3EF08F0B5EF08F0D1EFE1
:1011680008F0F70E696FFF0E6A6F67C0D9FF68C095
:10117800DAFFDF506B6F6C6B69516B276A516C2318
:101188006C5109E1050E6B5DD8A0CDEF08F0CFEFEB
:1011980008F0D1EF08F0000E736F73C06FF0706B3A
:1011A8006F517011D8A4DBEF08F0DDEF08F0A4EF61
:1011B80008F0E7EF08F0000E6E6F010E6D6F674BD9
:1011C800682B1DEF09F067C0D9FF68C0DAFFDF5050
:1011D800696F6A6B6A51000AD8B4F5EF08F01DEF21
:1011E80009F069512B0AD8B4E3EF08F0060AD8B41D
:1011F800DFEF08F01DEF09F074C060F075C061F012
:10120800000E636F0A0E626FD9EC13F067C0D9FF46
:1012180068C0DAFFDF500001696F6951605F000E36
:10122800615B300E6025746F000E6121756FE3EF0E
:1012380008F0D00E696FFF0E6A6F67C0D9FF68C0EB
:10124800DAFFDF506B6F6C6B69516B276A516C2347
:101258006C510AE10A0E6B5DD8A035EF09F038EF42
:1012680009F0010E39EF09F0000E716F726B7151C0
:101278007211D8A442EF09F044EF09F000EF09F029
:101288006D516E11D8A44BEF09F04DEF09F05BEFEB
:1012980009F074C069F075C06AF0691F6A1F694B6C
:1012A8006A2B69C067F06AC068F05FEF09F074C024
:1012B80067F075C068F012000001676F530E0001F7
:1012C8006719D8A46AEF09F06CEF09F070EF09F01C
:1012D80033EC14F072EF09F013EC14F0839083945C
:1012E800000E0001696F000E686F000E6B6F000E34
:1012F8006A6F62516311D8A484EF09F086EF09F090
:1013080087EF09F0838064516511D8A48EEF09F046
:1013180090EF09F091EF09F08384CA84E3EF09F0B4
:101328006251685D6951800A666F6351800A665927
:10133800D8B0A1EF09F0A3EF09F0BAEF09F082A243
:10134800A8EF09F0AAEF09F0B6EF09F068C060F05D
:1013580069C061F08EEC13F060C068F061C069F09C
:10136800BBEF09F0000EB66FBBEF09F083800001F8
:1013780064516A5D6B51800A666F6551800A6659CF
:10138800D8B0C9EF09F0CBEF09F0E2EF09F082A479
:10139800D0EF09F0D2EF09F0DEEF09F06AC060F093
:1013A8006BC061F075EC13F060C06AF061C06BF05F
:1013B800E3EF09F0000EB56FE3EF09F08384000155
:1013C8006251685D6951800A666F6351800A665987
:1013D800D8A0F1EF09F0F3EF09F094EF09F06451A8
:1013E8006A5D6B51800A666F6551800A6659D8A09C
:1013F80000EF0AF002EF0AF094EF09F0000EB66F62
:10140800000E6B6F000E6A6F000EB56FCA94120063
:10141800086E530E0818D8A414EF0AF016EF0AF055
:101428001AEF0AF042EC14F01CEF0AF023EC14F067
:1014380083908394000E0A6E000E096E000E0C6EE7
:10144800000E0B6E03500410D8A42DEF0AF02FEFF6
:101458000AF030EF0AF0838005500610D8A437EF61
:101468000AF039EF0AF03AEF0AF08384CA848DEF64
:101478000AF00350095C0A50800A076E0450800A7B
:101488000758D8B04AEF0AF04CEF0AF064EF0AF0B8
:1014980082A251EF0AF053EF0AF05FEF0AF009C099
:1014A80001F00AC002F0C0EC13F001C009F002C05C
:1014B8000AF065EF0AF0000E0001B66F65EF0AF05A
:1014C800838005500B5C0C50800A076E0650800A1A
:1014D8000758D8B072EF0AF074EF0AF08CEF0AF0F0
:1014E80082A479EF0AF07BEF0AF087EF0AF00BC0CD
:1014F80001F00CC002F0A7EC13F001C00BF002C021
:101508000CF08DEF0AF0000E0001B56F8DEF0AF0B8
:1015180083840350095C0A50800A076E0450800ACD
:101528000758D8A09AEF0AF09CEF0AF03DEF0AF0AE
:1015380005500B5C0C50800A076E0650800A07584D
:10154800D8A0A9EF0AF0ABEF0AF03DEF0AF0000EC1
:101558000001B66F000E0C6E000E0B6E000EB56F1C
:10156800CA94120000016C6F000E00016F6F000E2C
:101578006E6F6C516E256D6F6E516825D96E6F5107
:101588006921DA6EDF50606F6D5142EC13F0000193
:101598006E4B6F2B6FBFDAEF0AF06F5109E1030E44
:1015A8006E5DD8A0DAEF0AF0DCEF0AF0BDEF0AF0C2
:1015B8005A0E606F7F0E616F000E636F130E626FBD
:1015C80007EC11F0000E0001716F000E706F6C5186
:1015D8007025030F6D6F705168256A6F715169210D
:1015E8006B6F040E6A25D96E000E6B21DA6EDF5020
:1015F800606F6D5142EC13F00001704B712B71BF9D
:101608000FEF0BF0715109E1030E705DD8A00FEFD9
:101618000BF011EF0BF0EBEF0AF06E0E606F7F0E20
:10162800616F000E636F130E626F07EC11F0000E0E
:101638000001736F000E726F6C517225060F6D6F8B
:10164800725168256A6F735169216B6F080E6A259C
:10165800D96E000E6B21DA6EDF50606F6D5142EC6F
:1016680013F00001724B732B73BF44EF0BF07351EF
:1016780009E1030E725DD8A044EF0BF046EF0BF0C2
:1016880020EF0BF0820E606F7F0E616F000E636FAC
:10169800130E626F07EC11F01200000E0001696F63
:1016A80067BF5BEF0BF059EF0BF065EF0BF0671FAF
:1016B800661F651F646D000E652366236723010E90
:1016C800696F63BF6CEF0BF06AEF0BF076EF0BF00E
:1016D800631F621F611F606D000E61236223632315
:1016E800010E691B000E6A6F000E6B6F000E6C6FA7
:1016F800000E6D6F6451651166116711D8B487EFDC
:101708000BF089EF0BF0BFEF0BF0010E686F93EF52
:101718000BF0D8906437653766376737682B67AF43
:1017280098EF0BF09AEF0BF08DEF0BF0D8906A372B
:101738006B376C376D376451605D6551615966511F
:10174800625967516359D8A0ACEF0BF0AEEF0BF0BC
:10175800B7EF0BF06451605F6551615B6651625B86
:101768006751635B6A81D890673366336533643346
:10177800682F9AEF0BF06951D8B4C5EF0BF0C7EF9B
:101788000BF0CFEF0BF06D1F6C1F6B1F6A6D000E17
:101798006B236C236D236AC060F06BC061F06CC072
:1017A80062F06DC063F01200000189358A35906FD0
:1017B8009051D8A4E2EF0BF0E4EF0BF0EEEF0BF052
:1017C800000E876F000E886F000E896F000E8A6FFB
:1017D8005BEF0CF087C08BF088C08CF089C08DF06F
:1017E8008AC08EF0200EFEEF0BF0D8908E338D332A
:1017F8008C338B33E82EF9EF0BF08B518F6F898F79
:10180800FF0E8717FF0E8817FF0E8917000E8A171D
:10181800960E905F90BF15EF0CF013EF0CF02BEFC6
:101828000CF09051800A970FD8B01DEF0CF01FEF05
:101838000CF021EF0CF0E4EF0BF0D8908A338933E9
:1018480088338733903F21EF0CF043EF0CF01F0EE5
:10185800906531EF0CF033EF0CF03BEF0CF0E4EF58
:101868000BF0D8908737883789378A379007905197
:10187800D8A441EF0CF043EF0CF035EF0CF08F518A
:10188800D8B449EF0CF04BEF0CF053EF0CF08A1F73
:10189800891F881F876D000E882389238A2387C0A4
:1018A80087F088C088F089C089F08AC08AF0120061
:1018B8000001796F000E00017F6F000E7E6F795175
:1018C8007E25060F7A6F7B0E7E25D96E000E7F214E
:1018D800DA6E7A5192EC14F0DF6E00017E4B7F2BAA
:1018E8007FBF80EF0CF07F5109E1030E7E5DD8A029
:1018F80080EF0CF082EF0CF063EF0CF0000E816FBC
:10190800000E806F7B0E8025D96E000E8121DA6E65
:101918002F0EDF6492EF0CF094EF0CF0A2EF0CF0B6
:101928007B0E8025D96E000E8121DA6E390EDF64B8
:10193800A0EF0CF0A2EF0CF0A4EF0CF0010EB26FC8
:10194800804B812B81BFB2EF0CF0815109E1030E6E
:10195800805DD8A0B2EF0CF0B4EF0CF086EF0CF07D
:101968007B0E676F000E686F99EC08F076C0D9FFA0
:1019780077C0DAFF000167C0DEFF68C0DDFFC60E72
:10198800606F7F0E616F000E636F0E0E626F07EC63
:1019980011F07B0E0001606F000E616F000E636F27
:1019A800030E626F07EC11F0C9C060F0CAC061F0A5
:1019B8005CEC13F012000001796F000E00017F6FDC
:1019C800000E7E6F79517E25030F7A6F7B0E7E2580
:1019D800D96E000E7F21DA6E7A5192EC14F0DF6E28
:1019E80000017E4B7F2B7FBF03EF0DF07F5109E194
:1019F800030E7E5DD8A003EF0DF005EF0DF0E6EFC6
:101A08000CF0000E816F000E806F7B0E8025D96E62
:101A1800000E8121DA6E2F0EDF6415EF0DF017EF3F
:101A28000DF025EF0DF07B0E8025D96E000E81217B
:101A3800DA6E390EDF6423EF0DF025EF0DF027EF96
:101A48000DF0010EB26F804B812B81BF35EF0DF089
:101A5800815109E1030E805DD8A035EF0DF037EF15
:101A68000DF009EF0DF07B0E676F000E686F99ECB3
:101A780008F076C0D9FF77C0DAFF000167C0DEFF43
:101A880068C0DDFFB70E606F7F0E616F000E636F79
:101A98000E0E626F07EC11F07B0E0001606F000EF6
:101AA800616F000E636F030E626F07EC11F0CBC01D
:101AB80060F0CCC061F05CEC13F012002A342B34D7
:101AC800316E3150D8A46BEF0DF06DEF0DF077EF5C
:101AD8000DF0000E286E000E296E000E2A6E000E04
:101AE8002B6EE4EF0DF028C02CF029C02DF02AC091
:101AF8002EF02BC02FF0200E87EF0DF0D8902F324C
:101B08002E322D322C32E82E82EF0DF02C50306E12
:101B18002A8EFF0E2816FF0E2916FF0E2A16000E13
:101B28002B16960E315E31BE9EEF0DF09CEF0DF038
:101B3800B4EF0DF03150800A970FD8B0A6EF0DF032
:101B4800A8EF0DF0AAEF0DF06DEF0DF0D8902B3245
:101B58002A3229322832313EAAEF0DF0CCEF0DF0AF
:101B68001F0E3164BAEF0DF0BCEF0DF0C4EF0DF0AD
:101B78006DEF0DF0D890283629362A362B363106E7
:101B88003150D8A4CAEF0DF0CCEF0DF0BEEF0DF038
:101B98003050D8B4D2EF0DF0D4EF0DF0DCEF0DF0EB
:101BA8002B1E2A1E291E286C000E29222A222B22CF
:101BB80028C028F029C029F02AC02AF02BC02BF011
:101BC80012000001796F000E00017F6F000E7E6F1A
:101BD80079517E257A6F7B0E7E25D96E000E7F2186
:101BE800DA6E7A5192EC14F0DF6E00017E4B7F2B97
:101BF8007FBF08EF0EF07F5109E1030E7E5DD8A08C
:101C080008EF0EF00AEF0EF0ECEF0DF0000E816F0A
:101C1800000E806F7B0E8025D96E000E8121DA6E52
:101C28002F0EDF641AEF0EF01CEF0EF02AEF0EF005
:101C38007B0E8025D96E000E8121DA6E390EDF64A5
:101C480028EF0EF02AEF0EF02CEF0EF0010EB26F17
:101C5800804B812B81BF3AEF0EF0815109E1030ED1
:101C6800805DD8A03AEF0EF03CEF0EF00EEF0EF0CC
:101C78007B0E676F000E686F99EC08F076C0D9FF8D
:101C880077C0DAFF000167C0DEFF68C0DDFFD50E50
:101C9800606F7F0E616F000E636F0D0E626F07EC51
:101CA80011F07B0E0001606F000E616F000E636F14
:101CB800030E626F07EC11F0CDC060F0CEC061F08A
:101CC8005CEC13F01200000E0001806F000E7F6FB5
:101CD8007F5176257A6F805177217B6F040E7A25A4
:101CE800D96E000E7B21DA6E7C0E7F25E16E000E28
:101CF8008021E26EDFCFE7FF7F4B802B80BF8EEF26
:101D08000EF0805109E1030E7F5DD8A08EEF0EF032
:101D180090EF0EF06CEF0EF0000E826F000E816FE8
:101D28007C0E8125D96E000E8221DA6E2F0EDF64BB
:101D3800A0EF0EF0A2EF0EF0B0EF0EF07C0E8125B2
:101D4800D96E000E8221DA6E390EDF64AEEF0EF026
:101D5800B0EF0EF0B2EF0EF0010EB26F814B822B96
:101D680082BFC0EF0EF0825109E1030E815DD8A059
:101D7800C0EF0EF0C2EF0EF094EF0EF07C0E676F1E
:101D8800000E686F99EC08F078C0D9FF79C0DAFFC7
:101D9800000167C0DEFF68C0DDFF1200000E000111
:101DA8007F6F000E7E6F7E517625D96E7F51772129
:101DB800DA6E7B0E7E25E16E000E7F21E26EDFCFAC
:101DC800E7FF7E4B7F2B7FBFF3EF0EF07F5109E1DA
:101DD800030E7E5DD8A0F3EF0EF0F5EF0EF0D7EF0F
:101DE8000EF0000E816F000E806F7B0E8025D96E7D
:101DF800000E8121DA6E2F0EDF6405EF0FF007EF7A
:101E08000FF015EF0FF07B0E8025D96E000E8121A3
:101E1800DA6E390EDF6413EF0FF015EF0FF017EFDE
:101E28000FF0010EB26F804B812B81BF25EF0FF0B1
:101E3800815109E1030E805DD8A025EF0FF027EF4F
:101E48000FF0F9EF0EF07B0E676F000E686F99ECDC
:101E580008F078C0D9FF79C0DAFF000167C0DEFF5B
:101E680068C0DDFF12000001626F410E00016219B7
:101E7800D8A441EF0FF043EF0FF053EF0FF08A8E25
:101E8800030E0001616F080E606F770EE82EFED713
:101E9800602FFCD7612FFAD78A9E85EF0FF0560E78
:101EA8006219D8A45AEF0FF05CEF0FF06CEF0FF047
:101EB8008A8C030E0001616F080E606F770EE82EA2
:101EC800FED7602FFCD7612FFAD78A9C85EF0FF0D9
:101ED800520E6219D8A473EF0FF075EF0FF085EF6B
:101EE8000FF08A8A030E0001616F080E606F770E8B
:101EF800E82EFED7602FFCD7612FFAD78A9A85EF94
:101F08000FF01200720ED36E9DEC14F079EC14F001
:101F1800B2EC14F051EC14F0A8EC14F0800E0001AF
:101F28006E6F250E6F6F000E706F000E716F92EC62
:101F380010F000EC14F0960E0001606F7F0E616FD8
:101F4800000E636F110E626F07EC11F0410E0AEC80
:101F580012F0A80E0001606F7F0E616F000E636FB4
:101F68000E0E626F07EC11F056EC12F0E30E000152
:101F7800606F7F0E616F000E636F0A0E626F07EC71
:101F880011F0560E37EC0FF009EC00F007EF00F0F7
:101F980000019B6F97C060F098C061F050EC10F0A2
:101FA80099C060F09AC061F00EEC10F0AAC091F0F0
:101FB800ABC092F0CDEC10F091C0AEF092C0AFF093
:101FC800A8C091F0A9C092F0CDEC10F091C0ACF08F
:101FD80092C0ADF097C0A6F098C0A7F099C0A4F041
:101FE8009AC0A5F0AEC062F0AFC063F0ACC064F0B8
:101FF800ADC065F000019B5160EC09F0E30E0001F3
:10200800606F7F0E616F000E636F0A0E626F07ECE0
:1020180011F012000001A451605D6151800A626FE5
:10202800A551800A6259D8B01CEF10F01EEF10F0CD
:1020380027EF10F083866051A45DA86F6151A55900
:10204800A96F4FEF10F06051A45DA551800A626F2F
:102058006151800A6259D8B034EF10F036EF10F0B1
:102068003FEF10F08396A451605DA86FA5516159A8
:10207800A96F4FEF10F0A451601907E1A55161193C
:10208800D8A449EF10F04BEF10F04FEF10F0000E0E
:10209800A96F000EA86F12000001A651605D615182
:1020A800800A626FA751800A6259D8B05EEF10F0BB
:1020B80060EF10F069EF10F083826051A65DAA6F9F
:1020C8006151A759AB6F91EF10F06051A65DA75110
:1020D800800A626F6151800A6259D8B076EF10F0B9
:1020E80078EF10F081EF10F08392A651605DAA6F2F
:1020F800A7516159AB6F91EF10F0A651601907E134
:10210800A7516119D8A48BEF10F08DEF10F091EF63
:1021180010F0000EAB6F000EAA6F1200949C948E04
:102128006EC064F06FC065F070C066F071C067F093
:10213800000E0001606F120E616F7A0E626F000E62
:10214800636F51EC0BF060C072F061C073F062C055
:1021580074F063C075F072C060F073C061F074C051
:1021680062F075C063F0400E0001646F000E656F89
:10217800000E666F000E676F51EC0BF000016005F2
:10218800AF6EAC94AC98AB8EAC9CAC8AAB9CAB8875
:102198001200CD0E0001936FCC0E946F4C0E956F0C
:1021A8003E0E966F93C072F094C073F095C074F0B1
:1021B80096C075F091C060F092C061F0000E61BFEA
:1021C800FF0E626F636F010EE3EC06F060C06EF005
:1021D80061C06FF062C070F063C071F013EC02F080
:1021E8006EC087F06FC088F070C089F071C08AF047
:1021F800D8EC0BF087C0B0F088C0B1F0B0C091F057
:10220800B1C092F01200000E0001676F000E666FF9
:1022180030EF11F09EA813EF11F015EF11F00EEF4B
:1022280011F0000166516025646F67516121656F87
:1022380064C0F6FF65C0F7FFF86A070EF76403D0BD
:102248000800F55005D0F6CFE9FFF7CFEAFFEF50C9
:10225800AD6E0001664B672B6251665D6751800A5F
:10226800646F6351800A6459D8A03DEF11F03FEFC5
:1022780011F00EEF11F012000600F0A046EF11F079
:1022880048EF11F053EF11F09EEC12F01A0E3F6E6A
:10229800F80EE82EFED73F2EFCD700D0F090F0A223
:1022A80058EF11F05AEF11F065EF11F07AEC12F0D7
:1022B8001A0E3F6EF80EE82EFED73F2EFCD700D040
:1022C800F092F2A26AEF11F06CEF11F077EF11F0D3
:1022D80086EC14F01A0E3F6EF80EE82EFED73F2E4D
:1022E800FCD700D0F2925C921100CD0E346ECC0E69
:1022F800356E4C0E366E3E0E376E34C013F035C058
:1023080014F036C015F037C016F032C001F033C0F3
:1023180002F0000E02BEFF0E036E046E010EBFEC4B
:1023280007F001C00FF002C010F003C011F004C0A4
:1023380012F0E1EC03F00FC028F010C029F011C032
:102348002AF012C02BF062EC0DF028C0B0F029C0C2
:10235800B1F0B0C032F0B1C033F012000001656FC7
:10236800000E0001676F000E666FCDEF11F09EAA98
:10237800C0EF11F0C2EF11F0BBEF11F00001665190
:102388006025D96E67516121DA6EAECFDFFF664BEB
:10239800672B6551626F636B6251665D6751800A96
:1023A800646F6351800A6459D8A0DDEF11F0DFEF44
:1023B80011F0BBEF11F01200010E0001666F200E44
:1023C80060196111D8B4EBEF11F0EDEF11F006EFE1
:1023D80012F0F70E626FFF0E636F60C064F061C0A9
:1023E80065F06251642763516523655109E1050E63
:1023F800645DD8A002EF12F004EF12F006EF12F0BD
:10240800000E666F66C060F0616B12000001606FBD
:10241800410E00016019D8A414EF12F016EF12F063
:1024280019EF12F08A8E2FEF12F0560E6019D8A409
:1024380020EF12F022EF12F025EF12F08A8C2FEF26
:1024480012F0520E6019D8A42CEF12F02EEF12F0F1
:102458002FEF12F08A8A12008C8882AA36EF12F0C7
:1024680038EF12F03CEF12F08C8A8C9C45EF12F09A
:1024780082AC41EF12F043EF12F045EF12F08C9A64
:102488008C8C82BA4AEF12F04CEF12F055EF12F032
:1024980082BC51EF12F053EF12F055EF12F08C9A04
:1024A8008C9C12005CEF12F083908384C5EC14F0CE
:1024B8005B50D8B462EF12F064EF12F058EF12F0EC
:1024C8006AEF12F083808394C5EC14F05A50D8B4A4
:1024D80070EF12F072EF12F066EF12F083808384CF
:1024E800CA94000E5B6E000E5A6E120083808384BD
:1024F800020E3E6E040E3D6EBA0EE82EFED73D2E3D
:10250800FCD73E2EFAD700D05A50D8A48EEF12F03E
:1025180090EF12F09BEF12F0000E396E000E386E3D
:10252800000E3B6E1E0E3A6E530EC2EC12F0010EF8
:102538005A6E120083808384020E3E6E040E3D6E36
:10254800BA0EE82EFED73D2EFCD73E2EFAD700D085
:102558005B50D8A4B2EF12F0B4EF12F0BFEF12F054
:10256800000E396E1E0E386E000E3B6E000E3A6E6F
:10257800530EC2EC12F0010E5B6E12003C6ECA9450
:102588008392839638C032F039C033F079EC11F079
:1025980032C0AEF033C0AFF03AC032F03BC033F0D7
:1025A80079EC11F032C0ACF033C0ADF0AEC003F03E
:1025B800AFC004F0ACC005F0ADC006F03C500CEC68
:1025C8000AF01200ECEF12F083908384CBEC14F045
:1025D8005B50D8B4F2EF12F0F4EF12F0E8EF12F01B
:1025E800FAEF12F083808394CBEC14F05A50D8B4ED
:1025F80000EF13F002EF13F0F6EF12F083808384FC
:10260800CA94000E5B6E000E5A6E1200D00E0001C6
:10261800626FFF0E636F60C064F061C065F0625165
:1026280064276351652365510AE10A0E645DD8A0E9
:1026380020EF13F023EF13F0010E24EF13F0000E38
:10264800606F616B12008B90020E0001696F040EBF
:10265800686FBA0EE82EFED7682FFCD7692FFAD715
:1026680000F08B80F80E0001606F7F0E616F000E26
:10267800636F060E626F07EC11F012000001616FC4
:1026880061C0A9FF60C0A8FFA69EA69CA684F29E72
:10269800550EA76EAA0EA76EA682F28EA1A857EFB6
:1026A80013F059EF13F052EF13F0A198A69412000B
:1026B800000161BF6BEF13F02D0E605D010E6159D3
:1026C800D8B069EF13F06BEF13F072EF13F061BF3E
:1026D80072EF13F070EF13F074EF13F0010EB36F95
:1026E800120082A47AEF13F07CEF13F089EF13F055
:1026F8000001B551D8A483EF13F085EF13F089EFEB
:1027080013F0604B612B010EB56F60C060F061C0C3
:1027180061F0120082A293EF13F095EF13F0A2EF8D
:1027280013F00001B651D8A49CEF13F09EEF13F0FC
:10273800A2EF13F0604B612B010EB66F60C060F022
:1027480061C061F0120082A4ACEF13F0AEEF13F099
:10275800BBEF13F00001B551D8A4B5EF13F0B7EFF4
:1027680013F0BBEF13F0014A022A010EB56F01C046
:1027780001F002C002F0120082A2C5EF13F0C7EF09
:1027880013F0D4EF13F00001B651D8A4CEEF13F034
:10279800D0EF13F0D4EF13F0014A022A010EB66FFE
:1027A80001C001F002C002F0120000016051620392
:1027B800F3CF64F0F4CF65F060516303F3506527FD
:1027C80061516203F350652764C060F065C061F031
:1027D800120000EEA0F02F0EEE6AE806FDE100EE12
:1027E80040F01C0EEE6AE806FDE15C905C92000E7B
:1027F800F86E000186EF0FF0000E956EF18E938053
:1028080093829384D09EF28EF29CF288F086F088B0
:10281800F18CF18AF188F292F090F09212007C0E1D
:10282800CB6E3E0EBE6E3E0EBB6E94929494030E1B
:10283800CA6E0C0EBD6E0C0EBA6ECA9412007C0ED7
:10284800CB6E3E0EBE6E3E0EBB6E94929494030EFB
:10285800CA6E0C0EBD6E0C0EBA6ECA941200CB680E
:102868003E0EBE6E3E0EBB6E94929494030ECA6EDC
:102878000C0EBD6E0C0EBA6ECA941200CB683E0EDA
:10288800BE6E3E0EBB6E94929494030ECA6E0C0EEE
:10289800BD6E0C0EBA6ECA941200000E836E000E46
:1028A8008C6E070EB46E9590959295949596959822
:1028B800959A959C12008B80EE0E0001606F7F0E3A
:1028C800616F000E636F090E626F07EC11F0120062
:1028D8008B90EE0E0001606F7F0E616F000E636FCC
:1028E800090E626F07EC11F01200000E816E000EE7
:1028F8008A6ED00EC16E938093829384939A939C30
:10290800939E1200E6EC12F0000E0001A76F000E75
:10291800A66F000EA56F000EA46F12000001606F75
:1029280060C0A9FFA69EA69CA680A8CF57F05750C6
:102938001200000E806E000E896ED00EC16E070E5A
:10294800B46E9288928A1200000E846E000E8D6E0C
:10295800D00EC16E070EB46E96901200000E826EF5
:10296800000E8B6E948094929494949C948E120092
:102978009EAAC1EF14F0C3EF14F0BCEF14F0AE50F0
:1029880012008382838633EC14F0CA841200838297
:0A299800838642EC14F0CA8412009A
:107C46000000000000DCCFD1350000000000C015A8
:107C56003F6042A20D70A5EC363BAAB83F4F38767E
:107C66003F3CAA38338CBEBF350072313F187231A3
:107C76003F4CBB31330EEADDB555B38A38610B365E
:107C8600BBABAA2A3E42F1533E55326C3E05A38B4E
:107C96003EABAAAA3EB76DDB3E9A99193F6042A257
:107CA6000DCAF249710000804B0000803F0000C001
:107CB6003F00AAB83FC623F6B80040763F504C4571
:107CC60041534520494E5345525420544845204976
:107CD6004E535452554354494F4E204F4620534518
:107CE60054504F494E540A00504C45415345204D7F
:107CF6004F444946592054484520534554504F490E
:107D06004E5420414E442054525920414741494E39
:107D16000A004552524F5220434F5244494E415455
:107D26004553204F55545349444520544845205205
:107D3600414E47450A004552524F52204341524157
:107D4600435445525320494E4752455345442057C4
:107D5600524F4E470A00434F4F5244494E415445F5
:107D6600204F4620534554504F494E542031303A07
:107D76000A00434F4F5244494E415445204F462036
:107D8600534554504F494E542031313A0A00434F1F
:107D96004F5244494E415445204F46205345545076
:107DA6004F494E542031323A0A00434F4F5244490C
:107DB6004E415445204F4620534554504F494E544A
:107DC6002031333A0A00434F4F5244494E415445FD
:107DD600204F4620534554504F494E542031343A93
:107DE6000A00434F4F5244494E415445204F4620C6
:107DF600534554504F494E542031353A0A00434FAB
:107E06004F5244494E415445204F46205345545005
:107E16004F494E5420303A0A00434F4F5244494E80
:107E2600415445204F4620534554504F494E542007
:107E3600313A0A00434F4F5244494E415445204F70
:107E46004620534554504F494E5420323A0A004377
:107E56004F4F5244494E415445204F4620534554B6
:107E6600504F494E5420333A0A00434F4F5244492B
:107E76004E415445204F4620534554504F494E5489
:107E860020343A0A00434F4F5244494E415445204C
:107E96004F4620534554504F494E5420353A0A0018
:107EA600434F4F5244494E415445204F4620534577
:107EB60054504F494E5420363A0A00434F4F5244CD
:107EC600494E415445204F4620534554504F494E44
:107ED6005420373A0A00434F4F5244494E415445C5
:107EE600204F4620534554504F494E5420383A0AA5
:107EF60000434F4F5244494E415445204F4620536C
:107F06004554504F494E5420393A0A005741495476
:107F1600494E4720464F5220494E535452554354DA
:107F2600494F4E0A005741495420554E54494C205A
:107F3600434F4D504C4554452E2E2E0A005741496D
:107F46005420554E54494C20434F4D504C455445B2
:107F56002E2E2E00434F4F5244494E415445205831
:107F66002053415645440A00434F4F5244494E411F
:107F7600544520592053415645440A00434F4F5219
:107F860044494E415445205A2053415645440A001F
:107F960057454C434F4D4520544F20535041524373
:107FA6000A005741495420464F5220484F4D450A32
:107FB600000A434F4F5244494E41544520593A0016
:107FC6000A434F4F5244494E415445205A3A0043C2
:107FD6004F4F5244494E41544520583A00434F4D65
:107FE600504C455445440A00434F4D504C4554456A
:0A7FF6000A00544F5543480A0000EA
:020000040020DA
:08000000FFFFFFFFFFFFFFFF00
:020000040030CA
:0E00000000081F1EFF8181FF0FC00FE00F40A0
:00000001FF
