:020000040000FA
:0400000007EF00F016
:100008005B82A7ED10F01DEF13F0959095949592F3
:10001800959683808380949294948292000E000136
:100028009E6FA40E606F7F0E616F000E636F110EDE
:10003800626F6EEC10F0D10E0001606F7C0E616F84
:10004800000E636F2A0E626F6EEC10F000019E5175
:10005800D8A431EF00F033EF00F040EF00F0200EAD
:10006800606F7F0E616F000E636F180E626F6EEC2B
:1000780010F0010E00019E6FB2EC13F000019F6FAB
:10008800E5EF01F0C20E606F000E616F070E19EC0C
:1000980011F0510E0001606F7F0E616F000E636FEB
:1000A800160E626F6EEC10F0C20E0001766F000E35
:1000B800776FCD0E786F000E796FCEEC0EF0C20E12
:1000C8000001766F000E776FCB0E786F000E796F98
:1000D80063EC0EF0CDC060F0CEC061F077EC12F0AA
:1000E800CBC060F0CCC061F077EC12F00001B30532
:1000F800D8A481EF00F083EF00F092EF00F0260E15
:10010800606F7D0E616F000E636F230E626F6EEC81
:1001180010F0000E0001B36F2AEF00F0B205D8A46A
:1001280098EF00F09AEF00F0A9EF00F04A0E606F28
:100138007D0E616F000E636F1F0E626F6EEC10F024
:10014800000E0001B26F2AEF00F0CDC097F0CEC0CC
:1001580098F0CBC099F0CCC09AF09F5133EC0FF0D7
:100168002AEF00F0C20E606F000E616F070E19ECE7
:1001780011F0510E0001606F7F0E616F000E636F0A
:10018800160E626F6EEC10F0C20E0001766F000E54
:10019800776FCD0E786F000E796FCEEC0EF0C20E31
:1001A8000001766F000E776FCB0E786F000E796FB7
:1001B80063EC0EF0CDC060F0CEC061F077EC12F0C9
:1001C800CBC060F0CCC061F077EC12F00001B30551
:1001D800D8A4F1EF00F0F3EF00F0FFEF00F0260EE7
:1001E800606F7D0E616F000E636F230E626F6EECA1
:1001F80010F08DEF00F0B205D8A405EF01F007EF7D
:1002080001F013EF01F04A0E606F7D0E616F000E72
:10021800636F1F0E626F6EEC10F0A4EF00F0CDC09C
:1002280097F0CEC098F0CBC099F0CCC09AF09F510F
:1002380033EC0FF02AEF00F0510E606F7F0E616F04
:10024800000E636F160E626F6EEC10F042EC12F047
:100258002AEF00F0510E606F7F0E616F000E636F22
:10026800160E626F6EEC10F08EEC13F02AEF00F0B1
:10027800510E606F7F0E616F000E636F160E626F16
:100288006EEC10F081EC13F02AEF00F0390E606F7D
:100298007F0E616F000E636F170E626F6EEC10F0C9
:1002A800B2EC13F00001B46FB451AAEC05F00001F0
:1002B800B46FCD0E766F000E776FB451E1EC0DF090
:1002C800CB0E0001766F000E776FB451DBEC0CF0AB
:1002D800C90E0001766F000E776FB45158EC0CF020
:1002E8000001B305D8A47BEF01F07DEF01F094EF96
:1002F80001F0260E606F7D0E616F000E636F230E96
:10030800626F6EEC10F0FC0E0001606F7C0E616F86
:10031800000E636F290E626F6EEC10F08DEF00F027
:10032800B205D8A49AEF01F09CEF01F0B3EF01F009
:100338004A0E606F7D0E616F000E636F1F0E626F55
:100348006EEC10F0FC0E0001606F7C0E616F000E09
:10035800636F290E626F6EEC10F0A4EF00F0CDC051
:1003680097F0CEC098F0CBC099F0CCC09AF09F51CE
:1003780033EC0FF02AEF00F0B2EC13F00001B46F89
:10038800B70E606F000E616F0B0E19EC11F0390E8D
:100398000001606F7F0E616F000E636F170E626F52
:1003A8006EEC10F00001B451AAEC05F00001B46F36
:1003B800B70E686F000E696FB451B2EC0AF02AEFFD
:1003C80000F09F519C6F9D6B9D51000AD8B4EFEFD0
:1003D80001F02AEF00F09C51460AD8B446EF00F02D
:1003E8000E0AD8B42EEF01F0050AD8B4C0EF01F018
:1003F800020AD8B44AEF01F01D0AD8B43CEF01F064
:10040800010AD8B4B6EF00F0070AD8B420EF01F01B
:100418002AEF00F0120000017151800B7E6F7151BC
:100428007125856F70AF1BEF02F01DEF02F01EEF14
:1004380002F085818551D8B424EF02F026EF02F04E
:100448003BEF02F08529D8A42CEF02F02EEF02F042
:1004580036EF02F0000E6E6F000E6F6F000E706FB9
:10046800000E716F708F000E716F43EF02F0000E77
:100478006E6F000E6F6F000E706F000E716F75510A
:10048800800B7E1B75517525866F74AF4EEF02F099
:1004980050EF02F051EF02F086818651D8B457EF41
:1004A80002F059EF02F06EEF02F08629D8A45FEF50
:1004B80002F061EF02F069EF02F0000E726F000EB9
:1004C800736F000E746F000E756F748F000E756F6A
:1004D80076EF02F0000E726F000E736F000E746FED
:1004E800000E756F7251731174117511D8A47FEFD6
:1004F80002F081EF02F099EF02F0000E6E6F000E2D
:100508006F6F000E706F000E716F800E70137F0E8C
:1005180071137E5171136EC06EF06FC06FF070C0B2
:1005280070F071C071F0DCEF03F08551D8A49FEF33
:1005380002F0A1EF02F0ABEF02F0000E6E6F000EBA
:100548006F6F000E706F000E716FDCEF03F0865155
:1005580085C076F0776B765F000E775B7F0E762529
:100568007F6F000E7721806F6EC07AF06FC07BF0CE
:1005780070C07CF071C07DF0000E6E6F000E6F6F62
:10058800000E706F000E716F000E816F000E826F8B
:10059800000E836F000E846F000E866F0CEF03F061
:1005A8008651D8B4DAEF02F0DCEF02F0F3EF02F094
:1005B800D8907A377B377C377D37D8906E376F374E
:1005C8007037713784AFEBEF02F0EDEF02F0EEEF2A
:1005D80002F06E81D8908137823783378437725121
:1005E8007A5D73517B5974517C5975517D59D8A0E6
:1005F80000EF03F002EF03F00BEF03F0848D72516C
:100608007A5F73517B5B74517C5B75517D5B862B84
:10061800190E866512EF03F014EF03F0D4EF02F021
:100628007A517B117C117D11D8B41DEF03F01FEFB7
:1006380003F037EF03F0818137EF03F0D8906E377E
:100648006F377037713784AF2CEF03F02EEF03F05C
:100658002FEF03F06E81D890813782378337843744
:100668007F07D8A0800770AF3CEF03F03EEF03F0A0
:1006780022EF03F0000E866F84AF45EF03F047EFDB
:1006880003F06BEF03F0FF0E8115766FFF0E8215F6
:10069800776FFF0E8315786F7F0E8415796F76510B
:1006A800771178117911D8B45CEF03F05EEF03F09D
:1006B80062EF03F0010E866F6BEF03F06EA167EF38
:1006C80003F069EF03F06BEF03F05EEF03F0865180
:1006D800D8B471EF03F073EF03F097EF03F0010E56
:1006E8006E27000E6F237023712371A17EEF03F034
:1006F80080EF03F097EF03F06EC076F06FC077F0ED
:1007080070C078F071C079F0793579337833773300
:10071800763376C06EF077C06FF078C070F079C02D
:1007280071F07F4B802B80BFA2EF03F0805108E16E
:100738007F29D8A0A2EF03F0A4EF03F0AFEF03F0F6
:10074800000E806F7F69000E6E6F000E6F6F000ED7
:10075800706F000E716F80BFBCEF03F0805106E12F
:100768007F05D8B0BAEF03F0BCEF03F0CAEF03F08F
:10077800000E806F000E7F6F000E6E6F000E6F6FA1
:10078800000E706F000E716F000E7E6F7FC085F0D7
:1007980085A1D1EF03F0D3EF03F0D6EF03F0708F0C
:1007A800D7EF03F0709FD8908531716F8DEF02F00D
:1007B80012001250800B1F6E12501224266E11AEBA
:1007C800E8EF03F0EAEF03F0EBEF03F026802650A2
:1007D800D8B4F1EF03F0F3EF03F008EF04F02628A4
:1007E800D8A4F9EF03F0FBEF03F003EF04F0000ED9
:1007F8000F6E000E106E000E116E000E126E118E2E
:10080800000E126E10EF04F0000E0F6E000E106E48
:10081800000E116E000E126E1650800B1F1A165025
:100828001624276E15AE1BEF04F01DEF04F01EEF23
:1008380004F027802750D8B424EF04F026EF04F002
:100848003BEF04F02728D8A42CEF04F02EEF04F097
:1008580036EF04F0000E136E000E146E000E156EC7
:10086800000E166E158E000E166E43EF04F0000E85
:10087800136E000E146E000E156E000E166E1350D9
:10088800141015101610D8A44CEF04F04EEF04F015
:1008980066EF04F0000E0F6E000E106E000E116E63
:1008A800000E126E800E11127F0E12121F501212BD
:1008B8000FC00FF010C010F011C011F012C012F0EC
:1008C800A9EF05F02650D8A46CEF04F06EEF04F001
:1008D80078EF04F0000E0F6E000E106E000E116E11
:1008E800000E126EA9EF05F0275026C017F0186AFF
:1008F800175E000E185A7F0E1724206E000E18205F
:10090800216E0FC01BF010C01CF011C01DF012C0EA
:100918001EF0000E0F6E000E106E000E116E000E0F
:10092800126E000E226E000E236E000E246E000E54
:10093800256E000E276ED9EF04F02750D8B4A7EF24
:1009480004F0A9EF04F0C0EF04F0D8901B361C3671
:100958001D361E36D8900F3610361136123625AE93
:10096800B8EF04F0BAEF04F0BBEF04F00F80D890B2
:10097800223623362436253613501B5C14501C5857
:1009880015501D5816501E58D8A0CDEF04F0CFEFC3
:1009980004F0D8EF04F0258C13501B5E14501C5A39
:1009A80015501D5A16501E5A272A190E2764DFEFB4
:1009B80004F0E1EF04F0A1EF04F01B501C101D102F
:1009C8001E10D8B4EAEF04F0ECEF04F004EF05F0E1
:1009D800228004EF05F0D8900F3610361136123603
:1009E80025AEF9EF04F0FBEF04F0FCEF04F00F8004
:1009F800D89022362336243625362006D8A021065C
:100A080011AE09EF05F00BEF05F0EFEF04F0000E63
:100A1800276E25AE12EF05F014EF05F038EF05F05C
:100A2800FF0E2214176EFF0E2314186EFF0E2414E7
:100A3800196E7F0E25141A6E1750181019101A10F7
:100A4800D8B429EF05F02BEF05F02FEF05F0010ED4
:100A5800276E38EF05F00FA034EF05F036EF05F0FC
:100A680038EF05F02BEF05F02750D8B43EEF05F02E
:100A780040EF05F064EF05F0010E0F26000E10227E
:100A88001122122212A04BEF05F04DEF05F064EF92
:100A980005F00FC017F010C018F011C019F012C0FF
:100AA8001AF01A341A3219321832173217C00FF0E6
:100AB80018C010F019C011F01AC012F0204A212AEB
:100AC80021BE6FEF05F0215008E12028D8A06FEF74
:100AD80005F071EF05F07CEF05F0000E216E20683F
:100AE800000E0F6E000E106E000E116E000E126ECC
:100AF80021BE89EF05F0215006E12004D8B087EF28
:100B080005F089EF05F097EF05F0000E216E000E55
:100B1800206E000E0F6E000E106E000E116E000E8D
:100B2800126E000E1F6E20C026F026A09EEF05F064
:100B3800A0EF05F0A3EF05F0118EA4EF05F0119ECC
:100B4800D8902630126E5AEF04F0120000016A6F36
:100B58008EEF06F0000E6A6F120E606F7E0E616FE8
:100B6800000E636F1A0E626F6EEC10F0DCEF06F089
:100B7800100E6A6F2D0E606F7E0E616F000E636F30
:100B8800190E626F6EEC10F0DCEF06F0200E6A6F43
:100B9800480E606F7E0E616F000E636F1A0E626FF3
:100BA8006EEC10F0DCEF06F0300E6A6F630E606FCB
:100BB8007E0E616F000E636F1A0E626F6EEC10F09E
:100BC800DCEF06F0400E6A6F7E0E606F7E0E616F7E
:100BD800000E636F1A0E626F6EEC10F0DCEF06F019
:100BE800500E6A6F990E606F7E0E616F000E636F14
:100BF8001A0E626F6EEC10F0DCEF06F0600E6A6F92
:100C0800B40E606F7E0E616F000E636F1A0E626F16
:100C18006EEC10F0DCEF06F0700E6A6FCF0E606FAE
:100C28007E0E616F000E636F1A0E626F6EEC10F02D
:100C3800DCEF06F0800E6A6FEA0E606F7E0E616F61
:100C4800000E636F1A0E626F6EEC10F0DCEF06F0A8
:100C5800900E6A6F050E606F7F0E616F000E636FF6
:100C68001A0E626F6EEC10F0DCEF06F0A00E6A6FE1
:100C78006A0E606F7D0E616F000E636F1B0E626FF0
:100C88006EEC10F0DCEF06F0B00E6A6F860E606F47
:100C98007D0E616F000E636F1B0E626F6EEC10F0BD
:100CA800DCEF06F0C00E6A6FA20E606F7D0E616FFA
:100CB800000E636F1B0E626F6EEC10F0DCEF06F037
:100CC800D00E6A6FBE0E606F7D0E616F000E636F8F
:100CD8001B0E626F6EEC10F0DCEF06F0E00E6A6F30
:100CE800DA0E606F7D0E616F000E636F1B0E626F10
:100CF8006EEC10F0DCEF06F0F00E6A6FF60E606F27
:100D08007D0E616F000E636F1B0E626F6EEC10F04C
:100D1800DCEF06F000016A51686F696B6951000ADF
:100D2800D8B499EF06F0DCEF06F06851300AD8B471
:100D3800AEEF05F0010AD8B4BCEF05F0030AD8B449
:100D4800CAEF05F0010AD8B4D8EF05F0070AD8B4FD
:100D5800E6EF05F0010AD8B4F4EF05F0030AD8B4B9
:100D680002EF06F0010AD8B410EF06F00F0AD8B463
:100D78001EEF06F0010AD8B42CEF06F0780AD8B4B2
:100D88003AEF06F0030AD8B448EF06F0010AD8B4DF
:100D980056EF06F0070AD8B464EF06F0010AD8B493
:100DA80072EF06F0030AD8B480EF06F0DCEF06F025
:100DB80000016A5112000001686F00016851D8B43F
:100DC800E8EF06F0EAEF06F00CEF07F063BFF1EF8B
:100DD80006F0EFEF06F00CEF07F060C064F061C0BA
:100DE80065F062C066F063C067F0641F651F661F28
:100DF800671F642B000E65236623672364C06AF0AF
:100E080065C06BF066C06CF067C06DF014EF07F05A
:100E180060C06AF061C06BF062C06CF063C06DF0D6
:100E28006051611162116311D8A41DEF07F01FEF23
:100E380007F029EF07F0000E606F000E616F000EDB
:100E4800626F000E636FBAEF07F0960E696F33EFAB
:100E580007F0692BD8906D336C336B336A33000E0F
:100E68006A15646F000E6B15656F000E6C15666F62
:100E7800FE0E6D15676F6451651166116711D8A470
:100E880048EF07F04AEF07F02DEF07F058EF07F0AB
:100E9800692B010E6A27000E6B236C236D23D890F3
:100EA8006D336C336B336A33000E6A15646F000E52
:100EB8006B15656F000E6C15666FFF0E6D15676F0D
:100EC8006451651166116711D8A46DEF07F06FEFD3
:100ED80007F04CEF07F077EF07F06907D8906A370B
:100EE8006B376C376D376CBF7CEF07F07EEF07F020
:100EF80086EF07F0020E696184EF07F086EF07F0CE
:100F080071EF07F069B18BEF07F08DEF07F08EEF07
:100F180007F06C9FD890693369C064F0656B666BA5
:100F2800676B64C067F0666B656B646B64516A13CA
:100F380065516B1366516C1367516D136851D8B4C2
:100F4800A8EF07F0AAEF07F0B2EF07F063BFB1EF21
:100F580007F0AFEF07F0B2EF07F06D8F6AC060F0EF
:100F68006BC061F06CC062F06DC063F01200096E76
:100F78000950D8B4C2EF07F0C4EF07F0E6EF07F066
:100F880004BECBEF07F0C9EF07F0E6EF07F001C0AA
:100F980005F002C006F003C007F004C008F0051E03
:100FA800061E071E081E052A000E06220722082212
:100FB80005C00BF006C00CF007C00DF008C00EF01D
:100FC800EEEF07F001C00BF002C00CF003C00DF00B
:100FD80004C00EF00150021003100410D8A4F7EF5B
:100FE80007F0F9EF07F003EF08F0000E016E000EAE
:100FF800026E000E036E000E046E94EF08F0960E5B
:101008000A6E0DEF08F00A2AD8900E320D320C3213
:101018000B32000E0B14056E000E0C14066E000E3B
:101028000D14076EFE0E0E14086E055006100710FC
:101038000810D8A422EF08F024EF08F007EF08F012
:1010480032EF08F00A2A010E0B26000E0C220D22A0
:101058000E22D8900E320D320C320B32000E0B14C9
:10106800056E000E0C14066E000E0D14076EFF0EB2
:101078000E14086E0550061007100810D8A447EF84
:1010880008F049EF08F026EF08F051EF08F00A06DB
:10109800D8900B360C360D360E360DBE56EF08F0CE
:1010A80058EF08F060EF08F0020E0A605EEF08F0F3
:1010B80060EF08F04BEF08F00AB065EF08F067EF53
:1010C80008F068EF08F00D9ED8900A320AC005F0C3
:1010D800066A076A086A05C008F0076A066A056AA8
:1010E80005500B1206500C1207500D1208500E1224
:1010F8000950D8B482EF08F084EF08F08CEF08F0BC
:1011080004BE8BEF08F089EF08F08CEF08F00E8E24
:101118000BC001F00CC002F00DC003F00EC004F0CB
:101128001200000E0001756F000E746F000E6E6FD6
:10113800000E6D6FA2EF08F0674B682B010E736FFE
:1011480067C0D9FF68C0DAFF200EDE18D8B4AFEF49
:1011580008F0B1EF08F0CDEF08F0F70E696FFF0E59
:101168006A6F67C0D9FF68C0DAFFDF506B6F6C6BBE
:1011780069516B276A516C236C5109E1050E6B5D4F
:10118800D8A0C9EF08F0CBEF08F0CDEF08F0000EBB
:10119800736F73C06FF0706B6F517011D8A4D7EF75
:1011A80008F0D9EF08F0A0EF08F0E3EF08F0000E20
:1011B8006E6F010E6D6F674B682B19EF09F067C0F2
:1011C800D9FF68C0DAFFDF50696F6A6B6A51000A9D
:1011D800D8B4F1EF08F019EF09F069512B0AD8B427
:1011E800DFEF08F0060AD8B4DBEF08F019EF09F0D2
:1011F80074C060F075C061F0000E636F0A0E626F14
:1012080009EC13F067C0D9FF68C0DAFFDF500001AE
:10121800696F6951605F000E615B300E6025746F05
:10122800000E6121756FDFEF08F0D00E696FFF0EB9
:101238006A6F67C0D9FF68C0DAFFDF506B6F6C6BED
:1012480069516B276A516C236C510AE10A0E6B5D78
:10125800D8A031EF09F034EF09F0010E35EF09F0AD
:10126800000E716F726B71517211D8A43EEF09F0C4
:1012780040EF09F0FCEF08F06D516E11D8A447EF6C
:1012880009F049EF09F057EF09F074C069F075C02B
:101298006AF0691F6A1F694B6A2B69C067F06AC0E8
:1012A80068F05BEF09F074C067F075C068F0120071
:1012B8000001676F530E00016719D8A466EF09F0A3
:1012C80068EF09F06CEF09F063EC13F06EEF09F0CA
:1012D80043EC13F083908394000E0001696F000EB5
:1012E800686F000E6B6F000E6A6F62516311D8A4AD
:1012F80080EF09F082EF09F083EF09F083806451F1
:101308006511D8A48AEF09F08CEF09F08DEF09F088
:101318008384CA84DFEF09F06251685D6951800AED
:10132800666F6351800A6659D8B09DEF09F09FEF48
:1013380009F0B6EF09F082A2A4EF09F0A6EF09F0D0
:10134800B2EF09F068C060F069C061F0A9EC12F072
:1013580060C068F061C069F0B7EF09F0000EB66FC1
:10136800B7EF09F08380000164516A5D6B51800A10
:10137800666F6551800A6659D8B0C5EF09F0C7EFA6
:1013880009F0DEEF09F082A4CCEF09F0CEEF09F006
:10139800DAEF09F06AC060F06BC061F090EC12F00F
:1013A80060C06AF061C06BF0DFEF09F0000EB56F46
:1013B800DFEF09F0838400016251685D6951800A9A
:1013C800666F6351800A6659D8A0EDEF09F0EFEF18
:1013D80009F090EF09F064516A5D6B51800A666FFD
:1013E8006551800A6659D8A0FCEF09F0FEEF09F0B4
:1013F80090EF09F0000EB66F000E6B6F000E6A6F6B
:10140800000EB56FCA941200086E530E0818D8A4BF
:1014180010EF0AF012EF0AF016EF0AF072EC13F070
:1014280018EF0AF053EC13F083908394000E0A6EC1
:10143800000E096E000E0C6E000E0B6E03500410A9
:10144800D8A429EF0AF02BEF0AF02CEF0AF08380DA
:1014580005500610D8A433EF0AF035EF0AF036EF3E
:101468000AF08384CA8489EF0AF00350095C0A50A1
:10147800800A076E0450800A0758D8B046EF0AF071
:1014880048EF0AF060EF0AF082A24DEF0AF04FEF42
:101498000AF05BEF0AF009C001F00AC002F0DBECC9
:1014A80012F001C009F002C00AF061EF0AF0000E64
:1014B8000001B66F61EF0AF0838005500B5C0C5099
:1014C800800A076E0650800A0758D8B06EEF0AF0F7
:1014D80070EF0AF088EF0AF082A475EF0AF077EF50
:1014E8000AF083EF0AF00BC001F00CC002F0C2EC66
:1014F80012F001C00BF002C00CF089EF0AF0000EE8
:101508000001B56F89EF0AF083840350095C0A5023
:10151800800A076E0450800A0758D8A096EF0AF090
:1015280098EF0AF039EF0AF005500B5C0C50800A6E
:10153800076E0650800A0758D8A0A5EF0AF0A7EF53
:101548000AF039EF0AF0000E0001B66F000E0C6EBB
:10155800000E0B6E000EB56FCA94120000016C6F7E
:10156800000E00016F6F000E6E6F6C516E256D6F6F
:101578006E516825D96E6F516921DA6EDF50606F40
:101588006D515DEC12F000016E4B6F2B6FBFD6EF03
:101598000AF06F5109E1030E6E5DD8A0D6EF0AF08C
:1015A800D8EF0AF0B9EF0AF0680E606F7F0E616F2E
:1015B800000E636F130E626F6EEC10F0000E0001E8
:1015C800716F000E706F6C517025030F6D6F705145
:1015D80068256A6F715169216B6F040E6A25D96E8F
:1015E800000E6B21DA6EDF50606F6D515DEC12F00A
:1015F8000001704B712B71BF0BEF0BF0715109E1BA
:10160800030E705DD8A00BEF0BF00DEF0BF0E7EFBA
:101618000AF07C0E606F7F0E616F000E636F130E11
:10162800626F6EEC10F0000E0001736F000E726FA7
:101638006C517225060F6D6F725168256A6F735170
:1016480069216B6F080E6A25D96E000E6B21DA6E60
:10165800DF50606F6D515DEC12F00001724B732B1F
:1016680073BF40EF0BF0735109E1030E725DD8A010
:1016780040EF0BF042EF0BF01CEF0BF0900E606F99
:101688007F0E616F000E636F130E626F6EEC10F0C9
:101698001200000E0001696F67BF57EF0BF055EF9E
:1016A8000BF061EF0BF0671F661F651F646D000E7E
:1016B800652366236723010E696F63BF68EF0BF02C
:1016C80066EF0BF072EF0BF0631F621F611F606D16
:1016D800000E612362236323010E691B000E6A6FEB
:1016E800000E6B6F000E6C6F000E6D6F645165110C
:1016F80066116711D8B483EF0BF085EF0BF0BBEFE1
:101708000BF0010E686F8FEF0BF0D89064376537D8
:1017180066376737682B67AF94EF0BF096EF0BF0DF
:1017280089EF0BF0D8906A376B376C376D37645197
:10173800605D655161596651625967516359D8A016
:10174800A8EF0BF0AAEF0BF0B3EF0BF06451605F5A
:101758006551615B6651625B6751635B6A81D890D2
:101768006733663365336433682F96EF0BF069513E
:10177800D8B4C1EF0BF0C3EF0BF0CBEF0BF06D1F3C
:101788006C1F6B1F6A6D000E6B236C236D236AC080
:1017980060F06BC061F06CC062F06DC063F0120065
:1017A800000189358A35906F9051D8A4DEEF0BF08F
:1017B800E0EF0BF0EAEF0BF0000E876F000E886F7A
:1017C800000E896F000E8A6F57EF0CF087C08BF000
:1017D80088C08CF089C08DF08AC08EF0200EFAEF98
:1017E8000BF0D8908E338D338C338B33E82EF5EF96
:1017F8000BF08B518F6F898FFF0E8717FF0E88179D
:10180800FF0E8917000E8A17960E905F90BF11EF92
:101818000CF00FEF0CF027EF0CF09051800A970FA7
:10182800D8B019EF0CF01BEF0CF01DEF0CF0E0EF47
:101838000BF0D8908A33893388338733903F1DEF74
:101848000CF03FEF0CF01F0E90652DEF0CF02FEF12
:101858000CF037EF0CF0E0EF0BF0D89087378837B3
:1018680089378A3790079051D8A43DEF0CF03FEFA5
:101878000CF031EF0CF08F51D8B445EF0CF047EF76
:101888000CF04FEF0CF08A1F891F881F876D000E20
:10189800882389238A2387C087F088C088F089C075
:1018A80089F08AC08AF012000001796F000E0001E9
:1018B8007F6F000E7E6F79517E25060F7A6F7B0E43
:1018C8007E25D96E000E7F21DA6E7A51A7EC13F0CF
:1018D800DF6E00017E4B7F2B7FBF7CEF0CF07F51CA
:1018E80009E1030E7E5DD8A07CEF0CF07EEF0CF0D2
:1018F8005FEF0CF0000E816F000E806F7B0E80256D
:10190800D96E000E8121DA6E2F0EDF648EEF0CF097
:1019180090EF0CF09EEF0CF07B0E8025D96E000E38
:101928008121DA6E390EDF649CEF0CF09EEF0CF02B
:10193800A0EF0CF0010EB26F804B812B81BFAEEF90
:101948000CF0815109E1030E805DD8A0AEEF0CF0D8
:10195800B0EF0CF082EF0CF07B0E676F000E686F33
:1019680095EC08F076C0D9FF77C0DAFF000167C0B0
:10197800DEFF68C0DDFFC50E606F7F0E616F000E71
:10198800636F0E0E626F6EEC10F07B0E0001606FDD
:10199800000E616F000E636F030E626F6EEC10F045
:1019A800C9C060F0CAC061F077EC12F01200000103
:1019B800796F000E00017F6F000E7E6F79517E25D2
:1019C800030F7A6F7B0E7E25D96E000E7F21DA6EAB
:1019D8007A51A7EC13F0DF6E00017E4B7F2B7FBF9F
:1019E800FFEF0CF07F5109E1030E7E5DD8A0FFEFF9
:1019F8000CF001EF0DF0E2EF0CF0000E816F000E1D
:101A0800806F7B0E8025D96E000E8121DA6E2F0E35
:101A1800DF6411EF0DF013EF0DF021EF0DF07B0EE9
:101A28008025D96E000E8121DA6E390EDF641FEF32
:101A38000DF021EF0DF023EF0DF0010EB26F804B8A
:101A4800812B81BF31EF0DF0815109E1030E805DDB
:101A5800D8A031EF0DF033EF0DF005EF0DF07B0E50
:101A6800676F000E686F95EC08F076C0D9FF77C0F5
:101A7800DAFF000167C0DEFF68C0DDFFB60E606FE9
:101A88007F0E616F000E636F0E0E626F6EEC10F0CA
:101A98007B0E0001606F000E616F000E636F030E16
:101AA800626F6EEC10F0CBC060F0CCC061F077ECE8
:101AB80012F012002A342B34316E3150D8A467EF5B
:101AC8000DF069EF0DF073EF0DF0000E286E000EAB
:101AD800296E000E2A6E000E2B6EE0EF0DF028C066
:101AE8002CF029C02DF02AC02EF02BC02FF0200E8C
:101AF80083EF0DF0D8902F322E322D322C32E82E73
:101B08007EEF0DF02C50306E2A8EFF0E2816FF0E39
:101B18002916FF0E2A16000E2B16960E315E31BEC0
:101B28009AEF0DF098EF0DF0B0EF0DF03150800AFC
:101B3800970FD8B0A2EF0DF0A4EF0DF0A6EF0DF0BF
:101B480069EF0DF0D8902B322A3229322832313EF3
:101B5800A6EF0DF0C8EF0DF01F0E3164B6EF0DF0D3
:101B6800B8EF0DF0C0EF0DF069EF0DF0D890283602
:101B780029362A362B3631063150D8A4C6EF0DF057
:101B8800C8EF0DF0BAEF0DF03050D8B4CEEF0DF02D
:101B9800D0EF0DF0D8EF0DF02B1E2A1E291E286C51
:101BA800000E29222A222B2228C028F029C029F039
:101BB8002AC02AF02BC02BF012000001796F000E0A
:101BC80000017F6F000E7E6F79517E257A6F7B0E44
:101BD8007E25D96E000E7F21DA6E7A51A7EC13F0BC
:101BE800DF6E00017E4B7F2B7FBF04EF0EF07F512D
:101BF80009E1030E7E5DD8A004EF0EF006EF0EF0AB
:101C0800E8EF0DF0000E816F000E806F7B0E8025CF
:101C1800D96E000E8121DA6E2F0EDF6416EF0EF0FA
:101C280018EF0EF026EF0EF07B0E8025D96E000E11
:101C38008121DA6E390EDF6424EF0EF026EF0EF004
:101C480028EF0EF0010EB26F804B812B81BF36EF6B
:101C58000EF0815109E1030E805DD8A036EF0EF039
:101C680038EF0EF00AEF0EF07B0E676F000E686F0C
:101C780095EC08F076C0D9FF77C0DAFF000167C09D
:101C8800DEFF68C0DDFFD40E606F7F0E616F000E4F
:101C9800636F0D0E626F6EEC10F07B0E0001606FCB
:101CA800000E616F000E636F030E626F6EEC10F032
:101CB800CDC060F0CEC061F077EC12F01200000EDB
:101CC8000001806F000E7F6F7F5176257A6F8051FB
:101CD80077217B6F040E7A25D96E000E7B21DA6E90
:101CE8007C0E7F25E16E000E8021E26EDFCFE7FFDC
:101CF8007F4B802B80BF8AEF0EF0805109E1030EE5
:101D08007F5DD8A08AEF0EF08CEF0EF068EF0EF032
:101D1800000E826F000E816F7C0E8125D96E000E39
:101D28008221DA6E2F0EDF649CEF0EF09EEF0EF02C
:101D3800ACEF0EF07C0E8125D96E000E8221DA6E92
:101D4800390EDF64AAEF0EF0ACEF0EF0AEEF0EF036
:101D5800010EB26F814B822B82BFBCEF0EF0825115
:101D680009E1030E815DD8A0BCEF0EF0BEEF0EF0C6
:101D780090EF0EF07C0E676F000E686F95EC08F020
:101D880078C0D9FF79C0DAFF000167C0DEFF68C0FC
:101D9800DDFF1200000E00017F6F000E7E6F7E5186
:101DA8007625D96E7F517721DA6E7B0E7E25E16E1E
:101DB800000E7F21E26EDFCFE7FF7E4B7F2B7FBFD8
:101DC800EFEF0EF07F5109E1030E7E5DD8A0EFEF33
:101DD8000EF0F1EF0EF0D3EF0EF0000E816F000E53
:101DE800806F7B0E8025D96E000E8121DA6E2F0E52
:101DF800DF6401EF0FF003EF0FF011EF0FF07B0E30
:101E08008025D96E000E8121DA6E390EDF640FEF5E
:101E18000FF011EF0FF013EF0FF0010EB26F804BC0
:101E2800812B81BF21EF0FF0815109E1030E805D05
:101E3800D8A021EF0FF023EF0FF0F5EF0EF07B0E97
:101E4800676F000E686F95EC08F078C0D9FF79C00D
:101E5800DAFF000167C0DEFF68C0DDFF1200000185
:101E68009B6F97C060F098C061F0B7EC0FF099C015
:101E780060F09AC061F075EC0FF0AAC091F0ABC0A9
:101E880092F034EC10F091C0AEF092C0AFF0A8C060
:101E980091F0A9C092F034EC10F091C0ACF092C06F
:101EA800ADF097C0A6F098C0A7F099C0A4F09AC06A
:101EB800A5F0AEC062F0AFC063F0ACC064F0ADC0D6
:101EC80065F000019B515CEC09F0E20E0001606FC7
:101ED8007F0E616F000E636F0A0E626F6EEC10F07A
:101EE80012000001A451605D6151800A626FA55122
:101EF800800A6259D8B083EF0FF085EF0FF08EEFAC
:101F08000FF083866051A45DA86F6151A559A96F30
:101F1800B6EF0FF06051A45DA551800A626F615160
:101F2800800A6259D8B09BEF0FF09DEF0FF0A6EF33
:101F38000FF08396A451605DA86FA5516159A96FF0
:101F4800B6EF0FF0A451601907E1A5516119D8A4A3
:101F5800B0EF0FF0B2EF0FF0B6EF0FF0000EA96F71
:101F6800000EA86F12000001A651605D6151800A41
:101F7800626FA751800A6259D8B0C5EF0FF0C7EF5A
:101F88000FF0D0EF0FF083826051A65DAA6F615108
:101F9800A759AB6FF8EF0FF06051A65DA751800A03
:101FA800626F6151800A6259D8B0DDEF0FF0DFEF40
:101FB8000FF0E8EF0FF08392A651605DAA6FA7516A
:101FC8006159AB6FF8EF0FF0A651601907E1A751FF
:101FD8006119D8A4F2EF0FF0F4EF0FF0F8EF0FF05B
:101FE800000EAB6F000EAA6F1200949C948E6EC008
:101FF80064F06FC065F070C066F071C067F0000EE5
:102008000001606F120E616F7A0E626F000E636FCF
:102018004DEC0BF060C072F061C073F062C074F0F8
:1020280063C075F072C060F073C061F074C062F094
:1020380075C063F0400E0001646F000E656F000EFE
:10204800666F000E676F4DEC0BF000016005AF6E18
:10205800AC94AC98AB8EAC9CAC8AAB9CAB881200B1
:10206800CD0E0001936FCC0E946F4C0E956F3E0E03
:10207800966F93C072F094C073F095C074F096C0D8
:1020880075F091C060F092C061F0000E61BFFF0E64
:10209800626F636F010EDFEC06F060C06EF061C026
:1020A8006FF062C070F063C071F00FEC02F06EC0A8
:1020B80087F06FC088F070C089F071C08AF0D4ECE6
:1020C8000BF087C0B0F088C0B1F0B0C091F0B1C0DB
:1020D80092F01200000E0001676F000E666F97EF16
:1020E80010F09EA87AEF10F07CEF10F075EF10F06A
:1020F800000166516025646F67516121656F64C096
:10210800F6FF65C0F7FFF86A070EF76403D008000A
:10211800F55005D0F6CFE9FFF7CFEAFFEF50AD6EE7
:102128000001664B672B6251665D6751800A646FD8
:102138006351800A6459D8A0A4EF10F0A6EF10F0FC
:1021480075EF10F012000600F0A0ADEF10F0AFEF41
:1021580010F0BAEF10F0B9EC11F01A0E3F6EF80E4D
:10216800E82EFED73F2EFCD700D0F090F0A2BFEFAC
:1021780010F0C1EF10F0CCEF10F095EC11F01A0E42
:102188003F6EF80EE82EFED73F2EFCD700D0F09217
:10219800F2A2D1EF10F0D3EF10F0DEEF10F09BECCD
:1021A80013F01A0E3F6EF80EE82EFED73F2EFCD71E
:1021B80000D0F2925B921100CD0E346ECC0E356ECB
:1021C8004C0E366E3E0E376E34C013F035C014F028
:1021D80036C015F037C016F032C001F033C002F037
:1021E800000E02BEFF0E036E046E010EBBEC07F07C
:1021F80001C00FF002C010F003C011F004C012F0CB
:10220800DDEC03F00FC028F010C029F011C02AF04F
:1022180012C02BF05EEC0DF028C0B0F029C0B1F070
:10222800B0C032F0B1C033F012000001656F000E8B
:102238000001676F000E666F34EF11F09EAA27EF5A
:1022480011F029EF11F022EF11F00001665160251D
:10225800D96E67516121DA6EAECFDFFF664B672B0F
:102268006551626F636B6251665D6751800A646F86
:102278006351800A6459D8A044EF11F046EF11F079
:1022880022EF11F01200010E0001666F200E601996
:102298006111D8B452EF11F054EF11F06DEF11F055
:1022A800F70E626FFF0E636F60C064F061C065F087
:1022B8006251642763516523655109E1050E645D28
:1022C800D8A069EF11F06BEF11F06DEF11F0000E6F
:1022D800666F66C060F0616B120077EF11F0839053
:1022E8008384BBEC13F05A50D8B47DEF11F07FEF24
:1022F80011F073EF11F085EF11F083808394BBEC3C
:1023080013F05950D8B48BEF11F08DEF11F081EF25
:1023180011F083808384CA94000E5A6E000E596EA1
:10232800120083808384020E3E6E040E3D6EBA0E48
:10233800E82EFED73D2EFCD73E2EFAD700D05950B6
:10234800D8A4A9EF11F0ABEF11F0B6EF11F0000E21
:10235800396E000E386E000E3B6E1E0E3A6E530E2E
:10236800DDEC11F0010E596E120083808384020E99
:102378003E6E040E3D6EBA0EE82EFED73D2EFCD7FB
:102388003E2EFAD700D05A50D8A4CDEF11F0CFEF97
:1023980011F0DAEF11F0000E396E1E0E386E000ED5
:1023A8003B6E000E3A6E530EDDEC11F0010E5A6EC4
:1023B80012003C6ECA948392839638C032F039C0BA
:1023C80033F0E0EC10F032C0AEF033C0AFF03AC0FA
:1023D80032F03BC033F0E0EC10F032C0ACF033C068
:1023E800ADF0AEC003F0AFC004F0ACC005F0ADC0B6
:1023F80006F03C5008EC0AF0120007EF12F0839048
:102408008384C1EC13F05A50D8B40DEF12F00FEFDB
:1024180012F003EF12F015EF12F083808394C1ECF1
:1024280013F05950D8B41BEF12F01DEF12F011EF52
:1024380012F083808384CA94000E5A6E000E596E7F
:102448001200D00E0001626FFF0E636F60C064F06F
:1024580061C065F0625164276351652365510AE1E3
:102468000A0E645DD8A03BEF12F03EEF12F0010EA9
:102478003FEF12F0000E606F616B12008B80020E4E
:102488000001696F040E686FBA0EE82EFED7682F38
:10249800FCD7692FFAD700F08B90F70E0001606F18
:1024A8007F0E616F000E636F060E626F6EEC10F0A8
:1024B80012000001616F61C0A9FF60C0A8FFA69E5D
:1024C800A69CA684F29E550EA76EAA0EA76EA6829B
:1024D800F28EA1A872EF12F074EF12F06DEF12F005
:1024E800A198A6941200000161BF86EF12F02D0E8C
:1024F800605D010E6159D8B084EF12F086EF12F0DA
:102508008DEF12F061BF8DEF12F08BEF12F08FEFAD
:1025180012F0010EB36F120082A495EF12F097EF3C
:1025280012F0A4EF12F00001B551D8A49EEF12F0FA
:10253800A0EF12F0A4EF12F0604B612B010EB56F03
:1025480060C060F061C061F0120082A2AEEF12F0CC
:10255800B0EF12F0BDEF12F00001B651D8A4B7EFFA
:1025680012F0B9EF12F0BDEF12F0604B612B010EC3
:10257800B66F60C060F061C061F0120082A4C7EF5E
:1025880012F0C9EF12F0D6EF12F00001B551D8A43D
:10259800D0EF12F0D2EF12F0D6EF12F0014A022A71
:1025A800010EB56F01C001F002C002F0120082A254
:1025B800E0EF12F0E2EF12F0EFEF12F00001B65187
:1025C800D8A4E9EF12F0EBEF12F0EFEF12F0014AA6
:1025D800022A010EB66F01C001F002C002F012001B
:1025E800720ED36E800E00016E6F250E6F6F000E97
:1025F800706F000E716FF9EC0FF030EC13F071ECA6
:1026080011F009EC00F007EF00F0000160516203DF
:10261800F3CF64F0F4CF65F060516303F35065279E
:1026280061516203F350652764C060F065C061F0D2
:10263800120000EEA0F02F0EEE6AE806FDE100EEB3
:1026480040F01B0EEE6AE806FDE15B905B92000E1F
:10265800F86E0001F4EF12F0000E956EF18E938083
:1026680093829384D09EF28EF29CF288F086F08852
:10267800F18CF18AF188F292F090F09212007C0EBF
:10268800CB6E3E0EBE6E3E0EBB6E94929494030EBD
:10269800CA6E0C0EBD6E0C0EBA6ECA9412007C0E79
:1026A800CB6E3E0EBE6E3E0EBB6E94929494030E9D
:1026B800CA6E0C0EBD6E0C0EBA6ECA941200CB68B0
:1026C8003E0EBE6E3E0EBB6E94929494030ECA6E7E
:1026D8000C0EBD6E0C0EBA6ECA941200CB683E0E7C
:1026E800BE6E3E0EBB6E94929494030ECA6E0C0E90
:1026F800BD6E0C0EBA6ECA9412008B90ED0E0001DE
:10270800606F7F0E616F000E636F090E626F6EEC73
:1027180010F012008B80ED0E0001606F7F0E616F6C
:10272800000E636F090E626F6EEC10F0120001EC80
:1027380012F0000E0001A76F000EA66F000EA56F25
:10274800000EA46F12000001606F60C0A9FFA69E72
:10275800A69CA680A8CF56F0565012009EAAB7EFA6
:1027680013F0B9EF13F0B2EF13F0AE5012008382FA
:10277800838663EC13F0CA8412008382838672EC2A
:0627880013F0CA841200E8
:107C54000000000000DCCFD1350000000000C0159A
:107C64003F6042A20D70A5EC363BAAB83F4F387670
:107C74003F3CAA38338CBEBF350072313F18723195
:107C84003F4CBB31330EEADDB555B38A38610B3650
:107C9400BBABAA2A3E42F1533E55326C3E05A38B40
:107CA4003EABAAAA3EB76DDB3E9A99193F6042A249
:107CB4000DCAF249710000804B0000803F0000C0F3
:107CC4003F00AAB83FC623F6B80040763F504C4563
:107CD40041534520494E5345525420544845204968
:107CE4004E535452554354494F4E204F462053450A
:107CF40054504F494E540A00504C45415345204D71
:107D04004F444946592054484520534554504F49FF
:107D14004E5420414E442054525920414741494E2B
:107D24000A004552524F5220434F5244494E415447
:107D34004553204F555453494445205448452052F7
:107D4400414E47450A004552524F52204341524149
:107D5400435445525320494E4752455345442057B6
:107D6400524F4E470A00434F4F5244494E415445E7
:107D7400204F4620534554504F494E542031303AF9
:107D84000A00434F4F5244494E415445204F462028
:107D9400534554504F494E542031313A0A00434F11
:107DA4004F5244494E415445204F46205345545068
:107DB4004F494E542031323A0A00434F4F524449FE
:107DC4004E415445204F4620534554504F494E543C
:107DD4002031333A0A00434F4F5244494E415445EF
:107DE400204F4620534554504F494E542031343A85
:107DF4000A00434F4F5244494E415445204F4620B8
:107E0400534554504F494E542031353A0A00434F9C
:107E14004F5244494E415445204F462053455450F7
:107E24004F494E5420303A0A00434F4F5244494E72
:107E3400415445204F4620534554504F494E5420F9
:107E4400313A0A00434F4F5244494E415445204F62
:107E54004620534554504F494E5420323A0A004369
:107E64004F4F5244494E415445204F4620534554A8
:107E7400504F494E5420333A0A00434F4F5244491D
:107E84004E415445204F4620534554504F494E547B
:107E940020343A0A00434F4F5244494E415445203E
:107EA4004F4620534554504F494E5420353A0A000A
:107EB400434F4F5244494E415445204F4620534569
:107EC40054504F494E5420363A0A00434F4F5244BF
:107ED400494E415445204F4620534554504F494E36
:107EE4005420373A0A00434F4F5244494E415445B7
:107EF400204F4620534554504F494E5420383A0A97
:107F040000434F4F5244494E415445204F4620535D
:107F14004554504F494E5420393A0A005741495468
:107F2400494E4720464F5220494E535452554354CC
:107F3400494F4E0A005741495420554E54494C204C
:107F4400434F4D504C4554452E2E2E0A005741495F
:107F54005420554E54494C20434F4D504C455445A4
:107F64002E2E2E00434F4F5244494E415445205823
:107F74002053415645440A00434F4F5244494E4111
:107F8400544520592053415645440A00434F4F520B
:107F940044494E415445205A2053415645440A0011
:107FA40057454C434F4D4520544F20535041524365
:107FB4000A000A434F4F5244494E41544520593A0E
:107FC400000A434F4F5244494E415445205A3A0007
:107FD400434F4F5244494E41544520583A00434F71
:107FE4004D504C455445440A00434F4D504C455464
:0B7FF400450A00544F5543480A0000A6
:020000040020DA
:08000000FFFFFFFFFFFFFFFF00
:020000040030CA
:0E00000000081F1EFF8181FF0FC00FE00F40A0
:00000001FF
