:020000040000FA
:0400000007EF00F016
:100008005E82A5ED0DF07FEF0DF0720ED36E800EBF
:100018000F6E250E106E000E116E000E126E12EC91
:100028000CF0959095949592959683808380949200
:1000380094948292000E3F6EA40E016E7F0E026EA3
:10004800000E046E110E036E4AEC0CF0D10E016E18
:100058007C0E026E000E046E2A0E036E4AEC0CF043
:100068003F50D8A43AEF00F03CEF00F048EF00F022
:10007800200E016E7F0E026E000E046E180E036EC7
:100088004AEC0CF0010E3F6EF8EC0DF0406ED7EF25
:1000980001F0860E016E000E026E070E80EC0CF069
:1000A800510E016E7F0E026E000E046E160E036E68
:1000B8004AEC0CF0860E176E000E186E5C0E196E68
:1000C800000E1A6EB2EC0AF0860E176E000E186E4D
:1000D8005A0E196E000E1A6E49EC0AF05CC001F057
:1000E8005DC002F022EC0DF05AC001F05BC002F0D6
:1000F80022EC0DF05104D8A484EF00F086EF00F054
:1001080094EF00F0260E016E7D0E026E000E046E56
:10011800230E036E4AEC0CF0000E516E34EF00F023
:100128005004D8A49AEF00F09CEF00F0AAEF00F07A
:100138004A0E016E7D0E026E000E046E1F0E036ED7
:100148004AEC0CF0000E506E34EF00F05CC038F052
:100158005DC039F05AC03AF05BC03BF040509AECB1
:100168000BF034EF00F0860E016E000E026E070EE3
:1001780080EC0CF0510E016E7F0E026E000E046EC4
:10018800160E036E4AEC0CF0860E176E000E186EF3
:100198005C0E196E000E1A6EB2EC0AF0860E176E1F
:1001A800000E186E5A0E196E000E1A6E49EC0AF0FF
:1001B8005CC001F05DC002F022EC0DF05AC001F005
:1001C8005BC002F022EC0DF05104D8A4EEEF00F071
:1001D800F0EF00F0FCEF00F0260E016E7D0E026ECF
:1001E800000E046E230E036E4AEC0CF090EF00F044
:1001F8005004D8A402EF01F004EF01F010EF01F071
:100208004A0E016E7D0E026E000E046E1F0E036E06
:100218004AEC0CF0A6EF00F05CC038F05DC039F095
:100228005AC03AF05BC03BF040509AEC0BF034EF08
:1002380000F0510E016E7F0E026E000E046E160E57
:10024800036E4AEC0CF009EC0DF034EF00F0510E9F
:10025800016E7F0E026E000E046E160E036E4AECDF
:100268000CF0E2EC0DF034EF00F0510E016E7F0E51
:10027800026E000E046E160E036E4AEC0CF0D6ECFD
:100288000DF034EF00F0390E016E7F0E026E000E95
:10029800046E170E036E4AEC0CF0F8EC0DF0526E7B
:1002A8005250CFEC03F0526E5C0E176E000E186EB3
:1002B8005250CCEC09F05A0E176E000E186E5250C0
:1002C8004EEC09F0580E176E000E186E5250D0EC16
:1002D80008F05104D8A473EF01F075EF01F08BEF2B
:1002E80001F0260E016E7D0E026E000E046E230EC6
:1002F800036E4AEC0CF0FC0E016E7C0E026E000ED2
:10030800046E290E036E4AEC0CF090EF00F05004D6
:10031800D8A491EF01F093EF01F0A9EF01F04A0E94
:10032800016E7D0E026E000E046E1F0E036E4AEC07
:100338000CF0FC0E016E7C0E026E000E046E290E8F
:10034800036E4AEC0CF0A6EF00F05CC038F05DC01C
:1003580039F05AC03AF05BC03BF040509AEC0BF0D1
:1003680034EF00F0F8EC0DF0526E7B0E016E000ECB
:10037800026E0B0E80EC0CF0390E016E7F0E026ED1
:10038800000E046E170E036E4AEC0CF05250CFECC0
:1003980003F0526E7B0E096E000E0A6E5250A0ECEE
:1003A80006F034EF00F040503D6E3E6A3E50000AC1
:1003B800D8B4E1EF01F034EF00F03D50460AD8B46C
:1003C8004DEF00F00E0AD8B42BEF01F0050AD8B4AF
:1003D800B6EF01F0020AD8B447EF01F01D0AD8B40D
:1003E80039EF01F0010AD8B4B7EF00F0070AD8B422
:1003F8001DEF01F034EF00F007EF00F01250800B12
:100408001F6E12501224266E11AE0DEF02F00FEF80
:1004180002F010EF02F026802650D8B416EF02F052
:1004280018EF02F02DEF02F02628D8A41EEF02F0F4
:1004380020EF02F028EF02F0000E0F6E000E106E93
:10044800000E116E000E126E118E000E126E35EF38
:1004580002F0000E0F6E000E106E000E116E000EF0
:10046800126E1650800B1F1A16501624276E15AEE2
:1004780040EF02F042EF02F043EF02F027802750EE
:10048800D8B449EF02F04BEF02F060EF02F02728F2
:10049800D8A451EF02F053EF02F05BEF02F0000E28
:1004A800136E000E146E000E156E000E166E158E6D
:1004B800000E166E68EF02F0000E136E000E146E3A
:1004C800000E156E000E166E13501410151016102F
:1004D800D8A471EF02F073EF02F08BEF02F0000E78
:1004E8000F6E000E106E000E116E000E126E800E52
:1004F80011127F0E12121F5012120FC00FF010C0EF
:1005080010F011C011F012C012F0CEEF03F0265017
:10051800D8A491EF02F093EF02F09DEF02F0000EE5
:100528000F6E000E106E000E116E000E126ECEEFE2
:1005380003F0275026C017F0186A175E000E185AE5
:100548007F0E1724206E000E1820216E0FC01BF09E
:1005580010C01CF011C01DF012C01EF0000E0F6E6E
:10056800000E106E000E116E000E126E000E226E3E
:10057800000E236E000E246E000E256E000E276EF0
:10058800FEEF02F02750D8B4CCEF02F0CEEF02F025
:10059800E5EF02F0D8901B361C361D361E36D89073
:1005A8000F3610361136123625AEDDEF02F0DFEFCA
:1005B80002F0E0EF02F00F80D8902236233624367E
:1005C800253613501B5C14501C5815501D581650D6
:1005D8001E58D8A0F2EF02F0F4EF02F0FDEF02F09F
:1005E800258C13501B5E14501C5A15501D5A16505A
:1005F8001E5A272A190E276404EF03F006EF03F0AA
:10060800C6EF02F01B501C101D101E10D8B40FEFBF
:1006180003F011EF03F029EF03F0228029EF03F034
:10062800D8900F3610361136123625AE1EEF03F06D
:1006380020EF03F021EF03F00F80D8902236233605
:10064800243625362006D8A0210611AE2EEF03F059
:1006580030EF03F014EF03F0000E276E25AE37EFEE
:1006680003F039EF03F05DEF03F0FF0E2214176E6D
:10067800FF0E2314186EFF0E2414196E7F0E251416
:100688001A6E1750181019101A10D8B44EEF03F03C
:1006980050EF03F054EF03F0010E276E5DEF03F007
:1006A8000FA059EF03F05BEF03F05DEF03F050EF9D
:1006B80003F02750D8B463EF03F065EF03F089EF38
:1006C80003F0010E0F26000E10221122122212A092
:1006D80070EF03F072EF03F089EF03F00FC017F02B
:1006E80010C018F011C019F012C01AF01A341A32DA
:1006F80019321832173217C00FF018C010F019C08D
:1007080011F01AC012F0204A212A21BE94EF03F0FA
:10071800215008E12028D8A094EF03F096EF03F0C9
:10072800A1EF03F0000E216E2068000E0F6E000E80
:10073800106E000E116E000E126E21BEAEEF03F0A9
:10074800215006E12004D8B0ACEF03F0AEEF03F07F
:10075800BCEF03F0000E216E000E206E000E0F6E2F
:10076800000E106E000E116E000E126E000E1F6E3F
:1007780020C026F026A0C3EF03F0C5EF03F0C8EFB2
:1007880003F0118EC9EF03F0119ED8902630126E37
:100798007FEF02F012000B6EB2EF04F0000E0B6E4A
:1007A800120E016E7E0E026E000E046E1A0E036E9D
:1007B8004AEC0CF0FFEF04F0100E0B6E2D0E016EDC
:1007C8007E0E026E000E046E190E036E4AEC0CF0DB
:1007D800FFEF04F0200E0B6E480E016E7E0E026EC7
:1007E800000E046E1A0E036E4AEC0CF0FFEF04F0D4
:1007F800300E0B6E630E016E7E0E026E000E046EDE
:100808001A0E036E4AEC0CF0FFEF04F0400E0B6E6C
:100818007E0E016E7E0E026E000E046E1A0E036EC0
:100828004AEC0CF0FFEF04F0500E0B6E990E016EBF
:100838007E0E026E000E046E1A0E036E4AEC0CF069
:10084800FFEF04F0600E0B6EB40E016E7E0E026EAA
:10085800000E046E1A0E036E4AEC0CF0FFEF04F063
:10086800700E0B6ECF0E016E7E0E026E000E046EC1
:100878001A0E036E4AEC0CF0FFEF04F0800E0B6EBC
:10088800EA0E016E7E0E026E000E046E1A0E036EE4
:100898004AEC0CF0FFEF04F0900E0B6E050E016EA3
:1008A8007F0E026E000E046E1A0E036E4AEC0CF0F8
:1008B800FFEF04F0A00E0B6E6A0E016E7D0E026E45
:1008C800000E046E1B0E036E4AEC0CF0FFEF04F0F2
:1008D800B00E0B6E860E016E7D0E026E000E046E5B
:1008E8001B0E036E4AEC0CF0FFEF04F0C00E0B6E0B
:1008F800A20E016E7D0E026E000E046E1B0E036EBC
:100908004AEC0CF0FFEF04F0D00E0B6EBE0E016E39
:100918007D0E026E000E046E1B0E036E4AEC0CF088
:10092800FFEF04F0E00E0B6EDA0E016E7D0E026E24
:10093800000E046E1B0E036E4AEC0CF0FFEF04F081
:10094800F00E0B6EF60E016E7D0E026E000E046E3A
:100958001B0E036E4AEC0CF0FFEF04F00B50096E0F
:100968000A6A0A50000AD8B4BCEF04F0FFEF04F09A
:100978000950300AD8B4D2EF03F0010AD8B4E0EF36
:1009880003F0030AD8B4EEEF03F0010AD8B4FCEF81
:1009980003F0070AD8B40AEF04F0010AD8B418EF34
:1009A80004F0030AD8B426EF04F0010AD8B434EFEF
:1009B80004F00F0AD8B442EF04F0010AD8B450EF9B
:1009C80004F0780AD8B45EEF04F0030AD8B46CEFE8
:1009D80004F0010AD8B47AEF04F0070AD8B488EF13
:1009E80004F0010AD8B496EF04F0030AD8B4A4EFCF
:1009F80004F0FFEF04F00B501200096E0950D8B450
:100A080008EF05F00AEF05F02CEF05F004BE11EF32
:100A180005F00FEF05F02CEF05F001C005F002C05E
:100A280006F003C007F004C008F0051E061E071EE6
:100A3800081E052A000E06220722082205C00BF010
:100A480006C00CF007C00DF008C00EF034EF05F03A
:100A580001C00BF002C00CF003C00DF004C00EF092
:100A68000150021003100410D8A43DEF05F03FEF29
:100A780005F049EF05F0000E016E000E026E000E43
:100A8800036E000E046EDAEF05F0960E0A6E53EF51
:100A980005F00A2AD8900E320D320C320B32000EB5
:100AA8000B14056E000E0C14066E000E0D14076E66
:100AB800FE0E0E14086E0550061007100810D8A474
:100AC80068EF05F06AEF05F04DEF05F078EF05F0F7
:100AD8000A2A010E0B26000E0C220D220E22D89097
:100AE8000E320D320C320B32000E0B14056E000E56
:100AF8000C14066E000E0D14076EFF0E0E14086E11
:100B08000550061007100810D8A48DEF05F08FEFD8
:100B180005F06CEF05F097EF05F00A06D8900B3654
:100B28000C360D360E360DBE9CEF05F09EEF05F027
:100B3800A6EF05F0020E0A60A4EF05F0A6EF05F097
:100B480091EF05F00AB0ABEF05F0ADEF05F0AEEFB1
:100B580005F00D9ED8900A320AC005F0066A076AA9
:100B6800086A05C008F0076A066A056A05500B128C
:100B780006500C1207500D1208500E120950D8B426
:100B8800C8EF05F0CAEF05F0D2EF05F004BED1EFCB
:100B980005F0CFEF05F0D2EF05F00E8E0BC001F097
:100BA8000CC002F00DC003F00EC004F01200000EDD
:100BB800166E000E156E000E0F6E000E0E6EE7EF2D
:100BC80005F0084A092A010E146E08C0D9FF09C0A9
:100BD800DAFF200EDE18D8B4F4EF05F0F6EF05F0D2
:100BE80012EF06F0F70E0A6EFF0E0B6E08C0D9FF63
:100BF80009C0DAFFDF500C6E0D6A0A500C260B5044
:100C08000D220D5009E1050E0C5CD8A00EEF06F080
:100C180010EF06F012EF06F0000E146E14C010F07C
:100C2800116A10501110D8A41CEF06F01EEF06F040
:100C3800E5EF05F028EF06F0000E0F6E010E0E6EC0
:100C4800084A092A5DEF06F008C0D9FF09C0DAFF93
:100C5800DF500A6E0B6A0B50000AD8B436EF06F064
:100C68005DEF06F00A502B0AD8B424EF06F0060A06
:100C7800D8B420EF06F05DEF06F015C001F016C0FD
:100C880002F0000E046E0A0E036E92EC0DF008C01E
:100C9800D9FF09C0DAFFDF500A6E0A50015E000E64
:100CA800025A300E0124156E000E0220166E24EF33
:100CB80006F0D00E0A6EFF0E0B6E08C0D9FF09C0F1
:100CC800DAFFDF500C6E0D6A0A500C260B500D220D
:100CD8000D500AE10A0E0C5CD8A075EF06F078EF0B
:100CE80006F0010E79EF06F0000E126E136A12502C
:100CF8001310D8A482EF06F084EF06F041EF06F057
:100D08000E500F10D8A48BEF06F08DEF06F09BEF76
:100D180006F015C00AF016C00BF00A1E0B1E0A4A90
:100D28000B2A0AC008F00BC009F09FEF06F015C0A7
:100D380008F016C009F012000D6E000E106E000EBD
:100D48000F6E0D500F240E6E0F500924D96E1050DF
:100D58000A20DA6EDF50016E0E50F0EC0CF00F4AEC
:100D6800102A10BEC1EF06F0105009E1030E0F5C07
:100D7800D8A0C1EF06F0C3EF06F0A5EF06F0680EA5
:100D8800016E7F0E026E000E046E130E036E4AECA7
:100D98000CF0000E126E000E116E0D501124030F90
:100DA8000E6E115009240B6E12500A200C6E040EA0
:100DB8000B24D96E000E0C20DA6EDF50016E0E5037
:100DC800F0EC0CF0114A122A12BEF4EF06F01250A1
:100DD80009E1030E115CD8A0F4EF06F0F6EF06F077
:100DE800D1EF06F07C0E016E7F0E026E000E046ECF
:100DF800130E036E4AEC0CF0000E146E000E136E08
:100E08000D501324060F0E6E135009240B6E145048
:100E18000A200C6E080E0B24D96E000E0C20DA6E18
:100E2800DF50016E0E50F0EC0CF0134A142A14BE79
:100E380027EF07F0145009E1030E135CD8A027EF41
:100E480007F029EF07F004EF07F0900E016E7F0E10
:100E5800026E000E046E130E036E4AEC0CF01200C4
:100E6800086E530E0818D8A43CEF07F03EEF07F0C1
:100E780042EF07F0C7EC0DF044EF07F0B7EC0DF0C8
:100E880083908394000E0A6E000E096E000E0C6E9D
:100E9800000E0B6ECA849FEF07F00350095C0A50DE
:100EA800800A076E0450800A0758D8B05EEF07F032
:100EB80060EF07F077EF07F082A465EF07F067EFC0
:100EC80007F073EF07F009C001F00AC002F052EC16
:100ED8000DF001C009F002C00AF078EF07F0000E2B
:100EE800576E78EF07F0838005500B5C0C50800A32
:100EF800076E0650800A0758D8B085EF07F087EFCD
:100F080007F09EEF07F082A28CEF07F08EEF07F054
:100F18009AEF07F00BC001F00CC002F03AEC0DF0AC
:100F280001C00BF002C00CF09FEF07F0000E566EE8
:100F38009FEF07F083840350095C0A50800A076E0C
:100F48000450800A0758D8A0ACEF07F0AEEF07F0BE
:100F580051EF07F005500B5C0C50800A076E0650E5
:100F6800800A0758D8A0BBEF07F0BDEF07F051EF94
:100F780007F0000E576E000E0C6E000E0B6E000E82
:100F8800566ECA941200000E0A6E08BED0EF07F023
:100F9800CEEF07F0DAEF07F0081E071E061E056CF5
:100FA800000E062207220822010E0A6E04BEE1EF97
:100FB80007F0DFEF07F0EBEF07F0041E031E021E39
:100FC800016C000E022203220422010E0A1A000EEE
:100FD8000B6E000E0C6E000E0D6E000E0E6E0550A0
:100FE800061007100810D8B4FCEF07F0FEEF07F062
:100FF80034EF08F0010E096E08EF08F0D8900536B6
:10100800063607360836092A08AE0DEF08F00FEF46
:1010180008F002EF08F0D8900B360C360D360E3675
:101028000550015C065002580750035808500458F0
:10103800D8A021EF08F023EF08F02CEF08F00550B6
:10104800015E0650025A0750035A0850045A0B8092
:10105800D8900832073206320532092E0FEF08F011
:101068000A50D8B43AEF08F03CEF08F044EF08F023
:101078000E1E0D1E0C1E0B6C000E0C220D220E22D5
:101088000BC001F00CC002F00DC003F00EC004F05C
:1010980012002A342B34316E3150D8A456EF08F0A0
:1010A80058EF08F062EF08F0000E286E000E296E67
:1010B800000E2A6E000E2B6ECFEF08F028C02CF021
:1010C80029C02DF02AC02EF02BC02FF0200E72EF71
:1010D80008F0D8902F322E322D322C32E82E6DEFB8
:1010E80008F02C50306E2A8EFF0E2816FF0E291697
:1010F800FF0E2A16000E2B16960E315E31BE89EFB2
:1011080008F087EF08F09FEF08F03150800A970F3A
:10111800D8B091EF08F093EF08F095EF08F058EF8A
:1011280008F0D8902B322A3229322832313E95EFF6
:1011380008F0B7EF08F01F0E3164A5EF08F0A7EF2D
:1011480008F0AFEF08F058EF08F0D89028362936A5
:101158002A362B3631063150D8A4B5EF08F0B7EF50
:1011680008F0A9EF08F03050D8B4BDEF08F0BFEF91
:1011780008F0C7EF08F02B1E2A1E291E286C000E47
:1011880029222A222B2228C028F029C029F02AC087
:101198002AF02BC02BF012001A6E000E206E000EE3
:1011A8001F6E1A501F24060F1B6E1C0E1F24D96EAB
:1011B800000E2020DA6E1B50EEEC0DF0DF6E1F4A99
:1011C800202A20BEF1EF08F0205009E1030E1F5C31
:1011D800D8A0F1EF08F0F3EF08F0D5EF08F0000E13
:1011E800226E000E216E1C0E2124D96E000E2220C4
:1011F800DA6E2F0EDF6403EF09F005EF09F013EF45
:1012080009F01C0E2124D96E000E2220DA6E390E48
:10121800DF6411EF09F013EF09F015EF09F0010E83
:10122800506E214A222A22BE23EF09F0225009E1FA
:10123800030E215CD8A023EF09F025EF09F0F7EFA2
:1012480008F01C0E086E000E096EDBEC05F017C0E6
:10125800D9FF18C0DAFF08C0DEFF09C0DDFFC50EE0
:10126800016E7F0E026E000E046E0E0E036E4AECC7
:101278000CF01C0E016E000E026E000E046E030EC2
:10128800036E4AEC0CF058C001F059C002F022EC91
:101298000DF012001A6E000E206E000E1F6E1A500E
:1012A8001F24030F1B6E1C0E1F24D96E000E202056
:1012B800DA6E1B50EEEC0DF0DF6E1F4A202A20BEBE
:1012C8006FEF09F0205009E1030E1F5CD8A06FEF03
:1012D80009F071EF09F053EF09F0000E226E000ECD
:1012E800216E1C0E2124D96E000E2220DA6E2F0EDC
:1012F800DF6481EF09F083EF09F091EF09F01C0E2C
:101308002124D96E000E2220DA6E390EDF648FEFA9
:1013180009F091EF09F093EF09F0010E506E214AA0
:10132800222A22BEA1EF09F0225009E1030E215C16
:10133800D8A0A1EF09F0A3EF09F075EF09F01C0E92
:10134800086E000E096EDBEC05F017C0D9FF18C057
:10135800DAFF08C0DEFF09C0DDFFB60E016E7F0EA2
:10136800026E000E046E0E0E036E4AEC0CF01C0E9C
:10137800016E000E026E000E046E030E036E4AEC40
:101388000CF05AC001F05BC002F022EC0DF0120024
:101398001A6E000E206E000E1F6E1A501F241B6E50
:1013A8001C0E1F24D96E000E2020DA6E1B50EEECA6
:1013B8000DF0DF6E1F4A202A20BEECEF09F0205006
:1013C80009E1030E1F5CD8A0ECEF09F0EEEF09F07D
:1013D800D1EF09F0000E226E000E216E1C0E2124A2
:1013E800D96E000E2220DA6E2F0EDF64FEEF09F0B0
:1013F80000EF0AF00EEF0AF01C0E2124D96E000E41
:101408002220DA6E390EDF640CEF0AF00EEF0AF0D4
:1014180010EF0AF0010E506E214A222A22BE1EEF5A
:101428000AF0225009E1030E215CD8A01EEF0AF051
:1014380020EF0AF0F2EF09F01C0E086E000E096E9C
:10144800DBEC05F017C0D9FF18C0DAFF08C0DEFFD3
:1014580009C0DDFFD40E016E7F0E026E000E046E11
:101468000D0E036E4AEC0CF01C0E016E000E026E9F
:10147800000E046E030E036E4AEC0CF05CC001F023
:101488005DC002F022EC0DF01200000E216E000E7D
:10149800206E205017241B6E215018201C6E040E3D
:1014A8001B24D96E000E1C20DA6E1D0E2024E16E5E
:1014B800000E2120E26EDFCFE7FF204A212A21BE5D
:1014C8006FEF0AF0215009E1030E205CD8A06FEFFE
:1014D8000AF071EF0AF04DEF0AF0000E236E000ECD
:1014E800226E1D0E2224D96E000E2320DA6E2F0ED6
:1014F800DF6481EF0AF083EF0AF091EF0AF01D0E26
:101508002224D96E000E2320DA6E390EDF648FEFA5
:101518000AF091EF0AF093EF0AF0010E506E224A9A
:10152800232A23BEA1EF0AF0235009E1030E225C0F
:10153800D8A0A1EF0AF0A3EF0AF075EF0AF01D0E8C
:10154800086E000E096EDBEC05F019C0D9FF1AC051
:10155800DAFF08C0DEFF09C0DDFF1200000E206EB2
:10156800000E1F6E1F501724D96E20501820DA6EF7
:101578001C0E1F24E16E000E2020E26EDFCFE7FF75
:101588001F4A202A20BED2EF0AF0205009E1030E9C
:101598001F5CD8A0D2EF0AF0D4EF0AF0B6EF0AF039
:1015A800000E226E000E216E1C0E2124D96E000E34
:1015B8002220DA6E2F0EDF64E4EF0AF0E6EF0AF07D
:1015C800F4EF0AF01C0E2124D96E000E2220DA6EE8
:1015D800390EDF64F2EF0AF0F4EF0AF0F6EF0AF0E2
:1015E800010E506E214A222A22BE04EF0BF022502F
:1015F80009E1030E215CD8A004EF0BF006EF0BF015
:10160800D8EF0AF01C0E086E000E096EDBEC05F030
:1016180019C0D9FF1AC0DAFF08C0DEFF09C0DDFF14
:1016280012004150015C0250800A036E4250800A49
:101638000358D8B022EF0BF024EF0BF02EEF0BF08D
:1016480083960150415C0001776F02504258786FD1
:1016580058EF0BF00150415C4250800A036E025073
:10166800800A0358D8B03BEF0BF03DEF0BF047EF83
:101678000BF083864150015C0001776F425002589D
:10168800786F58EF0BF04150011807E142500218EB
:10169800D8A451EF0BF053EF0BF058EF0BF0000EFE
:1016A8000001786F000E776F12004350015C025002
:1016B800800A036E4450800A0358D8B066EF0BF0D6
:1016C80068EF0BF071EF0BF083920150435C456EAD
:1016D80002504458466E99EF0BF00150435C445059
:1016E800800A036E0250800A0358D8B07EEF0BF0D0
:1016F80080EF0BF089EF0BF083824350015C456E5D
:1017080044500258466E99EF0BF04350011807E118
:1017180044500218D8A493EF0BF095EF0BF099EF13
:101728000BF0000E466E000E456E12003C6E38C07F
:1017380001F039C002F059EC0BF03AC001F03BC09F
:1017480002F015EC0BF045C032F046C033F0D9EC8E
:101758000BF032C049F033C04AF077C032F078C09D
:1017680033F0D9EC0BF032C047F033C048F038C042
:1017780043F039C044F03AC041F03BC042F049C0A0
:1017880003F04AC004F047C005F048C006F03C50DA
:1017980034EC07F0E20E016E7F0E026E000E046E4E
:1017A8000A0E036E4AEC0CF01200CD0E346ECC0E0D
:1017B800356E4C0E366E3E0E376E34C013F035C0A3
:1017C80014F036C015F037C016F032C001F033C03F
:1017D80002F0000E02BEFF0E036E046E010E01EC55
:1017E80005F001C00FF002C010F003C011F004C0F2
:1017F80012F002EC02F00FC028F010C029F011C05E
:101808002AF012C02BF04DEC08F028C04BF029C08C
:101818004CF04BC032F04CC033F01200949C948EC4
:101828000FC005F010C006F011C007F012C008F094
:10183800000E016E120E026E7A0E036E000E046E1A
:10184800C7EC07F001C013F002C014F003C015F094
:1018580004C016F013C001F014C002F015C003F064
:1018680016C004F0400E056E000E066E000E076EE0
:10187800000E086EC7EC07F00104AF6EAC94AC988C
:10188800AB8EAC9CAC8AAB9CAB881200000E086E89
:10189800000E076E70EF0CF09EA855EF0CF057EF96
:1018A8000CF050EF0CF007500124056E0850022090
:1018B800066E05C0F6FF06C0F7FFF86A070EF76464
:1018C80003D00800F55005D0F6CFE9FFF7CFEAFFBF
:1018D800EF50AD6E074A082A0350075C0850800A8B
:1018E800056E0450800A0558D8A07DEF0CF07FEFF4
:1018F8000CF050EF0CF01200066E000E086E000E91
:10190800076E98EF0CF09EAA8CEF0CF08EEF0CF09F
:1019180087EF0CF007500124D96E08500220DA6EC8
:10192800AECFDFFF074A082A0650036E046A035049
:10193800075C0850800A056E0450800A0558D8A034
:10194800A8EF0CF0AAEF0CF087EF0CF01200010ED4
:10195800076E200E01180210D8B4B5EF0CF0B7EFDF
:101968000CF0D0EF0CF0F70E036EFF0E046E01C002
:1019780005F002C006F00350052604500622065062
:1019880009E1050E055CD8A0CCEF0CF0CEEF0CF009
:10199800D0EF0CF0000E076E07C001F0026A1200CB
:1019A800D00E036EFF0E046E01C005F002C006F0F3
:1019B800035005260450062206500AE10A0E055C6B
:1019C800D8A0E9EF0CF0ECEF0CF0010EEDEF0CF005
:1019D800000E016E026A1200026E02C0A9FF01C069
:1019E800A8FFA69EA69CA684F29E550EA76EAA0ED8
:1019F800A76EA682F28EA1A804EF0DF006EF0DF0F7
:101A0800FFEF0CF0A198A69412008B80020E0A6ECC
:101A1800040E096EBA0EE82EFED7092EFCD70A2E40
:101A2800FAD700D08B90F70E016E7F0E026E000E73
:101A3800046E060E036E4AEC0CF0120002BE30EF84
:101A48000DF02D0E015C010E0258D8B02EEF0DF0EE
:101A580030EF0DF037EF0DF002BE37EF0DF035EF38
:101A68000DF039EF0DF0010E516E120082A23FEF1A
:101A78000DF041EF0DF04DEF0DF05650D8A447EFA3
:101A88000DF049EF0DF04DEF0DF0014A022A010E5D
:101A9800566E01C001F002C002F0120082A457EF96
:101AA8000DF059EF0DF065EF0DF05750D8A45FEF2A
:101AB8000DF061EF0DF065EF0DF0014A022A010EFD
:101AC800576E01C001F002C002F0120081B46FEF3E
:101AD8000DF071EF0DF07EEF0DF04F50D8A477EFB9
:101AE8000DF079EF0DF07EEF0DF00001714B722BC8
:101AF800010E4F6E120000EE60F02D0EEE6AE80641
:101B0800FDE100EE41F01D0EEE6AE806FDE15E9093
:101B18005E92000EF86E000109EF00F0015003021A
:101B2800F3CF05F0F4CF06F001500402F350062677
:101B380002500302F350062605C001F006C002F069
:101B480012000600838281B4ACEF0DF0AEEF0DF009
:101B5800B1EF0DF06AEC0DF0F092000E4F6E83922B
:101B6800F0925E9211007C0ECB6E3E0EBE6E3E0E63
:101B7800BB6E94929494030ECA6E0C0EBD6E0C0E3E
:101B8800BA6ECA941200CB683E0EBE6E3E0EBB6E95
:101B980094929494030ECA6E0C0EBD6E0C0EBA6E1F
:101BA800CA9412008B90ED0E016E7F0E026E000E2D
:101BB800046E090E036E4AEC0CF012008B80ED0ED9
:101BC800016E7F0E026E000E046E090E036E4AEC63
:101BD8000CF01200016E01C0A9FFA69EA69CA6806B
:101BE800A8CF53F0535012009EAAFDEF0DF0FFEF5F
:0A1BF8000DF0F8EF0DF0AE501200F2
:107C54000000000000DCCFD1350000000000C0159A
:107C64003F6042A20D70A5EC363BAAB83F4F387670
:107C74003F3CAA38338CBEBF350072313F18723195
:107C84003F4CBB31330EEADDB555B38A38610B3650
:107C9400BBABAA2A3E42F1533E55326C3E05A38B40
:107CA4003EABAAAA3EB76DDB3E9A99193F6042A249
:107CB4000DCAF249710000804B0000803F0000C0F3
:107CC4003F00AAB83FC623F6B80040763F504C4563
:107CD40041534520494E5345525420544845204968
:107CE4004E535452554354494F4E204F462053450A
:107CF40054504F494E540A00504C45415345204D71
:107D04004F444946592054484520534554504F49FF
:107D14004E5420414E442054525920414741494E2B
:107D24000A004552524F5220434F5244494E415447
:107D34004553204F555453494445205448452052F7
:107D4400414E47450A004552524F52204341524149
:107D5400435445525320494E4752455345442057B6
:107D6400524F4E470A00434F4F5244494E415445E7
:107D7400204F4620534554504F494E542031303AF9
:107D84000A00434F4F5244494E415445204F462028
:107D9400534554504F494E542031313A0A00434F11
:107DA4004F5244494E415445204F46205345545068
:107DB4004F494E542031323A0A00434F4F524449FE
:107DC4004E415445204F4620534554504F494E543C
:107DD4002031333A0A00434F4F5244494E415445EF
:107DE400204F4620534554504F494E542031343A85
:107DF4000A00434F4F5244494E415445204F4620B8
:107E0400534554504F494E542031353A0A00434F9C
:107E14004F5244494E415445204F462053455450F7
:107E24004F494E5420303A0A00434F4F5244494E72
:107E3400415445204F4620534554504F494E5420F9
:107E4400313A0A00434F4F5244494E415445204F62
:107E54004620534554504F494E5420323A0A004369
:107E64004F4F5244494E415445204F4620534554A8
:107E7400504F494E5420333A0A00434F4F5244491D
:107E84004E415445204F4620534554504F494E547B
:107E940020343A0A00434F4F5244494E415445203E
:107EA4004F4620534554504F494E5420353A0A000A
:107EB400434F4F5244494E415445204F4620534569
:107EC40054504F494E5420363A0A00434F4F5244BF
:107ED400494E415445204F4620534554504F494E36
:107EE4005420373A0A00434F4F5244494E415445B7
:107EF400204F4620534554504F494E5420383A0A97
:107F040000434F4F5244494E415445204F4620535D
:107F14004554504F494E5420393A0A005741495468
:107F2400494E4720464F5220494E535452554354CC
:107F3400494F4E0A005741495420554E54494C204C
:107F4400434F4D504C4554452E2E2E0A005741495F
:107F54005420554E54494C20434F4D504C455445A4
:107F64002E2E2E00434F4F5244494E415445205823
:107F74002053415645440A00434F4F5244494E4111
:107F8400544520592053415645440A00434F4F520B
:107F940044494E415445205A2053415645440A0011
:107FA40057454C434F4D4520544F20535041524365
:107FB4000A000A434F4F5244494E41544520593A0E
:107FC400000A434F4F5244494E415445205A3A0007
:107FD400434F4F5244494E41544520583A00434F71
:107FE4004D504C455445440A00434F4D504C455464
:0B7FF400450A00544F5543480A0000A6
:020000040020DA
:08000000FFFFFFFFFFFFFFFF00
:020000040030CA
:0E00000000081F1EFF8181FF0FC00FE00F40A0
:00000001FF
