:020000040000FA
:0400000007EF00F016
:100008005F825DED32F0BEEF35F0DCC0B8F1DDC0E7
:10001800B9F1DEC0BAF1DFC0BBF1B8C160F1B9C156
:1000280061F1BAC162F1BBC163F1E0C0B8F1E1C0EE
:10003800B9F1E2C0BAF1E3C0BBF1B8C184F1B9C10A
:1000480085F1BAC186F1BBC187F1FF0E01016015C8
:10005800A86FFF0E6115A96FFF0E6215AA6F7F0EBC
:100068006315AB6FFF0E8415986FFF0E8515996F9A
:10007800FF0E86159A6F7F0E87159B6F9851991101
:100088009A119B11D8A44BEF00F04DEF00F058EFF8
:1000980000F0000E0001DC6F000EDD6F800EDE6FD9
:1000A8003F0EDF6F3CEF15F0800E621909E13F0E3D
:1000B800631960116111D8A464EF00F066EF00F0D5
:1000C80071EF00F0000E0001DC6F000EDD6F800E96
:1000D800DE6F3F0EDF6F3CEF15F0ABBF82EF00F035
:1000E800A805000EA959800EAA597F0EAB59D8B0A1
:1000F80080EF00F082EF00F093EF00F09BBF91EFEC
:1001080000F09805000E9959800E9A597F0E9B5958
:10011800D8A091EF00F093EF00F0AFEF00F0DCC053
:1001280087F0DDC088F0DEC089F0DFC08AF0E0C06B
:100138008BF0E1C08CF0E2C08DF0E3C08EF064EC8F
:1001480018F087C0DCF088C0DDF089C0DEF08AC016
:10015800DFF03CEF15F0000E506F000E516F000EEF
:10016800526F000E536F63BFBEEF00F0BCEF00F09C
:100178008AEF01F09BBFCAEF00F0800E9A5D4B0E2C
:100188009B59D8A0CAEF00F0CCEF00F0D6EF00F0F2
:10019800020E506F000E516F000E526F000E536F1B
:1001A8008AEF01F09BBFE2EF00F0800E9A5D3F0EF0
:1001B8009B59D8A0E2EF00F0E4EF00F08AEF01F0DD
:1001C800170E0001E46F98C1E5F099C1E6F09AC1F5
:1001D800E7F09BC1E8F0E467F4EF00F0FCEF00F013
:1001E800E835E833E733E633E533E42FEFEF00F0A3
:1001F800810E0001E5250101A06FFF0E0001E62137
:100208000101A16FFF0E0001E7210101A26FFF0E9E
:100218000001E8210101A36FA05117080001E46F54
:1002280098C1E5F099C1E6F09AC1E7F09BC1E8F002
:10023800E46721EF01F029EF01F0E835E833E7330F
:10024800E633E533E42F1CEF01F0E5C0ACF1E6C07E
:10025800ADF1E7C0AEF1E8C0AFF10101A051170858
:100268000001E46FACC1E5F0ADC1E6F0AEC1E7F066
:10027800AFC1E8F0E42B46EF01F0D890E537E63758
:10028800E737E837E42F41EF01F001019851000109
:10029800E51913E1010199510001E6190EE1010187
:1002A8009A510001E71909E101019B510001E81980
:1002B800D8A461EF01F063EF01F08AEF01F0010EBD
:1002C8000101AC150001E46F000E0101AD1500013C
:1002D800E56F000E0101AE150001E66F000E010189
:1002E800AF150001E76FE45102080101506F000EDD
:1002F8000001E5550101516F000E0001E6550101AD
:10030800526F000E0001E7550101536F800E010185
:100318009A1909E17F0E9B1998119911D8A497EFA2
:1003280001F099EF01F005EF02F0800EAA1909E13A
:100338003F0EAB19A811A911D8A4A5EF01F0A7EF9A
:1003480001F0B2EF01F0000E0001DC6F000EDD6F6E
:10035800800EDE6F3F0EDF6F3CEF15F0ABBFC1EFD5
:1003680001F0A805000EA959800EAA593F0EAB59F5
:10037800D8A0C1EF01F0C3EF01F0DFEF01F087BFB4
:10038800CAEF01F0C8EF01F0D5EF01F0000E00014F
:10039800DC6F000EDD6F000EDE6F000EDF6F3CEFCE
:1003A80015F0E0C0DCF0E1C0DDF0E2C0DEF0E3C053
:1003B800DFF03CEF15F087BFE6EF01F0E4EF01F066
:1003C800FAEF01F0E0C060F0E1C061F0E2C062F075
:1003D800E3C063F0D4EC34F060C0DCF061C0DDF061
:1003E80062C0DEF063C0DFF03CEF15F0000E0001E4
:1003F800DC6F000EDD6F000EDE6F000EDF6F3CEF6E
:1004080015F0800E9A1909E13F0E9B199811991160
:10041800D8A411EF02F013EF02F041EF02F087BF0A
:100428001AEF02F018EF02F037EF02F0000E0001A9
:100438009F6F000EA06F800EA16F3F0EA26FDCC0F1
:10044800A3F0DDC0A4F0DEC0A5F0DFC0A6F03BEC51
:100458001FF09FC0DCF0A0C0DDF0A1C0DEF0A2C09C
:10046800DFF03CEF15F0DCC0DCF0DDC0DDF0DEC015
:10047800DEF0DFC0DFF03CEF15F0400E8719841185
:1004880085118611D8A44BEF02F04DEF02F069EF09
:1004980002F0DCC06EF0DDC06FF0DEC070F0DFC0CF
:1004A80071F0DCC072F0DDC073F0DEC074F0DFC044
:1004B80075F025EC1DF06EC0DCF06FC0DDF070C08B
:1004C800DEF071C0DFF03CEF15F03F0E87198411A4
:1004D80085118611D8A473EF02F075EF02F090EF42
:1004E80002F063BF7AEF02F07CEF02F090EF02F0C7
:1004F800DCC0ABF0DDC0ACF0DEC0ADF0DFC0AEF00C
:10050800C5EC1AF0ABC0DCF0ACC0DDF0ADC0DEF07D
:10051800AEC0DFF03CEF15F0DCC060F0DDC061F08C
:10052800DEC062F0DFC063F00DEC35F060C070F142
:1005380061C071F162C072F163C073F1800E010194
:10054800AA190BE17F0EAB19A811A911D8B4AFEF06
:1005580002F0B1EF02F0CAEF02F0A851A911AA11F6
:10056800AB11D8B4BAEF02F0BCEF02F0CAEF02F058
:10057800800EAA1909E13F0EAB19A811A911D8A438
:10058800C8EF02F0CAEF02F096EF03F070C1B4F1C1
:1005980071C1B5F172C1B6F173C1B7F187BFD9EFB7
:1005A80002F0D7EF02F0F4EF02F0000E00019F6FA7
:1005B800000EA06F800EA16F3F0EA26FB4C1A3F012
:1005C800B5C1A4F0B6C1A5F0B7C1A6F03BEC1FF0C9
:1005D8009FC0B4F1A0C0B5F1A1C0B6F1A2C0B7F1F7
:1005E800010163BFFCEF02F0FAEF02F08CEF03F0B9
:1005F800000EA8250001E46F000E0101A9210001E9
:10060800E56F800E0101AA210001E66FC00E01010D
:10061800AB210001E76F010150510001E411E86FBF
:10062800010151510001E511E96F01015251000129
:10063800E611EA6F010153510001E711EB6FE85130
:10064800E911EA11EB11D8A42CEF03F02EEF03F017
:100658006EEF03F0B4C19BF0B5C19CF0B6C19DF03C
:10066800B7C19EF0B4C197F0B5C198F0B6C199F082
:10067800B7C19AF0C1EC33F097C09FF098C0A0F0D2
:1006880099C0A1F09AC0A2F0B4C19BF0B5C19CF08A
:10069800B6C19DF0B7C19EF0B4C197F0B5C198F04E
:1006A800B6C199F0B7C19AF0C1EC33F097C0A3F086
:1006B80098C0A4F099C0A5F09AC0A6F03BEC1FF032
:1006C8009FC0B4F1A0C0B5F1A1C0B6F1A2C0B7F106
:1006D8008CEF03F001015005511152115311D8A4A8
:1006E80078EF03F07AEF03F08CEF03F0B4C160F019
:1006F800B5C161F0B6C162F0B7C163F0D4EC34F0B3
:1007080060C0B4F161C0B5F162C0B6F163C0B7F1C1
:10071800B4C1DCF0B5C1DDF0B6C1DEF0B7C1DFF0C1
:100728003CEF15F0000E886F000E896F800E8A6FFF
:100738003F0E8B6F63BFA5EF03F0A3EF03F003EF4A
:1007480004F05051511152115311D8A4AEEF03F0D7
:10075800B0EF03F0F0EF03F0DCC09BF0DDC09CF0DD
:10076800DEC09DF0DFC09EF0DCC097F0DDC098F0E1
:10077800DEC099F0DFC09AF0C1EC33F097C09FF06B
:1007880098C0A0F099C0A1F09AC0A2F0DCC09BF07C
:10079800DDC09CF0DEC09DF0DFC09EF0DCC097F0AD
:1007A800DDC098F0DEC099F0DFC09AF0C1EC33F0FC
:1007B80097C0A3F098C0A4F099C0A5F09AC0A6F07D
:1007C8003BEC1FF09FC0DCF0A0C0DDF0A1C0DEF064
:1007D800A2C0DFF03CEF15F0500551115211531132
:1007E800D8A4F9EF03F0FBEF03F003EF04F0000ED9
:1007F800886F000E896F800E8A6FBF0E8B6F9BBF4C
:1008080012EF04F09805000E9959000E9A594D0EF2
:100818009B59D8A012EF04F014EF04F0A8EF06F0EB
:10082800ABBF26EF04F0F80EA85DFF0EA9597F0EA6
:10083800AA593F0EAB59D8B024EF04F026EF04F0C4
:100848009DEF04F087BF2BEF04F02DEF04F065EF68
:1008580004F0600E0001726F420E736FA20E746F87
:100868000D0E756F88C16EF089C16FF08AC170F086
:100878008BC171F025EC1DF06EC0A4F16FC0A5F11D
:1008880070C0A6F171C0A7F1A4C16EF0A5C16FF048
:10089800A6C170F0A7C171F0600E0001726F420E20
:1008A800736FA20E746F0D0E756F25EC1DF06EC080
:1008B800DCF06FC0DDF070C0DEF071C0DFF03CEF3F
:1008C80015F0CA0E0001726FF20E736F490E746F45
:1008D800710E756F88C16EF089C16FF08AC170F0B2
:1008E8008BC171F025EC1DF06EC0A4F16FC0A5F1AD
:1008F80070C0A6F171C0A7F1A4C16EF0A5C16FF0D8
:10090800A6C170F0A7C171F0CA0E0001726FF20E95
:10091800736F490E746F710E756F25EC1DF06EC004
:10092800DCF06FC0DDF070C0DEF071C0DFF03CEFCE
:1009380015F0ABBFADEF04F0080EA85D000EA95985
:10094800800EAA593F0EAB59D8A0ADEF04F0AFEF17
:1009580004F02EEF05F087BFBEEF04F08751861133
:10096800851106E18405D8B0BCEF04F0BEEF04F0B1
:10097800F6EF04F0600E0001726F420E736FA20E64
:10098800746F0D0E756F88C16EF089C16FF08AC1E2
:1009980070F08BC171F025EC1DF06EC0A4F16FC032
:1009A800A5F170C0A6F171C0A7F1A4C16EF0A5C1F0
:1009B8006FF0A6C170F0A7C171F0600E0001726FF0
:1009C800420E736FA20E746F0D0E756F25EC1DF03D
:1009D8006EC0DCF06FC0DDF070C0DEF071C0DFF01B
:1009E8003CEF15F0CA0E0001726FF20E736F490EDC
:1009F800746F710E756F88C16EF089C16FF08AC10E
:100A080070F08BC171F025EC1DF06EC0A4F16FC0C1
:100A1800A5F170C0A6F171C0A7F1A4C16EF0A5C17F
:100A28006FF0A6C170F0A7C171F0CA0E0001726F15
:100A3800F20E736F490E746F710E756F25EC1DF011
:100A48006EC0DCF06FC0DDF070C0DEF071C0DFF0AA
:100A58003CEF15F070C187F071C188F072C189F060
:100A680073C18AF0000E00018B6F000E8C6F800E30
:100A78008D6FBF0E8E6F64EC18F087C0B0F188C020
:100A8800B1F189C0B2F18AC0B3F1000E0001726FF2
:100A9800000E736F800E746F3E0E756FB0C16EF0EE
:100AA800B1C16FF0B2C170F0B3C171F025EC1DF0A7
:100AB8006EC09BF06FC09CF070C09DF071C09EF03E
:100AC800AB0E0001976FAA0E986FAA0E996F3E0E93
:100AD8009A6FC1EC33F097C0A4F198C0A5F199C002
:100AE800A6F19AC0A7F1B0C172F0B1C173F0B2C15A
:100AF80074F0B3C175F0B0C16EF0B1C16FF0B2C19E
:100B080070F0B3C171F025EC1DF06EC054F16FC0E8
:100B180055F170C056F171C057F1B0C172F0B1C152
:100B280073F0B2C174F0B3C175F0A4C16EF0A5C181
:100B38006FF0A6C170F0A7C171F025EC1DF06EC072
:100B48009BF06FC09CF070C09DF071C09EF0000ECD
:100B58000001976F000E986F000E996F3F0E9A6F05
:100B6800C1EC33F097C048F198C049F199C04AF1F7
:100B78009AC04BF154C16EF055C16FF056C170F078
:100B880057C171F048C172F049C173F04AC174F09D
:100B98004BC175F025EC1DF06EC044F16FC045F1F6
:100BA80070C046F171C047F1B0C16EF0B1C16FF0CD
:100BB800B2C170F0B3C171F0000E0001726FAA0EDD
:100BC800736FB80E746F3F0E756F25EC1DF06EC015
:100BD80074F16FC075F170C076F171C077F1700E65
:100BE8000001726FA50E736FEC0E746F360E756F81
:100BF800B0C16EF0B1C16FF0B2C170F0B3C171F0A5
:100C080025EC1DF06EC097F06FC098F070C099F099
:100C180071C09AF03B0E0001726FAA0E736FB80E86
:100C2800746F3F0E756F44C16EF045C16FF046C1D9
:100C380070F047C171F025EC1DF06EC09BF06FC0DD
:100C48009CF070C09DF071C09EF0C1EC33F097C06D
:100C580078F198C079F199C07AF19AC07BF174C1A2
:100C680087F075C188F076C189F077C18AF078C1BC
:100C78008BF079C18CF07AC18DF07BC18EF064EC79
:100C880018F087C080F188C081F189C082F18AC0DC
:100C980083F180C1B8F181C1B9F182C1BAF183C1D0
:100CA800BBF1B8C190F1B9C191F1BAC192F1BBC120
:100CB80093F1000E01019015B86FF00E9115B96F00
:100CC800FF0E9215BA6FFF0E9315BB6FB8C180F176
:100CD800B9C181F1BAC182F1BBC183F174C19BF082
:100CE80075C19CF076C19DF077C19EF080C197F0E8
:100CF80081C198F082C199F083C19AF0C1EC33F0B8
:100D080097C094F198C095F199C096F19AC097F15F
:100D180078C197F079C198F07AC199F07BC19AF0BF
:100D280094C19BF095C19CF096C19DF097C19EF02F
:100D3800C1EC33F097C01CF198C01DF199C01EF1A9
:100D48009AC01FF121EF0EF0000E7C6F000E7D6F30
:100D5800000E7E6F000E7F6FABBFBEEF06F0AB518B
:100D680007E1800EAA5DD8B0BCEF06F0BEEF06F032
:100D7800F2EF06F070C16EF071C16FF072C170F0E1
:100D880073C171F0000E0001726F000E736F800E58
:100D9800746F4B0E756F25EC1DF06EC070F16FC04F
:100DA80071F170C072F171C073F1E80E01017C2716
:100DB800FF0E7D23FF0E7E23FF0E7F2370C1B8F147
:100DC80071C1B9F172C1BAF173C1BBF1B8C1A8F16F
:100DD800B9C1A9F1BAC1AAF1BBC1ABF1170E0001A3
:100DE800E46FA8C1E5F0A9C1E6F0AAC1E7F0ABC17C
:100DF800E8F0E46702EF07F00AEF07F0E835E833B8
:100E0800E733E633E533E42FFDEF06F0810E00010A
:100E1800E525E96FFF0EE621EA6FFF0EE721EB6F8C
:100E2800FF0EE821EC6FE95101017C270001EA512E
:100E380001017D230001EB5101017E230001EC51EA
:100E480001017F23FF0EA815AC6FFF0EA915AD6F2A
:100E58007F0EAA15AE6F000EAB15AF6F000EAC116A
:100E6800A86F000EAD11A96F800EAE11AA6F3F0ECC
:100E7800AF11AB6FAFBF50EF07F0AF510BE1720E80
:100E8800AC5DC40EAD591C0EAE59D8B04EEF07F08C
:100E980050EF07F05AEF07F0000EA06F000EA16F99
:100EA800000EA26F000EA36F8CEF07F0AFBF6CEFC0
:100EB80007F0AF510BE1D70EAC5DB30EAD595D0E27
:100EC800AE59D8B06AEF07F06CEF07F076EF07F08D
:100ED800010EA06F000EA16F000EA26F000EA36F8F
:100EE8008CEF07F0000EA06F000EA16F000EA26F2E
:100EF800000EA36F010E7C27000E7D237E237F2327
:100F0800000EA827000EA923800EAA23FF0EAB23EC
:100F1800A8C1B8F1A9C1B9F1AAC1BAF1ABC1BBF175
:100F2800B8C170F1B9C171F1BAC172F1BBC173F145
:100F380070C197F071C198F072C199F073C19AF0BD
:100F4800A0C1E4F0A1C1E5F00001D890E437E5378D
:100F5800D890E437E537690EE425F66E7F0EE52173
:100F6800F76E0900F5CF9BF00900F5CF9CF009005A
:100F7800F5CF9DF00A00F5CF9EF0C1EC33F097C095
:100F880074F198C075F199C076F19AC077F1000EA6
:100F980000019F6F000EA06F800EA16F3F0EA26F21
:100FA80070C18BF071C18CF072C18DF073C18EF07D
:100FB800A0C1E4F0A1C1E5F0D890E437E537D890B6
:100FC800E437E537690EE425F66E7F0EE521F76E06
:100FD8000900F5CF87F00900F5CF88F00900F5CFB3
:100FE80089F00A00F5CF8AF064EC18F087C0A3F006
:100FF80088C0A4F089C0A5F08AC0A6F03BEC1FF019
:101008009FC078F1A0C079F1A1C07AF1A2C07BF1AC
:1010180074C16EF075C16FF076C170F077C171F070
:1010280078C172F079C173F07AC174F07BC175F040
:1010380025EC1DF06EC05CF16FC05DF170C05EF113
:1010480071C05FF15CC16CF15DC16DF15EC16EF1A3
:101058005FC16FF16CC1B8F16DC1B9F16EC1BAF180
:101068006FC1BBF1B8C190F1B9C191F1BAC192F1A8
:10107800BBC193F1000E01019015B86FF00E9115E8
:10108800B96FFF0E9215BA6FFF0E9315BB6FB8C1FB
:101098006CF1B9C16DF1BAC16EF1BBC16FF1A8C1F4
:1010A800E4F0A9C1E5F0AAC1E6F0ABC1E7F00001A0
:1010B800E735E733E633E533E433000EE415E86F4C
:1010C800F00EE515E96FFF0EE615EA6FFF0EE7155E
:1010D800EB6F000EE8110101906F000E0001E9119D
:1010E8000101916F000E0001EA110101926F200EBB
:1010F8000001EB110101936FA0C1E4F0A1C1E5F07B
:10110800A2C1E6F0A3C1E7F0150ED8900001E437BC
:10111800E537E637E737E82E89EF08F00101905107
:101128000001E425E86F010191510001E521E96F13
:10113800010192510001E621EA6F0101935100017A
:10114800E721EB6F000EE8250101B86F000E0001E2
:10115800E9210101B96F400E0001EA210101BA6FCE
:10116800000E0001EB210101BB6FB8C168F1B9C1E4
:1011780069F1BAC16AF1BBC16BF1A0C1E4F0A1C1C8
:10118800E5F00001D890E437E537D890E437E53743
:10119800690EE425F66E7F0EE521F76E0900F5CF9E
:1011A8009BF00900F5CF9CF00900F5CF9DF00A00EF
:1011B800F5CF9EF068C197F069C198F06AC199F0BF
:1011C8006BC19AF0C1EC33F097C094F198C095F1D7
:1011D80099C096F19AC097F170C197F071C198F0D3
:1011E80072C199F073C19AF094C19BF095C19CF0BB
:1011F80096C19DF097C19EF0C1EC33F097C034F1D1
:1012080098C035F199C036F19AC037F168C172F0CB
:1012180069C173F06AC174F06BC175F06CC16EF08E
:101228006DC16FF06EC170F06FC171F025EC1DF0EB
:101238006EC09BF06FC09CF070C09DF071C09EF0B6
:1012480074C197F075C198F076C199F077C19AF09A
:10125800C1EC33F097C094F198C095F199C096F11C
:101268009AC097F134C172F035C173F036C174F089
:1012780037C175F06CC16EF06DC16FF06EC170F062
:101288006FC171F025EC1DF06EC09BF06FC09CF033
:1012980070C09DF071C09EF094C197F095C198F010
:1012A80096C199F097C19AF0C1EC33F097C054F108
:1012B80098C055F199C056F19AC057F154C16EF0D3
:1012C80055C16FF056C170F057C171F078C172F016
:1012D80079C173F07AC174F07BC175F025EC1DF00B
:1012E8006EC030F16FC031F170C032F171C033F1AE
:1012F8005CC16EF05DC16FF05EC170F05FC171F0EE
:101308005CC172F05DC173F05EC174F05FC175F0CD
:1013180025EC1DF06EC08CF16FC08DF170C08EF1A0
:1013280071C08FF1550E00018B6F320E8C6F6C0EF1
:101338008D6F3E0E8E6F420E726FF10E736F530EED
:10134800746F3E0E756F8CC16EF08DC16FF08EC1DB
:1013580070F08FC171F025EC1DF06EC087F06FC082
:1013680088F070C089F071C08AF064EC18F087C00A
:10137800A4F188C0A5F189C0A6F18AC0A7F1050E1D
:1013880000018B6FA30E8C6F8B0E8D6F3E0E8E6FD0
:101398008CC172F08DC173F08EC174F08FC175F07D
:1013A800A4C16EF0A5C16FF0A6C170F0A7C171F01D
:1013B80025EC1DF06EC087F06FC088F070C089F012
:1013C80071C08AF064EC18F087C054F188C055F1F8
:1013D80089C056F18AC057F1AB0E00018B6FAA0E77
:1013E8008C6FAA0E8D6F3E0E8E6F8CC172F08DC100
:1013F80073F08EC174F08FC175F054C16EF055C191
:101408006FF056C170F057C171F025EC1DF06EC039
:1014180087F06FC088F070C089F071C08AF064EC02
:1014280018F087C048F188C049F189C04AF18AC0DC
:101438004BF1B70E00018B6F6D0E8C6FDB0E8D6F4D
:101448003E0E8E6F8CC172F08DC173F08EC174F038
:101458008FC175F048C16EF049C16FF04AC170F094
:101468004BC171F025EC1DF06EC087F06FC088F09D
:1014780070C089F071C08AF064EC18F087C038F148
:1014880088C039F189C03AF18AC03BF19A0E00014F
:101498008B6F990E8C6F190E8D6F3F0E8E6F8CC1EE
:1014A80072F08DC173F08EC174F08FC175F038C1C0
:1014B8006EF039C16FF03AC170F03BC171F025ECA4
:1014C8001DF06EC087F06FC088F070C089F071C0E1
:1014D8008AF064EC18F087C000F188C001F189C077
:1014E80002F18AC003F18CC172F08DC173F08EC114
:1014F80074F08FC175F08CC16EF08DC16FF08EC124
:1015080070F08FC171F025EC1DF06EC004F16FC052
:1015180005F170C006F171C007F100C16EF001C19C
:101528006FF002C170F003C171F004C172F005C11F
:1015380073F006C174F007C175F025EC1DF06EC09C
:101548004CF16FC04DF170C04EF171C04FF130C118
:1015580072F031C173F032C174F033C175F05CC1FF
:101568008BF05DC18CF05EC18DF05FC18EF06CC1F7
:1015780087F06DC188F06EC189F06FC18AF064ECA4
:1015880018F087C06EF088C06FF089C070F08AC00C
:1015980071F025EC1DF06EC058F16FC059F170C0A4
:1015A8005AF171C05BF14CC187F04DC188F04EC152
:1015B80089F04FC18AF058C18BF059C18CF05AC1DB
:1015C8008DF05BC18EF064EC18F087C04CF188C0D8
:1015D8004DF189C04EF18AC04FF16CC16EF06DC1FA
:1015E8006FF06EC170F06FC171F06CC172F06DC1B7
:1015F80073F06EC174F06FC175F025EC1DF06EC00C
:101608008CF16FC08DF170C08EF171C08FF1000E3A
:1016180000018B6F000E8C6F400E8D6F400E8E6F29
:101628008CC187F08DC188F08EC189F08FC18AF096
:1016380064EC18F087C058F188C059F189C05AF194
:101648008AC05BF158C187F059C188F05AC189F046
:101658005BC18AF04CC18BF04DC18CF04EC18DF04E
:101668004FC18EF064EC18F087C068F188C069F14A
:1016780089C06AF18AC06BF168C1B8F169C1B9F172
:101688006AC1BAF16BC1BBF1B8C190F1B9C191F1AE
:10169800BAC192F1BBC193F1000E01019015B86F68
:1016A800F00E9115B96FFF0E9215BA6FFF0E9315D4
:1016B800BB6FB8C168F1B9C169F1BAC16AF1BBC100
:1016C8006BF1000E00018B6F000E8C6F400E8D6F5A
:1016D800C00E8E6F68C187F069C188F06AC189F051
:1016E8006BC18AF064EC18F087C03CF188C03DF10A
:1016F80089C03EF18AC03FF18CC19BF08DC19CF03E
:101708008EC19DF08FC19EF03CC197F03DC198F00D
:101718003EC199F03FC19AF0C1EC33F097C040F157
:1017280098C041F199C042F19AC043F14CC197F079
:101738004DC198F04EC199F04FC19AF040C19BF04D
:1017480041C19CF042C19DF043C19EF0C1EC33F011
:1017580097C034F198C035F199C036F19AC037F185
:101768006CC16EF06DC16FF06EC170F06FC171F039
:1017780068C172F069C173F06AC174F06BC175F029
:1017880025EC1DF06EC074F16FC075F170C076F174
:1017980071C077F168C172F069C173F06AC174F001
:1017A8006BC175F030C16EF031C16FF032C170F0AD
:1017B80033C171F025EC1DF06EC087F06FC088F062
:1017C80070C089F071C08AF05CC172F05DC173F0BD
:1017D8005EC174F05FC175F034C16EF035C16FF051
:1017E80036C170F037C171F025EC1DF06EC08BF07A
:1017F8006FC08CF070C08DF071C08EF064EC18F082
:1018080087C078F188C079F189C07AF18AC07BF104
:1018180074C187F075C188F076C189F077C18AF004
:1018280078C18BF079C18CF07AC18DF07BC18EF0D4
:1018380064EC18F087C09CF188C09DF189C09EF1C6
:101848008AC09FF19CC1B8F19DC1B9F19EC1BAF19E
:101858009FC1BBF1B8C190F1B9C191F1BAC192F180
:10186800BBC193F1000E01019015B86FF00E9115F0
:10187800B96FFF0E9215BA6FFF0E9315BB6FB8C103
:101888009CF1B9C19DF1BAC19EF1BBC19FF174C170
:101898009BF075C19CF076C19DF077C19EF09CC10C
:1018A80097F09DC198F09EC199F09FC19AF0C1EC44
:1018B80033F097C094F198C095F199C096F19AC009
:1018C80097F178C197F079C198F07AC199F07BC106
:1018D8009AF094C19BF095C19CF096C19DF097C178
:1018E8009EF0C1EC33F097C064F198C065F199C0DF
:1018F80066F19AC067F19CC16EF09DC16FF09EC100
:1019080070F09FC171F0000E0001726F400E736F8E
:10191800760E746F3F0E756F25EC1DF06EC020F1CA
:101928006FC021F170C022F171C023F14F0E000188
:10193800726F380E736F760E746F3F0E756F64C1D9
:101948006EF065C16FF066C170F067C171F025EC8B
:101958001DF06EC08BF06FC08CF070C08DF071C040
:101968008EF0C60E0001726F230E736FF60E746F41
:10197800B80E756F9CC16EF09DC16FF09EC170F07E
:101988009FC171F025EC1DF06EC087F06FC088F024
:1019980070C089F071C08AF064EC18F087C058F103
:1019A80088C059F189C05AF18AC05BF158C187F0E3
:1019B80059C188F05AC189F05BC18AF0A0C1E4F02E
:1019C800A1C1E5F00001D890E437E537D890E437B5
:1019D800E537010EE425F66E7F0EE521F76E090066
:1019E800F5CF8BF00900F5CF8CF00900F5CF8DF01D
:1019F8000A00F5CF8EF064EC18F087C024F188C097
:101A080025F189C026F18AC027F17CC160F07DC12B
:101A180061F07EC162F07FC163F0010E71EC26F0C7
:101A280060C0B0F161C0B1F162C0B2F163C0B3F19E
:101A380024C18BF025C18CF026C18DF027C18EF012
:101A480020C187F021C188F022C189F023C18AF022
:101A580064EC18F087C058F188C059F189C05AF170
:101A68008AC05BF1A0C1E4F0A1C1E5F00001D89003
:101A7800E437E537D890E437E537090EE425F66E04
:101A88007F0EE521F76E0900F5CF8BF00900F5CF41
:101A98008CF00900F5CF8DF00A00F5CF8EF058C113
:101AA80087F059C188F05AC189F05BC18AF064ECAB
:101AB80018F087C008F188C009F189C00AF18AC006
:101AC8000BF108C187F009C188F00AC189F00BC180
:101AD8008AF0B0C18BF0B1C18CF0B2C18DF0B3C146
:101AE8008EF064EC18F087C080F188C081F189C05D
:101AF80082F18AC083F180C1B8F181C1B9F182C194
:101B0800BAF183C1BBF1B8C190F1B9C191F1BAC1C1
:101B180092F1BBC193F1000E01019015B86FF00E60
:101B28009115B96FFF0E9215BA6FFF0E9315BB6F23
:101B3800B8C180F1B9C181F1BAC182F1BBC183F1E9
:101B4800B0C19BF0B1C19CF0B2C19DF0B3C19EF091
:101B580080C197F081C198F082C199F083C19AF051
:101B6800C1EC33F097C094F198C095F199C096F103
:101B78009AC097F1A0C1E4F0A1C1E5F00001D890A6
:101B8800E437E537D890E437E537090EE425F66EF3
:101B98007F0EE521F76E0900F5CF9BF00900F5CF20
:101BA8009CF00900F5CF9DF00A00F5CF9EF094C196
:101BB80097F095C198F096C199F097C19AF0C1EC49
:101BC80033F097C040F198C041F199C042F19AC0F2
:101BD80043F120C19BF021C19CF022C19DF023C19B
:101BE8009EF040C197F041C198F042C199F043C1BD
:101BF8009AF0C1EC33F097C00CF198C00DF199C080
:101C08000EF19AC00FF124C197F025C198F026C1B2
:101C180099F027C19AF00CC19BF00DC19CF00EC140
:101C28009DF00FC19EF0C1EC33F097C01CF198C035
:101C38001DF199C01EF19AC01FF1E0C0B8F1E1C0D2
:101C4800B9F1E2C0BAF1E3C0BBF1B8C190F1B9C1D2
:101C580091F1BAC192F1BBC193F1000E0101901547
:101C6800B86FF00E9115B96FFF0E9215BA6FFF0E8F
:101C78009315BB6FB8C128F1B9C129F1BAC12AF1CE
:101C8800BBC12BF180C172F081C173F082C174F0C5
:101C980083C175F028C19BF029C19CF02AC19DF031
:101CA8002BC19EF0E0C097F0E1C098F0E2C099F037
:101CB800E3C09AF0C1EC33F097C06EF098C06FF0B3
:101CC80099C070F09AC071F025EC1DF06EC010F14B
:101CD8006FC011F170C012F171C013F110C187F01B
:101CE80011C188F012C189F013C18AF01CC172F0C9
:101CF8001DC173F01EC174F01FC175F0E0C06EF015
:101D0800E1C06FF0E2C070F0E3C071F025EC1DF0A7
:101D18006EC08BF06FC08CF070C08DF071C08EF00B
:101D280064EC18F087C064F188C065F189C066F179
:101D38008AC067F128C16EF029C16FF02AC170F01E
:101D48002BC171F080C172F081C173F082C174F04F
:101D580083C175F025EC1DF06EC09CF16FC09DF13C
:101D680070C09EF171C09FF164C187F065C188F0B1
:101D780066C189F067C18AF09CC18BF09DC18CF067
:101D88009EC18DF09FC18EF064EC18F087C0B4F14D
:101D980088C0B5F189C0B6F18AC0B7F1B4C1B8F14D
:101DA800B5C1B9F1B6C1BAF1B7C1BBF1B8C1ACF1AF
:101DB800B9C1ADF1BAC1AEF1BBC1AFF10101AFBF5D
:101DC800F2EF0EF0AC05000EAD59000EAE59430E01
:101DD800AF59D8A0F2EF0EF0F4EF0EF02CEF0FF0A1
:101DE800CA0E0001726FF20E736F490E746F710E96
:101DF800756F88C16EF089C16FF08AC170F08BC1B0
:101E080071F025EC1DF06EC0A4F16FC0A5F170C093
:101E1800A6F171C0A7F1A4C16EF0A5C16FF0A6C16B
:101E280070F0A7C171F0CA0E0001726FF20E736FE5
:101E3800490E746F710E756F25EC1DF06EC0DCF0E5
:101E48006FC0DDF070C0DEF071C0DFF03CEF15F060
:101E5800430EAF19AC11AD11AE11D8A436EF0FF087
:101E680038EF0FF0AEEF0FF09CC19BF09DC19CF0D6
:101E78009EC19DF09FC19EF0B4C197F0B5C198F086
:101E8800B6C199F0B7C19AF0C1EC33F097C09FF092
:101E980098C0A0F099C0A1F09AC0A2F03C0E000131
:101EA8008B6FAA0E8C6F380E8D6F330E8E6F64C1D8
:101EB80087F065C188F066C189F067C18AF064EC73
:101EC80018F087C0A3F088C0A4F089C0A5F08AC024
:101ED800A6F07BEC2DF00001D8B075EF0FF077EF8E
:101EE8000FF07BEF10F0CA0E726FF20E736F490E8F
:101EF800746F710E756F88C16EF089C16FF08AC1F9
:101F080070F08BC171F025EC1DF06EC0A4F16FC0AC
:101F1800A5F170C0A6F171C0A7F1A4C16EF0A5C16A
:101F28006FF0A6C170F0A7C171F0CA0E0001726F00
:101F3800F20E736F490E746F710E756F25EC1DF0FC
:101F48006EC0DCF06FC0DDF070C0DEF071C0DFF095
:101F58003CEF15F0FF0EAC150001E46FFF0E010118
:101F6800AD150001E56FFF0E0101AE150001E66F2A
:101F78007F0E0101AF150001E76FE7BFD0EF0FF04B
:101F8800E405000EE559160EE659430EE759D8A0A8
:101F9800D0EF0FF0D2EF0FF009EF10F0600E726F74
:101FA800420E736FA20E746F0D0E756F88C16EF0BE
:101FB80089C16FF08AC170F08BC171F025EC1DF0FA
:101FC8006EC0A4F16FC0A5F170C0A6F171C0A7F1F1
:101FD800A4C16EF0A5C16FF0A6C170F0A7C171F0E1
:101FE800600E0001726F420E736FA20E746F0D0EB9
:101FF800756F25EC1DF06EC0DCF06FC0DDF070C0B1
:10200800DEF071C0DFF03CEF15F0160E0101AE19DD
:1020180009E1C30EAF19AC11AD11D8A416EF10F039
:1020280018EF10F07BEF10F09CC19BF09DC19CF065
:102038009EC19DF09FC19EF0B4C197F0B5C198F0C4
:10204800B6C199F0B7C19AF0C1EC33F097C09FF0D0
:1020580098C0A0F099C0A1F09AC0A2F064C1A3F002
:1020680065C1A4F066C1A5F067C1A6F07BEC2DF0B0
:102078000001D8A042EF10F044EF10F07BEF10F011
:10208800600E726F420E736FA20E746F0D0E756F35
:1020980088C16EF089C16FF08AC170F08BC171F090
:1020A80025EC1DF06EC0A4F16FC0A5F170C0A6F1BB
:1020B80071C0A7F1A4C16EF0A5C16FF0A6C170F000
:1020C800A7C171F0600E0001726F420E736FA20E0D
:1020D800746F0D0E756F25EC1DF06EC0DCF06FC0CF
:1020E800DDF070C0DEF071C0DFF03CEF15F0FF0EE0
:1020F8000101AC152C6FFF0EAD152D6FFF0EAE153F
:102108002E6F7F0EAF152F6F170E0001E46F2CC1D5
:10211800E5F02DC1E6F02EC1E7F02FC1E8F0E46745
:1021280098EF10F0A0EF10F0E835E833E733E63326
:10213800E533E42F93EF10F0810E0001E52501014E
:10214800A06FFF0E0001E6210101A16FFF0E000143
:10215800E7210101A26FFF0E0001E8210101A36F31
:10216800000E7C6F000E7D6F000E7E6F000E7F6F7D
:102178002FBFCBEF10F02C05000E2D59000E2E5955
:102188003F0E2F59D8A0CBEF10F0CDEF10F0D1EFC4
:1021980011F0A0C1E4F0010E0001E427000EE56F84
:1021A800000EE66F800EE76F000EE86FE467DFEF62
:1021B80010F0E7EF10F0E835E833E733E633E533BE
:1021C800E42FDAEF10F00101AC510001E52501011F
:1021D8007C6FAD510001E62101017D6FAE51000118
:1021E800E72101017E6FAF510001E82101017F6FF6
:1021F800810E0001E46FFF0EE56FFF0EE66FFF0E24
:10220800E76F170EE86F7CC1E9F07DC1EAF07EC187
:10221800EBF07FC1ECF0E86714EF11F01CEF11F060
:10222800EC35EC33EB33EA33E933E82F0FEF11F0F9
:102238000001E951E4250101A06F000E0001E5212C
:102248000101A16F000E0001E6210101A26F000E3D
:102258000001E7210101A36FA0C1E4F0FF0E000116
:10226800E56FFF0EE66F7F0EE76F000EE86FE4671D
:1022780040EF11F048EF11F0E835E833E733E63383
:10228800E533E42F3BEF11F00001E51DE96FE61D92
:10229800EA6FE71DEB6FE81DEC6F01017C5100014F
:1022A800E9150101B86F7D510001EA150101B96F07
:1022B8007E510001EB150101BA6F7F510001EC1549
:1022C8000101BB6FB8C1B0F1B9C1B1F1BAC1B2F186
:1022D800BBC1B3F1A05117080001E46FFF0E010163
:1022E8007C150001E56FFF0E01017D150001E66F09
:1022F8007F0E01017E150001E76F000E01017F15B9
:102308000001E86F000EE511E96F000EE611EA6FB3
:10231800800EE711EB6F000EE811EC6FE46797EFA2
:1023280011F09FEF11F0EC35EC33EB33EA33E9337E
:10233800E42F92EF11F0E9C07CF1EAC07DF1EBC027
:102348007EF1ECC07FF10101AFBFAFEF11F0ADEF4F
:1023580011F0B7EF11F07F1F7E1F7D1F7C6D000EFF
:102368007D237E237F239CC197F09DC198F09EC159
:1023780099F09FC19AF0B0C19BF0B1C19CF0B2C175
:102388009DF0B3C19EF0C1EC33F097C09CF198C0AA
:102398009DF199C09EF19AC09FF164C187F065C113
:1023A80088F066C189F067C18AF09CC18BF09DC135
:1023B8008CF09EC18DF09FC18EF064EC18F087C040
:1023C800B0F188C0B1F189C0B2F18AC0B3F1B0C12F
:1023D800B8F1B1C1B9F1B2C1BAF1B3C1BBF1B8C179
:1023E80090F1B9C191F1BAC192F1BBC193F1000E5C
:1023F80001019015B86F800E9115B96FFF0E9215F7
:10240800BA6FFF0E9315BB6FB8C1B0F1B9C1B1F186
:10241800BAC1B2F1BBC1B3F1B0C16EF0B1C16FF0D6
:10242800B2C170F0B3C171F0000E0001726F720E8C
:10243800736F310E746F3F0E756F25EC1DF06EC013
:1024480074F16FC075F170C076F171C077F19CC1FD
:102458009BF09DC19CF09EC19DF09FC19EF0B0C1B4
:1024680097F0B1C198F0B2C199F0B3C19AF0C1EC3C
:1024780033F097C094F198C095F199C096F19AC03D
:1024880097F1180E0001726F720E736F310E746F30
:102498003F0E756F94C19BF095C19CF096C19DF05D
:1024A80097C19EF064C197F065C198F066C199F034
:1024B80067C19AF0C1EC33F097C06EF098C06FF026
:1024C80099C070F09AC071F025EC1DF06EC014F13F
:1024D8006FC015F170C016F171C017F114C187F003
:1024E80015C188F016C189F017C18AF08C0E000159
:1024F800726FBE0E736FBF0E746F350E756FB0C1FD
:102508006EF0B1C16FF0B2C170F0B3C171F025ECDB
:102518001DF06EC08BF06FC08CF070C08DF071C074
:102528008EF064EC18F087C078F188C079F189C022
:102538007AF18AC07BF174C187F075C188F076C1E1
:1025480089F077C18AF078C18BF079C18CF07AC1B3
:102558008DF07BC18EF064EC18F087C0B4F188C0B0
:10256800B5F189C0B6F18AC0B7F174C19BF075C1E5
:102578009CF076C19DF077C19EF0B4C197F0B5C1CB
:1025880098F0B6C199F0B7C19AF0C1EC33F097C092
:1025980094F198C095F199C096F19AC097F178C1D5
:1025A80097F079C198F07AC199F07BC19AF094C1FB
:1025B8009BF095C19CF096C19DF097C19EF0C1EC2F
:1025C80033F097C044F198C045F199C046F19AC0DC
:1025D80047F1B4C16EF0B5C16FF0B6C170F0B7C1C4
:1025E80071F0B4C172F0B5C173F0B6C174F0B7C17F
:1025F80075F025EC1DF06EC0B0F16FC0B1F170C080
:10260800B2F171C0B3F10E0E00018B6FEA0E8C6F40
:10261800DD0E8D6FB50E8E6F4C0E726FBB0E736F25
:10262800310E746F330E756FB0C16EF0B1C16FF0BB
:10263800B2C170F0B3C171F025EC1DF06EC087F027
:102648006FC088F070C089F071C08AF064EC18F02F
:1026580087C0A4F188C0A5F189C0A6F18AC0A7F1F6
:10266800550E00018B6FB30E8C6F8A0E8D6F380E6E
:102678008E6FB0C172F0B1C173F0B2C174F0B3C162
:1026880075F0A4C16EF0A5C16FF0A6C170F0A7C126
:1026980071F025EC1DF06EC087F06FC088F070C037
:1026A80089F071C08AF064EC18F087C054F188C0D2
:1026B80055F189C056F18AC057F1610E00018B6F40
:1026C8000B0E8C6F360E8D6FBB0E8E6FB0C172F015
:1026D800B1C173F0B2C174F0B3C175F054C16EF0FA
:1026E80055C16FF056C170F057C171F025EC1DF05F
:1026F8006EC087F06FC088F070C089F071C08AF032
:1027080064EC18F087C048F188C049F189C04AF1E3
:102718008AC04BF1AB0E00018B6FAA0E8C6F2A0E8C
:102728008D6F3E0E8E6FB0C172F0B1C173F0B2C141
:1027380074F0B3C175F048C16EF049C16FF04AC179
:1027480070F04BC171F025EC1DF06EC087F06FC0C2
:1027580088F070C089F071C08AF064EC18F087C006
:1027680038F188C039F189C03AF18AC03BF1B4C167
:1027780097F0B5C198F0B6C199F0B7C19AF0B0C159
:1027880072F0B1C173F0B2C174F0B3C175F038C161
:102798006EF039C16FF03AC170F03BC171F025ECB1
:1027A8001DF06EC09BF06FC09CF070C09DF071C0B2
:1027B8009EF0C1EC33F097C080F198C081F199C0C8
:1027C80082F19AC083F1000E00018B6F000E8C6FAE
:1027D800000E8D6FC00E8E6F80C187F081C188F0AA
:1027E80082C189F083C18AF064EC18F087C0A3F035
:1027F80088C0A4F089C0A5F08AC0A6F080C172F094
:1028080081C173F082C174F083C175F0B4C16EF0F8
:10281800B5C16FF0B6C170F0B7C171F025EC1DF00D
:102828006EC09FF06FC0A0F070C0A1F071C0A2F0A0
:102838003BEC1FF09FC03CF1A0C03DF1A1C03EF1B0
:10284800A2C03FF144C18BF045C18CF046C18DF068
:1028580047C18EF044C172F045C173F046C174F0AF
:1028680047C175F0B4C16EF0B5C16FF0B6C170F074
:10287800B7C171F025EC1DF06EC087F06FC088F00D
:1028880070C089F071C08AF064EC18F087C018F144
:1028980088C019F189C01AF18AC01BF13CC197F0B0
:1028A8003DC198F03EC199F03FC19AF018C19BF024
:1028B80019C19CF01AC19DF01BC19EF0C1EC33F008
:1028C80097C04CF198C04DF199C04EF19AC04FF1A4
:1028D800B4C19BF0B5C19CF0B6C19DF0B7C19EF0E4
:1028E8004CC197F04DC198F04EC199F04FC19AF084
:1028F800C1EC33F097C094F198C095F199C096F166
:102908009AC097F1000E0001976F000E986F800E25
:10291800996F3F0E9A6F94C19BF095C19CF096C138
:102928009DF097C19EF0C1EC33F097C0B4F198C008
:10293800B5F199C0B6F19AC0B7F1B4C1B8F1B5C153
:10294800B9F1B6C1BAF1B7C1BBF1B8C1ACF1B9C1FF
:10295800ADF1BAC1AEF1BBC1AFF17CC1E4F07DC14C
:10296800E5F07EC1E6F07FC1E7F0170ED8900001D0
:10297800E437E537E637E737E82EBAEF14F0E451E5
:102988000101AC270001E5510101AD230001E65129
:102998000101AE230001E7510101AF23170E000129
:1029A800E46FACC1E5F0ADC1E6F0AEC1E7F0AFC190
:1029B800E8F0E467E2EF14F0EAEF14F0E835E83302
:1029C800E733E633E533E42FDDEF14F00001E8BF29
:1029D800FAEF14F0E851E711E61106E1E505D8B081
:1029E800F8EF14F0FAEF14F012EF15F0B4C187F015
:1029F800B5C188F0B6C189F0B7C18AF07CC18BF047
:102A08007DC18CF052EC25F087C0B4F188C0B5F1D7
:102A180089C0B6F18AC0B7F122EF15F0ACC1B8F1A0
:102A2800ADC1B9F1AEC1BAF1AFC1BBF1B8C1B4F132
:102A3800B9C1B5F1BAC1B6F1BBC1B7F188C16EF081
:102A480089C16FF08AC170F08BC171F0B4C172F0A6
:102A5800B5C173F0B6C174F0B7C175F025EC1DF0BF
:102A68006EC0DCF06FC0DDF070C0DEF071C0DFF06A
:102A78001200000E0001FD6F0001FD51D8A447EFC0
:102A880015F049EF15F056EF15F0EE0E606F7F0E5A
:102A9800616F000E636F020E626F24EC32F0010E5C
:102AA8000001FD6FADEC36F00001FE6F32EF18F05B
:102AB800E10E696F010E6A6F070E8BEC30F00101B1
:102AC800D505D8A46AEF15F06CEF15F07CEF15F07A
:102AD800B60E0001606F7F0E616F000E636F030E0C
:102AE800626F24EC32F0000E0101D56F40EF15F053
:102AF800F10E0001606F7F0E616F000E636F020EB2
:102B0800626F24EC32F0560E77EC33F0410E51EC44
:102B180033F0E10E0001766F010E776FEC0E786FDF
:102B2800010E796F68EC2FF0E10E0001766F010E4F
:102B3800776FEA0E786F010E796FFBEC2EF0ECC11F
:102B480060F0EDC161F028EC35F0EAC160F0EBC14E
:102B580061F028EC35F00101D405D8A4B6EF15F0E2
:102B6800B8EF15F0CEEF15F0A60E0001606F7F0EDE
:102B7800616F000E636F030E626F24EC32F0560E25
:102B880077EC33F0410E77EC33F0000E0101D46F8F
:102B980040EF15F0D305D8A4D4EF15F0D6EF15F013
:102BA800ECEF15F0AE0E0001606F7F0E616F000E46
:102BB800636F030E626F24EC32F0560E77EC33F03D
:102BC800410E77EC33F0000E0101D36F40EF15F0A2
:102BD800ECC1C8F0EDC1C9F0EAC1CAF0EBC1CBF055
:102BE8000001FE51E3EC30F040EF15F0E10E696FA3
:102BF800010E6A6F070E8BEC30F00101D505D8A4E1
:102C080008EF16F00AEF16F017EF16F0B60E0001EF
:102C1800606F7F0E616F000E636F030E626F24ECAE
:102C280032F077EF15F0F10E0001606F7F0E616FE3
:102C3800000E636F020E626F24EC32F0560E77ECD2
:102C480033F0410E51EC33F0E10E0001766F010EC6
:102C5800776FEC0E786F010E796F68EC2FF0E10E4C
:102C68000001766F010E776FEA0E786F010E796FAB
:102C7800FBEC2EF0ECC160F0EDC161F028EC35F012
:102C8800EAC160F0EBC161F028EC35F00101D40530
:102C9800D8A451EF16F053EF16F066EF16F0A60E13
:102CA8000001606F7F0E616F000E636F030E626F2D
:102CB80024EC32F0560E77EC33F0410E77EC33F01B
:102CC800C9EF15F0D305D8A46CEF16F06EEF16F027
:102CD80081EF16F0AE0E0001606F7F0E616F000E7F
:102CE800636F030E626F24EC32F0560E77EC33F00C
:102CF800410E77EC33F0E7EF15F0ECC1C8F0EDC109
:102D0800C9F0EAC1CAF0EBC1CBF00001FE51E3EC17
:102D180030F040EF15F0F10E606F7F0E616F000E1E
:102D2800636F020E626F24EC32F0560E77EC33F0CC
:102D3800410E51EC33F096EC34F040EF15F0F10E03
:102D4800606F7F0E616F000E636F020E626F24EC7E
:102D580032F0560E77EC33F0410E51EC33F00EECB6
:102D680036F040EF15F0F10E606F7F0E616F000EC8
:102D7800636F020E626F24EC32F0560E77EC33F07C
:102D8800410E51EC33F0FBEC35F040EF15F0F10E4D
:102D9800606F7F0E616F000E636F020E626F24EC2E
:102DA80032F0560E77EC33F0410E51EC33F0ADECC7
:102DB80036F00001FF6FFF511DEC24F00001FF6F9A
:102DC800EC0E766F010E776FFF5173EC2CF0EA0E64
:102DD8000001766F010E776FFF51EEEC2BF0E80ED5
:102DE8000001766F010E776FFF51DCEC2AF00101CC
:102DF800D405D8A402EF17F004EF17F017EF17F077
:102E0800A60E0001606F7F0E616F000E636F030EE8
:102E1800626F24EC32F0560E77EC33F0410E77EC0B
:102E280033F0C9EF15F0D305D8A41DEF17F01FEF45
:102E380017F032EF17F0AE0E0001606F7F0E616F72
:102E4800000E636F030E626F24EC32F0560E77ECBF
:102E580033F0410E77EC33F0E7EF15F0D205D8A444
:102E680038EF17F03AEF17F091EF17F0000ED26F26
:102E7800D30E0001606F7F0E616F000E636F020E4C
:102E8800626F24EC32F0560E51EC33F0410E77ECC1
:102E980033F0030E0001FC6F080EFB6F770EE82E6F
:102EA800FED7FB2FFCD7FC2FFAD75DEF17F0FBEC12
:102EB80032F080AA62EF17F064EF17F05BEF17F0BB
:102EC8008C8A8C8CEE0E0001606F7F0E616F000E95
:102ED800636F020E626F24EC32F0560E51EC33F041
:102EE800410E77EC33F0030E0001FC6F080EFB6F08
:102EF800770EE82EFED7FB2FFCD7FC2FFAD7ECC1B4
:102F0800C8F0EDC1C9F0EAC1CAF0EBC1CBF00001CD
:102F1800FE51E3EC30F040EF15F0E8C1F7F0E9C1FD
:102F2800F8F0D6EC22F0030E0001FC6F080EFB6FE0
:102F3800770EE82EFED7FB2FFCD7FC2FFAD7ECC173
:102F4800C8F0EDC1C9F0EAC1CAF0EBC1CBF000018D
:102F5800FE51E3EC30F040EF15F0ADEC36F0000137
:102F6800FF6FD60E696F010E6A6F0B0E8BEC30F097
:102F78000101D505D8A4C3EF17F0C5EF17F0D2EFBC
:102F880017F0B60E0001606F7F0E616F000E636F61
:102F9800030E626F24EC32F077EF15F0F10E0001AA
:102FA800606F7F0E616F000E636F020E626F24EC1C
:102FB80032F0560E77EC33F0410E51EC33F000014D
:102FC800FF511DEC24F00001FF6FD60E686F010E53
:102FD800696FFF5141EC2AF040EF15F0F10E606F78
:102FE8007F0E616F000E636F020E626F24EC32F089
:102FF800560E77EC33F0410E51EC33F006EF18F033
:10300800FBEC32F080AA0BEF18F00DEF18F004EF8C
:1030180018F0EE0E0001606F7F0E616F000E636F97
:10302800020E626F24EC32F0560E51EC33F0410E72
:1030380077EC33F040EF15F0FD0E606F7F0E616F97
:10304800000E636F010E626F24EC32F0560E77ECBF
:1030580033F0410E77EC33F063EF18F0FE51FB6F5D
:10306800FC6BFC51000AD8B43CEF18F040EF15F0A7
:10307800FB51410AD8B4F2EF17F0040AD8B420EF94
:1030880018F0030AD8B45CEF15F00E0AD8B4A3EF11
:1030980016F0050AD8B4B1EF17F0020AD8B4CBEF8E
:1030A80016F01D0AD8B4B7EF16F0010AD8B4FAEF33
:1030B80015F0070AD8B48FEF16F040EF15F012009C
:1030C80000018A51800B936F8A518A25956F89AFC9
:1030D80070EF18F072EF18F073EF18F095819551B2
:1030E800D8B479EF18F07BEF18F090EF18F0952925
:1030F800D8A481EF18F083EF18F08BEF18F0000ECA
:10310800876F000E886F000E896F000E8A6F898F97
:10311800000E8A6F98EF18F0000E876F000E886F08
:10312800000E896F000E8A6F8E51800B946F935139
:103138009419D8B4A2EF18F0A4EF18F0A5EF18F07E
:10314800938D8E518E25946F8DAFADEF18F0AFEF44
:1031580018F0B0EF18F094819451D8B4B6EF18F085
:10316800B8EF18F0CDEF18F09429D8A4BEEF18F0F6
:10317800C0EF18F0C8EF18F0000E8B6F000E8C6FC0
:10318800000E8D6F000E8E6F8D8F000E8E6FD5EF37
:1031980018F0000E8B6F000E8C6F000E8D6F000EF6
:1031A8008E6F9551945DD8B0DCEF18F0DEEF18F013
:1031B80005EF19F093ADE3EF18F0E5EF18F0E7EF3E
:1031C80018F0800E931B95C096F094C095F096C0A9
:1031D80094F087C096F08BC087F096C08BF088C0BB
:1031E80096F08CC088F096C08CF089C096F08DC09F
:1031F80089F096C08DF08AC096F08EC08AF096C08D
:103208008EF0000E966F955194C08FF0906B8F5F83
:10321800000E905B90BF1AEF19F0905109E11A0E59
:103228008F5DD8A01AEF19F01CEF19F053EF19F0C1
:103238008751881189118A11D8A425EF19F028EF30
:1032480019F0010E29EF19F0000E966F000E876F26
:10325800000E886F000E896F000E8A6F94C095F07B
:103268005CEF19F096A13BEF19F03DEF19F043EF31
:1032780019F0D89096310109966F45EF19F0D8905A
:10328800963387A14AEF19F04CEF19F04DEF19F07A
:10329800968F8A358A33893388338733952B9451AF
:1032A800955DD8A05AEF19F05CEF19F036EF19F0D8
:1032B80093BD61EF19F063EF19F0A3EF19F0955181
:1032C800D8A469EF19F06BEF19F075EF19F0000E3B
:1032D800876F000E886F000E896F000E8A6FC4EF2B
:1032E8001AF08B5187278C5188238D5189238E5151
:1032F8008A238AA182EF19F084EF19F030EF1AF0CF
:1033080096A189EF19F08BEF19F091EF19F0D89089
:1033180096310109966F93EF19F0D890963387A1EB
:1033280098EF19F09AEF19F09BEF19F0968F8A35FC
:103338008A33893388338733952B30EF1AF08B51D2
:10334800875D8C5188598D5189598A51800A8F6FB0
:103358008E51800A8F59D8B0B4EF19F0B6EF19F032
:10336800E1EF19F087518B5D8F6F88518C59906F01
:1033780089518D59916F8A518E59926FFF0E8F2501
:10338800876FFF0E9021886FFF0E9121896FFF0EC6
:1033980092218A6F800E931B966D9651D8A4D7EF11
:1033A80019F0D9EF19F0E9EF19F0010E8727000E8F
:1033B800882389238A23E9EF19F08B51875F8C5181
:1033C800885B8D51895B8E518A5B87518811891181
:1033D8008A11D8A4F2EF19F0F4EF19F029EF1AF0D6
:1033E8009651D8A4FAEF19F0FCEF19F029EF1AF06A
:1033F800000E876F000E886F000E896F000E8A6FAF
:10340800C4EF1AF0D8908737883789378A3796AF4C
:1034180010EF1AF012EF1AF013EF1AF0878196A145
:1034280018EF1AF01AEF1AF01EEF1AF0D880963734
:1034380020EF1AF0D89096379551D8B426EF1AF0A5
:1034480028EF1AF029EF1AF0950789AF2EEF1AF036
:1034580030EF1AF006EF1AF0000E946F96AF37EFC0
:103468001AF039EF1AF051EF1AF096C08FF07F0E6C
:103478008F17D8B442EF1AF044EF1AF048EF1AF059
:10348800010E946F51EF1AF087A14DEF1AF04FEF2C
:103498001AF051EF1AF044EF1AF09451D8B457EFDC
:1034A8001AF059EF1AF084EF1AF0010E8727000E70
:1034B800882389238A238AA164EF1AF066EF1AF019
:1034C80084EF1AF087C08FF088C090F089C091F01F
:1034D8008AC092F092359233913390338F338FC0F4
:1034E80087F090C088F091C089F092C08AF0952941
:1034F800D8B481EF1AF083EF1AF084EF1AF0952B05
:103508009529D8B48AEF1AF08CEF1AF094EF1AF0D4
:103518009551D8A492EF1AF094EF1AF0A6EF1AF08A
:10352800000E876F000E886F000E896F000E8A6F7D
:103538009551D8A4A2EF1AF0A4EF1AF0A6EF1AF04A
:10354800000E936F95A1ABEF1AF0ADEF1AF0B0EF44
:103558001AF0898FB1EF1AF0899FD89095318A6F48
:1035680093AFB9EF1AF0BBEF1AF0BCEF1AF08A8FDD
:1035780087C087F088C088F089C089F08AC08AF03F
:103588001200ABC0C0F0ACC0C1F0ADC0C2F0AEC05C
:10359800C3F0C0C0D8F0C1C0D9F0C2C0DAF0C3C00F
:1035A800DBF0000E0001D815AF6F000ED915B06F13
:1035B800800EDA15B16F7F0EDB15B26F800EB11970
:1035C80009E17F0EB219AF11B011D8A4EEEF1AF0CD
:1035D800F0EF1AF01EEF1BF0ABC072F0ACC073F046
:1035E800ADC074F0AEC075F0ABC06EF0ACC06FF09B
:1035F800ADC070F0AEC071F025EC1DF06EC087F064
:103608006FC088F070C089F071C08AF0ABC08BF0D1
:10361800ACC08CF0ADC08DF0AEC08EF064EC18F08C
:1036280087C0ABF088C0ACF089C0ADF08AC0AEF0FE
:1036380024EF1DF0DBBF2DEF1BF0DB51DA11D911A0
:1036480006E1D805D8B02BEF1BF02DEF1BF06BEF80
:103658001BF0FF0ED815AF6FFF0ED915B06FFF0E18
:10366800DA15B16F7F0EDB15B26FAF51B011B11122
:10367800B211D8A442EF1BF044EF1BF04EEF1BF041
:10368800ABC0ABF0ACC0ACF0ADC0ADF0AEC0AEF00E
:1036980024EF1DF0DBBF55EF1BF053EF1BF06BEF72
:1036A8001BF0000E0101CC6F210ECB6FA10E0001A3
:1036B800606F7F0E616F34EC36F060C0ABF061C0B4
:1036C800ACF062C0ADF063C0AEF024EF1DF0170E91
:1036D800AF6FD8C0B0F0D9C0B1F0DAC0B2F0DBC07B
:1036E800B3F0AF677AEF1BF082EF1BF0B335B3335B
:1036F800B233B133B033AF2F75EF1BF0B0C0D0F099
:10370800B1C0D1F0B2C0D2F0B3C0D3F00001D051F3
:10371800D111D211D311D8A494EF1BF096EF1BF05E
:10372800C6EF1BF0000EBC6F000EBD6F000EBE6F23
:10373800000EBF6FABEF1BF0D890D837D937DA3708
:10374800DB37010EBC27000EBD23BE23BF23DAAF33
:10375800B0EF1BF0B2EF1BF0A0EF1BF0FF0EBC2583
:10376800AF6FFF0EBD21B06FFF0EBE21B16FFF0E10
:10377800BF21B26FAF51D05FB051D15BB151D25BB5
:10378800B251D35B810ED027FF0ED123FF0ED22377
:10379800FF0ED323FF0ED815AF6FFF0ED915B06FEC
:1037A8007F0EDA15B16F000EDB15B26F000EAF1188
:1037B800D86F000EB011D96F800EB111DA6F000EFC
:1037C800B211DB6FD0A1EBEF1BF0EDEF1BF0F5EFC3
:1037D8001BF0D851D827D951D923DA51DA23DB5134
:1037E800DB23D335D333D233D133D033D851D82791
:1037F800D951D923DA51DA23DB51DB23000EB86F14
:10380800000EB96F000EBA6F000EBB6FB8C0C4F0DF
:10381800B9C0C5F0BAC0C6F0BBC0C7F0000ED46FBF
:10382800000ED56F000ED66F010ED76F64EF1CF037
:10383800D451B825C86FD551B921C96FD651BA210D
:10384800CA6FD751BB21CB6FC851D85DC951D9595F
:10385800CA51DA59DB51800AAF6FCB51800AAF5990
:10386800D8A039EF1CF03BEF1CF057EF1CF0D451F7
:10387800C825B86FD551C921B96FD651CA21BA6FB9
:10388800D751CB21BB6FC851D85FC951D95BCA5139
:10389800DA5BCB51DB5BD451C427D551C523D65154
:1038A800C623D751C723D851D827D951D923DA519C
:1038B800DA23DB51DB23D890D733D633D533D4334F
:1038C800D451D511D611D711D8A46DEF1CF06FEFD4
:1038D8001CF01CEF1CF0D851D911DA11DB11D8B447
:1038E80078EF1CF07AEF1CF0DAEF1CF0000ECC6FCA
:1038F800000ECD6F800ECE6F3F0ECF6FCCC09FF005
:10390800CDC0A0F0CEC0A1F0CFC0A2F0000EA36F32
:10391800000EA46F800EA56F3F0EA66F7BEC2DF0F6
:103928000001D8A09AEF1CF09CEF1CF0DAEF1CF015
:10393800000ECC6F000ECD6F800ECE6F3F0ECF6F96
:10394800000E9F6F000EA06F800EA16F3F0EA26F3A
:10395800CCC0A3F0CDC0A4F0CEC0A5F0CFC0A6F0D7
:103968007BEC2DF00001D8B0BCEF1CF0BEEF1CF0D2
:10397800C6EF1CF0020EC427000EC523C623C723BA
:10398800DAEF1CF0010EC415AF6F000EC515B06F4D
:10399800000EC615B16F000EC715B26FAF51C42720
:1039A800B051C523B151C623B251C723C4C0AFF02B
:1039B800C5C0B0F0C6C0B1F0C7C0B2F0B235B233BE
:1039C800B133B033AF33000EAF25D86F000EB0213E
:1039D800D96F000EB121DA6F3F0EB221DB6FD0C074
:1039E800AFF0D1C0B0F0D2C0B1F0D3C0B2F0170E72
:1039F800D890AF37B037B137B237E82EFCEF1CF0AC
:103A0800AF51D827B051D923B151DA23B251DB23B2
:103A1800D8C0C0F0D9C0C1F0DAC0C2F0DBC0C3F072
:103A2800C0C0CCF0C1C0CDF0C2C0CEF0C3C0CFF092
:103A3800CCC0ABF0CDC0ACF0CEC0ADF0CFC0AEF0D6
:103A4800120000017151800B7A6F71517125806FDE
:103A580070AF31EF1DF033EF1DF034EF1DF08081B2
:103A68008051D8B43AEF1DF03CEF1DF04FEF1DF038
:103A78008029D8A442EF1DF044EF1DF04CEF1DF053
:103A8800000E6E6F000E6F6F000E706F000E716F7C
:103A9800708F57EF1DF0000E6E6F000E6F6F000EE7
:103AA800706F000E716F7551800B7A1B75517525FB
:103AB8007F6F74AF62EF1DF064EF1DF065EF1DF0CE
:103AC8007F817F51D8B46BEF1DF06DEF1DF080EF53
:103AD8001DF07F29D8A473EF1DF075EF1DF07DEF61
:103AE8001DF0000E726F000E736F000E746F000EE3
:103AF800756F748F88EF1DF0000E726F000E736F74
:103B0800000E746F000E756F7F51D8B48EEF1DF0E4
:103B180090EF1DF098EF1DF08051D8A496EF1DF09E
:103B280098EF1DF0A2EF1DF0000E6E6F000E6F6F84
:103B3800000E706F000E716F3AEF1FF074516E0334
:103B4800F3CF85F0F4CF86F085517B6F7C6B7D6B6E
:103B58007E6B8651816F826B836B846B73516F03AD
:103B6800F3CF85F0F4CF86F085517B27000E7C23B8
:103B78007D237E2386518127000E8223832384237D
:103B880072517003F3CF85F0F4CF86F085517B270F
:103B9800000E7C237D237E2386518127000E8223FD
:103BA800832384237DC07EF07CC07DF07BC07CF0C5
:103BB8007B6B72516F03F3CF85F0F4CF86F085519C
:103BC8007B2786517C23000E7D23000E7E237351B4
:103BD8006E03F3CF85F0F4CF86F085517B278651AD
:103BE8007C23000E7D23000E7E237DC07EF07CC0EA
:103BF8007DF07BC07CF07B6B72516E03F3CF85F058
:103C0800F4CF86F085517B2786517C23000E7D23D7
:103C1800000E7E2374516F03F3CF85F0F4CF86F046
:103C28008551812786518223000E8323000E842329
:103C380073517003F3CF85F0F4CF86F08551812757
:103C480086518223000E8323000E8423745170034F
:103C5800F3CF85F0F4CF86F08551766F8651776F74
:103C6800786B796B78C079F077C078F076C077F0A8
:103C7800766B765181277751822378518323795146
:103C880084237BC076F07CC077F07DC078F07EC05E
:103C980079F0190E55EF1EF0D890793378337733D1
:103CA8007633E82E50EF1EF0765181277751822324
:103CB80078518323795184237DC07EF07CC07DF0C8
:103CC8007BC07CF07B6B7F5180C076F0776B76276A
:103CD800000E7723820E7625856FFF0E7721866F7B
:103CE8008BEF1EF0D89081378237833784377EAFC9
:103CF80080EF1EF082EF1EF083EF1EF08181D890D6
:103D08007B377C377D377E378507D8A0860783AF1A
:103D180090EF1EF092EF1EF076EF1EF0000E7F6F10
:103D28007EAF99EF1EF09BEF1EF0BFEF1EF0FF0E67
:103D38007B15766FFF0E7C15776FFF0E7D15786FFC
:103D48007F0E7E15796F7651771178117911D8B475
:103D5800B0EF1EF0B2EF1EF0B6EF1EF0010E7F6F4F
:103D6800BFEF1EF081A1BBEF1EF0BDEF1EF0BFEF4D
:103D78001EF0B2EF1EF07F51D8B4C5EF1EF0C7EFAA
:103D88001EF0EBEF1EF0010E8127000E8223832325
:103D9800842384A1D2EF1EF0D4EF1EF0EBEF1EF0C7
:103DA80081C076F082C077F083C078F084C079F063
:103DB8007935793378337733763376C081F077C0C5
:103DC80082F078C083F079C084F0854B862B86BF5B
:103DD800F6EF1EF0865108E18529D8A0F6EF1EF00F
:103DE800F8EF1EF002EF1FF0000E816F000E826FD9
:103DF800800E836F7F0E846F30EF1FF086BF0FEF4A
:103E08001FF0865106E18505D8B00DEF1FF00FEFC2
:103E18001FF01BEF1FF0000E816F000E826F000E67
:103E2800836F000E846F000E7A6F30EF1FF085C02D
:103E380080F0FF0E8117FF0E82177F0E8317000E8A
:103E4800841780A12AEF1FF02CEF1FF02DEF1FF031
:103E5800838FD8908031846F7A51841381C06EF03B
:103E680082C06FF083C070F084C071F0120000014E
:103E7800A251800BAF6FA251A225B66FA1AF47EF39
:103E88001FF049EF1FF04AEF1FF0B681B651D8B4C2
:103E980050EF1FF052EF1FF067EF1FF0B629D8A4BC
:103EA80058EF1FF05AEF1FF062EF1FF0000E9F6FE0
:103EB800000EA06F000EA16F000EA26FA18F000E62
:103EC800A26F6FEF1FF0000E9F6F000EA06F000E25
:103ED800A16F000EA26FA651800BAF1BA651A6259D
:103EE800B76FA5AF7AEF1FF07CEF1FF07DEF1FF0E3
:103EF800B781B751D8B483EF1FF085EF1FF09AEF61
:103F08001FF0B729D8A48BEF1FF08DEF1FF095EFA6
:103F18001FF0000EA36F000EA46F000EA56F000E19
:103F2800A66FA58F000EA66FA2EF1FF0000EA36F5D
:103F3800000EA46F000EA56F000EA66FA351A4116A
:103F4800A511A611D8A4ABEF1FF0ADEF1FF0C5EF78
:103F58001FF0000E9F6F000EA06F000EA16F000EE5
:103F6800A26F800EA1137F0EA213AF51A2139FC0A0
:103F78009FF0A0C0A0F0A1C0A1F0A2C0A2F008EFDD
:103F880021F0B651D8A4CBEF1FF0CDEF1FF0D7EF3B
:103F98001FF0000E9F6F000EA06F000EA16F000EA5
:103FA800A26F08EF21F0B751B6C0A7F0A86BA75FC2
:103FB800000EA85B7F0EA725B06F000EA821B16F79
:103FC8009FC0ABF0A0C0ACF0A1C0ADF0A2C0AEF0F5
:103FD800000E9F6F000EA06F000EA16F000EA26F63
:103FE800000EB26F000EB36F000EB46F000EB56F07
:103FF800000EB76F38EF20F0B751D8B406EF20F0B5
:1040080008EF20F01FEF20F0D890AB37AC37AD3772
:10401800AE37D8909F37A037A137A237B5AF17EF83
:1040280020F019EF20F01AEF20F09F81D890B237D6
:10403800B337B437B537A351AB5DA451AC59A551CB
:10404800AD59A651AE59D8A02CEF20F02EEF20F094
:1040580037EF20F0B58DA351AB5FA451AC5BA551F0
:10406800AD5BA651AE5BB72B190EB7653EEF20F0DE
:1040780040EF20F000EF20F0AB51AC11AD11AE11C4
:10408800D8B449EF20F04BEF20F063EF20F0B28175
:1040980063EF20F0D8909F37A037A137A237B5AF8C
:1040A80058EF20F05AEF20F05BEF20F09F81D89076
:1040B800B237B337B437B537B007D8A0B107A1AF17
:1040C80068EF20F06AEF20F04EEF20F0000EB76F97
:1040D800B5AF71EF20F073EF20F097EF20F0FF0EEF
:1040E800B215A76FFF0EB315A86FFF0EB415A96F11
:1040F8007F0EB515AA6FA751A811A911AA11D8B496
:1041080088EF20F08AEF20F08EEF20F0010EB76FD5
:1041180097EF20F09FA193EF20F095EF20F097EF15
:1041280020F08AEF20F0B751D8B49DEF20F09FEF30
:1041380020F0C3EF20F0010E9F27000EA023A1233B
:10414800A223A2A1AAEF20F0ACEF20F0C3EF20F049
:104158009FC0A7F0A0C0A8F0A1C0A9F0A2C0AAF073
:10416800AA35AA33A933A833A733A7C09FF0A8C09C
:10417800A0F0A9C0A1F0AAC0A2F0B04BB12BB1BF6A
:10418800CEEF20F0B15108E1B029D8A0CEEF20F051
:10419800D0EF20F0DBEF20F0000EB16FB069000E19
:1041A8009F6F000EA06F000EA16F000EA26FB1BF2F
:1041B800E8EF20F0B15106E1B005D8B0E6EF20F005
:1041C800E8EF20F0F6EF20F0000EB16F000EB06FB0
:1041D800000E9F6F000EA06F000EA16F000EA26F61
:1041E800000EAF6FB0C0B6F0B6A1FDEF20F0FFEF44
:1041F80020F002EF21F0A18F03EF21F0A19FD890CA
:10420800B631A26FB9EF1FF012001250800B1F6E6B
:1042180012501224266E11AE14EF21F016EF21F081
:1042280017EF21F026802650D8B41DEF21F01FEF9C
:1042380021F034EF21F02628D8A425EF21F027EF2C
:1042480021F02FEF21F0000E0F6E000E106E000E01
:10425800116E000E126E118E000E126E3CEF21F0E0
:10426800000E0F6E000E106E000E116E000E126E14
:104278001650800B1F1A16501624276E15AE47EFDE
:1042880021F049EF21F04AEF21F027802750D8B4D8
:1042980050EF21F052EF21F067EF21F02728D8A442
:1042A80058EF21F05AEF21F062EF21F0000E136E63
:1042B800000E146E000E156E000E166E158E000E92
:1042C800166E6FEF21F0000E136E000E146E000EC6
:1042D800156E000E166E1350141015101610D8A473
:1042E80078EF21F07AEF21F092EF21F0000E0F6EB7
:1042F800000E106E000E116E000E126E800E11125E
:104308007F0E12121F5012120FC00FF010C010F0C3
:1043180011C011F012C012F0D5EF22F02650D8A427
:1043280098EF21F09AEF21F0A4EF21F0000E0F6E24
:10433800000E106E000E116E000E126ED5EF22F0F8
:10434800275026C017F0186A175E000E185A7F0EFD
:104358001724206E000E1820216E0FC01BF010C00D
:104368001CF011C01DF012C01EF0000E0F6E000EE2
:10437800106E000E116E000E126E000E226E000EF0
:10438800236E000E246E000E256E000E276E05EFBC
:1043980022F02750D8B4D3EF21F0D5EF21F0ECEF7D
:1043A80021F0D8901B361C361D361E36D8900F3695
:1043B80010361136123625AEE4EF21F0E6EF21F083
:1043C800E7EF21F00F80D8902236233624362536A1
:1043D80013501B5C14501C5815501D5816501E586D
:1043E800D8A0F9EF21F0FBEF21F004EF22F0258CA3
:1043F80013501B5E14501C5A15501D5A16501E5A45
:10440800272A190E27640BEF22F00DEF22F0CDEFCB
:1044180021F01B501C101D101E10D8B416EF22F0EE
:1044280018EF22F030EF22F0228030EF22F0D890FF
:104438000F3610361136123625AE25EF22F027EF4B
:1044480022F028EF22F00F80D89022362336243627
:1044580025362006D8A0210611AE35EF22F037EF19
:1044680022F01BEF22F0000E276E25AE3EEF22F061
:1044780040EF22F064EF22F0FF0E2214176EFF0EB9
:104488002314186EFF0E2414196E7F0E25141A6E4D
:104498001750181019101A10D8B455EF22F057EF0A
:1044A80022F05BEF22F0010E276E64EF22F00FA0DE
:1044B80060EF22F062EF22F064EF22F057EF22F073
:1044C8002750D8B46AEF22F06CEF22F090EF22F078
:1044D800010E0F26000E10221122122212A077EFD1
:1044E80022F079EF22F090EF22F00FC017F010C001
:1044F80018F011C019F012C01AF01A341A32193211
:104508001832173217C00FF018C010F019C011F088
:104518001AC012F0204A212A21BE9BEF22F0215016
:1045280008E12028D8A09BEF22F09DEF22F0A8EF09
:1045380022F0000E216E2068000E0F6E000E106E25
:10454800000E116E000E126E21BEB5EF22F0215042
:1045580006E12004D8B0B3EF22F0B5EF22F0C3EFA4
:1045680022F0000E216E000E206E000E0F6E000E5F
:10457800106E000E116E000E126E000E1F6E20C01F
:1045880026F026A0CAEF22F0CCEF22F0CFEF22F0DF
:10459800118ED0EF22F0119ED8902630126E86EF41
:1045A80021F01200F10E0001606F7F0E616F000EA6
:1045B800636F020E626F24EC32F0E7EC35F02F0ED9
:1045C8000001F725F76F000EF821F86F000E0101C2
:1045D800D16F8C988C9A8C9CF8EF23F0000E000118
:1045E8006F6F320E6E6FCFEC2FF06EC0CFF16FC0D1
:1045F800D0F1CFC1EDF0D0C1EEF081EC2EF0C4C106
:104608009FF0C5C1A0F0C6C1A1F0C7C1A2F0F7C014
:1046180060F0F8C061F00001000E61BFFF0E626F2C
:10462800636F010E71EC26F060C0A3F061C0A4F0C6
:1046380062C0A5F063C0A6F07BEC2DF00001D8B0F5
:1046480028EF23F02AEF23F055EF23F0F7C060F0AE
:10465800F8C061F0000E61BFFF0E626F636F010E5C
:1046680071EC26F060C097F061C098F062C099F0D4
:1046780063C09AF0C4C19BF0C5C19CF0C6C19DF04F
:10468800C7C19EF0C1EC33F097C0C0F198C0C1F12A
:1046980099C0C2F19AC0C3F18C988C8A8C9CA3EF04
:1046A80023F0F7C060F0F8C061F0000E61BFFF0EA4
:1046B800626F636F010E71EC26F060C09FF061C0FD
:1046C800A0F062C0A1F063C0A2F0C4C1A3F0C5C14C
:1046D800A4F0C6C1A5F0C7C1A6F07BEC2DF000017F
:1046E800D8B079EF23F07BEF23F0A3EF23F0F7C0E6
:1046F80060F0F8C061F0000E61BFFF0E626F636F7B
:10470800010E71EC26F060C097F061C098F062C0AD
:1047180099F063C09AF0C4C19BF0C5C19CF0C6C1B2
:104728009DF0C7C19EF0C1EC33F097C0C0F198C0AE
:10473800C1F199C0C2F19AC0C3F18C9A8C8C000E59
:1047480000019F6F000EA06F000EA16F000EA26FF8
:10475800C0C160F0C1C161F0C2C162F0C3C163F001
:104768000DEC35F060C0A3F061C0A4F062C0A5F004
:1047780063C0A6F07BEC2DF00001D8B0C6EF23F0A3
:10478800C8EF23F0EFEF23F0C0C160F0C1C161F0C2
:10479800C2C162F0C3C163F00DEC35F060C09FF098
:1047A80061C0A0F062C0A1F063C0A2F0000E0001D9
:1047B800A36F000EA46F000EA56F400EA66F7BECD2
:1047C8002DF00001D8B0EBEF23F0EDEF23F0EFEF81
:1047D80023F00101D12B0D0E0001F96FFB0EE82E1D
:1047E800FED7F92FFCD700D0090E0101D165FFEFE4
:1047F80023F001EF24F0F2EF22F08C8A8C9C020E59
:104808000001FA6F040EF96FBA0EE82EFED7F92FE1
:10481800FCD7FA2FFAD700F08C9A8C9C8C88820EE1
:104828000001F96FDD0EE82EFED7F92FFCD700D076
:10483800120000016A6F01EF25F0000E6A6F9E0EEC
:10484800606F7F0E616F000E636F030E626F24EC62
:1048580032F04FEF25F0100E6A6FA20E606F7F0ED8
:10486800616F000E636F030E626F24EC32F04FEF3E
:1048780025F0200E6A6FAA0E606F7F0E616F000E22
:10488800636F030E626F24EC32F04FEF25F0300EA9
:104898006A6FB20E606F7F0E616F000E636F030E5A
:1048A800626F24EC32F04FEF25F0400E6A6FBA0EBB
:1048B800606F7F0E616F000E636F030E626F24ECF2
:1048C80032F04FEF25F0500E6A6FBE0E606F7F0E0C
:1048D800616F000E636F030E626F24EC32F04FEFCE
:1048E80025F0600E6A6FC20E606F7F0E616F000E5A
:1048F800636F030E626F24EC32F04FEF25F0700EF9
:104908006A6FC60E606F7F0E616F000E636F030ED5
:10491800626F24EC32F04FEF25F0800E6A6FCA0EFA
:10492800606F7F0E616F000E636F030E626F24EC81
:1049380032F04FEF25F0900E6A6FCE0E606F7F0E4B
:10494800616F000E636F030E626F24EC32F04FEF5D
:1049580025F0A00E6A6FD20E606F7F0E616F000E99
:10496800636F030E626F24EC32F04FEF25F0B00E48
:104978006A6FD60E606F7F0E616F000E636F030E55
:10498800626F24EC32F04FEF25F0C00E6A6FDA0E3A
:10499800606F7F0E616F000E636F030E626F24EC11
:1049A80032F04FEF25F0D00E6A6FDE0E606F7F0E8B
:1049B800616F000E636F030E626F24EC32F04FEFED
:1049C80025F0E00E6A6FE20E606F7F0E616F000ED9
:1049D800636F030E626F24EC32F04FEF25F0F00E98
:1049E8006A6FE60E606F7F0E616F000E636F030ED5
:1049F800626F24EC32F04FEF25F000016A51686FC6
:104A0800696B6951000AD8B40CEF25F04FEF25F017
:104A18006851300AD8B421EF24F0010AD8B42FEF36
:104A280024F0030AD8B43DEF24F0010AD8B44BEFC0
:104A380024F0070AD8B459EF24F0010AD8B467EF74
:104A480024F0030AD8B475EF24F0010AD8B483EF30
:104A580024F00F0AD8B491EF24F0010AD8B49FEFDC
:104A680024F0780AD8B4ADEF24F0030AD8B4BBEF29
:104A780024F0010AD8B4C9EF24F0070AD8B4D7EF54
:104A880024F0010AD8B4E5EF24F0030AD8B4F3EF10
:104A980024F04FEF25F000016A51120087C095F00D
:104AA80088C096F089C097F08AC098F000018CBF42
:104AB80067EF25F08C5109E1800E8B5DD8A067EF78
:104AC80025F069EF25F0C9EF25F095C06EF096C086
:104AD8006FF097C070F098C071F0000E726F000E02
:104AE800736F000E746F7F0E756F25EC1DF06EC02E
:104AF80095F06FC096F070C097F071C098F0000103
:104B0800810E8B27FF0E8C238CBF94EF25F08C51E0
:104B180009E1800E8B5DD8A094EF25F096EF25F083
:104B280035EF26F095C06EF096C06FF097C070F024
:104B380098C071F0000E726F000E736F000E746FE4
:104B48007F0E756F25EC1DF06EC095F06FC096F066
:104B580070C097F071C098F00001810E8B27FF0E8E
:104B68008C238CBFC1EF25F08C5109E1800E8B5D41
:104B7800D8A0C1EF25F0C3EF25F035EF26F0000EE1
:104B88008C6F7F0E8B6F35EF26F08CAFD5EF25F04D
:104B9800820E8B5DFF0E8C59D8B0D5EF25F0D7EF7C
:104BA80025F035EF26F095C06EF096C06FF097C0EF
:104BB80070F098C071F0000E726F000E736F800E67
:104BC800746F0C0E756F25EC1DF06EC095F06FC0FC
:104BD80096F070C097F071C098F0660E00018B27B0
:104BE800000E8C238CAF02EF26F0820E8B5DFF0E39
:104BF8008C59D8B002EF26F004EF26F035EF26F0F6
:104C080095C06EF096C06FF097C070F098C071F0C4
:104C1800000E726F000E736F800E746F0C0E756F3E
:104C280025EC1DF06EC095F06FC096F070C097F03F
:104C380071C098F0660E00018B27000E8C238CAF94
:104C48002FEF26F0820E8B5DFF0E8C59D8B02FEF18
:104C580026F031EF26F035EF26F0FF0E8C6F820E2E
:104C68008B6F7F0E8B258D6F000E8C218E6F8F6B57
:104C7800906B170ED8908D378E378F379037E82E78
:104C88003EEF26F08DC091F08EC092F08FC093F069
:104C980090C094F091C06EF092C06FF093C070F025
:104CA80094C071F095C072F096C073F097C074F01C
:104CB80098C075F025EC1DF06EC087F06FC088F0C5
:104CC80070C089F071C08AF087C087F088C088F00A
:104CD80089C089F08AC08AF012000001686F00015B
:104CE8006851D8B47AEF26F07CEF26F09EEF26F0D4
:104CF80063BF83EF26F081EF26F09EEF26F060C0B9
:104D080064F061C065F062C066F063C067F0641F5C
:104D1800651F661F671F642B000E652366236723C4
:104D280064C06AF065C06BF066C06CF067C06DF077
:104D3800A6EF26F060C06AF061C06BF062C06CF04C
:104D480063C06DF06051611162116311D8A4AFEFB7
:104D580026F0B1EF26F0BBEF26F0000E606F000ED4
:104D6800616F000E626F000E636F4CEF27F0960EB6
:104D7800696FC5EF26F0692BD8906D336C336B33B0
:104D88006A33000E6A15646F000E6B15656F000EAE
:104D98006C15666FFE0E6D15676F645165116611AF
:104DA8006711D8A4DAEF26F0DCEF26F0BFEF26F083
:104DB800EAEF26F0692B010E6A27000E6B236C239D
:104DC8006D23D8906D336C336B336A33000E6A15DC
:104DD800646F000E6B15656F000E6C15666FFF0E25
:104DE8006D15676F6451651166116711D8A4FFEFDF
:104DF80026F001EF27F0DEEF26F009EF27F069072C
:104E0800D8906A376B376C376D376CBF0EEF27F069
:104E180010EF27F018EF27F0020E696116EF27F060
:104E280018EF27F003EF27F069B11DEF27F01FEF08
:104E380027F020EF27F06C9FD890693369C064F0A1
:104E4800656B666B676B64C067F0666B656B646BFC
:104E580064516A1365516B1366516C1367516D1376
:104E68006851D8B43AEF27F03CEF27F044EF27F029
:104E780063BF43EF27F041EF27F044EF27F06D8F32
:104E88006AC060F06BC061F06CC062F06DC063F026
:104E98001200096E0950D8B454EF27F056EF27F0E6
:104EA80078EF27F004BE5DEF27F05BEF27F078EF8F
:104EB80027F001C005F002C006F003C007F004C0E7
:104EC80008F0051E061E071E081E052A000E0622EB
:104ED8000722082205C00BF006C00CF007C00DF031
:104EE80008C00EF080EF27F001C00BF002C00CF0F4
:104EF80003C00DF004C00EF001500210031004109E
:104F0800D8A489EF27F08BEF27F095EF27F0000E54
:104F1800016E000E026E000E036E000E046E26EF88
:104F280028F0960E0A6E9FEF27F00A2AD8900E32C4
:104F38000D320C320B32000E0B14056E000E0C14E1
:104F4800066E000E0D14076EFE0E0E14086E055048
:104F5800061007100810D8A4B4EF27F0B6EF27F012
:104F680099EF27F0C4EF27F00A2A010E0B26000E4E
:104F78000C220D220E22D8900E320D320C320B323A
:104F8800000E0B14056E000E0C14066E000E0D14A8
:104F9800076EFF0E0E14086E055006100710081055
:104FA800D8A4D9EF27F0DBEF27F0B8EF27F0E3EF2D
:104FB80027F00A06D8900B360C360D360E360DBE85
:104FC800E8EF27F0EAEF27F0F2EF27F0020E0A6089
:104FD800F0EF27F0F2EF27F0DDEF27F00AB0F7EF58
:104FE80027F0F9EF27F0FAEF27F00D9ED8900A3254
:104FF8000AC005F0066A076A086A05C008F0076A69
:10500800066A056A05500B1206500C1207500D125D
:1050180008500E120950D8B414EF28F016EF28F0F3
:105028001EEF28F004BE1DEF28F01BEF28F01EEF3E
:1050380028F00E8E0BC001F00CC002F00DC003F07A
:105048000EC004F01200000E0001756F000E746FA0
:10505800000E6E6F000E6D6F34EF28F0674B682BF3
:10506800010E736F67C0D9FF68C0DAFF200EDE1823
:10507800D8B441EF28F043EF28F05FEF28F0F70E9F
:10508800696FFF0E6A6F67C0D9FF68C0DAFFDF502B
:105098006B6F6C6B69516B276A516C236C5109E11A
:1050A800050E6B5DD8A05BEF28F05DEF28F05FEF91
:1050B80028F0000E736F73C06FF0706B6F51701132
:1050C800D8A469EF28F06BEF28F032EF28F075EFDD
:1050D80028F0000E6E6F010E6D6F674B682BABEFFB
:1050E80028F067C0D9FF68C0DAFFDF50696F6A6BC4
:1050F8006A51000AD8B483EF28F0ABEF28F0695161
:105108002B0AD8B471EF28F0060AD8B46DEF28F04E
:10511800ABEF28F074C060F075C061F0000E636FEB
:105128000A0E626FD3EC35F067C0D9FF68C0DAFFAA
:10513800DF500001696F6951605F000E615B300EDE
:105148006025746F000E6121756F71EF28F0D00E25
:10515800696FFF0E6A6F67C0D9FF68C0DAFFDF505A
:105168006B6F6C6B69516B276A516C236C510AE148
:105178000A0E6B5DD8A0C3EF28F0C6EF28F0010E29
:10518800C7EF28F0000E716F726B71517211D8A4BD
:10519800D0EF28F0D2EF28F08EEF28F06D516E1185
:1051A800D8A4D9EF28F0DBEF28F0E9EF28F074C095
:1051B80069F075C06AF0691F6A1F694B6A2B69C07C
:1051C80067F06AC068F0EDEF28F074C067F075C04A
:1051D80068F012000001676F530E00016719D8A428
:1051E800F8EF28F0FAEF28F0FEEF28F066EC36F03A
:1051F80000EF29F046EC36F083908394000E00010E
:10520800696F000E686F000E6B6F000E6A6F625157
:105218006311D8A412EF29F014EF29F015EF29F043
:10522800838064516511D8A41CEF29F01EEF29F082
:105238001FEF29F08384CA8471EF29F06251685DF9
:105248006951800A666F6351800A6659D8B02FEF9A
:1052580029F031EF29F048EF29F082A236EF29F042
:1052680038EF29F044EF29F068C060F069C061F0B8
:1052780075EC35F060C068F061C069F049EF29F05D
:10528800000E5E6E49EF29F08380000164516A5D6B
:105298006B51800A666F6551800A6659D8B057EF1E
:1052A80029F059EF29F070EF29F082A45EEF29F078
:1052B80060EF29F06CEF29F06AC060F06BC061F014
:1052C8005CEC35F060C06AF061C06BF071EF29F0FA
:1052D800000E5D6E71EF29F0838400016251685DF4
:1052E8006951800A666F6351800A6659D8A07FEFBA
:1052F80029F081EF29F022EF29F064516A5D6B51A2
:10530800800A666F6551800A6659D8A08EEF29F029
:1053180090EF29F022EF29F0000E5E6E000E6B6F01
:10532800000E6A6F000E5D6ECA941200086E530E6E
:105338000818D8A4A2EF29F0A4EF29F0A8EF29F0C3
:1053480075EC36F0AAEF29F056EC36F0839083948A
:10535800000E0A6E000E096E000E0C6E000E0B6E2B
:1053680003500410D8A4BBEF29F0BDEF29F0BEEF1D
:1053780029F0838005500610D8A4C5EF29F0C7EF9F
:1053880029F0C8EF29F08384CA8419EF2AF0035062
:10539800095C0A50800A076E0450800A0758D8B082
:1053A800D8EF29F0DAEF29F0F1EF29F082A2DFEF48
:1053B80029F0E1EF29F0EDEF29F009C001F00AC06A
:1053C80002F0A6EC35F001C009F002C00AF0F2EFD5
:1053D80029F0000E5E6EF2EF29F0838005500B5C19
:1053E8000C50800A076E0650800A0758D8B0FFEFA5
:1053F80029F001EF2AF018EF2AF082A406EF2AF02C
:1054080008EF2AF014EF2AF00BC001F00CC002F0EC
:105418008EEC35F001C00BF002C00CF019EF2AF049
:10542800000E5D6E19EF2AF083840350095C0A5060
:10543800800A076E0450800A0758D8A026EF2AF081
:1054480028EF2AF0CBEF29F005500B5C0C50800AAE
:10545800076E0650800A0758D8A035EF2AF037EFB4
:105468002AF0CBEF29F0000E5E6E000E0C6E000ED7
:105478000B6E000E5D6ECA94120000016C6F000E78
:1054880000016F6F000E6E6F6C516E256D6F6E515F
:105498006825D96E6F516921DA6EDF50606F6D51E2
:1054A80042EC35F000016E4B6F2B6FBF65EF2AF0B1
:1054B8006F5109E1030E6E5DD8A065EF2AF067EF22
:1054C8002AF048EF2AF08F0E606F7F0E616F000E92
:1054D800636F040E626F24EC32F0000E0001716FEE
:1054E800000E706F6C517025030F6D6F7051682539
:1054F8006A6F715169216B6F040E6A25D96E000EAF
:105508006B21DA6EDF50606F6D5142EC35F00001AF
:10551800704B712B71BF9AEF2AF0715109E1030E9C
:10552800705DD8A09AEF2AF09CEF2AF076EF2AF067
:10553800940E606F7F0E616F000E636F040E626FD2
:1055480024EC32F0000E0001736F000E726F6C5184
:105558007225060F6D6F725168256A6F7351692144
:105568006B6F080E6A25D96E000E6B21DA6EDF505C
:10557800606F6D5142EC35F00001724B732B73BFB5
:10558800CFEF2AF0735109E1030E725DD8A0CFEF77
:105598002AF0D1EF2AF0ABEF2AF0990E606F7F0E58
:1055A800616F000E636F040E626F24EC32F012001C
:1055B8000001796F000E00017F6F000E7E6F795138
:1055C8007E25060F7A6F7B0E7E25D96E000E7F2111
:1055D800DA6E7A51B8EC36F0DF6E00017E4B7F2B25
:1055E8007FBF00EF2BF07F5109E1030E7E5DD8A04D
:1055F80000EF2BF002EF2BF0E3EF2AF0000E816FA3
:10560800000E806F7B0E8025D96E000E8121DA6E28
:105618002F0EDF6412EF2BF014EF2BF022EF2BF09C
:105628007B0E8025D96E000E8121DA6E390EDF647B
:1056380020EF2BF022EF2BF025EF2BF0010E0101CC
:10564800D36F0001804B812B81BF34EF2BF0815148
:1056580009E1030E805DD8A034EF2BF036EF2BF074
:1056680006EF2BF07B0E676F000E686F27EC28F0B3
:1056780076C0D9FF77C0DAFF000167C0DEFF68C0D7
:10568800DDFFFA0E606F7F0E616F000E636F020E12
:10569800626F24EC32F07B0E0001606F000E616FC8
:1056A800000E636F030E626F24EC32F0E8C160F005
:1056B800E9C161F028EC35F0E8C160F0E9C161F0BA
:1056C80075EC34F01200000E0001696F67BF71EFCE
:1056D8002BF06FEF2BF07BEF2BF0671F661F651F1A
:1056E800646D000E652366236723010E696F63BF2F
:1056F80082EF2BF080EF2BF08CEF2BF0631F621FF3
:10570800611F606D000E612362236323010E691B14
:10571800000E6A6F000E6B6F000E6C6F000E6D6FDF
:105728006451651166116711D8B49DEF2BF09FEF96
:105738002BF0D5EF2BF0010E686FA9EF2BF0D89066
:105748006437653766376737682B67AFAEEF2BF07E
:10575800B0EF2BF0A3EF2BF0D8906A376B376C378C
:105768006D376451605D6551615966516259675181
:105778006359D8A0C2EF2BF0C4EF2BF0CDEF2BF07C
:105788006451605F6551615B6651625B6751635B41
:105798006A81D8906733663365336433682FB0EF16
:1057A8002BF06951D8B4DBEF2BF0DDEF2BF0E5EFF0
:1057B8002BF06D1F6C1F6B1F6A6D000E6B236C2323
:1057C8006D236AC060F06BC061F06CC062F06DC0A0
:1057D80063F012000001796F000E00017F6F000E68
:1057E8007E6F79517E25030F7A6F7B0E7E25D96EE9
:1057F800000E7F21DA6E7A51B8EC36F0DF6E0001C8
:105808007E4B7F2B7FBF12EF2CF07F5109E1030EF7
:105818007E5DD8A012EF2CF014EF2CF0F5EF2BF0F2
:10582800000E816F000E806F7B0E8025D96E000EF2
:105838008121DA6E2F0EDF6424EF2CF026EF2CF096
:1058480034EF2CF07B0E8025D96E000E8121DA6EA4
:10585800390EDF6432EF2CF034EF2CF037EF2CF0F8
:10586800010E0101D36F0001804B812B81BF46EFF0
:105878002CF0815109E1030E805DD8A046EF2CF091
:1058880048EF2CF018EF2CF07B0E676F000E686F56
:1058980027EC28F076C0D9FF77C0DAFF000167C08F
:1058A800DEFF68C0DDFFF70E606F7F0E616F000ED0
:1058B800636F020E626F24EC32F07B0E0001606FA2
:1058C800000E616F000E636F030E626F24EC32F0FE
:1058D800EAC160F0EBC161F028EC35F0120000017C
:1058E800796F000E00017F6F000E7E6F79517E2563
:1058F8007A6F7B0E7E25D96E000E7F21DA6E7A5183
:10590800B8EC36F0DF6E00017E4B7F2B7FBF96EF41
:105918002CF07F5109E1030E7E5DD8A096EF2CF0A4
:1059280098EF2CF07AEF2CF0000E816F000E806F4C
:105938007B0E8025D96E000E8121DA6E2F0EDF6472
:10594800A8EF2CF0AAEF2CF0B8EF2CF07B0E8025F6
:10595800D96E000E8121DA6E390EDF64B6EF2CF0B5
:10596800B8EF2CF0BBEF2CF0010E0101D36F000152
:10597800804B812B81BFCAEF2CF0815109E1030EC6
:10598800805DD8A0CAEF2CF0CCEF2CF09CEF2CF067
:105998007B0E676F000E686F27EC28F076C0D9FF82
:1059A80077C0DAFF000167C0DEFF68C0DDFFF40ED4
:1059B800606F7F0E616F000E636F020E626F24ECE2
:1059C80032F07B0E0001606F000E616F000E636F96
:1059D800030E626F24EC32F0ECC160F0EDC161F0AF
:1059E80028EC35F012000001BA35BB35C16FC15142
:1059F800D8A401EF2DF003EF2DF00DEF2DF0000EE0
:105A0800B86F000EB96F000EBA6F000EBB6F7AEF59
:105A18002DF0B8C0BCF0B9C0BDF0BAC0BEF0BBC074
:105A2800BFF0200E1DEF2DF0D890BF33BE33BD332D
:105A3800BC33E82E18EF2DF0BC51C06FBA8FFF0EA3
:105A4800B817FF0EB917FF0EBA17000EBB17960E40
:105A5800C15FC1BF34EF2DF032EF2DF04AEF2DF0CA
:105A6800C151800A970FD8B03CEF2DF03EEF2DF0D2
:105A780040EF2DF003EF2DF0D890BB33BA33B93394
:105A8800B833C13F40EF2DF062EF2DF01F0EC16516
:105A980050EF2DF052EF2DF05AEF2DF003EF2DF0CF
:105AA800D890B837B937BA37BB37C107C151D8A46E
:105AB80060EF2DF062EF2DF054EF2DF0C051D8B407
:105AC80068EF2DF06AEF2DF072EF2DF0BB1FBA1FB3
