:020000040000FA
:0400000007EF00F016
:100008005C82B4ED11F049EF14F0959095949592B7
:10001800959683808380949294948292000E000136
:100028009E6FC30E606F7C0E616F000E636F2A0EA9
:10003800626F7BEC11F000019E51D8A426EF00F00E
:1000480028EF00F035EF00F0120E606F7F0E616F41
:10005800000E636F180E626F7BEC11F0010E000149
:100068009E6F14EC15F000019F6FEDEF01F0C40EC8
:10007800606F000E616F070E58EC12F0430E00011E
:10008800606F7F0E616F000E636F160E626F7BEC00
:1000980011F0C40E0001766F000E776FCF0E786FE7
:1000A800000E796FDBEC0FF0C40E0001766F000EC6
:1000B800776FCD0E786F000E796F70EC0FF0CFC0B0
:1000C80060F0D0C061F0B8EC13F0CDC060F0CEC0E5
:1000D80061F0B8EC13F00001B505D8A476EF00F094
:1000E80078EF00F087EF00F0180E606F7D0E616FFB
:1000F800000E636F230E626F7BEC11F0000E00019F
:10010800B56F1FEF00F0B405D8A48DEF00F08FEFA6
:1001180000F09EEF00F03C0E606F7D0E616F000EE8
:10012800636F1F0E626F7BEC11F0000E0001B46F5D
:100138001FEF00F0CFC097F0D0C098F0CDC099F075
:10014800CEC09AF09F5140EC10F01FEF00F0C40EA3
:10015800606F000E616F070E58EC12F0430E00013D
:10016800606F7F0E616F000E636F160E626F7BEC1F
:1001780011F0C40E0001766F000E776FCF0E786F06
:10018800000E796FDBEC0FF0C40E0001766F000EE5
:10019800776FCD0E786F000E796F70EC0FF0CFC0CF
:1001A80060F0D0C061F0B8EC13F0CDC060F0CEC004
:1001B80061F0B8EC13F00001B505D8A4E6EF00F043
:1001C800E8EF00F0F4EF00F0180E606F7D0E616F3D
:1001D800000E636F230E626F7BEC11F082EF00F06C
:1001E800B405D8A4FAEF00F0FCEF00F008EF01F036
:1001F8003C0E606F7D0E616F000E636F1F0E626FA5
:100208007BEC11F099EF00F0CFC097F0D0C098F0D8
:10021800CDC099F0CEC09AF09F5140EC10F01FEF7E
:1002280000F0430E606F7F0E616F000E636F160E55
:10023800626F7BEC11F083EC13F01FEF00F0430EBC
:10024800606F7F0E616F000E636F160E626F7BEC3E
:1002580011F0C3EC14F01FEF00F0430E606F7F0E37
:10026800616F000E636F160E626F7BEC11F0B6ECD7
:1002780014F01FEF00F02B0E606F7F0E616F000E01
:10028800636F170E626F7BEC11F014EC15F0000130
:10029800B66FB651B6EC05F00001B66FCF0E766FAB
:1002A800000E776FB6517BEC0EF0CD0E0001766F25
:1002B800000E776FB65175EC0DF0CB0E0001766F1E
:1002C800000E776FB651F2EC0CF00001B505D8A41A
:1002D80070EF01F072EF01F089EF01F0180E606F16
:1002E8007D0E616F000E636F230E626F7BEC11F061
:1002F800EE0E0001606F7C0E616F000E636F290EB9
:10030800626F7BEC11F082EF00F0B405D8A48FEF98
:1003180001F091EF01F0A8EF01F03C0E606F7D0E47
:10032800616F000E636F1F0E626F7BEC11F0EE0EB3
:100338000001606F7C0E616F000E636F290E626FA3
:100348007BEC11F099EF00F0CFC097F0D0C098F097
:10035800CDC099F0CEC09AF09F5140EC10F01FEF3D
:1003680000F014EC15F00001B66FB90E606F000EC6
:10037800616F0B0E58EC12F02B0E0001606F7F0EB0
:10038800616F000E636F170E626F7BEC11F0000156
:10039800B651B6EC05F00001B66FB90E686F000EE5
:1003A800696FB651BEEC0AF01FEF00F0410EDDECAC
:1003B80014F0E1EF01F026EC12F080AAE6EF01F06C
:1003C800E8EF01F0DFEF01F0450EDDEC14F01FEF70
:1003D80000F09F519C6F9D6B9D51000AD8B4F7EFB8
:1003E80001F01FEF00F09C51410AD8B4DAEF01F098
:1003F800070AD8B43BEF00F00E0AD8B423EF01F097
:10040800050AD8B4B5EF01F0020AD8B43FEF01F0FD
:100418001D0AD8B431EF01F0010AD8B4ABEF00F0EF
:10042800070AD8B415EF01F01FEF00F01200000121
:100438007151800B7E6F71517125856F70AF27EFF9
:1004480002F029EF02F02AEF02F085818551D8B435
:1004580030EF02F032EF02F047EF02F08529D8A41E
:1004680038EF02F03AEF02F042EF02F0000E6E6F42
:10047800000E6F6F000E706F000E716F708F000EA0
:10048800716F4FEF02F0000E6E6F000E6F6F000E6F
:10049800706F000E716F7551800B7E1B755175253D
:1004A800866F74AF5AEF02F05CEF02F05DEF02F076
:1004B80086818651D8B463EF02F065EF02F07AEFD7
:1004C80002F08629D8A46BEF02F06DEF02F075EF09
:1004D80002F0000E726F000E736F000E746F000E44
:1004E800756F748F000E756F82EF02F0000E726FD9
:1004F800000E736F000E746F000E756F72517311DA
:1005080074117511D8A48BEF02F08DEF02F0A5EFEE
:1005180002F0000E6E6F000E6F6F000E706F000E0F
:10052800716F800E70137F0E71137E5171136EC040
:100538006EF06FC06FF070C070F071C071F0E8EFCE
:1005480003F08551D8A4ABEF02F0ADEF02F0B7EF9E
:1005580002F0000E6E6F000E6F6F000E706F000ECF
:10056800716FE8EF03F0865185C076F0776B765FA0
:10057800000E775B7F0E76257F6F000E7721806FE8
:100588006EC07AF06FC07BF070C07CF071C07DF0F7
:10059800000E6E6F000E6F6F000E706F000E716FA1
:1005A800000E816F000E826F000E836F000E846F45
:1005B800000E866F18EF03F08651D8B4E6EF02F00C
:1005C800E8EF02F0FFEF02F0D8907A377B377C37FC
:1005D8007D37D8906E376F377037713784AFF7EF44
:1005E80002F0F9EF02F0FAEF02F06E81D89081374D
:1005F80082378337843772517A5D73517B597451CE
:100608007C5975517D59D8A00CEF03F00EEF03F01B
:1006180017EF03F0848D72517A5F73517B5B7451CD
:100628007C5B75517D5B862B190E86651EEF03F08A
:1006380020EF03F0E0EF02F07A517B117C117D117D
:10064800D8B429EF03F02BEF03F043EF03F08181D7
:1006580043EF03F0D8906E376F377037713784AF38
:1006680038EF03F03AEF03F03BEF03F06E81D890D8
:1006780081378237833784377F07D8A0800770AFE8
:1006880048EF03F04AEF03F02EEF03F0000E866FF9
:1006980084AF51EF03F053EF03F077EF03F0FF0E51
:1006A8008115766FFF0E8215776FFF0E8315786FB1
:1006B8007F0E8415796F7651771178117911D8B436
:1006C80068EF03F06AEF03F06EEF03F0010E866F38
:1006D80077EF03F06EA173EF03F075EF03F077EF98
:1006E80003F06AEF03F08651D8B47DEF03F07FEF93
:1006F80003F0A3EF03F0010E6E27000E6F237023A3
:10070800712371A18AEF03F08CEF03F0A3EF03F0DC
:100718006EC076F06FC077F070C078F071C079F075
:100728007935793378337733763376C06EF077C09E
:100738006FF078C070F079C071F07F4B802B80BF6C
:10074800AEEF03F0805108E17F29D8A0AEEF03F0A7
:10075800B0EF03F0BBEF03F0000E806F7F69000E6F
:100768006E6F000E6F6F000E706F000E716F80BF9E
:10077800C8EF03F0805106E17F05D8B0C6EF03F05B
:10078800C8EF03F0D6EF03F0000E806F000E7F6F06
:10079800000E6E6F000E6F6F000E706F000E716F9F
:1007A800000E7E6F7FC085F085A1DDEF03F0DFEFDF
:1007B80003F0E2EF03F0708FE3EF03F0709FD8903F
:1007C8008531716F99EF02F012001250800B1F6E85
:1007D80012501224266E11AEF4EF03F0F6EF03F078
:1007E800F7EF03F026802650D8B4FDEF03F0FFEFB3
:1007F80003F014EF04F02628D8A405EF04F007EF5F
:1008080004F00FEF04F0000E0F6E000E106E000ED5
:10081800116E000E126E118E000E126E1CEF04F097
:10082800000E0F6E000E106E000E116E000E126E8E
:100838001650800B1F1A16501624276E15AE27EF78
:1008480004F029EF04F02AEF04F027802750D8B4E9
:1008580030EF04F032EF04F047EF04F02728D8A473
:1008680038EF04F03AEF04F042EF04F0000E136E94
:10087800000E146E000E156E000E166E158E000E0C
:10088800166E4FEF04F0000E136E000E146E000E7D
:10089800156E000E166E1350141015101610D8A4ED
:1008A80058EF04F05AEF04F072EF04F0000E0F6EE8
:1008B800000E106E000E116E000E126E800E1112D8
:1008C8007F0E12121F5012120FC00FF010C010F03E
:1008D80011C011F012C012F0B5EF05F02650D8A4DF
:1008E80078EF04F07AEF04F084EF04F0000E0F6E56
:1008F800000E106E000E116E000E126EB5EF05F0B0
:10090800275026C017F0186A175E000E185A7F0E77
:100918001724206E000E1820216E0FC01BF010C087
:100928001CF011C01DF012C01EF0000E0F6E000E5C
:10093800106E000E116E000E126E000E226E000E6A
:10094800236E000E246E000E256E000E276EE5EF56
:1009580004F02750D8B4B3EF04F0B5EF04F0CCEFAF
:1009680004F0D8901B361C361D361E36D8900F362C
:1009780010361136123625AEC4EF04F0C6EF04F077
:10098800C7EF04F00F80D890223623362436253658
:1009980013501B5C14501C5815501D5816501E58E7
:1009A800D8A0D9EF04F0DBEF04F0E4EF04F0258CD5
:1009B80013501B5E14501C5A15501D5A16501E5ABF
:1009C800272A190E2764EBEF04F0EDEF04F0ADEFE2
:1009D80004F01B501C101D101E10D8B4F6EF04F0C4
:1009E800F8EF04F010EF05F0228010EF05F0D89032
:1009F8000F3610361136123625AE05EF05F007EF23
:100A080005F008EF05F00F80D890223623362436FB
:100A180025362006D8A0210611AE15EF05F017EFF0
:100A280005F0FBEF04F0000E276E25AE1EEF05F073
:100A380020EF05F044EF05F0FF0E2214176EFF0EAD
:100A48002314186EFF0E2414196E7F0E25141A6EC7
:100A58001750181019101A10D8B435EF05F037EFE1
:100A680005F03BEF05F0010E276E44EF05F00FA0EF
:100A780040EF05F042EF05F044EF05F037EF05F0E1
:100A88002750D8B44AEF05F04CEF05F070EF05F0A9
:100A9800010E0F26000E10221122122212A057EF6B
:100AA80005F059EF05F070EF05F00FC017F010C012
:100AB80018F011C019F012C01AF01A341A3219328B
:100AC8001832173217C00FF018C010F019C011F003
:100AD8001AC012F0204A212A21BE7BEF05F02150CE
:100AE80008E12028D8A07BEF05F07DEF05F088EF1E
:100AF80005F0000E216E2068000E0F6E000E106EBD
:100B0800000E116E000E126E21BE95EF05F02150F9
:100B180006E12004D8B093EF05F095EF05F0A3EFB8
:100B280005F0000E216E000E206E000E0F6E000EF6
:100B3800106E000E116E000E126E000E1F6E20C099
:100B480026F026A0AAEF05F0ACEF05F0AFEF05F010
:100B5800118EB0EF05F0119ED8902630126E66EF18
:100B680004F0120000016A6F9AEF06F0000E6A6F37
:100B7800040E606F7E0E616F000E636F1A0E626F57
:100B88007BEC11F0E8EF06F0100E6A6F1F0E606F35
:100B98007E0E616F000E636F190E626F7BEC11F0B1
:100BA800E8EF06F0200E6A6F3A0E606F7E0E616FF6
:100BB800000E636F1A0E626F7BEC11F0E8EF06F01F
:100BC800300E6A6F550E606F7E0E616F000E636F98
:100BD8001A0E626F7BEC11F0E8EF06F0400E6A6FB8
:100BE800700E606F7E0E616F000E636F1A0E626F7B
:100BF8007BEC11F0E8EF06F0500E6A6F8B0E606F19
:100C08007E0E616F000E636F1A0E626F7BEC11F03F
:100C1800E8EF06F0600E6A6FA60E606F7E0E616FD9
:100C2800000E636F1A0E626F7BEC11F0E8EF06F0AE
:100C3800700E6A6FC10E606F7E0E616F000E636F7B
:100C48001A0E626F7BEC11F0E8EF06F0800E6A6F07
:100C5800DC0E606F7E0E616F000E636F1A0E626F9E
:100C68007BEC11F0E8EF06F0900E6A6FF70E606FFC
:100C78007E0E616F000E636F1A0E626F7BEC11F0CF
:100C8800E8EF06F0A00E6A6F5C0E606F7D0E616F74
:100C9800000E636F1B0E626F7BEC11F0E8EF06F03D
:100CA800B00E6A6F780E606F7D0E616F000E636F15
:100CB8001B0E626F7BEC11F0E8EF06F0C00E6A6F56
:100CC800940E606F7D0E616F000E636F1B0E626F76
:100CD8007BEC11F0E8EF06F0D00E6A6FB00E606F93
:100CE8007D0E616F000E636F1B0E626F7BEC11F05F
:100CF800E8EF06F0E00E6A6FCC0E606F7D0E616F54
:100D0800000E636F1B0E626F7BEC11F0E8EF06F0CC
:100D1800F00E6A6FE80E606F7D0E616F000E636FF4
:100D28001B0E626F7BEC11F0E8EF06F000016A51D0
:100D3800686F696B6951000AD8B4A5EF06F0E8EF4F
:100D480006F06851300AD8B4BAEF05F0010AD8B4F1
:100D5800C8EF05F0030AD8B4D6EF05F0010AD8B4F5
:100D6800E4EF05F0070AD8B4F2EF05F0010AD8B4A9
:100D780000EF06F0030AD8B40EEF06F0010AD8B463
:100D88001CEF06F00F0AD8B42AEF06F0010AD8B40F
:100D980038EF06F0780AD8B446EF06F0030AD8B45C
:100DA80054EF06F0010AD8B462EF06F0070AD8B487
:100DB80070EF06F0010AD8B47EEF06F0030AD8B443
:100DC8008CEF06F0E8EF06F000016A51120000010E
:100DD800686F00016851D8B4F4EF06F0F6EF06F03A
:100DE80018EF07F063BFFDEF06F0FBEF06F018EF12
:100DF80007F060C064F061C065F062C066F063C06F
:100E080067F0641F651F661F671F642B000E65234C
:100E18006623672364C06AF065C06BF066C06CF037
:100E280067C06DF020EF07F060C06AF061C06BF03A
:100E380062C06CF063C06DF06051611162116311A2
:100E4800D8A429EF07F02BEF07F035EF07F0000ED5
:100E5800606F000E616F000E626F000E636FC6EF69
:100E680007F0960E696F3FEF07F0692BD8906D3346
:100E78006C336B336A33000E6A15646F000E6B15A2
:100E8800656F000E6C15666FFE0E6D15676F645109
:100E9800651166116711D8A454EF07F056EF07F0F3
:100EA80039EF07F064EF07F0692B010E6A27000E8F
:100EB8006B236C236D23D8906D336C336B336A339B
:100EC800000E6A15646F000E6B15656F000E6C15C9
:100ED800666FFF0E6D15676F6451651166116711B6
:100EE800D8A479EF07F07BEF07F058EF07F083EF0E
:100EF80007F06907D8906A376B376C376D376CBF66
:100F080088EF07F08AEF07F092EF07F0020E6961A9
:100F180090EF07F092EF07F07DEF07F069B197EFD8
:100F280007F099EF07F09AEF07F06C9FD8906933B4
:100F380069C064F0656B666B676B64C067F0666B6D
:100F4800656B646B64516A1365516B1366516C135E
:100F580067516D136851D8B4B4EF07F0B6EF07F0D6
:100F6800BEEF07F063BFBDEF07F0BBEF07F0BEEFC2
:100F780007F06D8F6AC060F06BC061F06CC062F002
:100F88006DC063F01200096E0950D8B4CEEF07F0B7
:100F9800D0EF07F0F2EF07F004BED7EF07F0D5EF78
:100FA80007F0F2EF07F001C005F002C006F003C039
:100FB80007F004C008F0051E061E071E081E052AB5
:100FC800000E06220722082205C00BF006C00CF00E
:100FD80007C00DF008C00EF0FAEF07F001C00BF0E3
:100FE80002C00CF003C00DF004C00EF00150021056
:100FF80003100410D8A403EF08F005EF08F00FEF72
:1010080008F0000E016E000E026E000E036E000E58
:10101800046EA0EF08F0960E0A6E19EF08F00A2A7F
:10102800D8900E320D320C320B32000E0B14056EB6
:10103800000E0C14066E000E0D14076EFE0E0E1434
:10104800086E0550061007100810D8A42EEF08F0F7
:1010580030EF08F013EF08F03EEF08F00A2A010E0F
:101068000B26000E0C220D220E22D8900E320D32C5
:101078000C320B32000E0B14056E000E0C14066EAB
:10108800000E0D14076EFF0E0E14086E05500610A4
:1010980007100810D8A453EF08F055EF08F032EF06
:1010A80008F05DEF08F00A06D8900B360C360D36BE
:1010B8000E360DBE62EF08F064EF08F06CEF08F032
:1010C800020E0A606AEF08F06CEF08F057EF08F0BC
:1010D8000AB071EF08F073EF08F074EF08F00D9E96
:1010E800D8900A320AC005F0066A076A086A05C07D
:1010F80008F0076A066A056A05500B1206500C12BA
:1011080007500D1208500E120950D8B48EEF08F08F
:1011180090EF08F098EF08F004BE97EF08F095EF0D
:1011280008F098EF08F00E8E0BC001F00CC002F02A
:101138000DC003F00EC004F01200000E0001756F20
:10114800000E746F000E6E6F000E6D6FAEEF08F03C
:10115800674B682B010E736F67C0D9FF68C0DAFF51
:10116800200EDE18D8B4BBEF08F0BDEF08F0D9EFB9
:1011780008F0F70E696FFF0E6A6F67C0D9FF68C085
:10118800DAFFDF506B6F6C6B69516B276A516C2308
:101198006C5109E1050E6B5DD8A0D5EF08F0D7EFCB
:1011A80008F0D9EF08F0000E736F73C06FF0706B22
:1011B8006F517011D8A4E3EF08F0E5EF08F0ACEF39
:1011C80008F0EFEF08F0000E6E6F010E6D6F674BC1
:1011D800682B25EF09F067C0D9FF68C0DAFFDF5038
:1011E800696F6A6B6A51000AD8B4FDEF08F025EF01
:1011F80009F069512B0AD8B4EBEF08F0060AD8B405
:10120800E7EF08F025EF09F074C060F075C061F0F1
:10121800000E636F0A0E626F35EC14F067C0D9FFD9
:1012280068C0DAFFDF500001696F6951605F000E26
:10123800615B300E6025746F000E6121756FEBEFF6
:1012480008F0D00E696FFF0E6A6F67C0D9FF68C0DB
:10125800DAFFDF506B6F6C6B69516B276A516C2337
:101268006C510AE10A0E6B5DD8A03DEF09F040EF22
:1012780009F0010E41EF09F0000E716F726B7151A8
:101288007211D8A44AEF09F04CEF09F008EF09F001
:101298006D516E11D8A453EF09F055EF09F063EFC3
:1012A80009F074C069F075C06AF0691F6A1F694B5C
:1012B8006A2B69C067F06AC068F067EF09F074C00C
:1012C80067F075C068F012000001676F530E0001E7
:1012D8006719D8A472EF09F074EF09F078EF09F0F4
:1012E8007CEC14F07AEF09F05CEC14F083908394B2
:1012F800000E0001696F000E686F000E6B6F000E24
:101308006A6F62516311D8A48CEF09F08EEF09F06F
:101318008FEF09F0838064516511D8A496EF09F026
:1013280098EF09F099EF09F08384CA84EBEF09F08C
:101338006251685D6951800A666F6351800A665917
:10134800D8B0A9EF09F0ABEF09F0C2EF09F082A21B
:10135800B0EF09F0B2EF09F0BEEF09F068C060F035
:1013680069C061F0EAEC13F060C068F061C069F030
:10137800C3EF09F0000EB86FC3EF09F083800001D6
:1013880064516A5D6B51800A666F6551800A6659BF
:10139800D8B0D1EF09F0D3EF09F0EAEF09F082A451
:1013A800D8EF09F0DAEF09F0E6EF09F06AC060F06B
:1013B8006BC061F0D1EC13F060C06AF061C06BF0F3
:1013C800EBEF09F0000EB76FEBEF09F08384000133
:1013D8006251685D6951800A666F6351800A665977
:1013E800D8A0F9EF09F0FBEF09F09CEF09F0645180
:1013F8006A5D6B51800A666F6551800A6659D8A08C
:1014080008EF0AF00AEF0AF09CEF09F0000EB86F37
:10141800000E6B6F000E6A6F000EB76FCA94120051
:10142800086E530E0818D8A41CEF0AF01EEF0AF035
:1014380022EF0AF08BEC14F024EF0AF06CEC14F0B5
:1014480083908394000E0A6E000E096E000E0C6ED7
:10145800000E0B6E03500410D8A435EF0AF037EFD6
:101468000AF038EF0AF0838005500610D8A43FEF41
:101478000AF041EF0AF042EF0AF08384CA8495EF3C
:101488000AF00350095C0A50800A076E0450800A6B
:101498000758D8B052EF0AF054EF0AF06CEF0AF090
:1014A80082A259EF0AF05BEF0AF067EF0AF009C071
:1014B80001F00AC002F01CEC14F001C009F002C0EF
:1014C8000AF06DEF0AF0000E0001B86F6DEF0AF038
:1014D800838005500B5C0C50800A076E0650800A0A
:1014E8000758D8B07AEF0AF07CEF0AF094EF0AF0C8
:1014F80082A481EF0AF083EF0AF08FEF0AF00BC0A5
:1015080001F00CC002F003EC14F001C00BF002C0B3
:101518000CF095EF0AF0000E0001B76F95EF0AF096
:1015280083840350095C0A50800A076E0450800ABD
:101538000758D8A0A2EF0AF0A4EF0AF045EF0AF086
:1015480005500B5C0C50800A076E0650800A07583D
:10155800D8A0B1EF0AF0B3EF0AF045EF0AF0000E99
:101568000001B86F000E0C6E000E0B6E000EB76F08
:10157800CA94120000016C6F000E00016F6F000E1C
:101588006E6F6C516E256D6F6E516825D96E6F51F7
:101598006921DA6EDF50606F6D519EEC13F0000127
:1015A8006E4B6F2B6FBFE2EF0AF06F5109E1030E2C
:1015B8006E5DD8A0E2EF0AF0E4EF0AF0C5EF0AF09A
:1015C8005A0E606F7F0E616F000E636F130E626FAD
:1015D8007BEC11F0000E0001716F000E706F6C5102
:1015E8007025030F6D6F705168256A6F71516921FD
:1015F8006B6F040E6A25D96E000E6B21DA6EDF5010
:10160800606F6D519EEC13F00001704B712B71BF30
:1016180017EF0BF0715109E1030E705DD8A017EFB9
:101628000BF019EF0BF0F3EF0AF06E0E606F7F0E00
:10163800616F000E636F130E626F7BEC11F0000E8A
:101648000001736F000E726F6C517225060F6D6F7B
:10165800725168256A6F735169216B6F080E6A258C
:10166800D96E000E6B21DA6EDF50606F6D519EEC03
:1016780013F00001724B732B73BF4CEF0BF07351D7
:1016880009E1030E725DD8A04CEF0BF04EEF0BF0A2
:1016980028EF0BF0820E606F7F0E616F000E636F94
:1016A800130E626F7BEC11F01200720ED36EA8EC71
:1016B80014F0D0EC14F00AEC15F09AEC14F000ECED
:1016C80015F08C98800E00016E6F250E6F6F000E5E
:1016D800706F000E716F06EC11F0960E0001606FCE
:1016E8007F0E616F000E636F110E626F7BEC11F05D
:1016F800410EB0EC12F0A80E0001606F7F0E616F12
:10170800000E636F0E0E626F7BEC11F0030E00018A
:10171800A16F080EA06F770EE82EFED7A02FFCD77A
:10172800A12FFAD7030E0001A16F080EA06F770E44
:10173800E82EFED7A02FFCD7A12FFAD7030E000161
:10174800A16F080EA06F770EE82EFED7A02FFCD74A
:10175800A12FFAD7560EB0EC12F0030E0001A16FBC
:10176800080EA06F770EE82EFED7A02FFCD7A12F6A
:10177800FAD7030E0001A16F080EA06F770EE82EAE
:10178800FED7A02FFCD7A12FFAD7030E0001A16F17
:10179800080EA06F770EE82EFED7A02FFCD7A12F3A
:1017A800FAD7520EFDEC0EF0E30E0001606F7F0ECB
:1017B800616F000E636F0A0E626F7BEC11F009EC2B
:1017C80000F007EF00F0000E0001696F67BFF1EF4E
:1017D8000BF0EFEF0BF0FBEF0BF0671F661F651FB9
:1017E800646D000E652366236723010E696F63BF6E
:1017F80002EF0CF000EF0CF00CEF0CF0631F621F0F
:10180800611F606D000E612362236323010E691B53
:10181800000E6A6F000E6B6F000E6C6F000E6D6F1E
:101828006451651166116711D8B41DEF0CF01FEFF4
:101838000CF055EF0CF0010E686F29EF0CF0D89002
:101848006437653766376737682B67AF2EEF0CF05C
:1018580030EF0CF023EF0CF0D8906A376B376C3709
:101868006D376451605D65516159665162596751C0
:101878006359D8A042EF0CF044EF0CF04DEF0CF098
:101888006451605F6551615B6651625B6751635B80
:101898006A81D8906733663365336433682F30EFD5
:1018A8000CF06951D8B45BEF0CF05DEF0CF065EF0C
:1018B8000CF06D1F6C1F6B1F6A6D000E6B236C2381
:1018C8006D236AC060F06BC061F06CC062F06DC0DF
:1018D80063F01200000189358A35906F9051D8A4C1
:1018E80078EF0CF07AEF0CF084EF0CF0000E876FB5
:1018F800000E886F000E896F000E8A6FF1EF0CF0F2
:1019080087C08BF088C08CF089C08DF08AC08EF0BB
:10191800200E94EF0CF0D8908E338D338C338B33AC
:10192800E82E8FEF0CF08B518F6F898FFF0E871782
:10193800FF0E8817FF0E8917000E8A17960E905F04
:1019480090BFABEF0CF0A9EF0CF0C1EF0CF0905189
:10195800800A970FD8B0B3EF0CF0B5EF0CF0B7EFE3
:101968000CF07AEF0CF0D8908A33893388338733B8
:10197800903FB7EF0CF0D9EF0CF01F0E9065C7EF52
:101988000CF0C9EF0CF0D1EF0CF07AEF0CF0D89016
:101998008737883789378A3790079051D8A4D7EF87
:1019A8000CF0D9EF0CF0CBEF0CF08F51D8B4DFEF7F
:1019B8000CF0E1EF0CF0E9EF0CF08A1F891F881F8B
:1019C800876D000E882389238A2387C087F088C003
:1019D80088F089C089F08AC08AF012000001796F06
:1019E800000E00017F6F000E7E6F79517E25060F75
:1019F8007A6F7B0E7E25D96E000E7F21DA6E7A51C2
:101A0800F5EC14F0DF6E00017E4B7F2B7FBF16EFE5
:101A18000DF07F5109E1030E7E5DD8A016EF0DF0A1
:101A280018EF0DF0F9EF0CF0000E816F000E806FCB
:101A38007B0E8025D96E000E8121DA6E2F0EDF64B1
:101A480028EF0DF02AEF0DF038EF0DF07B0E802512
:101A5800D96E000E8121DA6E390EDF6436EF0DF093
:101A680038EF0DF03AEF0DF0010EB46F804B812B7B
:101A780081BF48EF0DF0815109E1030E805DD8A0C8
:101A880048EF0DF04AEF0DF01CEF0DF07B0E676F7D
:101A9800000E686FA1EC08F076C0D9FF77C0DAFFB6
:101AA800000167C0DEFF68C0DDFFC60E606F7F0EF5
:101AB800616F000E636F0E0E626F7BEC11F07B0E90
:101AC8000001606F000E616F000E636F030E626F9E
:101AD8007BEC11F0CBC060F0CCC061F0B8EC13F037
:101AE80012000001796F000E00017F6F000E7E6FFB
:101AF80079517E25030F7A6F7B0E7E25D96E000EF5
:101B08007F21DA6E7A51F5EC14F0DF6E00017E4B1E
:101B18007F2B7FBF99EF0DF07F5109E1030E7E5DAA
:101B2800D8A099EF0DF09BEF0DF07CEF0DF0000EB3
:101B3800816F000E806F7B0E8025D96E000E81218B
:101B4800DA6E2F0EDF64ABEF0DF0ADEF0DF0BBEFEB
:101B58000DF07B0E8025D96E000E8121DA6E390ECC
:101B6800DF64B9EF0DF0BBEF0DF0BDEF0DF0010E26
:101B7800B46F804B812B81BFCBEF0DF0815109E110
:101B8800030E805DD8A0CBEF0DF0CDEF0DF09FEFE9
:101B98000DF07B0E676F000E686FA1EC08F076C041
:101BA800D9FF77C0DAFF000167C0DEFF68C0DDFF3C
:101BB800B70E606F7F0E616F000E636F0E0E626F5F
:101BC8007BEC11F07B0E0001606F000E616F000E60
:101BD800636F030E626F7BEC11F0CDC060F0CEC076
:101BE80061F0B8EC13F012002A342B34316E315006
:101BF800D8A401EF0EF003EF0EF00DEF0EF0000E7B
:101C0800286E000E296E000E2A6E000E2B6E7AEFDB
:101C18000EF028C02CF029C02DF02AC02EF02BC0C1
:101C28002FF0200E1DEF0EF0D8902F322E322D32CD
:101C38002C32E82E18EF0EF02C50306E2A8EFF0E44
:101C48002816FF0E2916FF0E2A16000E2B16960EC2
:101C5800315E31BE34EF0EF032EF0EF04AEF0EF087
:101C68003150800A970FD8B03CEF0EF03EEF0EF0DF
:101C780040EF0EF003EF0EF0D8902B322A322932C3
:101C88002832313E40EF0EF062EF0EF01F0E316445
:101C980050EF0EF052EF0EF05AEF0EF003EF0EF089
:101CA800D890283629362A362B3631063150D8A412
:101CB80060EF0EF062EF0EF054EF0EF03050D8B433
:101CC80068EF0EF06AEF0EF072EF0EF02B1E2A1E70
:101CD800291E286C000E29222A222B2228C028F02F
:101CE80029C029F02AC02AF02BC02BF012000001CD
:101CF800796F000E00017F6F000E7E6F79517E258F
:101D08007A6F7B0E7E25D96E000E7F21DA6E7A51AE
:101D1800F5EC14F0DF6E00017E4B7F2B7FBF9EEF4A
:101D28000EF07F5109E1030E7E5DD8A09EEF0EF004
:101D3800A0EF0EF082EF0EF0000E816F000E806FA4
:101D48007B0E8025D96E000E8121DA6E2F0EDF649E
:101D5800B0EF0EF0B2EF0EF0C0EF0EF07B0E802564
:101D6800D96E000E8121DA6E390EDF64BEEF0EF0F7
:101D7800C0EF0EF0C2EF0EF0010EB46F804B812B56
:101D880081BFD0EF0EF0815109E1030E805DD8A02C
:101D9800D0EF0EF0D2EF0EF0A4EF0EF07B0E676FCF
:101DA800000E686FA1EC08F076C0D9FF77C0DAFFA3
:101DB800000167C0DEFF68C0DDFFD50E606F7F0ED3
:101DC800616F000E636F0D0E626F7BEC11F07B0E7E
:101DD8000001606F000E616F000E636F030E626F8B
:101DE8007BEC11F0CFC060F0D0C061F0B8EC13F01C
:101DF80012000001626F410E00016219D8A407EFBA
:101E08000FF009EF0FF025EF0FF08A8E030E000197
:101E1800616F080E606F770EE82EFED7602FFCD733
:101E2800612FFAD7030E0001616F080E606F770EFD
:101E3800E82EFED7602FFCD7612FFAD78A9E6FEF66
:101E48000FF0560E6219D8A42CEF0FF02EEF0FF0FA
:101E58004AEF0FF08A8C030E0001616F080E606F65
:101E6800770EE82EFED7602FFCD7612FFAD7030E26
:101E78000001616F080E606F770EE82EFED7602FA5
:101E8800FCD7612FFAD78A9C6FEF0FF0520E6219B8
:101E9800D8A451EF0FF053EF0FF06FEF0FF08A8ACD
:101EA800030E0001616F080E606F770EE82EFED7F3
:101EB800602FFCD7612FFAD7030E0001616F080E5F
:101EC800606F770EE82EFED7602FFCD7612FFAD708
:101ED8008A9A6FEF0FF01200000E0001806F000E5B
:101EE8007F6F7F5176257A6F805177217B6F040E43
:101EF8007A25D96E000E7B21DA6E7C0E7F25E16E85
:101F0800000E8021E26EDFCFE7FF7F4B802B80BF82
:101F180097EF0FF0805109E1030E7F5DD8A097EF8E
:101F28000FF099EF0FF075EF0FF0000E826F000EB3
:101F3800816F7C0E8125D96E000E8221DA6E2F0EFC
:101F4800DF64A9EF0FF0ABEF0FF0B9EF0FF07C0EE5
:101F58008125D96E000E8221DA6E390EDF64B7EF63
:101F68000FF0B9EF0FF0BBEF0FF0010EB46F814B1C
:101F7800822B82BFC9EF0FF0825109E1030E815D08
:101F8800D8A0C9EF0FF0CBEF0FF09DEF0FF07C0E4C
:101F9800676F000E686FA1EC08F078C0D9FF79C0B0
:101FA800DAFF000167C0DEFF68C0DDFF1200000E27
:101FB80000017F6F000E7E6F7E517625D96E7F51AE
:101FC8007721DA6E7B0E7E25E16E000E7F21E26EB0
:101FD800DFCFE7FF7E4B7F2B7FBFFCEF0FF07F51FA
:101FE80009E1030E7E5DD8A0FCEF0FF0FEEF0FF0C5
:101FF800E0EF0FF0000E816F000E806F7B0E8025E2
:10200800D96E000E8121DA6E2F0EDF640EEF10F00C
:1020180010EF10F01EEF10F07B0E8025D96E000E29
:102028008121DA6E390EDF641CEF10F01EEF10F01C
:1020380020EF10F0010EB46F804B812B81BF2EEF83
:1020480010F0815109E1030E805DD8A02EEF10F049
:1020580030EF10F002EF10F07B0E676F000E686F24
:10206800A1EC08F078C0D9FF79C0DAFF000167C099
:10207800DEFF68C0DDFF120000019B6F97C060F0B3
:1020880098C061F0C4EC10F099C060F09AC061F09B
:1020980082EC10F0ACC091F0ADC092F041EC11F0C0
:1020A80091C0B0F092C0B1F0AAC091F0ABC092F06C
:1020B80041EC11F091C0AEF092C0AFF097C0A8F01B
:1020C80098C0A9F099C0A6F09AC0A7F0B0C062F075
:1020D800B1C063F0AEC064F0AFC065F000019B51C1
:1020E80068EC09F0E30E0001606F7F0E616F000E6F
:1020F800636F0A0E626F7BEC11F012000001A651AB
:10210800605D6151800A626FA751800A6259D8B038
:1021180090EF10F092EF10F09BEF10F08386605173
:10212800A65DAA6F6151A759AB6FC3EF10F060515C
:10213800A65DA751800A626F6151800A6259D8B0C2
:10214800A8EF10F0AAEF10F0B3EF10F08396A651A5
:10215800605DAA6FA7516159AB6FC3EF10F0A6512C
:10216800601907E1A7516119D8A4BDEF10F0BFEFBE
:1021780010F0C3EF10F0000EAB6F000EAA6F120044
:102188000001A851605D6151800A626FA951800AFF
:102198006259D8B0D2EF10F0D4EF10F0DDEF10F0A4
:1021A80083826051A85DAC6F6151A959AD6F05EF8D
:1021B80011F06051A85DA951800A626F6151800ACF
:1021C8006259D8B0EAEF10F0ECEF10F0F5EF10F02C
:1021D8008392A851605DAC6FA9516159AD6F05EF4D
:1021E80011F0A851601907E1A9516119D8A4FFEFAE
:1021F80010F001EF11F005EF11F0000EAD6F000EB9
:10220800AC6F1200949C948E6EC064F06FC065F041
:1022180070C066F071C067F0000E0001606F120EAA
:10222800616F7A0E626F000E636FE7EC0BF060C0AF
:1022380072F061C073F062C074F063C075F072C070
:1022480060F073C061F074C062F075C063F0400E56
:102258000001646F000E656F000E666F000E676FF9
:10226800E7EC0BF000016005AF6EAC94AC98AB8E58
:10227800AC9CAC8AAB9CAB881200CD0E0001936F6E
:10228800CC0E946F4C0E956F3E0E966F93C072F005
:1022980094C073F095C074F096C075F091C060F06A
:1022A80092C061F0000E61BFFF0E626F636F010E96
:1022B800EBEC06F060C06EF061C06FF062C070F0C9
:1022C80063C071F01BEC02F06EC087F06FC088F03D
:1022D80070C089F071C08AF06EEC0CF087C0B2F063
:1022E80088C0B3F0B2C091F0B3C092F01200000EF3
:1022F8000001676F000E666FA4EF11F09EA887EFCC
:1023080011F089EF11F082EF11F00001665160259C
:10231800646F67516121656F64C0F6FF65C0F7FFA0
:10232800F86A070EF76403D00800F55005D0F6CF19
:10233800E9FFF7CFEAFFEF50AD6E0001664B672B60
:102348006251665D6751800A646F6351800A6459FF
:10235800D8A0B1EF11F0B3EF11F082EF11F0120035
:102368000600F0A0BAEF11F0BCEF11F0C7EF11F0C2
:10237800FAEC12F01A0E3F6EF80EE82EFED73F2E3A
:10238800FCD700D0F090F0A2CCEF11F0CEEF11F016
:10239800D9EF11F0D6EC12F01A0E3F6EF80EE82EB7
:1023A800FED73F2EFCD700D0F092F2A2DEEF11F05C
:1023B800E0EF11F0EBEF11F0E9EC14F01A0E3F6EBC
:1023C800F80EE82EFED73F2EFCD700D0F2925C9292
:1023D8001100CD0E346ECC0E356E4C0E366E3E0EA0
:1023E800376E34C013F035C014F036C015F037C05E
:1023F80016F032C001F033C002F0000E02BEFF0E2C
:10240800036E046E010EC7EC07F001C00FF002C0A6
:1024180010F003C011F004C012F0E9EC03F00FC093
:1024280028F010C029F011C02AF012C02BF0F8ECE7
:102438000DF028C0B2F029C0B3F0B2C032F0B3C07A
:1024480033F0120082A82BEF12F02DEF12F035EFC7
:1024580012F0550EDDEC14F08C888C8A8C9C49EFB8
:1024680012F082AA3AEF12F03CEF12F049EF12F0A4
:10247800440EDDEC14F08C888C9A8C8C49EF12F0A9
:102488008C9A8C9C8C9857EF12F082BA4EEF12F00F
:1024980050EF12F057EF12F082A855EF12F057EFF5
:1024A80012F044EF12F012000001656F000E0001F7
:1024B800676F000E666F73EF12F09EAA66EF12F058
:1024C80068EF12F061EF12F0000166516025D96ED5
:1024D80067516121DA6EAECFDFFF664B672B65511E
:1024E800626F636B6251665D6751800A646F635106
:1024F800800A6459D8A083EF12F085EF12F061EFDB
:1025080012F01200010E0001666F200E60196111B1
:10251800D8B491EF12F093EF12F0ACEF12F0F70E7F
:10252800626FFF0E636F60C064F061C065F0625156
:10253800642763516523655109E1050E645DD8A0E0
:10254800A8EF12F0AAEF12F0ACEF12F0000E666FCF
:1025580066C060F0616B12000001606F410E0001FF
:102568006019D8A4BAEF12F0BCEF12F0BFEF12F066
:102578008A8ED5EF12F0560E6019D8A4C6EF12F065
:10258800C8EF12F0CBEF12F08A8CD5EF12F0520E92
:102598006019D8A4D2EF12F0D4EF12F0D5EF12F0F0
:1025A8008A8A120083808384020E3E6E040E3D6E7A
:1025B800BA0EE82EFED73D2EFCD73E2EFAD700D015
:1025C8005A50D8A4EAEF12F0ECEF12F0F7EF12F03D
:1025D800000E396E000E386E000E3B6E1E0E3A6EFF
:1025E800530E1EEC13F0010E5A6E12008380838482
:1025F800020E3E6E040E3D6EBA0EE82EFED73D2E3C
:10260800FCD73E2EFAD700D05B50D8A40EEF13F0BB
:1026180010EF13F01BEF13F0000E396E1E0E386E1C
:10262800000E3B6E000E3A6E530E1EEC13F0010EB8
:102638005B6E12003C6ECA948392839638C032F067
:1026480039C033F0EDEC11F032C0B0F033C0B1F066
:102658003AC032F03BC033F0EDEC11F032C0AEF0CE
:1026680033C0AFF0B0C003F0B1C004F0AEC005F0A5
:10267800AFC006F03C5014EC0AF0120048EF13F01B
:10268800839083841DEC15F05B50D8B44EEF13F0A3
:1026980050EF13F044EF13F056EF13F08380839458
:1026A8001DEC15F05A50D8B45CEF13F05EEF13F040
:1026B80052EF13F083808384CA94000E5B6E000E81
:1026C8005A6E1200D00E0001626FFF0E636F60C079
:1026D80064F061C065F062516427635165236551F8
:1026E8000AE10A0E645DD8A07CEF13F07FEF13F0C7
:1026F800010E80EF13F0000E606F616B12008B907B
:10270800020E0001696F040E686FBA0EE82EFED73C
:10271800682FFCD7692FFAD700F08B80F80E0001DC
:10272800606F7F0E616F000E636F060E626F7BEC49
:1027380011F012000001616F61C0A9FF60C0A8FF1D
:10274800A69EA69CA684F29E550EA76EAA0EA76EFC
:10275800A682F28EA1A8B3EF13F0B5EF13F0AEEF97
:1027680013F0A198A6941200000161BFC7EF13F0FF
:102778002D0E605D010E6159D8B0C5EF13F0C7EF9B
:1027880013F0CEEF13F061BFCEEF13F0CCEF13F0E0
:10279800D0EF13F0010EB56F120082A4D6EF13F03C
:1027A800D8EF13F0E5EF13F00001B751D8A4DFEF2D
:1027B80013F0E1EF13F0E5EF13F0604B612B010E1E
:1027C800B76F60C060F061C061F0120082A2EFEFE5
:1027D80013F0F1EF13F0FEEF13F00001B851D8A495
:1027E800F8EF13F0FAEF13F0FEEF13F0604B612BE4
:1027F800010EB86F60C060F061C061F0120082A481
:1028080008EF14F00AEF14F017EF14F00001B751B5
:10281800D8A411EF14F013EF14F017EF14F0014AD5
:10282800022A010EB76F01C001F002C002F01200C7
:1028380082A221EF14F023EF14F030EF14F000011E
:10284800B851D8A42AEF14F02CEF14F030EF14F09C
:10285800014A022A010EB86F01C001F002C002F05D
:102868001200000160516203F3CF64F0F4CF65F009
:1028780060516303F350652761516203F350652784
:1028880064C060F065C061F0120000EEA2F02F0E87
:10289800EE6AE806FDE100EE40F01C0EEE6AE8067E
:1028A800FDE15C905C92000EF86E000159EF0BF0B0
:1028B8007C0ECB6E3E0EBE6E3E0EBB6E9492949412
:1028C800030ECA6E0C0EBD6E0C0EBA6ECA941200C0
:1028D8007C0ECB6E3E0EBE6E3E0EBB6E94929494F2
:1028E800030ECA6E0C0EBD6E0C0EBA6ECA941200A0
:1028F800CB683E0EBE6E3E0EBB6E94929494030E51
:10290800CA6E0C0EBD6E0C0EBA6ECA941200CB685D
:102918003E0EBE6E3E0EBB6E94929494030ECA6E2B
:102928000C0EBD6E0C0EBA6ECA941200000E836EA9
:10293800000E8C6E070EB46E9590959295949596B0
:102948009598959A959C12006D966D926F86000EDB
:10295800806E000E896E0E0EC16E070EB46E9288E0
:10296800928A12008B80EE0E0001606F7F0E616FFD
:10297800000E636F090E626F7BEC11F012008B90F2
:10298800EE0E0001606F7F0E616F000E636F090E1F
:10299800626F7BEC11F01200000E816E000E8A6EE1
:1029A8000E0EC16E938093829384939A939C939E08
:1029B80012000001606F9EA8E4EF14F0E6EF14F037
:1029C800DFEF14F060C0ADFF120042EC13F0000E10
:1029D8000001A96F000EA86F000EA76F000EA66F6A
:1029E80012000001606F60C0A9FFA69EA69CA68089
:1029F800A8CF57F057501200000E846E000E8D6E4F
:102A08000E0EC16E070EB46E96901200000E826E06
:102A1800000E8B6E948094929494949C948E1200E1
:102A28009EAA19EF15F01BEF15F014EF15F0AE5034
:0E2A38001200838283868BEC14F0CA84120095
:107C46000000000000DCCFD1350000000000C015A8
:107C56003F6042A20D70A5EC363BAAB83F4F38767E
:107C66003F3CAA38338CBEBF350072313F187231A3
:107C76003F4CBB31330EEADDB555B38A38610B365E
:107C8600BBABAA2A3E42F1533E55326C3E05A38B4E
:107C96003EABAAAA3EB76DDB3E9A99193F6042A257
:107CA6000DCAF249710000804B0000803F0000C001
:107CB6003F00AAB83FC623F6B80040763F504C4571
:107CC60041534520494E5345525420544845204976
:107CD6004E535452554354494F4E204F4620534518
:107CE60054504F494E540A00504C45415345204D7F
:107CF6004F444946592054484520534554504F490E
:107D06004E5420414E442054525920414741494E39
:107D16000A004552524F5220434F5244494E415455
:107D26004553204F55545349444520544845205205
:107D3600414E47450A004552524F52204341524157
:107D4600435445525320494E4752455345442057C4
:107D5600524F4E470A00434F4F5244494E415445F5
:107D6600204F4620534554504F494E542031303A07
:107D76000A00434F4F5244494E415445204F462036
:107D8600534554504F494E542031313A0A00434F1F
:107D96004F5244494E415445204F46205345545076
:107DA6004F494E542031323A0A00434F4F5244490C
:107DB6004E415445204F4620534554504F494E544A
:107DC6002031333A0A00434F4F5244494E415445FD
:107DD600204F4620534554504F494E542031343A93
:107DE6000A00434F4F5244494E415445204F4620C6
:107DF600534554504F494E542031353A0A00434FAB
:107E06004F5244494E415445204F46205345545005
:107E16004F494E5420303A0A00434F4F5244494E80
:107E2600415445204F4620534554504F494E542007
:107E3600313A0A00434F4F5244494E415445204F70
:107E46004620534554504F494E5420323A0A004377
:107E56004F4F5244494E415445204F4620534554B6
:107E6600504F494E5420333A0A00434F4F5244492B
:107E76004E415445204F4620534554504F494E5489
:107E860020343A0A00434F4F5244494E415445204C
:107E96004F4620534554504F494E5420353A0A0018
:107EA600434F4F5244494E415445204F4620534577
:107EB60054504F494E5420363A0A00434F4F5244CD
:107EC600494E415445204F4620534554504F494E44
:107ED6005420373A0A00434F4F5244494E415445C5
:107EE600204F4620534554504F494E5420383A0AA5
:107EF60000434F4F5244494E415445204F4620536C
:107F06004554504F494E5420393A0A005741495476
:107F1600494E4720464F5220494E535452554354DA
:107F2600494F4E0A005741495420554E54494C205A
:107F3600434F4D504C4554452E2E2E0A005741496D
:107F46005420554E54494C20434F4D504C455445B2
:107F56002E2E2E00434F4F5244494E415445205831
:107F66002053415645440A00434F4F5244494E411F
:107F7600544520592053415645440A00434F4F5219
:107F860044494E415445205A2053415645440A001F
:107F960057454C434F4D4520544F20535041524373
:107FA6000A005741495420464F5220484F4D450A32
:107FB600000A434F4F5244494E41544520593A0016
:107FC6000A434F4F5244494E415445205A3A0043C2
:107FD6004F4F5244494E41544520583A00434F4D65
:107FE600504C455445440A00434F4D504C4554456A
:0A7FF6000A00544F5543480A0000EA
:020000040020DA
:08000000FFFFFFFFFFFFFFFF00
:020000040030CA
:0E00000000081F1EFF8181FF0FC00FE00F40A0
:00000001FF
