:020000040000FA
:0400000007EF00F016
:100008005F8208ED0AF0E2EF09F01250800B1F6ED4
:1000180012501224266E11AE14EF00F016EF00F005
:1000280017EF00F026802650D8B41DEF00F01FEF20
:1000380000F034EF00F02628D8A425EF00F027EFD1
:1000480000F02FEF00F0000E0F6E000E106E000E85
:10005800116E000E126E118E000E126E3CEF00F043
:10006800000E0F6E000E106E000E116E000E126E56
:100078001650800B1F1A16501624276E15AE47EF20
:1000880000F049EF00F04AEF00F027802750D8B47D
:1000980050EF00F052EF00F067EF00F02728D8A4E7
:1000A80058EF00F05AEF00F062EF00F0000E136E08
:1000B800000E146E000E156E000E166E158E000ED4
:1000C800166E6FEF00F0000E136E000E146E000E29
:1000D800156E000E166E1350141015101610D8A4B5
:1000E80078EF00F07AEF00F092EF00F0000E0F6E5C
:1000F800000E106E000E116E000E126E800E1112A0
:100108007F0E12121F5012120FC00FF010C010F005
:1001180011C011F012C012F0D5EF01F02650D8A48A
:1001280098EF00F09AEF00F0A4EF00F0000E0F6EC9
:10013800000E106E000E116E000E126ED5EF01F05B
:10014800275026C017F0186A175E000E185A7F0E3F
:100158001724206E000E1820216E0FC01BF010C04F
:100168001CF011C01DF012C01EF0000E0F6E000E24
:10017800106E000E116E000E126E000E226E000E32
:10018800236E000E246E000E256E000E276E05EFFE
:1001980001F02750D8B4D3EF00F0D5EF00F0ECEF22
:1001A80000F0D8901B361C361D361E36D8900F36F8
:1001B80010361136123625AEE4EF00F0E6EF00F007
:1001C800E7EF00F00F80D890223623362436253604
:1001D80013501B5C14501C5815501D5816501E58AF
:1001E800D8A0F9EF00F0FBEF00F004EF01F0258C48
:1001F80013501B5E14501C5A15501D5A16501E5A87
:10020800272A190E27640BEF01F00DEF01F0CDEF4F
:1002180000F01B501C101D101E10D8B416EF01F072
:1002280018EF01F030EF01F0228030EF01F0D890A4
:100238000F3610361136123625AE25EF01F027EFAE
:1002480001F028EF01F00F80D890223623362436AB
:1002580025362006D8A0210611AE35EF01F037EF7C
:1002680001F01BEF01F0000E276E25AE3EEF01F006
:1002780040EF01F064EF01F0FF0E2214176EFF0E3D
:100288002314186EFF0E2414196E7F0E25141A6E8F
:100298001750181019101A10D8B455EF01F057EF6D
:1002A80001F05BEF01F0010E276E64EF01F00FA083
:1002B80060EF01F062EF01F064EF01F057EF01F039
:1002C8002750D8B46AEF01F06CEF01F090EF01F01D
:1002D800010E0F26000E10221122122212A077EF13
:1002E80001F079EF01F090EF01F00FC017F010C0A6
:1002F80018F011C019F012C01AF01A341A32193253
:100308001832173217C00FF018C010F019C011F0CA
:100318001AC012F0204A212A21BE9BEF01F0215079
:1003280008E12028D8A09BEF01F09DEF01F0A8EF8D
:1003380001F0000E216E2068000E0F6E000E106E88
:10034800000E116E000E126E21BEB5EF01F02150A5
:1003580006E12004D8B0B3EF01F0B5EF01F0C3EF28
:1003680001F0000E216E000E206E000E0F6E000EC2
:10037800106E000E116E000E126E000E1F6E20C061
:1003880026F026A0CAEF01F0CCEF01F0CFEF01F084
:10039800118ED0EF01F0119ED8902630126E86EFA4
:1003A80000F01200720ED36E800E0F6E250E106EC6
:1003B800000E116E000E126E40EC08F095909594A8
:1003C800959295968380838094929494829252EC2D
:1003D8000AF03F6E86EF02F06B0E016E000E026EA1
:1003E800070E15EC09F06B0E176E000E186E5D0EF9
:1003F800196E000E1A6EE4EC08F06B0E176E000E04
:10040800186E5B0E196E000E1A6E78EC08F05DC05F
:1004180038F05EC039F05BC03AF05CC03BF03F504A
:10042800AFEC08F0EBEF01F06B0E016E000E026E00
:10043800070E15EC09F06B0E176E000E186E5D0EA8
:10044800196E000E1A6EE4EC08F06B0E176E000EB3
:10045800186E5B0E196E000E1A6E78EC08F05DC00F
:1004680038F05EC039F0000E3B6E5B0E3A6E3F50BE
:10047800AFEC08F0EBEF01F039EC0AF0EBEF01F02C
:100488005DEC0AF0EBEF01F05BEC0AF0EBEF01F04A
:1004980052EC0AF0566E5650E3EC04F0566E5D0EC0
:1004A800176E000E186E5B0E196E000E1A6E590E3E
:1004B8001B6E000E1C6E565075EC05F05DC038F0D2
:1004C8005EC039F05BC03AF05CC03BF03F50AFEC27
:1004D80008F0EBEF01F052EC0AF0566E600E016E78
:1004E800000E026E0B0E15EC09F05650E3EC04F00A
:1004F800566E600E036E000E046E56500FEC07F039
:10050800EBEF01F03F503D6E3E6A3E50000AD8B412
:1005180090EF02F0EBEF01F03D50460AD8B4F0EF4F
:1005280001F00E0AD8B444EF02F0050AD8B46FEF10
:1005380002F0020AD8B44CEF02F01D0AD8B448EF12
:1005480002F0010AD8B418EF02F0070AD8B440EF55
:1005580002F0EBEF01F007EF00F0096E0950D8B494
:10056800B8EF02F0BAEF02F0DCEF02F004BEC1EF20
:1005780002F0BFEF02F0DCEF02F001C005F002C0AC
:1005880006F003C007F004C008F0051E061E071E8B
:10059800081E052A000E06220722082205C00BF0B5
:1005A80006C00CF007C00DF008C00EF0E4EF02F032
:1005B80001C00BF002C00CF003C00DF004C00EF037
:1005C8000150021003100410D8A4EDEF02F0EFEF71
:1005D80002F0F9EF02F0000E016E000E026E000E3E
:1005E800036E000E046E8AEF03F0960E0A6E03EF98
:1005F80003F00A2AD8900E320D320C320B32000E5C
:100608000B14056E000E0C14066E000E0D14076E0A
:10061800FE0E0E14086E0550061007100810D8A418
:1006280018EF03F01AEF03F0FDEF02F028EF03F0E4
:100638000A2A010E0B26000E0C220D220E22D8903B
:100648000E320D320C320B32000E0B14056E000EFA
:100658000C14066E000E0D14076EFF0E0E14086EB5
:100668000550061007100810D8A43DEF03F03FEF1F
:1006780003F01CEF03F047EF03F00A06D8900B369F
:100688000C360D360E360DBE4CEF03F04EEF03F070
:1006980056EF03F0020E0A6054EF03F056EF03F032
:1006A80041EF03F00AB05BEF03F05DEF03F05EEF9C
:1006B80003F00D9ED8900A320AC005F0066A076A50
:1006C800086A05C008F0076A066A056A05500B1231
:1006D80006500C1207500D1208500E120950D8B4CB
:1006E80078EF03F07AEF03F082EF03F004BE81EFB6
:1006F80003F07FEF03F082EF03F00E8E0BC001F0E2
:100708000CC002F00DC003F00EC004F01200000E81
:10071800166E000E156E000E0F6E000E0E6E97EF21
:1007280003F0084A092A010E146E08C0D9FF09C04F
:10073800DAFF200EDE18D8B4A4EF03F0A6EF03F01A
:10074800C2EF03F0F70E0A6EFF0E0B6E08C0D9FF5A
:1007580009C0DAFFDF500C6E0D6A0A500C260B50E8
:100768000D220D5009E1050E0C5CD8A0BEEF03F078
:10077800C0EF03F0C2EF03F0000E146E14C010F0C7
:10078800116A10501110D8A4CCEF03F0CEEF03F08B
:1007980095EF03F0D8EF03F0000E0F6E010E0E6E0A
:1007A800084A092A0DEF04F008C0D9FF09C0DAFF8A
:1007B800DF500A6E0B6A0B50000AD8B4E6EF03F05C
:1007C8000DEF04F00A502B0AD8B4D4EF03F0060A50
:1007D800D8B4D0EF03F00DEF04F015C001F016C047
:1007E80002F0000E046E0A0E036EF5EC09F008C064
:1007F800D9FF09C0DAFFDF500A6E0A50015E000E09
:10080800025A300E0124156E000E0220166ED4EF27
:1008180003F0D00E0A6EFF0E0B6E08C0D9FF09C098
:10082800DAFFDF500C6E0D6A0A500C260B500D22B1
:100838000D500AE10A0E0C5CD8A025EF04F028EF51
:1008480004F0010E29EF04F0000E126E136A125024
:100858001310D8A432EF04F034EF04F0F1EF03F0F2
:100868000E500F10D8A43BEF04F03DEF04F04BEF0F
:1008780004F015C00AF016C00BF00A1E0B1E0A4A37
:100888000B2A0AC008F00BC009F04FEF04F015C09E
:1008980008F016C009F01200086E530E0818D8A404
:1008A80058EF04F05AEF04F05EEF04F02AEC0AF077
:1008B80060EF04F01AEC0AF083908394000E0A6E3D
:1008C800000E096E000E0C6E000E0B6ECA84BBEF94
:1008D80004F00350095C0A50800A076E0450800A2D
:1008E8000758D8B07AEF04F07CEF04F093EF04F0E7
:1008F80082A481EF04F083EF04F08FEF04F009C0C5
:1009080001F00AC002F0B6EC09F001C009F002C01B
:100918000AF094EF04F0000E586E94EF04F0838010
:1009280005500B5C0C50800A076E0650800A075869
:10093800D8B0A1EF04F0A3EF04F0BAEF04F082A25C
:10094800A8EF04F0AAEF04F0B6EF04F00BC001F032
:100958000CC002F09EEC09F001C00BF002C00CF0D4
:10096800BBEF04F0000E576EBBEF04F08384035016
:10097800095C0A50800A076E0450800A0758D8A0FC
:10098800C8EF04F0CAEF04F06DEF04F005500B5CFB
:100998000C50800A076E0650800A0758D8A0D7EF77
:1009A80004F0D9EF04F06DEF04F0000E586E000E5D
:1009B8000C6E000E0B6E000E576ECA941200036E7A
:1009C80026EF05F0000E036E73EF05F0100E036EB0
:1009D80073EF05F0200E036E73EF05F0300E036E13
:1009E80073EF05F0400E036E73EF05F0500E036EC3
:1009F80073EF05F0600E036E73EF05F0700E036E73
:100A080073EF05F0800E036E73EF05F0900E036E22
:100A180073EF05F0A00E036E73EF05F0B00E036ED2
:100A280073EF05F0C00E036E73EF05F0D00E036E82
:100A380073EF05F0E00E036E73EF05F0F00E036E32
:100A480073EF05F00350016E026A0250000AD8B431
:100A580030EF05F073EF05F00150300AD8B4E6EF37
:100A680004F0010AD8B4EAEF04F0030AD8B4EEEFB0
:100A780004F0010AD8B4F2EF04F0070AD8B4F6EF8C
:100A880004F0010AD8B4FAEF04F0030AD8B4FEEF70
:100A980004F0010AD8B402EF05F00F0AD8B406EF43
:100AA80005F0010AD8B40AEF05F0780AD8B40EEFB9
:100AB80005F0030AD8B412EF05F0010AD8B416EF0E
:100AC80005F0070AD8B41AEF05F0010AD8B41EEFEA
:100AD80005F0030AD8B422EF05F073EF05F00350D0
:100AE8001200296E000E2B6E000E2A6E29502A2441
:100AF800266E1D0E2A24D96E000E2B20DA6E265083
:100B080048EC0AF0DF6E2A4A2B2A2BBE95EF05F037
:100B18002B5009E1030E2A5CD8A095EF05F097EF5A
:100B280005F07AEF05F0000E2D6E000E2C6E2950A0
:100B38002C24030F276E200E2C24D96E000E2D2096
:100B4800DA6E275048EC0AF0DF6E2C4A2D2A2DBEAB
:100B5800B7EF05F02D5009E1030E2C5CD8A0B7EFD4
:100B680005F0B9EF05F09BEF05F0000E2F6E000EB3
:100B78002E6E29502E24060F286E230E2E24D96E91
:100B8800000E2F20DA6E285048EC0AF0DF6E2E4A4D
:100B98002F2A2FBED9EF05F02F5009E1030E2E5C46
:100BA800D8A0D9EF05F0DBEF05F0BDEF05F01D0E7D
:100BB800086E000E096E8BEC03F017C0D9FF18C041
:100BC800DAFF08C0DEFF09C0DDFF200E086E000E48
:100BD800096E8BEC03F019C0D9FF1AC0DAFF08C000
:100BE800DEFF09C0DDFF230E086E000E096E8BECD8
:100BF80003F01BC0D9FF1CC0DAFF08C0DEFF09C024
:100C0800DDFF1200000E0A6E08BE0FEF06F00DEFB2
:100C180006F019EF06F0081E071E061E056C000EEA
:100C2800062207220822010E0A6E04BE20EF06F0F3
:100C38001EEF06F02AEF06F0041E031E021E016CCA
:100C4800000E022203220422010E0A1A000E0B6E65
:100C5800000E0C6E000E0D6E000E0E6E0550061086
:100C680007100810D8B43BEF06F03DEF06F073EF1D
:100C780006F0010E096E47EF06F0D89005360636E5
:100C880007360836092A08AE4CEF06F04EEF06F094
:100C980041EF06F0D8900B360C360D360E3605505F
:100CA800015C065002580750035808500458D8A051
:100CB80060EF06F062EF06F06BEF06F00550015E9C
:100CC8000650025A0750035A0850045A0B80D8900D
:100CD8000832073206320532092E4EEF06F00A5066
:100CE800D8B479EF06F07BEF06F083EF06F00E1E1E
:100CF8000D1E0C1E0B6C000E0C220D220E220BC0BA
:100D080001F00CC002F00DC003F00EC004F0120098
:100D18002A342B34316E3150D8A495EF06F097EF72
:100D280006F0A1EF06F0000E286E000E296E000EE8
:100D38002A6E000E2B6E0EEF07F028C02CF029C08B
:100D48002DF02AC02EF02BC02FF0200EB1EF06F0A8
:100D5800D8902F322E322D322C32E82EACEF06F0FE
:100D68002C50306E2A8EFF0E2816FF0E2916FF0E05
:100D78002A16000E2B16960E315E31BEC8EF06F00D
:100D8800C6EF06F0DEEF06F03150800A970FD8B0B4
:100D9800D0EF06F0D2EF06F0D4EF06F097EF06F0AA
:100DA800D8902B322A3229322832313ED4EF06F03D
:100DB800F6EF06F01F0E3164E4EF06F0E6EF06F0FA
:100DC800EEEF06F097EF06F0D890283629362A3647
:100DD8002B3631063150D8A4F4EF06F0F6EF06F0C2
:100DE800E8EF06F03050D8B4FCEF06F0FEEF06F05E
:100DF80006EF07F02B1E2A1E291E286C000E29223A
:100E08002A222B2228C028F029C029F02AC02AF03B
:100E18002BC02BF01200076E000E0A6E000E096E32
:100E280007500924086E09500324D96E0A5004207B
:100E3800DA6EDF50016E085085EC09F0094A0A2A7B
:100E48000ABE30EF07F00A5009E1030E095CD8A08A
:100E580030EF07F032EF07F014EF07F0000E0C6EDA
:100E6800000E0B6E07500B24030F086E0B50032463
:100E7800056E0C500420066E040E0524D96E000E73
:100E88000620DA6EDF50016E085085EC09F00B4A37
:100E98000C2A0CBE59EF07F00C5009E1030E0B5C4D
:100EA800D8A059EF07F05BEF07F036EF07F0000E18
:100EB8000E6E000E0D6E07500D24060F086E0D50B5
:100EC8000324056E0E500420066E080E0524D96E04
:100ED800000E0620DA6EDF50016E085085EC09F02E
:100EE8000D4A0E2A0EBE82EF07F00E5009E1030EDE
:100EF8000D5CD8A082EF07F084EF07F05FEF07F0F2
:100F080012004250015C0250800A036E4350800A6E
:100F18000358D8B092EF07F094EF07F09DEF07F071
:100F280083960150425C4A6E025043584B6EC5EF9F
:100F380007F00150425C4350800A036E0250800A59
:100F48000358D8B0AAEF07F0ACEF07F0B5EF07F0F9
:100F580083864250015C4A6E435002584B6EC5EF7F
:100F680007F04250011807E143500218D8A4BFEF18
:100F780007F0C1EF07F0C5EF07F0000E4B6E000E4B
:100F88004A6E12004450015C0250800A036E4550BC
:100F9800800A0358D8B0D3EF07F0D5EF07F0DEEF9B
:100FA80007F083920150445C4C6E025045584D6ED8
:100FB80006EF08F00150445C4550800A036E025069
:100FC800800A0358D8B0EBEF07F0EDEF07F0F6EF23
:100FD80007F083824450015C4C6E455002584D6EB8
:100FE80006EF08F04450011807E145500218D8A44C
:100FF80000EF08F002EF08F006EF08F0000E4D6E63
:10100800000E4C6E1200CD0E346ECC0E356E4C0EAA
:10101800366E3E0E376E34C013F035C014F036C04D
:1010280015F037C016F032C001F033C002F0000EE0
:1010380002BEFF0E036E046E010EB1EC02F001C099
:101048000FF002C010F003C011F004C012F009EC58
:1010580000F00FC028F010C029F011C02AF012C00B
:101068002BF08CEC06F028C052F029C053F052C087
:1010780032F053C033F01200949C948E0FC005F0E8
:1010880010C006F011C007F012C008F0000E016E83
:10109800120E026E7A0E036E000E046E06EC06F057
:1010A80001C013F002C014F003C015F004C016F01C
:1010B80013C001F014C002F015C003F016C004F00C
:1010C800400E056E000E066E000E076E000E086ECE
:1010D80006EC06F00104AF6EAC94AC98AB8EAC9CF9
:1010E800AC8AAB9CAB881200000E216E000E206EFD
:1010F800205017241B6E215018201C6E040E1B2430
:10110800D96E000E1C20DA6E1D0E2024E16E000E32
:101118002120E26EDFCFE7FF204A212A21BE9EEF81
:1011280008F0215009E1030E205CD8A09EEF08F0DA
:10113800A0EF08F07CEF08F01D0E086E000E096E97
:101148008BEC03F019C0D9FF1AC0DAFF08C0DEFF24
:1011580009C0DDFF12003C6E38C001F039C002F052
:10116800C6EC07F03AC001F03BC002F085EC07F08E
:101178004CC032F04DC033F007EC08F032C050F0EC
:1011880033C051F04AC032F04BC033F007EC08F0DE
:1011980032C04EF033C04FF038C044F039C045F08B
:1011A8003AC042F03BC043F050C003F051C004F0D5
:1011B8004EC005F04FC006F03C5050EC04F0120051
:1011C800000E1F6E000E1E6E1E501724D96E1F5083
:1011D8001820DA6E1B0E1E24E16E000E1F20E26E30
:1011E800DFCFE7FF1E4A1F2A1FBE04EF09F01F507A
:1011F80009E1030E1E5CD8A004EF09F006EF09F020
:10120800E8EF08F01B0E086E000E096E8BEC03F079
:1012180019C0D9FF1AC0DAFF08C0DEFF09C0DDFF18
:101228001200066E000E086E000E076E2DEF09F014
:101238009EAA21EF09F023EF09F01CEF09F00750EF
:101248000124D96E08500220DA6EAECFDFFF074ABC
:10125800082A0650036E046A0350075C0850800A87
:10126800056E0450800A0558D8A03DEF09F03FEFFD
:1012780009F01CEF09F01200010E076E200E01188C
:101288000210D8B44AEF09F04CEF09F065EF09F005
:10129800F70E036EFF0E046E01C005F002C006F0E3
:1012A8000350052604500622065009E1050E055C88
:1012B800D8A061EF09F063EF09F065EF09F0000EBF
:1012C800076E07C001F0026A1200D00E036EFF0E0F
:1012D800046E01C005F002C006F003500526045054
:1012E800062206500AE10A0E055CD8A07EEF09F036
:1012F80081EF09F0010E82EF09F0000E016E026A1B
:101308001200026E02C0A9FF01C0A8FFA69EA69CFB
:10131800A684F29E550EA76EAA0EA76EA682F28E1E
:10132800A1A899EF09F09BEF09F094EF09F0A198B3
:10133800A694120082A2A3EF09F0A5EF09F0B1EF7D
:1013480009F05750D8A4ABEF09F0ADEF09F0B1EFB1
:1013580009F0014A022A010E576E01C001F002C0CD
:1013680002F0120082A4BBEF09F0BDEF09F0C9EF4B
:1013780009F05850D8A4C3EF09F0C5EF09F0C9EF38
:1013880009F0014A022A010E586E01C001F002C09C
:1013980002F0120081B4D3EF09F0D5EF09F0E1EFC4
:1013A80009F05450D8A4DBEF09F0DDEF09F0E1EFC4
:1013B80009F0404A412A010E546E120000EE60F016
:1013C800120EEE6AE806FDE100EE40F01F0EEE6A2E
:1013D800E806FDE15F905F92000EF86E0001D6EF1F
:1013E80001F001500302F3CF05F0F4CF06F00150ED
:1013F8000402F350062602500302F350062605C0E5
:1014080001F006C002F012000600838281B40FEFDB
:101418000AF011EF0AF014EF0AF0CEEC09F0F0929E
:10142800000E546E8392F0925F9211007C0ECB6E88
:101438003E0EBE6E3E0EBB6E94929494030ECA6E20
:101448000C0EBD6E0C0EBA6ECA941200CB683E0E1E
:10145800BE6E3E0EBB6E94929494030ECA6E0C0E32
:10146800BD6E0C0EBA6ECA9412008B80020E026E0C
:10147800040E016EBA0EE82EFED7012EFCD7022EFE
:10148800FAD700D08B901200016E01C0A9FFA69E6A
:10149800A69CA680A8CF55F0555012009EAA57EFDB
:1014A8000AF059EF0AF052EF0AF0AE5012008B9092
:0614B80012008B801200FF
:020000040020DA
:08000000FFFFFFFFFFFFFFFF00
:020000040030CA
:0E00000000081F1EFF8181FF0FC00FE00F40A0
:00000001FF
