:020000040000FA
:0400000063EF36F084
:106C42008B8012008B9012009EAA2AEF36F02CEF56
:106C520036F025EF36F0AE501200016E01C0A9FFEA
:106C6200A69EA69CA680A8CF4AF04A501200016EAA
:106C72009EA83EEF36F040EF36F039EF36F001C015
:106C8200ADFF12008B80020E026E040E016EBA0E70
:106C9200E82EFED7012EFCD7022EFAD700D08B9019
:106CA2001200026E02C0A9FF4AC0A8FFA69EA69CBF
:106CB200A684F29E550EA76EAA0EA76EA682F28E2B
:106CC200A694120000EE60F00B0EEE6AE806FDE1FB
:106CD20000EE40F01B0EEE6AE806FDE1000EF86ED3
:106CE200000189EF3CF0CB683E0EBE6E3E0EBB6EDD
:106CF200949294909494030ECA6E0C0EBD6E0C0E78
:106D0200BA6ECA948280828812007C0ECB6E3E0ECE
:106D1200BE6E3E0EBB6E949294909494030ECA6E15
:106D22000C0EBD6E0C0EBA6ECA948280828812005E
:106D320001500302F3CF05F0F4CF06F00150040234
:106D4200F350062602500302F350062605C001F056
:106D520006C002F0120082A4B1EF36F0B3EF36F0B3
:106D6200BFEF36F04D50D8A4B9EF36F0BBEF36F096
:106D7200BFEF36F0014A022A010E4D6E01C001F04A
:106D820002C002F0120082A2C9EF36F0CBEF36F059
:106D9200D7EF36F04C50D8A4D1EF36F0D3EF36F01F
:106DA200D7EF36F0014A022A010E4C6E01C001F003
:106DB20002C002F01200D00E036EFF0E046E01C07C
:106DC20005F002C006F003500526045006220650C4
:106DD2000AE10A0E055CD8A0F1EF36F0F4EF36F0C6
:106DE200010EF5EF36F0000E016E026A120001503C
:106DF200465C4750800A036E0250800A0358D8A0AE
:106E020005EF37F007EF37F010EF37F083920150BC
:106E1200465C426E02504758436E17EF37F083824A
:106E22004650015C426E47500258436E42C001F028
:106E320043C002F012004450015C0250800A036E0B
:106E42004550800A0358D8B029EF37F02BEF37F0BE
:106E520034EF37F083960150445C406E025045583F
:106E6200416E3BEF37F083864450015C406E4550E3
:106E72000258416E40C001F041C002F01200010E02
:106E8200076E200E01180210D8B44AEF37F04CEF0B
:106E920037F065EF37F0F70E036EFF0E046E01C098
:106EA20005F002C006F003500526045006220650E3
:106EB20009E1050E055CD8A061EF37F063EF37F00A
:106EC20065EF37F0000E076E07C001F0026A12008C
:106ED200066E000E086E000E076E81EF37F09EAA56
:106EE20075EF37F077EF37F070EF37F00750012486
:106EF200D96E08500220DA6EAECFDFFF074A082AA9
:106F02000650036E046A0350075C0850800A056E3F
:106F12000450800A0558D8A091EF37F093EF37F06C
:106F220070EF37F01200000E1F6E000E1E6E1E5024
:106F32001724D96E1F501820DA6E1B0E1E24E16E24
:106F4200000E1F20E26EDFCFE7FF1E4A1F2A1FBE80
:106F5200B4EF37F01F5009E1030E1E5CD8A0B4EF66
:106F620037F0B6EF37F098EF37F0320E38EC36F0F4
:106F72001B0E086E000E096EC4EC3BF019C0D9FF5F
:106F82001AC0DAFF08C0DEFF09C0DDFF12003C6E46
:106F920038C032F039C033F0FDEC37F032C046F081
:106FA20033C047F03AC032F03BC033F0FDEC37F06B
:106FB20032C044F033C045F046C001F047C002F091
:106FC200F8EC36F001C046F002C047F044C001F0D0
:106FD20045C002F01CEC37F001C044F002C045F09D
:106FE20046C003F047C004F044C005F045C006F0B7
:106FF2003C5031EC3BF01200CD0E346ECC0E356EAF
:107002004C0E366E3E0E376E34C013F035C014F09F
:1070120036C015F037C016F032C001F033C002F0AE
:10702200000E02BEFF0E036E046E010E59EC3DF01F
:1070320001C00FF002C010F003C011F004C012F042
:1070420033EC3EF00FC028F010C029F011C02AF036
:1070520012C02BF096EC39F028C048F029C049F054
:1070620048C032F049C033F01200000E216E000E0B
:10707200206E205017241B6E215018201C6E040E07
:107082001B24D96E000E1C20DA6E1D0E2024E16E28
:10709200000E2120E26EDFCFE7FF204A212A21BE27
:1070A2005CEF38F0215009E1030E205CD8A05CEFC0
:1070B20038F05EEF38F03AEF38F0310E38EC36F057
:1070C2001D0E086E000E096EC4EC3BF019C0D9FF0C
:1070D2001AC0DAFF08C0DEFF09C0DDFF1200720E1F
:1070E200D36E949C948E0FC005F010C006F011C0B0
:1070F20007F012C008F0000E016E120E026E7A0E38
:10710200036E000E046E19EC3AF001C013F002C0D7
:1071120014F003C015F004C016F013C001F014C03F
:1071220002F015C003F016C004F0400E056E000E0A
:10713200066E000E076E000E086E19EC3AF001049E
:10714200AF6EAC94AC98AB8EAC9CAC8AAB9CAB886B
:107152001200076E000E0A6E000E096E0750092417
:10716200086E09500324D96E0A500420DA6EDF50EB
:10717200016E085052EC36F0094A0A2A0ABECBEFD9
:1071820038F00A5009E1030E095CD8A0CBEF38F0C1
:10719200CDEF38F0AFEF38F0000E0C6E000E0B6E34
:1071A20007500B24030F086E0B500324056E0C507E
:1071B2000420066E040E0524D96E000E0620DA6E37
:1071C200DF50016E085052EC36F00B4A0C2A0CBE0E
:1071D200F4EF38F00C5009E1030E0B5CD8A0F4EF89
:1071E20038F0F6EF38F0D1EF38F0000E0E6E000EE8
:1071F2000D6E07500D24060F086E0D500324056E08
:107202000E500420066E080E0524D96E000E0620CC
:10721200DA6EDF50016E085052EC36F00D4A0E2A3B
:107222000EBE1DEF39F00E5009E1030E0D5CD8A021
:107232001DEF39F01FEF39F0FAEF38F01200296E26
:10724200000E2A6E29502A24266E1D0E2A24D96E7B
:10725200DA6A000EDA2226502EEC36F0DF6E2A2A87
:10726200020E2A6437EF39F039EF39F023EF39F0A3
:10727200000E2B6E29502B24030F276E200E2B2479
:10728200D96EDA6A000EDA2227502EEC36F0DF6E63
:107292002B2A020E2B6450EF39F052EF39F03BEFFC
:1072A20039F0000E2C6E29502C24060F286E230E66
:1072B2002C24D96EDA6A000EDA2228502EEC36F02F
:1072C200DF6E2C2A020E2C6469EF39F06BEF39F075
:1072D20054EF39F01D0E086E000E096EC4EC3BF03F
:1072E20017C0D9FF18C0DAFF08C0DEFF09C0DDFFF2
:1072F200200E086E000E096EC4EC3BF019C0D9FFD7
:107302001AC0DAFF08C0DEFF09C0DDFF230E086ED7
:10731200000E096EC4EC3BF01BC0D9FF1CC0DAFFA3
:1073220008C0DEFF09C0DDFF12002A342B34316EA3
:107332003150D8A49FEF39F0A1EF39F0ABEF39F01B
:10734200000E286E000E296E000E2A6E000E2B6EA5
:1073520018EF3AF028C02CF029C02DF02AC02EF0E8
:107362002BC02FF0200EBBEF39F0D8902F322E32E7
:107372002D322C32E82EB6EF39F02C50306E2A8E98
:10738200FF0E2816FF0E2916FF0E2A16000E2B16C8
:10739200960E315E31BED2EF39F0D0EF39F0E8EF20
:1073A20039F03150800A970FD8B0DAEF39F0DCEFBC
:1073B20039F0DEEF39F0A1EF39F0D8902B322A32D2
:1073C20029322832313EDEEF39F000EF3AF01F0E5B
:1073D2003164EEEF39F0F0EF39F0F8EF39F0A1EF68
:1073E20039F0D890283629362A362B3631063150D4
:1073F200D8A4FEEF39F000EF3AF0F2EF39F0305056
:10740200D8B406EF3AF008EF3AF010EF3AF02B1E3C
:107412002A1E291E286C000E29222A222B2228C06D
:1074220028F029C029F02AC02AF02BC02BF0120024
:10743200000E0A6E08BE22EF3AF020EF3AF02CEF6F
:107442003AF0081E071E061E056C000E06220722D1
:107452000822010E0A6E04BE33EF3AF031EF3AF021
:107462003DEF3AF0041E031E021E016C000E0222C2
:1074720003220422010E0A1A000E0B6E000E0C6E7D
:10748200000E0D6E000E0E6E05500610071008104D
:10749200D8B44EEF3AF050EF3AF086EF3AF0010EE0
:1074A200096E5AEF3AF0D890053606360736083696
:1074B200092A08AE5FEF3AF061EF3AF054EF3AF082
:1074C200D8900B360C360D360E360550015C065040
:1074D20002580750035808500458D8A073EF3AF0E6
:1074E20075EF3AF07EEF3AF00550015E0650025A0F
:1074F2000750035A0850045A0B80D89008320732BA
:1075020006320532092E61EF3AF00A50D8B48CEFF8
:107512003AF08EEF3AF096EF3AF00E1E0D1E0C1E68
:107522000B6C000E0C220D220E220BC001F00CC0BF
:1075320002F00DC003F00EC004F01200036EE2EF81
:107542003AF0000E036E2FEF3BF0010E036E2FEFA9
:107552003BF0020E036E2FEF3BF0030E036E2FEF94
:107562003BF0040E036E2FEF3BF0050E036E2FEF80
:107572003BF0060E036E2FEF3BF0070E036E2FEF6C
:107582003BF0080E036E2FEF3BF0090E036E2FEF58
:107592003BF00A0E036E2FEF3BF00B0E036E2FEF44
:1075A2003BF00C0E036E2FEF3BF00D0E036E2FEF30
:1075B2003BF00E0E036E2FEF3BF00F0E036E2FEF1C
:1075C2003BF00350016E026A0250000AD8B4ECEF9D
:1075D2003AF02FEF3BF00150300AD8B4A2EF3AF064
:1075E200010AD8B4A6EF3AF0030AD8B4AAEF3AF0E7
:1075F200010AD8B4AEEF3AF0070AD8B4B2EF3AF0C3
:10760200010AD8B4B6EF3AF0030AD8B4BAEF3AF0A6
:10761200010AD8B4BEEF3AF00F0AD8B4C2EF3AF07A
:10762200010AD8B4C6EF3AF0780AD8B4CAEF3AF0F1
:10763200030AD8B4CEEF3AF0010AD8B4D2EF3AF046
:10764200070AD8B4D6EF3AF0010AD8B4DAEF3AF022
:10765200030AD8B4DEEF3AF02FEF3BF003501200EA
:10766200086E530E0818D8A439EF3BF03BEF3BF0FD
:107672003FEF3BF074EC36F041EF3BF086EC36F036
:1076820082908298CA84000E0A6E000E096E000E65
:107692000C6E000E0B6E9CEF3BF00350095C0A501F
:1076A200800A076E0450800A0758D8B05BEF3BF09F
:1076B2005DEF3BF074EF3BF082A462EF3BF064EFCE
:1076C2003BF070EF3BF009C001F00AC002F0ACECF5
:1076D20036F001C009F002C00AF075EF3BF0000E6F
:1076E2004D6E75EF3BF0828005500B5C0C50800AAA
:1076F200076E0650800A0758D8B082EF3BF084EF3D
:107702003BF09BEF3BF082A289EF3BF08BEF3BF02B
:1077120097EF3BF00BC001F00CC002F0C4EC36F066
:1077220001C00BF002C00CF09CEF3BF0000E4C6E5F
:107732009CEF3BF082880350095C0A50800A076E76
:107742000450800A0758D8B0A9EF3BF0ABEF3BF0EA
:10775200BAEF3BF005500B5C0C50800A076E0650E6
:10776200800A0758D8A0B8EF3BF0BAEF3BF04EEFD3
:107772003BF0000E4D6E000E0C6E000E0B6E000EF6
:107782004C6ECA941200000E166E000E156E000E9C
:107792000F6E000E0E6ED0EF3BF0084A092A010E62
:1077A200146E08C0D9FF09C0DAFF200EDE18D8B463
:1077B200DDEF3BF0DFEF3BF0FBEF3BF0F70E0A6E45
:1077C200FF0E0B6E08C0D9FF09C0DAFFDF500C6E46
:1077D2000D6A0A500C260B500D220D5009E1050EC0
:1077E2000C5CD8A0F7EF3BF0F9EF3BF0FBEF3BF07E
:1077F200000E146E14C010F0116A10501110D8A4AB
:1078020005EF3CF007EF3CF0CEEF3BF011EF3CF020
:10781200000E0F6E010E0E6E084A092A46EF3CF06A
:1078220008C0D9FF09C0DAFFDF500A6E0B6A0B509D
:10783200000AD8B41FEF3CF046EF3CF00A502B0A86
:10784200D8B40DEF3CF0060AD8B409EF3CF046EF8D
:107852003CF015C001F016C002F0000E046E0A0ED4
:10786200036E99EC36F008C0D9FF09C0DAFFDF5089
:107872000A6E0A50015E000E025A300E0124156E85
:10788200000E0220166E0DEF3CF0D00E0A6EFF0EB7
:107892000B6E08C0D9FF09C0DAFFDF500C6E0D6A0B
:1078A2000A500C260B500D220D500AE10A0E0C5CF8
:1078B200D8A05EEF3CF061EF3CF0010E62EF3CF0CD
:1078C200000E126E136A12501310D8A46BEF3CF024
:1078D2006DEF3CF02AEF3CF00E500F10D8A474EF7D
:1078E2003CF076EF3CF084EF3CF015C00AF016C095
:1078F2000BF00A1E0B1E0A4A0B2A0AC008F00BC024
:1079020009F088EF3CF015C008F016C009F012002B
:10791200800E0F6E250E106E000E116E000E126E8E
:1079220070EC38F025EC36F03F6E2EEF3DF04E0E47
:10793200016E000E026E070E69EC37F04E0E176EE6
:10794200000E186E590E196E000E1A6E94EC37F076
:107952004E0E176E000E186E570E196E000E1A6E2E
:1079620036EC38F059C038F05AC039F057C03AF006
:1079720058C03BF03F50C8EC37F093EF3CF04E0E4E
:10798200016E000E026E070E69EC37F04E0E176E96
:10799200000E186E590E196E000E1A6E94EC37F026
:1079A2004E0E176E000E186E570E196E000E1A6EDE
:1079B20036EC38F059C038F05AC039F057C03AF0B6
:1079C20058C03BF03F50C8EC37F093EF3CF043EC2B
:1079D20036F093EF3CF021EC36F093EF3CF023ECE1
:1079E20036F093EF3CF025EC36F04B6E4B509FECAB
:1079F2003AF04B6E590E176E000E186E570E196E36
:107A0200000E1A6E550E1B6E000E1C6E4B5020ECB3
:107A120039F059C038F05AC039F057C03AF058C05E
:107A22003BF03F50C8EC37F093EF3CF025EC36F0DA
:107A32004B6E600E016E000E026E0B0E69EC37F09B
:107A42004B509FEC3AF04B6E600E036E000E046ECC
:107A52004B50AAEC38F093EF3CF03F503D6E3E6A3B
:107A62003E50000AD8B438EF3DF093EF3CF03D5061
:107A7200460AD8B498EF3CF00E0AD8B4ECEF3CF0CA
:107A8200050AD8B417EF3DF0020AD8B4F4EF3CF07F
:107A92001D0AD8B4F0EF3CF0010AD8B4C0EF3CF0B4
:107AA200070AD8B4E8EF3CF093EF3CF000EF00F0A7
:107AB200096E0950D8B460EF3DF062EF3DF084EFFB
:107AC2003DF004BE69EF3DF067EF3DF084EF3DF01D
:107AD20001C005F002C006F003C007F004C008F0C0
:107AE200051E061E071E081E052A000E0622072274
:107AF200082205C00BF006C00CF007C00DF008C04C
:107B02000EF08CEF3DF001C00BF002C00CF003C090
:107B12000DF004C00EF00150021003100410D8A49E
:107B220095EF3DF097EF3DF0A1EF3DF0000E016EB5
:107B3200000E026E000E036E000E046E32EF3EF077
:107B4200960E0A6EABEF3DF00A2AD8900E320D3235
:107B52000C320B32000E0B14056E000E0C14066E66
:107B6200000E0D14076EFE0E0E14086E0550061060
:107B720007100810D8A4C0EF3DF0C2EF3DF0A5EF0A
:107B82003DF0D0EF3DF00A2A010E0B26000E0C222A
:107B92000D220E22D8900E320D320C320B32000E14
:107BA2000B14056E000E0C14066E000E0D14076EFB
:107BB200FF0E0E14086E0550061007100810D8A408
:107BC200E5EF3DF0E7EF3DF0C4EF3DF0EFEF3DF0C4
:107BD2000A06D8900B360C360D360E360DBEF4EF73
:107BE2003DF0F6EF3DF0FEEF3DF0020E0A60FCEFD5
:107BF2003DF0FEEF3DF0E9EF3DF00AB003EF3EF05D
:107C020005EF3EF006EF3EF00D9ED8900A320AC014
:107C120005F0066A076A086A05C008F0076A066A7C
:107C2200056A05500B1206500C1207500D1208502F
:107C32000E120950D8B420EF3EF022EF3EF02AEFA8
:107C42003EF004BE29EF3EF027EF3EF02AEF3EF071
:107C52000E8E0BC001F00CC002F00DC003F00EC07E
:107C620004F012001250800B1F6E12501224266E66
:107C720011AE3EEF3EF040EF3EF041EF3EF0268087
:107C82002650D8B447EF3EF049EF3EF05EEF3EF0AB
:107C92002628D8A44FEF3EF051EF3EF059EF3EF0C8
:107CA200000E0F6E000E106E000E116E000E126EA0
:107CB200118E000E126E66EF3EF0000E0F6E000E79
:107CC200106E000E116E000E126E1650800B1F1AEF
:107CD20016501624276E15AE71EF3EF073EF3EF08C
:107CE20074EF3EF027802750D8B47AEF3EF07CEF55
:107CF2003EF091EF3EF02728D8A482EF3EF084EFC9
:107D02003EF08CEF3EF0000E136E000E146E000E6D
:107D1200156E000E166E158E000E166E99EF3EF061
:107D2200000E136E000E146E000E156E000E166E0F
:107D32001350141015101610D8A4A2EF3EF0A4EFA1
:107D42003EF0BCEF3EF0000E0F6E000E106E000E05
:107D5200116E000E126E800E11127F0E12121F5043
:107D620012120FC00FF010C010F011C011F012C0AB
:107D720012F0FFEF3FF02650D8A4C2EF3EF0C4EF5E
:107D82003EF0CEEF3EF0000E0F6E000E106E000EB3
:107D9200116E000E126EFFEF3FF0275026C017F053
:107DA200186A175E000E185A7F0E1724206E000EF6
:107DB2001820216E0FC01BF010C01CF011C01DF066
:107DC20012C01EF0000E0F6E000E106E000E116E2D
:107DD200000E126E000E226E000E236E000E246E36
:107DE200000E256E000E276E2FEF3FF02750D8B4FD
:107DF200FDEF3EF0FFEF3EF016EF3FF0D8901B365E
:107E02001C361D361E36D8900F36103611361236F5
:107E120025AE0EEF3FF010EF3FF011EF3FF00F8075
:107E2200D890223623362436253613501B5C145044
:107E32001C5815501D5816501E58D8A023EF3FF05D
:107E420025EF3FF02EEF3FF0258C13501B5E1450B0
:107E52001C5A15501D5A16501E5A272A190E2764ED
:107E620035EF3FF037EF3FF0F7EF3EF01B501C10BD
:107E72001D101E10D8B440EF3FF042EF3FF05AEF12
:107E82003FF022805AEF3FF0D8900F36103611366D
:107E9200123625AE4FEF3FF051EF3FF052EF3FF079
:107EA2000F80D89022362336243625362006D8A0D5
:107EB200210611AE5FEF3FF061EF3FF045EF3FF07B
:107EC200000E276E25AE68EF3FF06AEF3FF08EEFAF
:107ED2003FF0FF0E2214176EFF0E2314186EFF0ED2
:107EE2002414196E7F0E25141A6E175018101910CB
:107EF2001A10D8B47FEF3FF081EF3FF085EF3FF0EB
:107F0200010E276E8EEF3FF00FA08AEF3FF08CEF4D
:107F12003FF08EEF3FF081EF3FF02750D8B494EF5F
:107F22003FF096EF3FF0BAEF3FF0010E0F26000E42
:107F320010221122122212A0A1EF3FF0A3EF3FF074
:107F4200BAEF3FF00FC017F010C018F011C019F0CF
:107F520012C01AF01A341A3219321832173217C0F4
:107F62000FF018C010F019C011F01AC012F0204A18
:107F7200212A21BEC5EF3FF0215008E12028D8A0D8
:107F8200C5EF3FF0C7EF3FF0D2EF3FF0000E216E9A
:107F92002068000E0F6E000E106E000E116E000EA5
:107FA200126E21BEDFEF3FF0215006E12004D8B06F
:107FB200DDEF3FF0DFEF3FF0EDEF3FF0000E216E1F
:107FC200000E206E000E0F6E000E106E000E116E6F
:107FD200000E126E000E1F6E20C026F026A0F4EFD7
:107FE2003FF0F6EF3FF0F9EF3FF0118EFAEF3FF07E
:0E7FF200119ED8902630126EB0EF3EF01200B5
:020000040020DA
:08000000FFFFFFFFFFFFFFFF00
:020000040030CA
:0E00000000081F1EFF8181FF0FC00FE00F40A0
:00000001FF
