:020000040000FA
:0400000007EF00F016
:100008005F825BED32F0BCEF35F0DCC0B8F1DDC0EB
:10001800B9F1DEC0BAF1DFC0BBF1B8C160F1B9C156
:1000280061F1BAC162F1BBC163F1E0C0B8F1E1C0EE
:10003800B9F1E2C0BAF1E3C0BBF1B8C184F1B9C10A
:1000480085F1BAC186F1BBC187F1FF0E01016015C8
:10005800A86FFF0E6115A96FFF0E6215AA6F7F0EBC
:100068006315AB6FFF0E8415986FFF0E8515996F9A
:10007800FF0E86159A6F7F0E87159B6F9851991101
:100088009A119B11D8A44BEF00F04DEF00F058EFF8
:1000980000F0000E0001DC6F000EDD6F800EDE6FD9
:1000A8003F0EDF6F3CEF15F0800E621909E13F0E3D
:1000B800631960116111D8A464EF00F066EF00F0D5
:1000C80071EF00F0000E0001DC6F000EDD6F800E96
:1000D800DE6F3F0EDF6F3CEF15F0ABBF82EF00F035
:1000E800A805000EA959800EAA597F0EAB59D8B0A1
:1000F80080EF00F082EF00F093EF00F09BBF91EFEC
:1001080000F09805000E9959800E9A597F0E9B5958
:10011800D8A091EF00F093EF00F0AFEF00F0DCC053
:1001280087F0DDC088F0DEC089F0DFC08AF0E0C06B
:100138008BF0E1C08CF0E2C08DF0E3C08EF062EC91
:1001480018F087C0DCF088C0DDF089C0DEF08AC016
:10015800DFF03CEF15F0000E506F000E516F000EEF
:10016800526F000E536F63BFBEEF00F0BCEF00F09C
:100178008AEF01F09BBFCAEF00F0800E9A5D4B0E2C
:100188009B59D8A0CAEF00F0CCEF00F0D6EF00F0F2
:10019800020E506F000E516F000E526F000E536F1B
:1001A8008AEF01F09BBFE2EF00F0800E9A5D3F0EF0
:1001B8009B59D8A0E2EF00F0E4EF00F08AEF01F0DD
:1001C800170E0001E46F98C1E5F099C1E6F09AC1F5
:1001D800E7F09BC1E8F0E467F4EF00F0FCEF00F013
:1001E800E835E833E733E633E533E42FEFEF00F0A3
:1001F800810E0001E5250101A06FFF0E0001E62137
:100208000101A16FFF0E0001E7210101A26FFF0E9E
:100218000001E8210101A36FA05117080001E46F54
:1002280098C1E5F099C1E6F09AC1E7F09BC1E8F002
:10023800E46721EF01F029EF01F0E835E833E7330F
:10024800E633E533E42F1CEF01F0E5C0ACF1E6C07E
:10025800ADF1E7C0AEF1E8C0AFF10101A051170858
:100268000001E46FACC1E5F0ADC1E6F0AEC1E7F066
:10027800AFC1E8F0E42B46EF01F0D890E537E63758
:10028800E737E837E42F41EF01F001019851000109
:10029800E51913E1010199510001E6190EE1010187
:1002A8009A510001E71909E101019B510001E81980
:1002B800D8A461EF01F063EF01F08AEF01F0010EBD
:1002C8000101AC150001E46F000E0101AD1500013C
:1002D800E56F000E0101AE150001E66F000E010189
:1002E800AF150001E76FE45102080101506F000EDD
:1002F8000001E5550101516F000E0001E6550101AD
:10030800526F000E0001E7550101536F800E010185
:100318009A1909E17F0E9B1998119911D8A497EFA2
:1003280001F099EF01F005EF02F0800EAA1909E13A
:100338003F0EAB19A811A911D8A4A5EF01F0A7EF9A
:1003480001F0B2EF01F0000E0001DC6F000EDD6F6E
:10035800800EDE6F3F0EDF6F3CEF15F0ABBFC1EFD5
:1003680001F0A805000EA959800EAA593F0EAB59F5
:10037800D8A0C1EF01F0C3EF01F0DFEF01F087BFB4
:10038800CAEF01F0C8EF01F0D5EF01F0000E00014F
:10039800DC6F000EDD6F000EDE6F000EDF6F3CEFCE
:1003A80015F0E0C0DCF0E1C0DDF0E2C0DEF0E3C053
:1003B800DFF03CEF15F087BFE6EF01F0E4EF01F066
:1003C800FAEF01F0E0C060F0E1C061F0E2C062F075
:1003D800E3C063F0D2EC34F060C0DCF061C0DDF063
:1003E80062C0DEF063C0DFF03CEF15F0000E0001E4
:1003F800DC6F000EDD6F000EDE6F000EDF6F3CEF6E
:1004080015F0800E9A1909E13F0E9B199811991160
:10041800D8A411EF02F013EF02F041EF02F087BF0A
:100428001AEF02F018EF02F037EF02F0000E0001A9
:100438009F6F000EA06F800EA16F3F0EA26FDCC0F1
:10044800A3F0DDC0A4F0DEC0A5F0DFC0A6F039EC53
:100458001FF09FC0DCF0A0C0DDF0A1C0DEF0A2C09C
:10046800DFF03CEF15F0DCC0DCF0DDC0DDF0DEC015
:10047800DEF0DFC0DFF03CEF15F0400E8719841185
:1004880085118611D8A44BEF02F04DEF02F069EF09
:1004980002F0DCC06EF0DDC06FF0DEC070F0DFC0CF
:1004A80071F0DCC072F0DDC073F0DEC074F0DFC044
:1004B80075F023EC1DF06EC0DCF06FC0DDF070C08D
:1004C800DEF071C0DFF03CEF15F03F0E87198411A4
:1004D80085118611D8A473EF02F075EF02F090EF42
:1004E80002F063BF7AEF02F07CEF02F090EF02F0C7
:1004F800DCC0ABF0DDC0ACF0DEC0ADF0DFC0AEF00C
:10050800C3EC1AF0ABC0DCF0ACC0DDF0ADC0DEF07F
:10051800AEC0DFF03CEF15F0DCC060F0DDC061F08C
:10052800DEC062F0DFC063F00BEC35F060C070F144
:1005380061C071F162C072F163C073F1800E010194
:10054800AA190BE17F0EAB19A811A911D8B4AFEF06
:1005580002F0B1EF02F0CAEF02F0A851A911AA11F6
:10056800AB11D8B4BAEF02F0BCEF02F0CAEF02F058
:10057800800EAA1909E13F0EAB19A811A911D8A438
:10058800C8EF02F0CAEF02F096EF03F070C1B4F1C1
:1005980071C1B5F172C1B6F173C1B7F187BFD9EFB7
:1005A80002F0D7EF02F0F4EF02F0000E00019F6FA7
:1005B800000EA06F800EA16F3F0EA26FB4C1A3F012
:1005C800B5C1A4F0B6C1A5F0B7C1A6F039EC1FF0CB
:1005D8009FC0B4F1A0C0B5F1A1C0B6F1A2C0B7F1F7
:1005E800010163BFFCEF02F0FAEF02F08CEF03F0B9
:1005F800000EA8250001E46F000E0101A9210001E9
:10060800E56F800E0101AA210001E66FC00E01010D
:10061800AB210001E76F010150510001E411E86FBF
:10062800010151510001E511E96F01015251000129
:10063800E611EA6F010153510001E711EB6FE85130
:10064800E911EA11EB11D8A42CEF03F02EEF03F017
:100658006EEF03F0B4C19BF0B5C19CF0B6C19DF03C
:10066800B7C19EF0B4C197F0B5C198F0B6C199F082
:10067800B7C19AF0BFEC33F097C09FF098C0A0F0D4
:1006880099C0A1F09AC0A2F0B4C19BF0B5C19CF08A
:10069800B6C19DF0B7C19EF0B4C197F0B5C198F04E
:1006A800B6C199F0B7C19AF0BFEC33F097C0A3F088
:1006B80098C0A4F099C0A5F09AC0A6F039EC1FF034
:1006C8009FC0B4F1A0C0B5F1A1C0B6F1A2C0B7F106
:1006D8008CEF03F001015005511152115311D8A4A8
:1006E80078EF03F07AEF03F08CEF03F0B4C160F019
:1006F800B5C161F0B6C162F0B7C163F0D2EC34F0B5
:1007080060C0B4F161C0B5F162C0B6F163C0B7F1C1
:10071800B4C1DCF0B5C1DDF0B6C1DEF0B7C1DFF0C1
:100728003CEF15F0000E886F000E896F800E8A6FFF
:100738003F0E8B6F63BFA5EF03F0A3EF03F003EF4A
:1007480004F05051511152115311D8A4AEEF03F0D7
:10075800B0EF03F0F0EF03F0DCC09BF0DDC09CF0DD
:10076800DEC09DF0DFC09EF0DCC097F0DDC098F0E1
:10077800DEC099F0DFC09AF0BFEC33F097C09FF06D
:1007880098C0A0F099C0A1F09AC0A2F0DCC09BF07C
:10079800DDC09CF0DEC09DF0DFC09EF0DCC097F0AD
:1007A800DDC098F0DEC099F0DFC09AF0BFEC33F0FE
:1007B80097C0A3F098C0A4F099C0A5F09AC0A6F07D
:1007C80039EC1FF09FC0DCF0A0C0DDF0A1C0DEF066
:1007D800A2C0DFF03CEF15F0500551115211531132
:1007E800D8A4F9EF03F0FBEF03F003EF04F0000ED9
:1007F800886F000E896F800E8A6FBF0E8B6F9BBF4C
:1008080012EF04F09805000E9959000E9A594D0EF2
:100818009B59D8A012EF04F014EF04F0A8EF06F0EB
:10082800ABBF26EF04F0F80EA85DFF0EA9597F0EA6
:10083800AA593F0EAB59D8B024EF04F026EF04F0C4
:100848009DEF04F087BF2BEF04F02DEF04F065EF68
:1008580004F0600E0001726F420E736FA20E746F87
:100868000D0E756F88C16EF089C16FF08AC170F086
:100878008BC171F023EC1DF06EC0A4F16FC0A5F11F
:1008880070C0A6F171C0A7F1A4C16EF0A5C16FF048
:10089800A6C170F0A7C171F0600E0001726F420E20
:1008A800736FA20E746F0D0E756F23EC1DF06EC082
:1008B800DCF06FC0DDF070C0DEF071C0DFF03CEF3F
:1008C80015F0CA0E0001726FF20E736F490E746F45
:1008D800710E756F88C16EF089C16FF08AC170F0B2
:1008E8008BC171F023EC1DF06EC0A4F16FC0A5F1AF
:1008F80070C0A6F171C0A7F1A4C16EF0A5C16FF0D8
:10090800A6C170F0A7C171F0CA0E0001726FF20E95
:10091800736F490E746F710E756F23EC1DF06EC006
:10092800DCF06FC0DDF070C0DEF071C0DFF03CEFCE
:1009380015F0ABBFADEF04F0080EA85D000EA95985
:10094800800EAA593F0EAB59D8A0ADEF04F0AFEF17
:1009580004F02EEF05F087BFBEEF04F08751861133
:10096800851106E18405D8B0BCEF04F0BEEF04F0B1
:10097800F6EF04F0600E0001726F420E736FA20E64
:10098800746F0D0E756F88C16EF089C16FF08AC1E2
:1009980070F08BC171F023EC1DF06EC0A4F16FC034
:1009A800A5F170C0A6F171C0A7F1A4C16EF0A5C1F0
:1009B8006FF0A6C170F0A7C171F0600E0001726FF0
:1009C800420E736FA20E746F0D0E756F23EC1DF03F
:1009D8006EC0DCF06FC0DDF070C0DEF071C0DFF01B
:1009E8003CEF15F0CA0E0001726FF20E736F490EDC
:1009F800746F710E756F88C16EF089C16FF08AC10E
:100A080070F08BC171F023EC1DF06EC0A4F16FC0C3
:100A1800A5F170C0A6F171C0A7F1A4C16EF0A5C17F
:100A28006FF0A6C170F0A7C171F0CA0E0001726F15
:100A3800F20E736F490E746F710E756F23EC1DF013
:100A48006EC0DCF06FC0DDF070C0DEF071C0DFF0AA
:100A58003CEF15F070C187F071C188F072C189F060
:100A680073C18AF0000E00018B6F000E8C6F800E30
:100A78008D6FBF0E8E6F62EC18F087C0B0F188C022
:100A8800B1F189C0B2F18AC0B3F1000E0001726FF2
:100A9800000E736F800E746F3E0E756FB0C16EF0EE
:100AA800B1C16FF0B2C170F0B3C171F023EC1DF0A9
:100AB8006EC09BF06FC09CF070C09DF071C09EF03E
:100AC800AB0E0001976FAA0E986FAA0E996F3E0E93
:100AD8009A6FBFEC33F097C0A4F198C0A5F199C004
:100AE800A6F19AC0A7F1B0C172F0B1C173F0B2C15A
:100AF80074F0B3C175F0B0C16EF0B1C16FF0B2C19E
:100B080070F0B3C171F023EC1DF06EC054F16FC0EA
:100B180055F170C056F171C057F1B0C172F0B1C152
:100B280073F0B2C174F0B3C175F0A4C16EF0A5C181
:100B38006FF0A6C170F0A7C171F023EC1DF06EC074
:100B48009BF06FC09CF070C09DF071C09EF0000ECD
:100B58000001976F000E986F000E996F3F0E9A6F05
:100B6800BFEC33F097C048F198C049F199C04AF1F9
:100B78009AC04BF154C16EF055C16FF056C170F078
:100B880057C171F048C172F049C173F04AC174F09D
:100B98004BC175F023EC1DF06EC044F16FC045F1F8
:100BA80070C046F171C047F1B0C16EF0B1C16FF0CD
:100BB800B2C170F0B3C171F0000E0001726FAA0EDD
:100BC800736FB80E746F3F0E756F23EC1DF06EC017
:100BD80074F16FC075F170C076F171C077F1700E65
:100BE8000001726FA50E736FEC0E746F360E756F81
:100BF800B0C16EF0B1C16FF0B2C170F0B3C171F0A5
:100C080023EC1DF06EC097F06FC098F070C099F09B
:100C180071C09AF03B0E0001726FAA0E736FB80E86
:100C2800746F3F0E756F44C16EF045C16FF046C1D9
:100C380070F047C171F023EC1DF06EC09BF06FC0DF
:100C48009CF070C09DF071C09EF0BFEC33F097C06F
:100C580078F198C079F199C07AF19AC07BF174C1A2
:100C680087F075C188F076C189F077C18AF078C1BC
:100C78008BF079C18CF07AC18DF07BC18EF062EC7B
:100C880018F087C080F188C081F189C082F18AC0DC
:100C980083F180C1B8F181C1B9F182C1BAF183C1D0
:100CA800BBF1B8C190F1B9C191F1BAC192F1BBC120
:100CB80093F1000E01019015B86FF00E9115B96F00
:100CC800FF0E9215BA6FFF0E9315BB6FB8C180F176
:100CD800B9C181F1BAC182F1BBC183F174C19BF082
:100CE80075C19CF076C19DF077C19EF080C197F0E8
:100CF80081C198F082C199F083C19AF0BFEC33F0BA
:100D080097C094F198C095F199C096F19AC097F15F
:100D180078C197F079C198F07AC199F07BC19AF0BF
:100D280094C19BF095C19CF096C19DF097C19EF02F
:100D3800BFEC33F097C01CF198C01DF199C01EF1AB
:100D48009AC01FF121EF0EF0000E7C6F000E7D6F30
:100D5800000E7E6F000E7F6FABBFBEEF06F0AB518B
:100D680007E1800EAA5DD8B0BCEF06F0BEEF06F032
:100D7800F2EF06F070C16EF071C16FF072C170F0E1
:100D880073C171F0000E0001726F000E736F800E58
:100D9800746F4B0E756F23EC1DF06EC070F16FC051
:100DA80071F170C072F171C073F1E80E01017C2716
:100DB800FF0E7D23FF0E7E23FF0E7F2370C1B8F147
:100DC80071C1B9F172C1BAF173C1BBF1B8C1A8F16F
:100DD800B9C1A9F1BAC1AAF1BBC1ABF1170E0001A3
:100DE800E46FA8C1E5F0A9C1E6F0AAC1E7F0ABC17C
:100DF800E8F0E46702EF07F00AEF07F0E835E833B8
:100E0800E733E633E533E42FFDEF06F0810E00010A
:100E1800E525E96FFF0EE621EA6FFF0EE721EB6F8C
:100E2800FF0EE821EC6FE95101017C270001EA512E
:100E380001017D230001EB5101017E230001EC51EA
:100E480001017F23FF0EA815AC6FFF0EA915AD6F2A
:100E58007F0EAA15AE6F000EAB15AF6F000EAC116A
:100E6800A86F000EAD11A96F800EAE11AA6F3F0ECC
:100E7800AF11AB6FAFBF50EF07F0AF510BE1720E80
:100E8800AC5DC40EAD591C0EAE59D8B04EEF07F08C
:100E980050EF07F05AEF07F0000EA06F000EA16F99
:100EA800000EA26F000EA36F8CEF07F0AFBF6CEFC0
:100EB80007F0AF510BE1D70EAC5DB30EAD595D0E27
:100EC800AE59D8B06AEF07F06CEF07F076EF07F08D
:100ED800010EA06F000EA16F000EA26F000EA36F8F
:100EE8008CEF07F0000EA06F000EA16F000EA26F2E
:100EF800000EA36F010E7C27000E7D237E237F2327
:100F0800000EA827000EA923800EAA23FF0EAB23EC
:100F1800A8C1B8F1A9C1B9F1AAC1BAF1ABC1BBF175
:100F2800B8C170F1B9C171F1BAC172F1BBC173F145
:100F380070C197F071C198F072C199F073C19AF0BD
:100F4800A0C1E4F0A1C1E5F00001D890E437E5378D
:100F5800D890E437E537690EE425F66E7F0EE52173
:100F6800F76E0900F5CF9BF00900F5CF9CF009005A
:100F7800F5CF9DF00A00F5CF9EF0BFEC33F097C097
:100F880074F198C075F199C076F19AC077F1000EA6
:100F980000019F6F000EA06F800EA16F3F0EA26F21
:100FA80070C18BF071C18CF072C18DF073C18EF07D
:100FB800A0C1E4F0A1C1E5F0D890E437E537D890B6
:100FC800E437E537690EE425F66E7F0EE521F76E06
:100FD8000900F5CF87F00900F5CF88F00900F5CFB3
:100FE80089F00A00F5CF8AF062EC18F087C0A3F008
:100FF80088C0A4F089C0A5F08AC0A6F039EC1FF01B
:101008009FC078F1A0C079F1A1C07AF1A2C07BF1AC
:1010180074C16EF075C16FF076C170F077C171F070
:1010280078C172F079C173F07AC174F07BC175F040
:1010380023EC1DF06EC05CF16FC05DF170C05EF115
:1010480071C05FF15CC16CF15DC16DF15EC16EF1A3
:101058005FC16FF16CC1B8F16DC1B9F16EC1BAF180
:101068006FC1BBF1B8C190F1B9C191F1BAC192F1A8
:10107800BBC193F1000E01019015B86FF00E9115E8
:10108800B96FFF0E9215BA6FFF0E9315BB6FB8C1FB
:101098006CF1B9C16DF1BAC16EF1BBC16FF1A8C1F4
:1010A800E4F0A9C1E5F0AAC1E6F0ABC1E7F00001A0
:1010B800E735E733E633E533E433000EE415E86F4C
:1010C800F00EE515E96FFF0EE615EA6FFF0EE7155E
:1010D800EB6F000EE8110101906F000E0001E9119D
:1010E8000101916F000E0001EA110101926F200EBB
:1010F8000001EB110101936FA0C1E4F0A1C1E5F07B
:10110800A2C1E6F0A3C1E7F0150ED8900001E437BC
:10111800E537E637E737E82E89EF08F00101905107
:101128000001E425E86F010191510001E521E96F13
:10113800010192510001E621EA6F0101935100017A
:10114800E721EB6F000EE8250101B86F000E0001E2
:10115800E9210101B96F400E0001EA210101BA6FCE
:10116800000E0001EB210101BB6FB8C168F1B9C1E4
:1011780069F1BAC16AF1BBC16BF1A0C1E4F0A1C1C8
:10118800E5F00001D890E437E537D890E437E53743
:10119800690EE425F66E7F0EE521F76E0900F5CF9E
:1011A8009BF00900F5CF9CF00900F5CF9DF00A00EF
:1011B800F5CF9EF068C197F069C198F06AC199F0BF
:1011C8006BC19AF0BFEC33F097C094F198C095F1D9
:1011D80099C096F19AC097F170C197F071C198F0D3
:1011E80072C199F073C19AF094C19BF095C19CF0BB
:1011F80096C19DF097C19EF0BFEC33F097C034F1D3
:1012080098C035F199C036F19AC037F168C172F0CB
:1012180069C173F06AC174F06BC175F06CC16EF08E
:101228006DC16FF06EC170F06FC171F023EC1DF0ED
:101238006EC09BF06FC09CF070C09DF071C09EF0B6
:1012480074C197F075C198F076C199F077C19AF09A
:10125800BFEC33F097C094F198C095F199C096F11E
:101268009AC097F134C172F035C173F036C174F089
:1012780037C175F06CC16EF06DC16FF06EC170F062
:101288006FC171F023EC1DF06EC09BF06FC09CF035
:1012980070C09DF071C09EF094C197F095C198F010
:1012A80096C199F097C19AF0BFEC33F097C054F10A
:1012B80098C055F199C056F19AC057F154C16EF0D3
:1012C80055C16FF056C170F057C171F078C172F016
:1012D80079C173F07AC174F07BC175F023EC1DF00D
:1012E8006EC030F16FC031F170C032F171C033F1AE
:1012F8005CC16EF05DC16FF05EC170F05FC171F0EE
:101308005CC172F05DC173F05EC174F05FC175F0CD
:1013180023EC1DF06EC08CF16FC08DF170C08EF1A2
:1013280071C08FF1550E00018B6F320E8C6F6C0EF1
:101338008D6F3E0E8E6F420E726FF10E736F530EED
:10134800746F3E0E756F8CC16EF08DC16FF08EC1DB
:1013580070F08FC171F023EC1DF06EC087F06FC084
:1013680088F070C089F071C08AF062EC18F087C00C
:10137800A4F188C0A5F189C0A6F18AC0A7F1050E1D
:1013880000018B6FA30E8C6F8B0E8D6F3E0E8E6FD0
:101398008CC172F08DC173F08EC174F08FC175F07D
:1013A800A4C16EF0A5C16FF0A6C170F0A7C171F01D
:1013B80023EC1DF06EC087F06FC088F070C089F014
:1013C80071C08AF062EC18F087C054F188C055F1FA
:1013D80089C056F18AC057F1AB0E00018B6FAA0E77
:1013E8008C6FAA0E8D6F3E0E8E6F8CC172F08DC100
:1013F80073F08EC174F08FC175F054C16EF055C191
:101408006FF056C170F057C171F023EC1DF06EC03B
:1014180087F06FC088F070C089F071C08AF062EC04
:1014280018F087C048F188C049F189C04AF18AC0DC
:101438004BF1B70E00018B6F6D0E8C6FDB0E8D6F4D
:101448003E0E8E6F8CC172F08DC173F08EC174F038
:101458008FC175F048C16EF049C16FF04AC170F094
:101468004BC171F023EC1DF06EC087F06FC088F09F
:1014780070C089F071C08AF062EC18F087C038F14A
:1014880088C039F189C03AF18AC03BF19A0E00014F
:101498008B6F990E8C6F190E8D6F3F0E8E6F8CC1EE
:1014A80072F08DC173F08EC174F08FC175F038C1C0
:1014B8006EF039C16FF03AC170F03BC171F023ECA6
:1014C8001DF06EC087F06FC088F070C089F071C0E1
:1014D8008AF062EC18F087C000F188C001F189C079
:1014E80002F18AC003F18CC172F08DC173F08EC114
:1014F80074F08FC175F08CC16EF08DC16FF08EC124
:1015080070F08FC171F023EC1DF06EC004F16FC054
:1015180005F170C006F171C007F100C16EF001C19C
:101528006FF002C170F003C171F004C172F005C11F
:1015380073F006C174F007C175F023EC1DF06EC09E
:101548004CF16FC04DF170C04EF171C04FF130C118
:1015580072F031C173F032C174F033C175F05CC1FF
:101568008BF05DC18CF05EC18DF05FC18EF06CC1F7
:1015780087F06DC188F06EC189F06FC18AF062ECA6
:1015880018F087C06EF088C06FF089C070F08AC00C
:1015980071F023EC1DF06EC058F16FC059F170C0A6
:1015A8005AF171C05BF14CC187F04DC188F04EC152
:1015B80089F04FC18AF058C18BF059C18CF05AC1DB
:1015C8008DF05BC18EF062EC18F087C04CF188C0DA
:1015D8004DF189C04EF18AC04FF16CC16EF06DC1FA
:1015E8006FF06EC170F06FC171F06CC172F06DC1B7
:1015F80073F06EC174F06FC175F023EC1DF06EC00E
:101608008CF16FC08DF170C08EF171C08FF1000E3A
:1016180000018B6F000E8C6F400E8D6F400E8E6F29
:101628008CC187F08DC188F08EC189F08FC18AF096
:1016380062EC18F087C058F188C059F189C05AF196
:101648008AC05BF158C187F059C188F05AC189F046
:101658005BC18AF04CC18BF04DC18CF04EC18DF04E
:101668004FC18EF062EC18F087C068F188C069F14C
:1016780089C06AF18AC06BF168C1B8F169C1B9F172
:101688006AC1BAF16BC1BBF1B8C190F1B9C191F1AE
:10169800BAC192F1BBC193F1000E01019015B86F68
:1016A800F00E9115B96FFF0E9215BA6FFF0E9315D4
:1016B800BB6FB8C168F1B9C169F1BAC16AF1BBC100
:1016C8006BF1000E00018B6F000E8C6F400E8D6F5A
:1016D800C00E8E6F68C187F069C188F06AC189F051
:1016E8006BC18AF062EC18F087C03CF188C03DF10C
:1016F80089C03EF18AC03FF18CC19BF08DC19CF03E
:101708008EC19DF08FC19EF03CC197F03DC198F00D
:101718003EC199F03FC19AF0BFEC33F097C040F159
:1017280098C041F199C042F19AC043F14CC197F079
:101738004DC198F04EC199F04FC19AF040C19BF04D
:1017480041C19CF042C19DF043C19EF0BFEC33F013
:1017580097C034F198C035F199C036F19AC037F185
:101768006CC16EF06DC16FF06EC170F06FC171F039
:1017780068C172F069C173F06AC174F06BC175F029
:1017880023EC1DF06EC074F16FC075F170C076F176
:1017980071C077F168C172F069C173F06AC174F001
:1017A8006BC175F030C16EF031C16FF032C170F0AD
:1017B80033C171F023EC1DF06EC087F06FC088F064
:1017C80070C089F071C08AF05CC172F05DC173F0BD
:1017D8005EC174F05FC175F034C16EF035C16FF051
:1017E80036C170F037C171F023EC1DF06EC08BF07C
:1017F8006FC08CF070C08DF071C08EF062EC18F084
:1018080087C078F188C079F189C07AF18AC07BF104
:1018180074C187F075C188F076C189F077C18AF004
:1018280078C18BF079C18CF07AC18DF07BC18EF0D4
:1018380062EC18F087C09CF188C09DF189C09EF1C8
:101848008AC09FF19CC1B8F19DC1B9F19EC1BAF19E
:101858009FC1BBF1B8C190F1B9C191F1BAC192F180
:10186800BBC193F1000E01019015B86FF00E9115F0
:10187800B96FFF0E9215BA6FFF0E9315BB6FB8C103
:101888009CF1B9C19DF1BAC19EF1BBC19FF174C170
:101898009BF075C19CF076C19DF077C19EF09CC10C
:1018A80097F09DC198F09EC199F09FC19AF0BFEC46
:1018B80033F097C094F198C095F199C096F19AC009
:1018C80097F178C197F079C198F07AC199F07BC106
:1018D8009AF094C19BF095C19CF096C19DF097C178
:1018E8009EF0BFEC33F097C064F198C065F199C0E1
:1018F80066F19AC067F19CC16EF09DC16FF09EC100
:1019080070F09FC171F0000E0001726F400E736F8E
:10191800760E746F3F0E756F23EC1DF06EC020F1CC
:101928006FC021F170C022F171C023F14F0E000188
:10193800726F380E736F760E746F3F0E756F64C1D9
:101948006EF065C16FF066C170F067C171F023EC8D
:101958001DF06EC08BF06FC08CF070C08DF071C040
:101968008EF0C60E0001726F230E736FF60E746F41
:10197800B80E756F9CC16EF09DC16FF09EC170F07E
:101988009FC171F023EC1DF06EC087F06FC088F026
:1019980070C089F071C08AF062EC18F087C058F105
:1019A80088C059F189C05AF18AC05BF158C187F0E3
:1019B80059C188F05AC189F05BC18AF0A0C1E4F02E
:1019C800A1C1E5F00001D890E437E537D890E437B5
:1019D800E537010EE425F66E7F0EE521F76E090066
:1019E800F5CF8BF00900F5CF8CF00900F5CF8DF01D
:1019F8000A00F5CF8EF062EC18F087C024F188C099
:101A080025F189C026F18AC027F17CC160F07DC12B
:101A180061F07EC162F07FC163F0010E6FEC26F0C9
:101A280060C0B0F161C0B1F162C0B2F163C0B3F19E
:101A380024C18BF025C18CF026C18DF027C18EF012
:101A480020C187F021C188F022C189F023C18AF022
:101A580062EC18F087C058F188C059F189C05AF172
:101A68008AC05BF1A0C1E4F0A1C1E5F00001D89003
:101A7800E437E537D890E437E537090EE425F66E04
:101A88007F0EE521F76E0900F5CF8BF00900F5CF41
:101A98008CF00900F5CF8DF00A00F5CF8EF058C113
:101AA80087F059C188F05AC189F05BC18AF062ECAD
:101AB80018F087C008F188C009F189C00AF18AC006
:101AC8000BF108C187F009C188F00AC189F00BC180
:101AD8008AF0B0C18BF0B1C18CF0B2C18DF0B3C146
:101AE8008EF062EC18F087C080F188C081F189C05F
:101AF80082F18AC083F180C1B8F181C1B9F182C194
:101B0800BAF183C1BBF1B8C190F1B9C191F1BAC1C1
:101B180092F1BBC193F1000E01019015B86FF00E60
:101B28009115B96FFF0E9215BA6FFF0E9315BB6F23
:101B3800B8C180F1B9C181F1BAC182F1BBC183F1E9
:101B4800B0C19BF0B1C19CF0B2C19DF0B3C19EF091
:101B580080C197F081C198F082C199F083C19AF051
:101B6800BFEC33F097C094F198C095F199C096F105
:101B78009AC097F1A0C1E4F0A1C1E5F00001D890A6
:101B8800E437E537D890E437E537090EE425F66EF3
:101B98007F0EE521F76E0900F5CF9BF00900F5CF20
:101BA8009CF00900F5CF9DF00A00F5CF9EF094C196
:101BB80097F095C198F096C199F097C19AF0BFEC4B
:101BC80033F097C040F198C041F199C042F19AC0F2
:101BD80043F120C19BF021C19CF022C19DF023C19B
:101BE8009EF040C197F041C198F042C199F043C1BD
:101BF8009AF0BFEC33F097C00CF198C00DF199C082
:101C08000EF19AC00FF124C197F025C198F026C1B2
:101C180099F027C19AF00CC19BF00DC19CF00EC140
:101C28009DF00FC19EF0BFEC33F097C01CF198C037
:101C38001DF199C01EF19AC01FF1E0C0B8F1E1C0D2
:101C4800B9F1E2C0BAF1E3C0BBF1B8C190F1B9C1D2
:101C580091F1BAC192F1BBC193F1000E0101901547
:101C6800B86FF00E9115B96FFF0E9215BA6FFF0E8F
:101C78009315BB6FB8C128F1B9C129F1BAC12AF1CE
:101C8800BBC12BF180C172F081C173F082C174F0C5
:101C980083C175F028C19BF029C19CF02AC19DF031
:101CA8002BC19EF0E0C097F0E1C098F0E2C099F037
:101CB800E3C09AF0BFEC33F097C06EF098C06FF0B5
:101CC80099C070F09AC071F023EC1DF06EC010F14D
:101CD8006FC011F170C012F171C013F110C187F01B
:101CE80011C188F012C189F013C18AF01CC172F0C9
:101CF8001DC173F01EC174F01FC175F0E0C06EF015
:101D0800E1C06FF0E2C070F0E3C071F023EC1DF0A9
:101D18006EC08BF06FC08CF070C08DF071C08EF00B
:101D280062EC18F087C064F188C065F189C066F17B
:101D38008AC067F128C16EF029C16FF02AC170F01E
:101D48002BC171F080C172F081C173F082C174F04F
:101D580083C175F023EC1DF06EC09CF16FC09DF13E
:101D680070C09EF171C09FF164C187F065C188F0B1
:101D780066C189F067C18AF09CC18BF09DC18CF067
:101D88009EC18DF09FC18EF062EC18F087C0B4F14F
:101D980088C0B5F189C0B6F18AC0B7F1B4C1B8F14D
:101DA800B5C1B9F1B6C1BAF1B7C1BBF1B8C1ACF1AF
:101DB800B9C1ADF1BAC1AEF1BBC1AFF10101AFBF5D
:101DC800F2EF0EF0AC05000EAD59000EAE59430E01
:101DD800AF59D8A0F2EF0EF0F4EF0EF02CEF0FF0A1
:101DE800CA0E0001726FF20E736F490E746F710E96
:101DF800756F88C16EF089C16FF08AC170F08BC1B0
:101E080071F023EC1DF06EC0A4F16FC0A5F170C095
:101E1800A6F171C0A7F1A4C16EF0A5C16FF0A6C16B
:101E280070F0A7C171F0CA0E0001726FF20E736FE5
:101E3800490E746F710E756F23EC1DF06EC0DCF0E7
:101E48006FC0DDF070C0DEF071C0DFF03CEF15F060
:101E5800430EAF19AC11AD11AE11D8A436EF0FF087
:101E680038EF0FF0AEEF0FF09CC19BF09DC19CF0D6
:101E78009EC19DF09FC19EF0B4C197F0B5C198F086
:101E8800B6C199F0B7C19AF0BFEC33F097C09FF094
:101E980098C0A0F099C0A1F09AC0A2F03C0E000131
:101EA8008B6FAA0E8C6F380E8D6F330E8E6F64C1D8
:101EB80087F065C188F066C189F067C18AF062EC75
:101EC80018F087C0A3F088C0A4F089C0A5F08AC024
:101ED800A6F079EC2DF00001D8B075EF0FF077EF90
:101EE8000FF07BEF10F0CA0E726FF20E736F490E8F
:101EF800746F710E756F88C16EF089C16FF08AC1F9
:101F080070F08BC171F023EC1DF06EC0A4F16FC0AE
:101F1800A5F170C0A6F171C0A7F1A4C16EF0A5C16A
:101F28006FF0A6C170F0A7C171F0CA0E0001726F00
:101F3800F20E736F490E746F710E756F23EC1DF0FE
:101F48006EC0DCF06FC0DDF070C0DEF071C0DFF095
:101F58003CEF15F0FF0EAC150001E46FFF0E010118
:101F6800AD150001E56FFF0E0101AE150001E66F2A
:101F78007F0E0101AF150001E76FE7BFD0EF0FF04B
:101F8800E405000EE559160EE659430EE759D8A0A8
:101F9800D0EF0FF0D2EF0FF009EF10F0600E726F74
:101FA800420E736FA20E746F0D0E756F88C16EF0BE
:101FB80089C16FF08AC170F08BC171F023EC1DF0FC
:101FC8006EC0A4F16FC0A5F170C0A6F171C0A7F1F1
:101FD800A4C16EF0A5C16FF0A6C170F0A7C171F0E1
:101FE800600E0001726F420E736FA20E746F0D0EB9
:101FF800756F23EC1DF06EC0DCF06FC0DDF070C0B3
:10200800DEF071C0DFF03CEF15F0160E0101AE19DD
:1020180009E1C30EAF19AC11AD11D8A416EF10F039
:1020280018EF10F07BEF10F09CC19BF09DC19CF065
:102038009EC19DF09FC19EF0B4C197F0B5C198F0C4
:10204800B6C199F0B7C19AF0BFEC33F097C09FF0D2
:1020580098C0A0F099C0A1F09AC0A2F064C1A3F002
:1020680065C1A4F066C1A5F067C1A6F079EC2DF0B2
:102078000001D8A042EF10F044EF10F07BEF10F011
:10208800600E726F420E736FA20E746F0D0E756F35
:1020980088C16EF089C16FF08AC170F08BC171F090
:1020A80023EC1DF06EC0A4F16FC0A5F170C0A6F1BD
:1020B80071C0A7F1A4C16EF0A5C16FF0A6C170F000
:1020C800A7C171F0600E0001726F420E736FA20E0D
:1020D800746F0D0E756F23EC1DF06EC0DCF06FC0D1
:1020E800DDF070C0DEF071C0DFF03CEF15F0FF0EE0
:1020F8000101AC152C6FFF0EAD152D6FFF0EAE153F
:102108002E6F7F0EAF152F6F170E0001E46F2CC1D5
:10211800E5F02DC1E6F02EC1E7F02FC1E8F0E46745
:1021280098EF10F0A0EF10F0E835E833E733E63326
:10213800E533E42F93EF10F0810E0001E52501014E
:10214800A06FFF0E0001E6210101A16FFF0E000143
:10215800E7210101A26FFF0E0001E8210101A36F31
:10216800000E7C6F000E7D6F000E7E6F000E7F6F7D
:102178002FBFCBEF10F02C05000E2D59000E2E5955
:102188003F0E2F59D8A0CBEF10F0CDEF10F0D1EFC4
:1021980011F0A0C1E4F0010E0001E427000EE56F84
:1021A800000EE66F800EE76F000EE86FE467DFEF62
:1021B80010F0E7EF10F0E835E833E733E633E533BE
:1021C800E42FDAEF10F00101AC510001E52501011F
:1021D8007C6FAD510001E62101017D6FAE51000118
:1021E800E72101017E6FAF510001E82101017F6FF6
:1021F800810E0001E46FFF0EE56FFF0EE66FFF0E24
:10220800E76F170EE86F7CC1E9F07DC1EAF07EC187
:10221800EBF07FC1ECF0E86714EF11F01CEF11F060
:10222800EC35EC33EB33EA33E933E82F0FEF11F0F9
:102238000001E951E4250101A06F000E0001E5212C
:102248000101A16F000E0001E6210101A26F000E3D
:102258000001E7210101A36FA0C1E4F0FF0E000116
:10226800E56FFF0EE66F7F0EE76F000EE86FE4671D
:1022780040EF11F048EF11F0E835E833E733E63383
:10228800E533E42F3BEF11F00001E51DE96FE61D92
:10229800EA6FE71DEB6FE81DEC6F01017C5100014F
:1022A800E9150101B86F7D510001EA150101B96F07
:1022B8007E510001EB150101BA6F7F510001EC1549
:1022C8000101BB6FB8C1B0F1B9C1B1F1BAC1B2F186
:1022D800BBC1B3F1A05117080001E46FFF0E010163
:1022E8007C150001E56FFF0E01017D150001E66F09
:1022F8007F0E01017E150001E76F000E01017F15B9
:102308000001E86F000EE511E96F000EE611EA6FB3
:10231800800EE711EB6F000EE811EC6FE46797EFA2
:1023280011F09FEF11F0EC35EC33EB33EA33E9337E
:10233800E42F92EF11F0E9C07CF1EAC07DF1EBC027
:102348007EF1ECC07FF10101AFBFAFEF11F0ADEF4F
:1023580011F0B7EF11F07F1F7E1F7D1F7C6D000EFF
:102368007D237E237F239CC197F09DC198F09EC159
:1023780099F09FC19AF0B0C19BF0B1C19CF0B2C175
:102388009DF0B3C19EF0BFEC33F097C09CF198C0AC
:102398009DF199C09EF19AC09FF164C187F065C113
:1023A80088F066C189F067C18AF09CC18BF09DC135
:1023B8008CF09EC18DF09FC18EF062EC18F087C042
:1023C800B0F188C0B1F189C0B2F18AC0B3F1B0C12F
:1023D800B8F1B1C1B9F1B2C1BAF1B3C1BBF1B8C179
:1023E80090F1B9C191F1BAC192F1BBC193F1000E5C
:1023F80001019015B86F800E9115B96FFF0E9215F7
:10240800BA6FFF0E9315BB6FB8C1B0F1B9C1B1F186
:10241800BAC1B2F1BBC1B3F1B0C16EF0B1C16FF0D6
:10242800B2C170F0B3C171F0000E0001726F720E8C
:10243800736F310E746F3F0E756F23EC1DF06EC015
:1024480074F16FC075F170C076F171C077F19CC1FD
:102458009BF09DC19CF09EC19DF09FC19EF0B0C1B4
:1024680097F0B1C198F0B2C199F0B3C19AF0BFEC3E
:1024780033F097C094F198C095F199C096F19AC03D
:1024880097F1180E0001726F720E736F310E746F30
:102498003F0E756F94C19BF095C19CF096C19DF05D
:1024A80097C19EF064C197F065C198F066C199F034
:1024B80067C19AF0BFEC33F097C06EF098C06FF028
:1024C80099C070F09AC071F023EC1DF06EC014F141
:1024D8006FC015F170C016F171C017F114C187F003
:1024E80015C188F016C189F017C18AF08C0E000159
:1024F800726FBE0E736FBF0E746F350E756FB0C1FD
:102508006EF0B1C16FF0B2C170F0B3C171F023ECDD
:102518001DF06EC08BF06FC08CF070C08DF071C074
:102528008EF062EC18F087C078F188C079F189C024
:102538007AF18AC07BF174C187F075C188F076C1E1
:1025480089F077C18AF078C18BF079C18CF07AC1B3
:102558008DF07BC18EF062EC18F087C0B4F188C0B2
:10256800B5F189C0B6F18AC0B7F174C19BF075C1E5
:102578009CF076C19DF077C19EF0B4C197F0B5C1CB
:1025880098F0B6C199F0B7C19AF0BFEC33F097C094
:1025980094F198C095F199C096F19AC097F178C1D5
:1025A80097F079C198F07AC199F07BC19AF094C1FB
:1025B8009BF095C19CF096C19DF097C19EF0BFEC31
:1025C80033F097C044F198C045F199C046F19AC0DC
:1025D80047F1B4C16EF0B5C16FF0B6C170F0B7C1C4
:1025E80071F0B4C172F0B5C173F0B6C174F0B7C17F
:1025F80075F023EC1DF06EC0B0F16FC0B1F170C082
:10260800B2F171C0B3F10E0E00018B6FEA0E8C6F40
:10261800DD0E8D6FB50E8E6F4C0E726FBB0E736F25
:10262800310E746F330E756FB0C16EF0B1C16FF0BB
:10263800B2C170F0B3C171F023EC1DF06EC087F029
:102648006FC088F070C089F071C08AF062EC18F031
:1026580087C0A4F188C0A5F189C0A6F18AC0A7F1F6
:10266800550E00018B6FB30E8C6F8A0E8D6F380E6E
:102678008E6FB0C172F0B1C173F0B2C174F0B3C162
:1026880075F0A4C16EF0A5C16FF0A6C170F0A7C126
:1026980071F023EC1DF06EC087F06FC088F070C039
:1026A80089F071C08AF062EC18F087C054F188C0D4
:1026B80055F189C056F18AC057F1610E00018B6F40
:1026C8000B0E8C6F360E8D6FBB0E8E6FB0C172F015
:1026D800B1C173F0B2C174F0B3C175F054C16EF0FA
:1026E80055C16FF056C170F057C171F023EC1DF061
:1026F8006EC087F06FC088F070C089F071C08AF032
:1027080062EC18F087C048F188C049F189C04AF1E5
:102718008AC04BF1AB0E00018B6FAA0E8C6F2A0E8C
:102728008D6F3E0E8E6FB0C172F0B1C173F0B2C141
:1027380074F0B3C175F048C16EF049C16FF04AC179
:1027480070F04BC171F023EC1DF06EC087F06FC0C4
:1027580088F070C089F071C08AF062EC18F087C008
:1027680038F188C039F189C03AF18AC03BF1B4C167
:1027780097F0B5C198F0B6C199F0B7C19AF0B0C159
:1027880072F0B1C173F0B2C174F0B3C175F038C161
:102798006EF039C16FF03AC170F03BC171F023ECB3
:1027A8001DF06EC09BF06FC09CF070C09DF071C0B2
:1027B8009EF0BFEC33F097C080F198C081F199C0CA
:1027C80082F19AC083F1000E00018B6F000E8C6FAE
:1027D800000E8D6FC00E8E6F80C187F081C188F0AA
:1027E80082C189F083C18AF062EC18F087C0A3F037
:1027F80088C0A4F089C0A5F08AC0A6F080C172F094
:1028080081C173F082C174F083C175F0B4C16EF0F8
:10281800B5C16FF0B6C170F0B7C171F023EC1DF00F
:102828006EC09FF06FC0A0F070C0A1F071C0A2F0A0
:1028380039EC1FF09FC03CF1A0C03DF1A1C03EF1B2
:10284800A2C03FF144C18BF045C18CF046C18DF068
:1028580047C18EF044C172F045C173F046C174F0AF
:1028680047C175F0B4C16EF0B5C16FF0B6C170F074
:10287800B7C171F023EC1DF06EC087F06FC088F00F
:1028880070C089F071C08AF062EC18F087C018F146
:1028980088C019F189C01AF18AC01BF13CC197F0B0
:1028A8003DC198F03EC199F03FC19AF018C19BF024
:1028B80019C19CF01AC19DF01BC19EF0BFEC33F00A
:1028C80097C04CF198C04DF199C04EF19AC04FF1A4
:1028D800B4C19BF0B5C19CF0B6C19DF0B7C19EF0E4
:1028E8004CC197F04DC198F04EC199F04FC19AF084
:1028F800BFEC33F097C094F198C095F199C096F168
:102908009AC097F1000E0001976F000E986F800E25
:10291800996F3F0E9A6F94C19BF095C19CF096C138
:102928009DF097C19EF0BFEC33F097C0B4F198C00A
:10293800B5F199C0B6F19AC0B7F1B4C1B8F1B5C153
:10294800B9F1B6C1BAF1B7C1BBF1B8C1ACF1B9C1FF
:10295800ADF1BAC1AEF1BBC1AFF17CC1E4F07DC14C
:10296800E5F07EC1E6F07FC1E7F0170ED8900001D0
:10297800E437E537E637E737E82EBAEF14F0E451E5
:102988000101AC270001E5510101AD230001E65129
:102998000101AE230001E7510101AF23170E000129
:1029A800E46FACC1E5F0ADC1E6F0AEC1E7F0AFC190
:1029B800E8F0E467E2EF14F0EAEF14F0E835E83302
:1029C800E733E633E533E42FDDEF14F00001E8BF29
:1029D800FAEF14F0E851E711E61106E1E505D8B081
:1029E800F8EF14F0FAEF14F012EF15F0B4C187F015
:1029F800B5C188F0B6C189F0B7C18AF07CC18BF047
:102A08007DC18CF050EC25F087C0B4F188C0B5F1D9
:102A180089C0B6F18AC0B7F122EF15F0ACC1B8F1A0
:102A2800ADC1B9F1AEC1BAF1AFC1BBF1B8C1B4F132
:102A3800B9C1B5F1BAC1B6F1BBC1B7F188C16EF081
:102A480089C16FF08AC170F08BC171F0B4C172F0A6
:102A5800B5C173F0B6C174F0B7C175F023EC1DF0C1
:102A68006EC0DCF06FC0DDF070C0DEF071C0DFF06A
:102A78001200000E0001FD6F0001FD51D8A447EFC0
:102A880015F049EF15F056EF15F0EE0E606F7F0E5A
:102A9800616F000E636F020E626F22EC32F0010E5E
:102AA8000001FD6FABEC36F00001FE6F30EF18F05F
:102AB800E10E696F010E6A6F070E89EC30F00101B3
:102AC800D505D8A46AEF15F06CEF15F07CEF15F07A
:102AD800B60E0001606F7F0E616F000E636F030E0C
:102AE800626F22EC32F0000E0101D56F40EF15F055
:102AF800F10E0001606F7F0E616F000E636F020EB2
:102B0800626F22EC32F0560E75EC33F0410E4FEC4A
:102B180033F0E10E0001766F010E776FEC0E786FDF
:102B2800010E796F66EC2FF0E10E0001766F010E51
:102B3800776FEA0E786F010E796FF9EC2EF0ECC121
:102B480060F0EDC161F026EC35F0EAC160F0EBC150
:102B580061F026EC35F00101D405D8A4B6EF15F0E4
:102B6800B8EF15F0CEEF15F0A60E0001606F7F0EDE
:102B7800616F000E636F030E626F22EC32F0560E27
:102B880075EC33F0410E75EC33F0000E0101D46F93
:102B980040EF15F0D305D8A4D4EF15F0D6EF15F013
:102BA800ECEF15F0AE0E0001606F7F0E616F000E46
:102BB800636F030E626F22EC32F0560E75EC33F041
:102BC800410E75EC33F0000E0101D36F40EF15F0A4
:102BD800ECC1C8F0EDC1C9F0EAC1CAF0EBC1CBF055
:102BE8000001FE51E1EC30F040EF15F0E10E696FA5
:102BF800010E6A6F070E89EC30F00101D505D8A4E3
:102C080008EF16F00AEF16F017EF16F0B60E0001EF
:102C1800606F7F0E616F000E636F030E626F22ECB0
:102C280032F077EF15F0F10E0001606F7F0E616FE3
:102C3800000E636F020E626F22EC32F0560E75ECD6
:102C480033F0410E4FEC33F0E10E0001766F010EC8
:102C5800776FEC0E786F010E796F66EC2FF0E10E4E
:102C68000001766F010E776FEA0E786F010E796FAB
:102C7800F9EC2EF0ECC160F0EDC161F026EC35F016
:102C8800EAC160F0EBC161F026EC35F00101D40532
:102C9800D8A451EF16F053EF16F066EF16F0A60E13
:102CA8000001606F7F0E616F000E636F030E626F2D
:102CB80022EC32F0560E75EC33F0410E75EC33F021
:102CC800C9EF15F0D305D8A46CEF16F06EEF16F027
:102CD80081EF16F0AE0E0001606F7F0E616F000E7F
:102CE800636F030E626F22EC32F0560E75EC33F010
:102CF800410E75EC33F0E7EF15F0ECC1C8F0EDC10B
:102D0800C9F0EAC1CAF0EBC1CBF00001FE51E1EC19
:102D180030F040EF15F0F10E606F7F0E616F000E1E
:102D2800636F020E626F22EC32F0560E75EC33F0D0
:102D3800410E4FEC33F094EC34F040EF15F0F10E07
:102D4800606F7F0E616F000E636F020E626F22EC80
:102D580032F0560E75EC33F0410E4FEC33F00CECBC
:102D680036F040EF15F0F10E606F7F0E616F000EC8
:102D7800636F020E626F22EC32F0560E75EC33F080
:102D8800410E4FEC33F0F9EC35F040EF15F0F10E51
:102D9800606F7F0E616F000E636F020E626F22EC30
:102DA80032F0560E75EC33F0410E4FEC33F0ABECCD
:102DB80036F00001FF6FFF511BEC24F00001FF6F9C
:102DC800EC0E766F010E776FFF5171EC2CF0EA0E66
:102DD8000001766F010E776FFF51ECEC2BF0E80ED7
:102DE8000001766F010E776FFF51DAEC2AF00101CE
:102DF800D405D8A402EF17F004EF17F017EF17F077
:102E0800A60E0001606F7F0E616F000E636F030EE8
:102E1800626F22EC32F0560E75EC33F0410E75EC11
:102E280033F0C9EF15F0D305D8A41DEF17F01FEF45
:102E380017F032EF17F0AE0E0001606F7F0E616F72
:102E4800000E636F030E626F22EC32F0560E75ECC3
:102E580033F0410E75EC33F0E7EF15F0D205D8A446
:102E680038EF17F03AEF17F08FEF17F0000ED26F28
:102E7800D30E0001606F7F0E616F000E636F020E4C
:102E8800626F22EC32F0560E4FEC33F0410E75ECC7
:102E980033F0030E0001FC6F080EFB6F770EE82E6F
:102EA800FED7FB2FFCD7FC2FFAD75DEF17F0F9EC14
:102EB80032F080AA62EF17F064EF17F05BEF17F0BB
:102EC800EE0E0001606F7F0E616F000E636F020EE1
:102ED800626F22EC32F0560E4FEC33F0410E75EC77
:102EE80033F0030E0001FC6F080EFB6F770EE82E1F
:102EF800FED7FB2FFCD7FC2FFAD7ECC1C8F0EDC1E9
:102F0800C9F0EAC1CAF0EBC1CBF00001FE51E1EC17
:102F180030F040EF15F0E8C1F7F0E9C1F8F0D4EC73
:102F280022F0030E0001FC6F080EFB6F770EE82EEF
:102F3800FED7FB2FFCD7FC2FFAD7ECC1C8F0EDC1A8
:102F4800C9F0EAC1CAF0EBC1CBF00001FE51E1ECD7
:102F580030F040EF15F0ABEC36F00001FF6FD60E05
:102F6800696F010E6A6F0B0E89EC30F00101D5050F
:102F7800D8A4C1EF17F0C3EF17F0D0EF17F0B60ED3
:102F88000001606F7F0E616F000E636F030E626F4A
:102F980022EC32F077EF15F0F10E0001606F7F0E32
:102FA800616F000E636F020E626F22EC32F0560EF4
:102FB80075EC33F0410E4FEC33F00001FF511BEC80
:102FC80024F00001FF6FD60E686F010E696FFF5184
:102FD8003FEC2AF040EF15F0F10E606F7F0E616F45
:102FE800000E636F020E626F22EC32F0560E75EC23
:102FF80033F0410E4FEC33F004EF18F0F9EC32F0F7
:1030080080AA09EF18F00BEF18F002EF18F0EE0E97
:103018000001606F7F0E616F000E636F020E626FBA
:1030280022EC32F0560E4FEC33F0410E75EC33F0D3
:1030380040EF15F0FD0E606F7F0E616F000E636F3D
:10304800010E626F22EC32F0560E75EC33F0410E31
:1030580075EC33F061EF18F0FE51FB6FFC6BFC511F
:10306800000AD8B43AEF18F040EF15F0FB51410AC6
:10307800D8B4F0EF17F0040AD8B41EEF18F0030A1A
:10308800D8B45CEF15F00E0AD8B4A3EF16F0050A11
:10309800D8B4AFEF17F0020AD8B4CBEF16F01D0A78
:1030A800D8B4B7EF16F0010AD8B4FAEF15F0070A4A
:1030B800D8B48FEF16F040EF15F0120000018A51D6
:1030C800800B936F8A518A25956F89AF6EEF18F040
:1030D80070EF18F071EF18F095819551D8B477EF2B
:1030E80018F079EF18F08EEF18F09529D8A47FEF33
:1030F80018F081EF18F089EF18F0000E876F000EB6
:10310800886F000E896F000E8A6F898F000E8A6F94
:1031180096EF18F0000E876F000E886F000E896F0B
:10312800000E8A6F8E51800B946F93519419D8B406
:10313800A0EF18F0A2EF18F0A3EF18F0938D8E51BE
:103148008E25946F8DAFABEF18F0ADEF18F0AEEFA2
:1031580018F094819451D8B4B4EF18F0B6EF18F081
:10316800CBEF18F09429D8A4BCEF18F0BEEF18F0F4
:10317800C6EF18F0000E8B6F000E8C6F000E8D6F6F
:10318800000E8E6F8D8F000E8E6FD3EF18F0000E2D
:103198008B6F000E8C6F000E8D6F000E8E6F955129
:1031A800945DD8B0DAEF18F0DCEF18F003EF19F0FF
:1031B80093ADE1EF18F0E3EF18F0E5EF18F0800EAB
:1031C800931B95C096F094C095F096C094F087C074
:1031D80096F08BC087F096C08BF088C096F08CC0B4
:1031E80088F096C08CF089C096F08DC089F096C0A2
:1031F8008DF08AC096F08EC08AF096C08EF0000ED0
:10320800966F955194C08FF0906B8F5F000E905B16
:1032180090BF18EF19F0905109E11A0E8F5DD8A0F0
:1032280018EF19F01AEF19F051EF19F087518811BA
:1032380089118A11D8A423EF19F026EF19F0010E8D
:1032480027EF19F0000E966F000E876F000E886F3B
:10325800000E896F000E8A6F94C095F05AEF19F02E
:1032680096A139EF19F03BEF19F041EF19F0D8901A
:1032780096310109966F43EF19F0D890963387A1DC
:1032880048EF19F04AEF19F04BEF19F0968F8A358D
:103298008A33893388338733952B9451955DD8A029
:1032A80058EF19F05AEF19F034EF19F093BD5FEFAA
:1032B80019F061EF19F0A1EF19F09551D8A467EF53
:1032C80019F069EF19F073EF19F0000E876F000E0F
:1032D800886F000E896F000E8A6FC2EF1AF08B514B
:1032E80087278C5188238D5189238E518A238AA15F
:1032F80080EF19F082EF19F02EEF1AF096A187EF00
:1033080019F089EF19F08FEF19F0D890963101096B
:10331800966F91EF19F0D890963387A196EF19F030
:1033280098EF19F099EF19F0968F8A358A33893317
:1033380088338733952B2EEF1AF08B51875D8C518C
:1033480088598D5189598A51800A8F6F8E51800A08
:103358008F59D8B0B2EF19F0B4EF19F0DFEF19F0C8
:1033680087518B5D8F6F88518C59906F89518D591A
:10337800916F8A518E59926FFF0E8F25876FFF0EBE
:103388009021886FFF0E9121896FFF0E92218A6F1D
:10339800800E931B966D9651D8A4D5EF19F0D7EFF0
:1033A80019F0E7EF19F0010E8727000E882389230B
:1033B8008A23E7EF19F08B51875F8C51885B8D5119
:1033C800895B8E518A5B8751881189118A11D8A42B
:1033D800F0EF19F0F2EF19F027EF1AF09651D8A490
:1033E800F8EF19F0FAEF19F027EF1AF0000E876FCF
:1033F800000E886F000E896F000E8A6FC2EF1AF0F8
:10340800D8908737883789378A3796AF0EEF1AF002
:1034180010EF1AF011EF1AF0878196A116EF1AF043
:1034280018EF1AF01CEF1AF0D88096371EEF1AF032
:10343800D89096379551D8B424EF1AF026EF1AF0A1
:1034480027EF1AF0950789AF2CEF1AF02EEF1AF034
:1034580004EF1AF0000E946F96AF35EF1AF037EFBD
:103468001AF04FEF1AF096C08FF07F0E8F17D8B46E
:1034780040EF1AF042EF1AF046EF1AF0010E946F7F
:103488004FEF1AF087A14BEF1AF04DEF1AF04FEFFC
:103498001AF042EF1AF09451D8B455EF1AF057EFDA
:1034A8001AF082EF1AF0010E8727000E882389236D
:1034B8008A238AA162EF1AF064EF1AF082EF1AF0F9
:1034C80087C08FF088C090F089C091F08AC092F0D0
:1034D80092359233913390338F338FC087F090C0F9
:1034E80088F091C089F092C08AF09529D8B47FEF0E
:1034F8001AF081EF1AF082EF1AF0952B9529D8B4BB
:1035080088EF1AF08AEF1AF092EF1AF09551D8A4C2
:1035180090EF1AF092EF1AF0A4EF1AF0000E876FEE
:10352800000E886F000E896F000E8A6F9551D8A41F
:10353800A0EF1AF0A2EF1AF0A4EF1AF0000E936FA2
:1035480095A1A9EF1AF0ABEF1AF0AEEF1AF0898F38
:10355800AFEF1AF0899FD89095318A6F93AFB7EF84
:103568001AF0B9EF1AF0BAEF1AF08A8F87C087F00D
:1035780088C088F089C089F08AC08AF01200ABC080
:10358800C0F0ACC0C1F0ADC0C2F0AEC0C3F0C0C0A6
:10359800D8F0C1C0D9F0C2C0DAF0C3C0DBF0000E69
:1035A8000001D815AF6F000ED915B06F800EDA156F
:1035B800B16F7F0EDB15B26F800EB11909E17F0E76
:1035C800B219AF11B011D8A4ECEF1AF0EEEF1AF05F
:1035D8001CEF1BF0ABC072F0ACC073F0ADC074F060
:1035E800AEC075F0ABC06EF0ACC06FF0ADC070F09F
:1035F800AEC071F023EC1DF06EC087F06FC088F08C
:1036080070C089F071C08AF0ABC08BF0ACC08CF090
:10361800ADC08DF0AEC08EF062EC18F087C0ABF094
:1036280088C0ACF089C0ADF08AC0AEF022EF1DF0C2
:10363800DBBF2BEF1BF0DB51DA11D91106E1D805FE
:10364800D8B029EF1BF02BEF1BF069EF1BF0FF0E32
:10365800D815AF6FFF0ED915B06FFF0EDA15B16F21
:103668007F0EDB15B26FAF51B011B111B211D8A4F2
:1036780040EF1BF042EF1BF04CEF1BF0ABC0ABF080
:10368800ACC0ACF0ADC0ADF0AEC0AEF022EF1DF0F6
:10369800DBBF53EF1BF051EF1BF069EF1BF0000E7F
:1036A8000101CC6F210ECB6FA10E0001606F7F0E60
:1036B800616F32EC36F060C0ABF061C0ACF062C054
:1036C800ADF063C0AEF022EF1DF0170EAF6FD8C09B
:1036D800B0F0D9C0B1F0DAC0B2F0DBC0B3F0AF6778
:1036E80078EF1BF080EF1BF0B335B333B233B1334F
:1036F800B033AF2F73EF1BF0B0C0D0F0B1C0D1F032
:10370800B2C0D2F0B3C0D3F00001D051D111D21160
:10371800D311D8A492EF1BF094EF1BF0C4EF1BF069
:10372800000EBC6F000EBD6F000EBE6F000EBF6FA7
:10373800A9EF1BF0D890D837D937DA37DB37010E25
:10374800BC27000EBD23BE23BF23DAAFAEEF1BF0AC
:10375800B0EF1BF09EEF1BF0FF0EBC25AF6FFF0E06
:10376800BD21B06FFF0EBE21B16FFF0EBF21B26F3A
:10377800AF51D05FB051D15BB151D25BB251D35B85
:10378800810ED027FF0ED123FF0ED223FF0ED323A5
:10379800FF0ED815AF6FFF0ED915B06F7F0EDA1573
:1037A800B16F000EDB15B26F000EAF11D86F000EAF
:1037B800B011D96F800EB111DA6F000EB211DB6F44
:1037C800D0A1E9EF1BF0EBEF1BF0F3EF1BF0D851A2
:1037D800D827D951D923DA51DA23DB51DB23D33562
:1037E800D333D233D133D033D851D827D951D92371
:1037F800DA51DA23DB51DB23000EB86F000EB96F04
:10380800000EBA6F000EBB6FB8C0C4F0B9C0C5F0E7
:10381800BAC0C6F0BBC0C7F0000ED46F000ED56F9B
:10382800000ED66F010ED76F62EF1CF0D451B82589
:10383800C86FD551B921C96FD651BA21CA6FD751AE
:10384800BB21CB6FC851D85DC951D959CA51DA5972
:10385800DB51800AAF6FCB51800AAF59D8A037EF40
:103868001CF039EF1CF055EF1CF0D451C825B86F87
:10387800D551C921B96FD651CA21BA6FD751CB21B9
:10388800BB6FC851D85FC951D95BCA51DA5BCB51FC
:10389800DB5BD451C427D551C523D651C623D75194
:1038A800C723D851D827D951D923DA51DA23DB5184
:1038B800DB23D890D733D633D533D433D451D5116D
:1038C800D611D711D8A46BEF1CF06DEF1CF01AEFCE
:1038D8001CF0D851D911DA11DB11D8B476EF1CF0ED
:1038E80078EF1CF0D8EF1CF0000ECC6F000ECD6FF7
:1038F800800ECE6F3F0ECF6FCCC09FF0CDC0A0F032
:10390800CEC0A1F0CFC0A2F0000EA36F000EA46F2E
:10391800800EA56F3F0EA66F79EC2DF00001D8A0A0
:1039280098EF1CF09AEF1CF0D8EF1CF0000ECC6F4B
:10393800000ECD6F800ECE6F3F0ECF6F000E9F6FC3
:10394800000EA06F800EA16F3F0EA26FCCC0A3F037
:10395800CDC0A4F0CEC0A5F0CFC0A6F079EC2DF074
:103968000001D8B0BAEF1CF0BCEF1CF0C4EF1CF09B
:10397800020EC427000EC523C623C723D8EF1CF0A8
:10398800010EC415AF6F000EC515B06F000EC61539
:10399800B16F000EC715B26FAF51C427B051C52320
:1039A800B151C623B251C723C4C0AFF0C5C0B0F0EF
:1039B800C6C0B1F0C7C0B2F0B235B233B133B0331C
:1039C800AF33000EAF25D86F000EB021D96F000EAF
:1039D800B121DA6F3F0EB221DB6FD0C0AFF0D1C09A
:1039E800B0F0D2C0B1F0D3C0B2F0170ED890AF3754
:1039F800B037B137B237E82EFAEF1CF0AF51D827FD
:103A0800B051D923B151DA23B251DB23D8C0C0F069
:103A1800D9C0C1F0DAC0C2F0DBC0C3F0C0C0CCF07E
:103A2800C1C0CDF0C2C0CEF0C3C0CFF0CCC0ABF0A7
:103A3800CDC0ACF0CEC0ADF0CFC0AEF012000001EA
:103A48007151800B7A6F71517125806F70AF2FEFB4
:103A58001DF031EF1DF032EF1DF080818051D8B498
:103A680038EF1DF03AEF1DF04DEF1DF08029D8A476
:103A780040EF1DF042EF1DF04AEF1DF0000E6E6F93
:103A8800000E6F6F000E706F000E716F708F55EF24
:103A98001DF0000E6E6F000E6F6F000E706F000E3F
:103AA800716F7551800B7A1B755175257F6F74AFD7
:103AB80060EF1DF062EF1DF063EF1DF07F817F5115
:103AC800D8B469EF1DF06BEF1DF07EEF1DF07F2974
:103AD800D8A471EF1DF073EF1DF07BEF1DF0000E01
:103AE800726F000E736F000E746F000E756F748F17
:103AF80086EF1DF0000E726F000E736F000E746F6C
:103B0800000E756F7F51D8B48CEF1DF08EEF1DF04D
:103B180096EF1DF08051D8A494EF1DF096EF1DF09C
:103B2800A0EF1DF0000E6E6F000E6F6F000E706F2D
:103B3800000E716F38EF1FF074516E03F3CF85F0EC
:103B4800F4CF86F085517B6F7C6B7D6B7E6B8651E5
:103B5800816F826B836B846B73516F03F3CF85F036
:103B6800F4CF86F085517B27000E7C237D237E23AE
:103B780086518127000E8223832384237251700388
:103B8800F3CF85F0F4CF86F085517B27000E7C2398
:103B98007D237E2386518127000E8223832384235D
:103BA8007DC07EF07CC07DF07BC07CF07B6B725169
:103BB8006F03F3CF85F0F4CF86F085517B278651CC
:103BC8007C23000E7D23000E7E2373516E03F3CFFA
:103BD80085F0F4CF86F085517B2786517C23000E33
:103BE8007D23000E7E237DC07EF07CC07DF07BC0EF
:103BF8007CF07B6B72516E03F3CF85F0F4CF86F0C7
:103C080085517B2786517C23000E7D23000E7E2361
:103C180074516F03F3CF85F0F4CF86F08551812777
:103C280086518223000E8323000E84237351700370
:103C3800F3CF85F0F4CF86F0855181278651822312
:103C4800000E8323000E842374517003F3CF85F094
:103C5800F4CF86F08551766F8651776F786B796BE4
:103C680078C079F077C078F076C077F0766B7651C7
:103C780081277751822378518323795184237BC00C
:103C880076F07CC077F07DC078F07EC079F0190EB0
:103C980053EF1EF0D8907933783377337633E82EA4
:103CA8004EEF1EF076518127775182237851832376
:103CB800795184237DC07EF07CC07DF07BC07CF090
:103CC8007B6B7F5180C076F0776B7627000E772369
:103CD800820E7625856FFF0E7721866F89EF1EF09D
:103CE800D89081378237833784377EAF7EEF1EF0D6
:103CF80080EF1EF081EF1EF08181D8907B377C37F2
:103D08007D377E378507D8A0860783AF8EEF1EF0F4
:103D180090EF1EF074EF1EF0000E7F6F7EAF97EFEE
:103D28001EF099EF1EF0BDEF1EF0FF0E7B15766FAB
:103D3800FF0E7C15776FFF0E7D15786F7F0E7E1551
:103D4800796F7651771178117911D8B4AEEF1EF0EA
:103D5800B0EF1EF0B4EF1EF0010E7F6FBDEF1EF046
:103D680081A1B9EF1EF0BBEF1EF0BDEF1EF0B0EF62
:103D78001EF07F51D8B4C3EF1EF0C5EF1EF0E9EF77
:103D88001EF0010E8127000E82238323842384A141
:103D9800D0EF1EF0D2EF1EF0E9EF1EF081C076F0F2
:103DA80082C077F083C078F084C079F079357933B0
:103DB80078337733763376C081F077C082F078C075
:103DC80083F079C084F0854B862B86BFF4EF1EF014
:103DD800865108E18529D8A0F4EF1EF0F6EF1EF011
:103DE80000EF1FF0000E816F000E826F800E836F50
:103DF8007F0E846F2EEF1FF086BF0DEF1FF08651E8
:103E080006E18505D8B00BEF1FF00DEF1FF019EF95
:103E18001FF0000E816F000E826F000E836F000E80
:103E2800846F000E7A6F2EEF1FF085C080F0FF0EB2
:103E38008117FF0E82177F0E8317000E841780A14B
:103E480028EF1FF02AEF1FF02BEF1FF0838FD89079
:103E58008031846F7A51841381C06EF082C06FF014
:103E680083C070F084C071F012000001A251800B71
:103E7800AF6FA251A225B66FA1AF45EF1FF047EF74
:103E88001FF048EF1FF0B681B651D8B44EEF1FF0BF
:103E980050EF1FF065EF1FF0B629D8A456EF1FF0BA
:103EA80058EF1FF060EF1FF0000E9F6F000EA06F1D
:103EB800000EA16F000EA26FA18F000EA26F6DEF12
:103EC8001FF0000E9F6F000EA06F000EA16F000E76
:103ED800A26FA651800BAF1BA651A625B76FA5AF41
:103EE80078EF1FF07AEF1FF07BEF1FF0B781B75123
:103EF800D8B481EF1FF083EF1FF098EF1FF0B729B8
:103F0800D8A489EF1FF08BEF1FF093EF1FF0000E7E
:103F1800A36F000EA46F000EA56F000EA66FA58FED
:103F2800000EA66FA0EF1FF0000EA36F000EA46F87
:103F3800000EA56F000EA66FA351A411A511A6111E
:103F4800D8A4A9EF1FF0ABEF1FF0C3EF1FF0000ECE
:103F58009F6F000EA06F000EA16F000EA26F800E63
:103F6800A1137F0EA213AF51A2139FC09FF0A0C050
:103F7800A0F0A1C0A1F0A2C0A2F006EF21F0B651B6
:103F8800D8A4C9EF1FF0CBEF1FF0D5EF1FF0000E3C
:103F98009F6F000EA06F000EA16F000EA26F06EFBC
:103FA80021F0B751B6C0A7F0A86BA75F000EA85BB9
:103FB8007F0EA725B06F000EA821B16F9FC0ABF090
:103FC800A0C0ACF0A1C0ADF0A2C0AEF0000E9F6FD3
:103FD800000EA06F000EA16F000EA26F000EB26F50
:103FE800000EB36F000EB46F000EB56F000EB76F02
:103FF80036EF20F0B751D8B404EF20F006EF20F0E8
:104008001DEF20F0D890AB37AC37AD37AE37D8902E
:104018009F37A037A137A237B5AF15EF20F017EFBC
:1040280020F018EF20F09F81D890B237B337B4371B
:10403800B537A351AB5DA451AC59A551AD59A651A3
:10404800AE59D8A02AEF20F02CEF20F035EF20F061
:10405800B58DA351AB5FA451AC5BA551AD5BA65127
:10406800AE5BB72B190EB7653CEF20F03EEF20F0A2
:10407800FEEF1FF0AB51AC11AD11AE11D8B447EF44
:1040880020F049EF20F061EF20F0B28161EF20F0DD
:10409800D8909F37A037A137A237B5AF56EF20F099
:1040A80058EF20F059EF20F09F81D890B237B337FE
:1040B800B437B537B007D8A0B107A1AF66EF20F085
:1040C80068EF20F04CEF20F0000EB76FB5AF6FEF40
:1040D80020F071EF20F095EF20F0FF0EB215A76FDA
:1040E800FF0EB315A86FFF0EB415A96F7F0EB51597
:1040F800AA6FA751A811A911AA11D8B486EF20F068
:1041080088EF20F08CEF20F0010EB76F95EF20F0CC
:104118009FA191EF20F093EF20F095EF20F088EF2A
:1041280020F0B751D8B49BEF20F09DEF20F0C1EFFD
:1041380020F0010E9F27000EA023A123A223A2A1F5
:10414800A8EF20F0AAEF20F0C1EF20F09FC0A7F061
:10415800A0C0A8F0A1C0A9F0A2C0AAF0AA35AA33AD
:10416800A933A833A733A7C09FF0A8C0A0F0A9C05F
:10417800A1F0AAC0A2F0B04BB12BB1BFCCEF20F098
:10418800B15108E1B029D8A0CCEF20F0CEEF20F053
:10419800D9EF20F0000EB16FB069000E9F6F000ECE
:1041A800A06F000EA16F000EA26FB1BFE6EF20F066
:1041B800B15106E1B005D8B0E4EF20F0E6EF20F009
:1041C800F4EF20F0000EB16F000EB06F000E9F6F7D
:1041D800000EA06F000EA16F000EA26F000EAF6F51
:1041E800B0C0B6F0B6A1FBEF20F0FDEF20F000EF75
:1041F80021F0A18F01EF21F0A19FD890B631A26FD5
:10420800B7EF1FF012001250800B1F6E12501224CD
:10421800266E11AE12EF21F014EF21F015EF21F008
:1042280026802650D8B41BEF21F01DEF21F032EF85
:1042380021F02628D8A423EF21F025EF21F02DEF37
:1042480021F0000E0F6E000E106E000E116E000EA3
:10425800126E118E000E126E3AEF21F0000E0F6EE4
:10426800000E106E000E116E000E126E1650800BAE
:104278001F1A16501624276E15AE45EF21F047EF8A
:1042880021F048EF21F027802750D8B44EEF21F0D5
:1042980050EF21F065EF21F02728D8A456EF21F040
:1042A80058EF21F060EF21F0000E136E000E146E2F
:1042B800000E156E000E166E158E000E166E6DEF42
:1042C80021F0000E136E000E146E000E156E000E17
:1042D800166E1350141015101610D8A476EF21F08E
:1042E80078EF21F090EF21F0000E0F6E000E106EA7
:1042F800000E116E000E126E800E11127F0E121239
:104308001F5012120FC00FF010C010F011C011F0A2
:1043180012C012F0D3EF22F02650D8A496EF21F065
:1043280098EF21F0A2EF21F0000E0F6E000E106E34
:10433800000E116E000E126ED3EF22F0275026C029
:1043480017F0186A175E000E185A7F0E1724206E91
:10435800000E1820216E0FC01BF010C01CF011C0F9
:104368001DF012C01EF0000E0F6E000E106E000E33
:10437800116E000E126E000E226E000E236E000EDD
:10438800246E000E256E000E276E03EF22F02750D4
:10439800D8B4D1EF21F0D3EF21F0EAEF21F0D89093
:1043A8001B361C361D361E36D8900F361036113681
:1043B800123625AEE2EF21F0E4EF21F0E5EF21F02F
:1043C8000F80D890223623362436253613501B5CAE
:1043D80014501C5815501D5816501E58D8A0F7EFE9
:1043E80021F0F9EF21F002EF22F0258C13501B5E2B
:1043F80014501C5A15501D5A16501E5A272A190EA9
:10440800276409EF22F00BEF22F0CBEF21F01B50CD
:104418001C101D101E10D8B414EF22F016EF22F055
:104428002EEF22F022802EEF22F0D8900F36103691
:104438001136123625AE23EF22F025EF22F026EFB3
:1044480022F00F80D89022362336243625362006CF
:10445800D8A0210611AE33EF22F035EF22F019EF84
:1044680022F0000E276E25AE3CEF22F03EEF22F040
:1044780062EF22F0FF0E2214176EFF0E2314186E3F
:10448800FF0E2414196E7F0E25141A6E175018107B
:1044980019101A10D8B453EF22F055EF22F059EF43
:1044A80022F0010E276E62EF22F00FA05EEF22F0DD
:1044B80060EF22F062EF22F055EF22F02750D8B4D7
:1044C80068EF22F06AEF22F08EEF22F0010E0F263D
:1044D800000E10221122122212A075EF22F077EF9F
:1044E80022F08EEF22F00FC017F010C018F011C0A4
:1044F80019F012C01AF01A341A3219321832173257
:1045080017C00FF018C010F019C011F01AC012F03F
:10451800204A212A21BE99EF22F0215008E12028C3
:10452800D8A099EF22F09BEF22F0A6EF22F0000E20
:10453800216E2068000E0F6E000E106E000E116EB8
:10454800000E126E21BEB3EF22F0215006E12004C6
:10455800D8B0B1EF22F0B3EF22F0C1EF22F0000E95
:10456800216E000E206E000E0F6E000E106E000EF3
:10457800116E000E126E000E1F6E20C026F026A0CF
:10458800C8EF22F0CAEF22F0CDEF22F0118ECEEF65
:1045980022F0119ED8902630126E84EF21F012007E
:1045A800F10E0001606F7F0E616F000E636F020EE7
:1045B800626F22EC32F0E5EC35F02F0E0001F725A2
:1045C800F76F000EF821F86F000E0101D16F8C987B
:1045D8008C9A8C9CF6EF23F0000E00016F6F320E60
:1045E8006E6FCDEC2FF06EC0CFF16FC0D0F1CFC1A0
:1045F800EDF0D0C1EEF07FEC2EF0C4C19FF0C5C144
:10460800A0F0C6C1A1F0C7C1A2F0F7C060F0F8C021
:1046180061F00001000E61BFFF0E626F636F010E53
:104628006FEC26F060C0A3F061C0A4F062C0A5F0F2
:1046380063C0A6F079EC2DF00001D8B026EF23F086
:1046480028EF23F053EF23F0F7C060F0F8C061F0D3
:10465800000E61BFFF0E626F636F010E6FEC26F0F4
:1046680060C097F061C098F062C099F063C09AF09A
:10467800C4C19BF0C5C19CF0C6C19DF0C7C19EF0E6
:10468800BFEC33F097C0C0F198C0C1F199C0C2F136
:104698009AC0C3F18C988C8A8C9CA1EF23F0F7C048
:1046A80060F0F8C061F0000E61BFFF0E626F636FCB
:1046B800010E6FEC26F060C09FF061C0A0F062C0F0
:1046C800A1F063C0A2F0C4C1A3F0C5C1A4F0C6C1E3
:1046D800A5F0C7C1A6F079EC2DF00001D8B077EFAE
:1046E80023F079EF23F0A1EF23F0F7C060F0F8C0D2
:1046F80061F0000E61BFFF0E626F636F010E6FEC19
:1047080026F060C097F061C098F062C099F063C06D
:104718009AF0C4C19BF0C5C19CF0C6C19DF0C7C149
:104728009EF0BFEC33F097C0C0F198C0C1F199C0BA
:10473800C2F19AC0C3F18C9A8C8C000E00019F6F55
:10474800000EA06F000EA16F000EA26FC0C160F036
:10475800C1C161F0C2C162F0C3C163F00BEC35F0B6
:1047680060C0A3F061C0A4F062C0A5F063C0A6F069
:1047780079EC2DF00001D8B0C4EF23F0C6EF23F098
:10478800EDEF23F0C0C160F0C1C161F0C2C162F0B9
:10479800C3C163F00BEC35F060C09FF061C0A0F0BE
:1047A80062C0A1F063C0A2F0000E0001A36F000E6A
:1047B800A46F000EA56F400EA66F79EC2DF00001D6
:1047C800D8B0E9EF23F0EBEF23F0EDEF23F0010190
:1047D800D12B0D0E0001F96FFB0EE82EFED7F92F35
:1047E800FCD700D0090E0101D165FDEF23F0FFEFE2
:1047F80023F0F0EF22F08C8A8C9C020E0001FA6FF5
:10480800040EF96FBA0EE82EFED7F92FFCD7FA2F4F
:10481800FAD700F08C9A8C9C8C88820E0001F96F74
:10482800DD0EE82EFED7F92FFCD700D012000001CC
:104838006A6FFFEF24F0000E6A6F9E0E606F7F0EA6
:10484800616F000E636F030E626F22EC32F04DEF62
:1048580025F0100E6A6FA20E606F7F0E616F000E5A
:10486800636F030E626F22EC32F04DEF25F0200EDD
:104878006A6FAA0E606F7F0E616F000E636F030E82
:10488800626F22EC32F04DEF25F0300E6A6FB20EF7
:10489800606F7F0E616F000E636F030E626F22EC14
:1048A80032F04DEF25F0400E6A6FBA0E606F7F0E42
:1048B800616F000E636F030E626F22EC32F04DEFF2
:1048C80025F0500E6A6FBE0E606F7F0E616F000E8E
:1048D800636F030E626F22EC32F04DEF25F0600E2D
:1048E8006A6FC20E606F7F0E616F000E636F030EFA
:1048F800626F22EC32F04DEF25F0700E6A6FC60E33
:10490800606F7F0E616F000E636F030E626F22ECA3
:1049180032F04DEF25F0800E6A6FCA0E606F7F0E81
:10492800616F000E636F030E626F22EC32F04DEF81
:1049380025F0900E6A6FCE0E606F7F0E616F000ECD
:10494800636F030E626F22EC32F04DEF25F0A00E7C
:104958006A6FD20E606F7F0E616F000E636F030E79
:10496800626F22EC32F04DEF25F0B00E6A6FD60E72
:10497800606F7F0E616F000E636F030E626F22EC33
:1049880032F04DEF25F0C00E6A6FDA0E606F7F0EC1
:10499800616F000E636F030E626F22EC32F04DEF11
:1049A80025F0D00E6A6FDE0E606F7F0E616F000E0D
:1049B800636F030E626F22EC32F04DEF25F0E00ECC
:1049C8006A6FE20E606F7F0E616F000E636F030EF9
:1049D800626F22EC32F04DEF25F0F00E6A6FE60EB2
:1049E800606F7F0E616F000E636F030E626F22ECC3
:1049F80032F04DEF25F000016A51686F696B69511B
:104A0800000AD8B40AEF25F04DEF25F06851300AB6
:104A1800D8B41FEF24F0010AD8B42DEF24F0030A0C
:104A2800D8B43BEF24F0010AD8B449EF24F0070AC0
:104A3800D8B457EF24F0010AD8B465EF24F0030A7C
:104A4800D8B473EF24F0010AD8B481EF24F00F0A28
:104A5800D8B48FEF24F0010AD8B49DEF24F0780A77
:104A6800D8B4ABEF24F0030AD8B4B9EF24F0010AA4
:104A7800D8B4C7EF24F0070AD8B4D5EF24F0010A58
:104A8800D8B4E3EF24F0030AD8B4F1EF24F04DEFE3
:104A980025F000016A51120087C095F088C096F091
:104AA80089C097F08AC098F000018CBF65EF25F0A7
:104AB8008C5109E1800E8B5DD8A065EF25F067EF7A
:104AC80025F0C7EF25F095C06EF096C06FF097C03F
:104AD80070F098C071F0000E726F000E736F000EC8
:104AE800746F7F0E756F23EC1DF06EC095F06FC06C
:104AF80096F070C097F071C098F00001810E8B2776
:104B0800FF0E8C238CBF92EF25F08C5109E1800EAB
:104B18008B5DD8A092EF25F094EF25F033EF26F0C7
:104B280095C06EF096C06FF097C070F098C071F0A5
:104B3800000E726F000E736F000E746F7F0E756F2C
:104B480023EC1DF06EC095F06FC096F070C097F022
:104B580071C098F00001810E8B27FF0E8C238CBF4B
:104B6800BFEF25F08C5109E1800E8B5DD8A0BFEF17
:104B780025F0C1EF25F033EF26F0000E8C6F7F0E85
:104B88008B6F33EF26F08CAFD3EF25F0820E8B5D61
:104B9800FF0E8C59D8B0D3EF25F0D5EF25F033EFC1
:104BA80026F095C06EF096C06FF097C070F098C070
:104BB80071F0000E726F000E736F800E746F0C0E22
:104BC800756F23EC1DF06EC095F06FC096F070C045
:104BD80097F071C098F0660E00018B27000E8C23A9
:104BE8008CAF00EF26F0820E8B5DFF0E8C59D8B08B
:104BF80000EF26F002EF26F033EF26F095C06EF0B6
:104C080096C06FF097C070F098C071F0000E726F88
:104C1800000E736F800E746F0C0E756F23EC1DF011
:104C28006EC095F06FC096F070C097F071C098F0A4
:104C3800660E00018B27000E8C238CAF2DEF26F01B
:104C4800820E8B5DFF0E8C59D8B02DEF26F02FEF1A
:104C580026F033EF26F0FF0E8C6F820E8B6F7F0EDF
:104C68008B258D6F000E8C218E6F8F6B906B170EBE
:104C7800D8908D378E378F379037E82E3CEF26F057
:104C88008DC091F08EC092F08FC093F090C094F0D8
:104C980091C06EF092C06FF093C070F094C071F044
:104CA80095C072F096C073F097C074F098C075F014
:104CB80023EC1DF06EC087F06FC088F070C089F0DB
:104CC80071C08AF087C087F088C088F089C089F0F1
:104CD8008AC08AF012000001686F00016851D8B4D8
:104CE80078EF26F07AEF26F09CEF26F063BF81EF8D
:104CF80026F07FEF26F09CEF26F060C064F061C0DC
:104D080065F062C066F063C067F0641F651F661FC8
:104D1800671F642B000E65236623672364C06AF04F
:104D280065C06BF066C06CF067C06DF0A4EF26F04C
:104D380060C06AF061C06BF062C06CF063C06DF077
:104D48006051611162116311D8A4ADEF26F0AFEF85
:104D580026F0B9EF26F0000E606F000E616F000EAE
:104D6800626F000E636F4AEF27F0960E696FC3EF0C
:104D780026F0692BD8906D336C336B336A33000E91
:104D88006A15646F000E6B15656F000E6C15666F03
:104D9800FE0E6D15676F6451651166116711D8A411
:104DA800D8EF26F0DAEF26F0BDEF26F0E8EF26F090
:104DB800692B010E6A27000E6B236C236D23D89094
:104DC8006D336C336B336A33000E6A15646F000EF3
:104DD8006B15656F000E6C15666FFF0E6D15676FAE
:104DE8006451651166116711D8A4FDEF26F0FFEF35
:104DF80026F0DCEF26F007EF27F06907D8906A372E
:104E08006B376C376D376CBF0CEF27F00EEF27F060
:104E180016EF27F0020E696114EF27F016EF27F05E
:104E280001EF27F069B11BEF27F01DEF27F01EEF08
:104E380027F06C9FD890693369C064F0656B666B26
:104E4800676B64C067F0666B656B646B64516A136B
:104E580065516B1366516C1367516D136851D8B463
:104E680038EF27F03AEF27F042EF27F063BF41EF22
:104E780027F03FEF27F042EF27F06D8F6AC060F010
:104E88006BC061F06CC062F06DC063F01200096E17
:104E98000950D8B452EF27F054EF27F076EF27F0F7
:104EA80004BE5BEF27F059EF27F076EF27F001C03B
:104EB80005F002C006F003C007F004C008F0051EA4
:104EC800061E071E081E052A000E062207220822B3
:104ED80005C00BF006C00CF007C00DF008C00EF0BE
:104EE8007EEF27F001C00BF002C00CF003C00DF0FC
:104EF80004C00EF00150021003100410D8A487EF6C
:104F080027F089EF27F093EF27F0000E016E000ECF
:104F1800026E000E036E000E046E24EF28F0960E4B
:104F28000A6E9DEF27F00A2AD8900E320D320C3205
:104F38000B32000E0B14056E000E0C14066E000EDC
:104F48000D14076EFE0E0E14086E0550061007109D
:104F58000810D8A4B2EF27F0B4EF27F097EF27F0A6
:104F6800C2EF27F00A2A010E0B26000E0C220D2292
:104F78000E22D8900E320D320C320B32000E0B146A
:104F8800056E000E0C14066E000E0D14076EFF0E53
:104F98000E14086E0550061007100810D8A4D7EF95
:104FA80027F0D9EF27F0B6EF27F0E1EF27F00A0650
:104FB800D8900B360C360D360E360DBEE6EF27F0C0
:104FC800E8EF27F0F0EF27F0020E0A60EEEF27F087
:104FD800F0EF27F0DBEF27F00AB0F5EF27F0F7EF57
:104FE80027F0F8EF27F00D9ED8900A320AC005F096
:104FF800066A076A086A05C008F0076A066A056A49
:1050080005500B1206500C1207500D1208500E12C4
:105018000950D8B412EF28F014EF28F01CEF28F04C
:1050280004BE1BEF28F019EF28F01CEF28F00E8EB5
:105038000BC001F00CC002F00DC003F00EC004F06C
:105048001200000E0001756F000E746F000E6E6F77
:10505800000E6D6F32EF28F0674B682B010E736FEF
:1050680067C0D9FF68C0DAFF200EDE18D8B43FEF5A
:1050780028F041EF28F05DEF28F0F70E696FFF0E7A
:105088006A6F67C0D9FF68C0DAFFDF506B6F6C6B5F
:1050980069516B276A516C236C5109E1050E6B5DF0
:1050A800D8A059EF28F05BEF28F05DEF28F0000E4C
:1050B800736F73C06FF0706B6F517011D8A467EF86
:1050C80028F069EF28F030EF28F073EF28F0000E91
:1050D8006E6F010E6D6F674B682BA9EF28F067C0E4
:1050E800D9FF68C0DAFFDF50696F6A6B6A51000A3E
:1050F800D8B481EF28F0A9EF28F069512B0AD8B469
:105108006FEF28F0060AD8B46BEF28F0A9EF28F063
:1051180074C060F075C061F0000E636F0A0E626FB4
:10512800D1EC35F067C0D9FF68C0DAFFDF50000165
:10513800696F6951605F000E615B300E6025746FA6
:10514800000E6121756F6FEF28F0D00E696FFF0EAA
:105158006A6F67C0D9FF68C0DAFFDF506B6F6C6B8E
:1051680069516B276A516C236C510AE10A0E6B5D19
:10517800D8A0C1EF28F0C4EF28F0010EC5EF28F041
:10518800000E716F726B71517211D8A4CEEF28F0B6
:10519800D0EF28F08CEF28F06D516E11D8A4D7EF1E
:1051A80028F0D9EF28F0E7EF28F074C069F075C04F
:1051B8006AF0691F6A1F694B6A2B69C067F06AC089
:1051C80068F0EBEF28F074C067F075C068F0120063
:1051D8000001676F530E00016719D8A4F6EF28F095
:1051E800F8EF28F0FCEF28F064EC36F0FEEF28F03A
:1051F80044EC36F083908394000E0001696F000E32
:10520800686F000E6B6F000E6A6F62516311D8A44D
:1052180010EF29F012EF29F013EF29F08380645181
:105228006511D8A41AEF29F01CEF29F01DEF29F019
:105238008384CA846FEF29F06251685D6951800ADE
:10524800666F6351800A6659D8B02DEF29F02FEFA9
:1052580029F046EF29F082A234EF29F036EF29F041
:1052680042EF29F068C060F069C061F073EC35F076
:1052780060C068F061C069F047EF29F0000E5E6E0B
:1052880047EF29F08380000164516A5D6B51800A01
:10529800666F6551800A6659D8B055EF29F057EF07
:1052A80029F06EEF29F082A45CEF29F05EEF29F077
:1052B8006AEF29F06AC060F06BC061F05AEC35F013
:1052C80060C06AF061C06BF06FEF29F0000E5D6E90
:1052D8006FEF29F0838400016251685D6951800A8B
:1052E800666F6351800A6659D8A07DEF29F07FEF79
:1052F80029F020EF29F064516A5D6B51800A666FCE
:105308006551800A6659D8A08CEF29F08EEF29F0F4
:1053180020EF29F0000E5E6E000E6B6F000E6A6FB4
:10532800000E5D6ECA941200086E530E0818D8A4B9
:10533800A0EF29F0A2EF29F0A6EF29F073EC36F0E0
:10534800A8EF29F054EC36F083908394000E0A6E8F
:10535800000E096E000E0C6E000E0B6E035004104A
:10536800D8A4B9EF29F0BBEF29F0BCEF29F083806E
:1053780005500610D8A4C3EF29F0C5EF29F0C6EFF1
:1053880029F08384CA8417EF2AF00350095C0A5075
:10539800800A076E0450800A0758D8B0D6EF29F063
:1053A800D8EF29F0EFEF29F082A2DDEF29F0DFEF47
:1053B80029F0EBEF29F009C001F00AC002F0A4ECD3
:1053C80035F001C009F002C00AF0F0EF29F0000E34
:1053D8005E6EF0EF29F0838005500B5C0C50800A5C
:1053E800076E0650800A0758D8B0FDEF29F0FFEF86
:1053F80029F016EF2AF082A404EF2AF006EF2AF02B
:1054080012EF2AF00BC001F00CC002F08CEC35F062
:1054180001C00BF002C00CF017EF2AF0000E5D6E11
:1054280017EF2AF083840350095C0A50800A076E3C
:105438000450800A0758D8A024EF2AF026EF2AF053
:10544800C9EF29F005500B5C0C50800A076E065016
:10545800800A0758D8A033EF2AF035EF2AF0C9EFB1
:1054680029F0000E5E6E000E0C6E000E0B6E000E24
:105478005D6ECA94120000016C6F000E00016F6F20
:10548800000E6E6F6C516E256D6F6E516825D96E6A
:105498006F516921DA6EDF50606F6D5140EC35F065
:1054A80000016E4B6F2B6FBF63EF2AF06F5109E15C
:1054B800030E6E5DD8A063EF2AF065EF2AF046EF81
:1054C8002AF08F0E606F7F0E616F000E636F040EFF
:1054D800626F22EC32F0000E0001716F000E706FE7
:1054E8006C517025030F6D6F705168256A6F71518B
:1054F80069216B6F040E6A25D96E000E6B21DA6E76
:10550800DF50606F6D5140EC35F00001704B712B2E
:1055180071BF98EF2AF0715109E1030E705DD8A0B0
:1055280098EF2AF09AEF2AF074EF2AF0940E606F41
:105538007F0E616F000E636F040E626F22EC32F013
:10554800000E0001736F000E726F6C517225060F0A
:105558006D6F725168256A6F735169216B6F080E00
:105568006A25D96E000E6B21DA6EDF50606F6D51BF
:1055780040EC35F00001724B732B73BFCDEF2AF06E
:10558800735109E1030E725DD8A0CDEF2AF0CFEF79
:105598002AF0A9EF2AF0990E606F7F0E616F000E56
:1055A800636F040E626F22EC32F012000001796F13
:1055B800000E00017F6F000E7E6F79517E25060F69
:1055C8007A6F7B0E7E25D96E000E7F21DA6E7A51B6
:1055D800B6EC36F0DF6E00017E4B7F2B7FBFFEEF0F
:1055E8002AF07F5109E1030E7E5DD8A0FEEF2AF074
:1055F80000EF2BF0E1EF2AF0000E816F000E806FB4
:105608007B0E8025D96E000E8121DA6E2F0EDF64A5
:1056180010EF2BF012EF2BF020EF2BF07B0E8025F4
:10562800D96E000E8121DA6E390EDF641EEF2BF081
:1056380020EF2BF023EF2BF0010E0101D36F0001B7
:10564800804B812B81BF32EF2BF0815109E1030E92
:10565800805DD8A032EF2BF034EF2BF004EF2BF065
:105668007B0E676F000E686F25EC28F076C0D9FFB7
:1056780077C0DAFF000167C0DEFF68C0DDFFFA0E01
:10568800606F7F0E616F000E636F020E626F22EC17
:1056980032F07B0E0001606F000E616F000E636FC9
:1056A800030E626F22EC32F0E8C160F0E9C161F0EC
:1056B80026EC35F0E8C160F0E9C161F073EC34F034
:1056C8001200000E0001696F67BF6FEF2BF06DEFDE
:1056D8002BF079EF2BF0671F661F651F646D000EB6
:1056E800652366236723010E696F63BF80EF2BF084
:1056F8007EEF2BF08AEF2BF0631F621F611F606D36
:10570800000E612362236323010E691B000E6A6F7A
:10571800000E6B6F000E6C6F000E6D6F645165119B
:1057280066116711D8B49BEF2BF09DEF2BF0D3EFE8
:105738002BF0010E686FA7EF2BF0D8906437653710
:1057480066376737682B67AFACEF2BF0AEEF2BF0FF
:10575800A1EF2BF0D8906A376B376C376D376451EF
:10576800605D655161596651625967516359D8A0A6
:10577800C0EF2BF0C2EF2BF0CBEF2BF06451605F42
:105788006551615B6651625B6751635B6A81D89062
:105798006733663365336433682FAEEF2BF0695196
:1057A800D8B4D9EF2BF0DBEF2BF0E3EF2BF06D1F24
:1057B8006C1F6B1F6A6D000E6B236C236D236AC010
:1057C80060F06BC061F06CC062F06DC063F01200F5
:1057D8000001796F000E00017F6F000E7E6F795116
:1057E8007E25030F7A6F7B0E7E25D96E000E7F21F2
:1057F800DA6E7A51B6EC36F0DF6E00017E4B7F2B05
:105808007FBF10EF2CF07F5109E1030E7E5DD8A019
:1058180010EF2CF012EF2CF0F3EF2BF0000E816F4D
:10582800000E806F7B0E8025D96E000E8121DA6E06
:105838002F0EDF6422EF2CF024EF2CF032EF2CF047
:105848007B0E8025D96E000E8121DA6E390EDF6459
:1058580030EF2CF032EF2CF035EF2CF0010E010177
:10586800D36F0001804B812B81BF44EF2CF0815115
:1058780009E1030E805DD8A044EF2CF046EF2CF030
:1058880016EF2CF07B0E676F000E686F25EC28F082
:1058980076C0D9FF77C0DAFF000167C0DEFF68C0B5
:1058A800DDFFF70E606F7F0E616F000E636F020EF3
:1058B800626F22EC32F07B0E0001606F000E616FA8
:1058C800000E636F030E626F22EC32F0EAC160F0E3
:1058D800EBC161F026EC35F012000001796F000E83
:1058E80000017F6F000E7E6F79517E257A6F7B0EE7
:1058F8007E25D96E000E7F21DA6E7A51B6EC36F02D
:10590800DF6E00017E4B7F2B7FBF94EF2CF07F5121
:1059180009E1030E7E5DD8A094EF2CF096EF2CF0F1
:1059280078EF2CF0000E816F000E806F7B0E8025C3
:10593800D96E000E8121DA6E2F0EDF64A6EF2CF0EF
:10594800A8EF2CF0B6EF2CF07B0E8025D96E000E58
:105958008121DA6E390EDF64B4EF2CF0B6EF2CF04B
:10596800B9EF2CF0010E0101D36F0001804B812BA0
:1059780081BFC8EF2CF0815109E1030E805DD8A0EA
:10598800C8EF2CF0CAEF2CF09AEF2CF07B0E676F63
:10599800000E686F25EC28F076C0D9FF77C0DAFFD3
:1059A800000167C0DEFF68C0DDFFF40E606F7F0E88
:1059B800616F000E636F020E626F22EC32F07B0E95
:1059C8000001606F000E616F000E636F030E626F5F
:1059D80022EC32F0ECC160F0EDC161F026EC35F05C
:1059E80012000001BA35BB35C16FC151D8A4FFEF11
:1059F8002CF001EF2DF00BEF2DF0000EB86F000E1C
:105A0800B96F000EBA6F000EBB6F78EF2DF0B8C0FB
:105A1800BCF0B9C0BDF0BAC0BEF0BBC0BFF0200E2C
:105A28001BEF2DF0D890BF33BE33BD33BC33E82E07
:105A380016EF2DF0BC51C06FBA8FFF0EB817FF0ECE
:105A4800B917FF0EBA17000EBB17960EC15FC1BF7C
:105A580032EF2DF030EF2DF048EF2DF0C151800AD4
:105A6800970FD8B03AEF2DF03CEF2DF03EEF2DF028
:105A780001EF2DF0D890BB33BA33B933B833C13FF7
:105A88003EEF2DF060EF2DF01F0EC1654EEF2DF0AB
:105A980050EF2DF058EF2DF001EF2DF0D890B837DA
:105AA800B937BA37BB37C107C151D8A45EEF2DF05B
:105AB80060EF2DF052EF2DF0C051D8B466EF2DF005
:105AC80068EF2DF070EF2DF0BB1FBA1FB91FB86D2E
